:100000000C94D9000C9401010C9401010C94010191
:100010000C9401010C9401010C9401010C94010158
:100020000C9401010C9401010C9401010C94010148
:100030000C9401010C9401010C9401010C94010138
:100040000C94DD190C9401010C9401010C94010134
:100050000C9401010C9401010C9401010C94010118
:100060000C9401010C940101626C6E6B696E660068
:1000700076657200312E302E3100682D6265617414
:1000800000343500627566662D696E0032353600C3
:100090006465760041726475696E6F20556E6F00FD
:1000A0006370750041546D65676133323850006389
:1000B0006F6E005735313030006275696C64004DE9
:1000C000617920203220323032332032333A3437D3
:1000D0003A313300000000000000250028002B000A
:1000E00000000000240027002A0000000000230078
:1000F0002600290004040404040404040202020289
:1001000002020303030303030102040810204080DA
:100110000102040810200102040810200000000859
:1001200000020100000304070000000000000000BE
:100130000401040104010401040104010401040197
:100140000401040104010401040104010401040187
:100150000401040104010401040104010401040177
:100160000401040104010401040104010401040167
:10017000E904030103010301030103010301030176
:10018000030103010301030103010301030103014F
:10019000030103010301030103010301030103013F
:1001A000030103010301030103010301030103012F
:1001B000CF1A11241FBECFEFD8E0DEBFCDBF11E0B4
:1001C000A0E0B1E0E4EEF5E402C005900D92AC3B96
:1001D000B107D9F722E0ACEBB1E001C01D92AB3C16
:1001E000B207E1F710E0C9EDD0E004C02197FE01AD
:1001F0000E94AE22C83DD107C9F70E946D1B0C9426
:10020000F0220C940000089508958CBD9DBD0895C2
:1002100020E3FC0120833296862F82958F706F70C9
:100220006A3030F4605D6293682F8111F5CF0895D4
:10023000695CF9CFFC01818D928D0895833081F046
:1002400028F4813099F08230A9F008958730A9F020
:100250008830C9F08430B1F4809180008F7D03C074
:10026000809180008F7780938000089584B58F7788
:1002700084BD089584B58F7DFBCF8091B0008F77CA
:100280008093B00008958091B0008F7DF9CF1F93C7
:10029000CF93DF93282F30E0F901E45EFE4F849185
:1002A000F901E85FFE4FD491F901EC50FF4FC49182
:1002B000CC23A9F0162F81110E941E01EC2FF0E033
:1002C000EE0FFF1FEA52FF4FA591B4918FB7F8943C
:1002D000EC91111108C0D095DE23DC938FBFDF9124
:1002E000CF911F910895DE2BF8CFCF93DF9390E04D
:1002F000FC01E85FFE4F24918C509F4FFC018491DC
:100300008823C9F090E0880F991FFC01E052FF4F4D
:10031000A591B491FC01EA52FF4FC591D4916111AE
:100320000DC09FB7F8948C91209582238C9388817F
:10033000282328839FBFDF91CF910895623051F425
:100340009FB7F8943C91822F809583238C93E8810A
:100350002E2BEFCF8FB7F894EC912E2B2C938FBFD1
:10036000EACF3FB7F8948091C1019091C201A0916A
:10037000C301B091C40126B5A89B05C02F3F19F059
:100380000196A11DB11D3FBFBA2FA92F982F882715
:10039000BC01CD01620F711D811D911D42E0660FF0
:1003A000771F881F991F4A95D1F708958F929F92C2
:1003B000AF92BF92CF92DF92EF92FF926B017C01DE
:1003C0000E94B1014B015C01C114D104E104F104AC
:1003D000B9F00E94B101681979098A099B09683E40
:1003E00073408105910580F321E0C21AD108E1082C
:1003F000F10888EE880E83E0981EA11CB11CE4CFA2
:10040000FF90EF90DF90CF90BF90AF909F908F9034
:1004100008952FB7F8946091BD017091BE0180914D
:10042000BF019091C0012FBF08954F925F926F92CC
:100430007F92AF92BF92CF92DF92EF92FF920F9393
:100440001F93CF93DF93EC016B017B01E40EF51E4C
:100450008B015801AC18BD080E151F0511F10E9443
:100460000902688779878A879B87E881F9810284F6
:10047000F385E02DCE01099597FF23C00E94090264
:10048000488459846A847B846419750986099709AC
:100490004C805D806E807F806415750586059705AC
:1004A00020F3C501DF91CF911F910F91FF90EF9045
:1004B000DF90CF90BF90AF907F906F905F904F9004
:1004C0000895F80181938F01C4CFFC0120812EBDD6
:1004D0009B012150310941F051810DB407FEFDCF40
:1004E0004EB55EBD4193F5CF61507109860F971FE0
:1004F0000DB407FEFDCF2EB5FC0120830895E091D9
:10050000C601F091C70180819091C501892B80833C
:100510000895E091C601F091C70190818091C501D5
:1005200080958923808308958EBD00000DB407FE59
:10053000FDCF8EB50895AF92BF92CF92DF92EF922A
:10054000FF920F931F93CF93DF93CDB7DEB728971A
:100550000FB6F894DEBF0FBECDBF8C017B016A01E0
:1005600080914F028333E1F45801A40EB51EA0160A
:10057000B10609F46FC00E94890280EF0E949402C4
:10058000812F0E949402802F0E9494020F5F1F4FC0
:10059000F70181917F010E9494020E947F02E7CFC0
:1005A0005B01A40EB51E8433C1F40E948902198335
:1005B0000A838D2D80688B83CC8264E070E0CE014D
:1005C00001960E946502AE14BF0409F441C0F70110
:1005D00081917F010E949402F6CF0E9489020F3F11
:1005E000110509F028F419820A8384E08B830CC07A
:1005F00017FD17C019820A8333E0169507953A95BF
:10060000E1F7007E0C600B8386E0C816D104A0F5EC
:10061000F701DE011496EA15FB0599F081918D939F
:10062000FACFC80126E0969587952A95E1F7807E56
:1006300019830A830115104C10F48461D7CF8C61A3
:10064000D5CFB6016D5F7F4FCE0101960E94650246
:100650000E947F02C60128960FB6F894DEBF0FBE37
:10066000CDBFDF91CF911F910F91FF90EF90DF9061
:10067000CF90BF90AF90089563E070E0CE010196F7
:100680000E946502F70181917F010E949402AE14DD
:10069000BF04C1F7DDCFCF93DF931F92CDB7DEB795
:1006A000898341E050E0BE016F5F7F4F90E080E0C2
:1006B0000E949B020F90DF91CF91089590E02091CE
:1006C0004F02233339F40C96982F990F990F990FF5
:1006D00080E008954896F8CFDA01E091C901F0E092
:1006E000FE2FEE27E60FF71F90E0982F8827A9012D
:1006F000BD018E0F9F1F0C949B02CF93DF9300D000
:10070000CDB7DEB779836A8322E030E0AE014F5F78
:100710005F4F60E170E00E946C030F900F90DF91DB
:10072000CF910895CF93DF9300D0CDB7DEB7798313
:100730006A8322E030E0AE014F5F5F4F64E070E01B
:100740000E946C030F900F90DF91CF910895CF938B
:10075000DF931F92CDB7DEB72091C90130E0322F71
:100760002227260F371F90E0982F8827498341E0E2
:1007700050E0BE016F5F7F4F820F931F0E949B026C
:100780000F90DF91CF910895CF93DF931F92CDB754
:10079000DEB76983DC01ED91FC910280F381E02DED
:1007A00041E050E0BE016F5F7F4F09950F90DF91F0
:1007B000CF910895FC019485FB018485981303C0B3
:1007C00081E0943008F080E00895CF93DF931F928A
:1007D000CDB7DEB76983DC01ED91FC910280F38136
:1007E000E02D41E050E0BE016F5F7F4F09950F9013
:1007F000DF91CF9108950895FF920F931F93CF93A8
:10080000DF93EB01FC01178A168A2A81211109C0A6
:100810002B81211106C02C81211103C02D8122239F
:1008200001F141155105E9F08A01FC01F08C80E5E8
:1008300091E00E940501AE014E5F5F4F24E030E081
:100840006CE070E08F2D0E946C03B8018F2D0E9428
:100850007D0381E090E0DF91CF911F910F91FF9098
:10086000089580E0F7CFFC01848595850895FC010B
:100870008489958908952FE831E0FC013183208334
:10088000FB014089518962897389FC01428353834A
:10089000648375830895DC01ED91FC91048CF58DE2
:1008A000E02D099490E080E00895FC01948599235F
:1008B00069F080819181DC01ED91FC910688F789D6
:1008C000E02D099591E0811101C090E0892F0895F4
:1008D000DC011C961C921C978D919C91DC01ED9182
:1008E000FC910488F589E02D0994FC0176876587E1
:1008F0000895DC01ED91FC91068CF78DE02D0995B2
:1009000091E089270895862F089581E0862708952C
:1009100021E0FC018485843008F020E0822F0895D6
:100920008F929F92AF92BF92EF92FF920F931F937D
:10093000CF93DF93CDB7DEB7A1970FB6F894DEBFA4
:100940000FBECDBF7C01FA01CB0119A2223008F401
:100950002AE08E010F5D1F4F822E912CB12CA12C0D
:10096000BF01A50194010E947622F901CA016A30F3
:1009700074F5605DD8016E938D01232B242B252BFC
:1009800079F790E080E0109789F0FD010190002058
:10099000E9F73197AF014A1B5B0BD701ED91FC9151
:1009A0000280F381E02DB801C7010995A1960FB629
:1009B000F894DEBF0FBECDBFDF91CF911F910F9195
:1009C000FF90EF90BF90AF909F908F900895695CDB
:1009D000D1CFFB01808191810E94A42161E0892B0C
:1009E00009F460E082E00C9447018F929F92AF92ED
:1009F000BF92CF92DF92EF92FF920F931F93CF930C
:100A0000DF937C01EB016C0182E0C80ED11C470131
:100A1000E5E08E0E911C10E000E0F60141916F01BF
:100A200050E070E060E02AE0CE010E9490045C019A
:100A3000E881F9810190F081E02D6EE2CE01099507
:100A40008A0D9B1D080F191FC814D90431F7F7012F
:100A5000458150E070E060E02AE0CE010E94900401
:100A6000800F911FDF91CF911F910F91FF90EF9019
:100A7000DF90CF90BF90AF909F908F900895AF92EE
:100A8000BF92CF92DF92EF92FF920F931F93CF937B
:100A9000DF9300D000D0CDB7DEB78C016B017A01B7
:100AA00080914F028333E9F45B016801C40ED51EC7
:100AB000C016D106A9F10E9489028FE00E9494021B
:100AC000812F0E949402802F0E9494020F5F1F4F7B
:100AD00080E00E949402F50181935F010E947F02F1
:100AE000E7CF843369F50E94890219830A838F2D29
:100AF0008F778B83EC8264E070E0CE0101960E94D8
:100B00006502A70170E060E0C6010E94CA22E114FC
:100B1000F10421F0B701C6010E9465020E947F0224
:100B2000C7010F900F900F900F90DF91CF911F9101
:100B30000F91FF90EF90DF90CF90BF90AF9008950E
:100B40000E9489020F3F110509F030F419820A83CF
:100B50001B8263E070E0D1CF17FD0BC019820A83BE
:100B600033E0169507953A95E1F7007E08600B8310
:100B7000F0CFC80126E0969587952A95E1F7807E0B
:100B800019830A830115104C18F480618B83E1CF1F
:100B90008861FCCFCF93DF931F92CDB7DEB7209152
:100BA000C90130E0322F2227260F371F90E0982FFF
:100BB000882741E050E0BE016F5F7F4F820F931F97
:100BC0000E943F0589810F90DF91CF910895CF93C7
:100BD000C82F462F61E070E00E94A70361E070E03B
:100BE0008C2F0E94CA058111F9CFCF910895CF9320
:100BF000C82F80E591E00E94050168E070E08C2F2D
:100C0000CF910C94E705CF93C82F80E591E00E9427
:100C1000050160E170E08C2FCF910C94E705CF9334
:100C2000DF93EC01888D843020F40E94030684E079
:100C3000888FDF91CF910895CF93C82F80E591E001
:100C40000E94050163E070E08C2FCF910C94CA05DF
:100C5000CF93DF93EC018C858430D0F40E941C0686
:100C6000843189F0882379F0883169F021E08C3172
:100C700059F4E881F9810084F185E02DCE010995D0
:100C800021E0892B09F420E0822FDF91CF91089594
:100C900080E0FBCFCF92DF92EF92FF92CF93DF9372
:100CA000EC018C85843068F40E94F7050E940902EB
:100CB0006B017C018C850E941C06811109C084E0B7
:100CC0008C87DF91CF91FF90EF90DF90CF900895C8
:100CD00061E070E080E090E00E94D6010E9409028D
:100CE000AB01BC014C195D096E097F098D859E859C
:100CF000B0E0A0E0481759076A077B07D8F28C8557
:100D00000E940306DCCFCF93FC01C08D80E591E00B
:100D10000E94050160E270E08C2F0E94E70562E00E
:100D200070E08C2F0E94CA0584FD16C062E070E05E
:100D30008C2F0E94CA0583FF0AC048E162E070E080
:100D40008C2F0E94A70380E090E0CF91089580E56A
:100D500091E00E940501E3CF40E162E070E08C2F5A
:100D60000E94A70381E0F0CFCF93DF931F92CDB70E
:100D7000DEB741E050E0BE016F5F7F4F90E080E062
:100D80000E943F0589810F90DF91CF910895CF9305
:100D9000DF93C4E1D0E00E94B406882361F061E0F3
:100DA00070E080E090E00E94D6012197A1F780E0FA
:100DB000DF91CF91089581E0FBCF1F93CF93DF9315
:100DC0001F92CDB7DEB7182F80E591E00E94050194
:100DD000812F0E945E0327E0129FF0011124ED5C39
:100DE000FD4F22813381377041E050E0BE016F5FDB
:100DF0007F4F820F931F0E943F0589810F90DF91E3
:100E0000CF911F910895FC01808D843040F4218D95
:100E1000328D232B21F00E94DD0690E008958FEFA4
:100E20009FEF0895CF93DF93FC012485243028F0B1
:100E30008FEF9FEFDF91CF910895EC010190F0814A
:100E4000E02D0084F185E02D0995892B89F38C85AF
:100E50000E94DD0690E0EECFDA01E091C901F0E0FA
:100E6000FE2FEE27E60FF71F90E0982F8827A901A5
:100E7000BD018E0F9F1F0C943F058F929F92AF92E2
:100E8000BF92CF92DF92EF92FF921F93CF93DF93A7
:100E9000CDB7DEB72C970FB6F894DEBF0FBECDBF2F
:100EA00020914F0214E0222339F16B017C0180E58F
:100EB00091E00E9405015E0127E0A20EB11C4501F0
:100EC00010E063E070E0812F0E94CA05F401819375
:100ED0004F01882349F11F5F143099F710E0F501A5
:100EE00081915F018D31D9F08831C9F08A5182300A
:100EF000B0F01F5F143099F7812F2C960FB6F8943D
:100F0000DEBF0FBECDBFDF91CF911F91FF90EF905D
:100F1000DF90CF90BF90AF909F908F90089560E149
:100F200070E0812F0E94E705A12EB12C83EE93E0A3
:100F30000197F1F742E870E060E0812F0E94A7037B
:100F40004FEF62E070E0812F0E94A703B601C11449
:100F5000D10491F480912101909122010196811593
:100F6000F0EC9F0708F45CC090932201809321016C
:100F70006091210170912201812F0E94920386E0ED
:100F8000EDE2F1E0DE01119601900D928A95E1F714
:100F9000F70183818F778C8384818D8385818E8314
:100FA000A7014E5F5F4F24E030E06CE070E0812FDE
:100FB0000E946C03B601812F0E947D0326E030E081
:100FC000AE014F5F5F4F66E070E0812F0E946C03BF
:100FD00061E070E0812F0E94E70527E02A9DC001B3
:100FE0002B9D900D11249C012D5C3D4F7901F90141
:100FF0001182108222E030E0AE01455F5F4F68E26F
:1010000070E0812F0E942C078B859C85982789276B
:101010009827F701938382831682158214826CCFFE
:1010200080E090ECA1CFCF92DF92EF92FF920F93EE
:101030001F93CF93DF9300D000D000D0CDB7DEB7A1
:101040008C016B017A01FC01808D843010F40E94C8
:1010500003068FE891E09A838983F6018281938168
:10106000A481B5818B839C83AD83BE83B701CE0100
:1010700001960E943D07F801808F8430A0F4F58628
:10108000E486128E118E81E026960FB6F894DEBFAC
:101090000FBECDBFDF91CF911F910F91FF90EF90C9
:1010A000DF90CF90089580E0EFCFAF92BF92CF92C4
:1010B000DF92EF92FF920F931F93CF93DF9300D0B5
:1010C00000D000D0CDB7DEB7082F6B0180E591E0EE
:1010D0000E9405019E012F5F3F4F7901590110E0E9
:1010E00063E070E0812F0E94CA05F50181935F01E2
:1010F000882341F11F5F143099F710E0F7018191C7
:101100007F018D31D1F08831C1F08A518230A8F051
:101110001F5F143099F7812F26960FB6F894DEBF23
:101120000FBECDBFDF91CF911F910F91FF90EF9038
:10113000DF90CF90BF90AF90089560E170E0812F75
:101140000E94E705E12EF12C83EE93E00197F1F781
:10115000402F70E060E0812F0E94A7034FEF62E014
:1011600070E0812F0E94A703B601CD2889F48091F9
:1011700021019091220101968115F0EC9F0798F1D1
:1011800090932201809321016091210170912201AD
:10119000812F0E94920361E070E0812F0E94E70599
:1011A00027E02E9DC0012F9D900D11249C012D5CE8
:1011B0003D4F7901F9011182108222E030E0AE0149
:1011C0004B5F5F4F68E270E0812F0E942C078D819A
:1011D0009E81982789279827F70193838283168217
:1011E0001582148298CF80E090ECCACFCF92DF9224
:1011F000EF92FF921F93CF93DF93EC017B016A0183
:101200008C85843048F40E941C06882319F08C8554
:101210000E94F70584E08C87F70182819381A48185
:10122000B5810097A105B10551F490E080E0DF9110
:10123000CF911F91FF90EF90DF90CF9008958F3F57
:101240009F4FAF4FBF4F89F380914F02811103C071
:1012500084E08C87EACF70E060E081E20E9455086C
:10126000182F8C87843008F780E591E00E940501F3
:10127000A7014E5F5F4F24E030E06CE070E0812F0B
:101280000E946C03B601812F0E947D0364E070E030
:10129000812F0E94E7050E9409026B017C018C8569
:1012A0000E941C06873109F18C31F9F0882309F47A
:1012B000BCCF0E940902AB01BC014C195D096E094B
:1012C0007F098D859E85B0E0A0E084179507A6076D
:1012D000B70738F061E070E080E090E00E94D6014E
:1012E000DECF8C850E940306B3CF81E090E09FCFD4
:1012F0000F931F93CF93DF93EC018B01888D843084
:1013000010F40E94030680914F02811107C094E0FF
:10131000988FDF91CF911F910F910895B80182E0CE
:101320000E945508888F843030F41D870C871A8EF0
:10133000198E81E0EECF80E0ECCF7F928F929F926A
:10134000AF92BF92CF92DF92EF92FF920F931F93D3
:10135000CF93DF9300D0CDB7DEB7782E8B014A0153
:10136000590122E030E0AE014F5F5F4F64E270E070
:101370000E942C07E980FA80FE24EF24FE24E00E70
:10138000F11E9701377040914F02072D10E0433353
:1013900009F042C0085F1F4F102F0027110F110FD7
:1013A000110FC901800F911F4733C9F1A9014A0DDF
:1013B0005B1D4130584098F160E078E06B01C21A43
:1013C000D30AA601B4010E949B02A5014C195D0934
:1013D000B4016C0D7D1DC8010E949B02EA0CFB1C30
:1013E000F982EA8222E030E0AE014F5F5F4F64E2B3
:1013F00070E0872D0E946C030F900F90DF91CF91CA
:101400001F910F91FF90EF90DF90CF90BF90AF9022
:101410009F908F907F900895005F1F4FBDCFA501D3
:10142000B401DACFEF92FF921F93CF93DF9300D0F6
:10143000CDB7DEB7182F22E030E0AE014F5F5F4F2F
:1014400060E270E00E942C07E980FA80FE24EF241D
:10145000FE2422E030E0AE014F5F5F4F60E270E0BB
:10146000812F0E942C0789819A81982789279827A4
:10147000E816F90689F487E0189FF0011124ED5C65
:10148000FD4FF582E482C7010F900F90DF91CF915D
:101490001F91FF90EF9008957C01DBCF1F93CF93B6
:1014A000DF93182F80E591E00E940501812F0E94B3
:1014B000120AEC0163E070E0812F0E94CA058731B7
:1014C00021F08C3111F0D0E0C0E0CE01DF91CF915E
:1014D0001F910895CF93DF93EC018C85843060F4E5
:1014E0000E941C06873111F08C3131F48C850E94EA
:1014F0004E0A8115984088F3DF91CF910895FC0141
:101500008485843010F40C944E0A90E080E00895B5
:101510009F92AF92BF92CF92DF92EF92FF920F9382
:101520001F93CF93DF938C015B01942EE52EFC017A
:10153000C688D788F08C80E591E00E9405018F2D48
:101540000E94120AC92DDE2D8C179D0708F4EC01AC
:101550009E01A501B6018F2D0E949D09F801868983
:1015600097898C0F9D1F978B868BCE01DF91CF9132
:101570001F910F91FF90EF90DF90CF90BF90AF90B1
:101580009F9008958F929F92AF92BF92CF92DF92D9
:10159000EF92FF920F931F93CF936C015B018A012F
:1015A000FC01C485C430F0F57A014130584018F090
:1015B000E12C88E0F82E80E591E00E9405018C2F57
:1015C0000E94120A4C0163E070E08C2F0E94CA0551
:1015D000873111F08C3149F58E149F0460F380E55A
:1015E00091E00E9405019701A50170E060E08C2F59
:1015F0000E949D0960E270E08C2F0E94E70562E086
:1016000070E08C2F0E94CA0584FD17C063E070E073
:101610008C2F0E94CA0581110BC081E090E0F60179
:101620009383828310E000E010C0F12CE12CD7CF2F
:1016300080E591E00E940501E2CF40E162E070E0C8
:101640008C2F0E94A703EF2841F3C801CF911F916F
:101650000F91FF90EF90DF90CF90BF90AF909F9051
:101660008F900895FF920F931F93CF93DF9300D035
:10167000CDB7DEB7F82E22E030E0AE014F5F5F4F0E
:1016800066E270E00E942C0709811A811027012769
:10169000102722E030E0AE014F5F5F4F66E270E05E
:1016A0008F2D0E942C0789819A8198278927982756
:1016B0000817190749F4C8010F900F90DF91CF91D7
:1016C0001F910F91FF9008958C01E3CF1F93CF934B
:1016D000DF93182F87E0189FE0011124CD5CDD4FC8
:1016E00088819981009761F480E591E00E9405016D
:1016F000812F0E94320B2E81821B9109998388834E
:10170000DF91CF911F910895FC018485843010F4FE
:101710000C94660B90E080E008954F925F927F9268
:101720008F929F92AF92BF92CF92DF92EF92FF92F1
:101730000F931F93CF93DF9300D0CDB7DEB7782EF2
:101740006B014A01A82EB12C27E0829FC001112411
:10175000FC01ED5CFD4F7F010081118180E591E08E
:101760000E9405010815190554F4872D0E94320BBB
:10177000F70126818C01021B1109118300830115D9
:10178000110529F563E070E0872D0E94CA058431B8
:1017900059F0882349F001E010E08C3111F410E099
:1017A00000E0119501951109C8010F900F90DF918C
:1017B000CF911F910F91FF90EF90DF90CF90BF904E
:1017C000AF909F908F907F905F904F90089580167C
:1017D00091060CF4840187E08A9DF0018B9DF00D49
:1017E0001124ED5CFD4FE280F380C114D10451F16E
:1017F0002701F7E05F22872D0E945E03840D951D6F
:1018000020914F02273309F453C09801240D351D50
:101810002130384008F44CC020E038E049018418F9
:101820009508A401B6010E943F052601480C591CE9
:101830006801C818D908872D0E945E03A601B2016D
:101840000E943F05E00EF11E87E08A9DF0018B9D0E
:10185000F00D1124ED5CFD4FF382E2822081318195
:10186000201B310B318320838681800F912F911DA6
:101870008A3F910510F4232BF1F487E08A9DF00153
:101880008B9DF00D1124ED5CFD4F1682F982EA82EA
:1018900022E030E0AE014F5F5F4F68E270E0872DDD
:1018A0000E946C0360E470E0872D0E94E7057CCF06
:1018B000A801B601C5CF868377CFCF93DF93FC0114
:1018C000218D328D2115310529F48FEF9FEFDF91A6
:1018D000CF910895EC01808D4217530708F0A901BC
:1018E0000E948D0B1816190684F7298D3A8D281B36
:1018F000390B3A8F298FEBCF0F931F93CF93DF9341
:101900001F92CDB7DEB7FC01218D328D232B41F420
:101910008FEF9FEF0F90DF91CF911F910F9108955F
:101920008C0141E050E0BE016F5F7F4FFC01808D74
:101930000E948D0B181619065CF7F801818D928DA7
:101940000197928F818F898190E0E4CFCF93DF93CD
:101950001F92CDB7DEB741E050E0BE016F5F7F4F11
:10196000FC0184850E948D0B1816190634F48981B8
:1019700090E00F90DF91CF9108958FEF9FEFF9CF17
:10198000FC018485843010F40C948D0B90E080E091
:1019900008950F931F93CF93DF9300D0CDB7DEB799
:1019A000FC0124852430E0F48C0180E591E00E9464
:1019B000050122E030E0AE014F5F5F4F60E170E073
:1019C000F80184850E942C0789819A8198278927AC
:1019D00098270F900F90DF91CF911F910F9108954D
:1019E00090E080E0F6CF0F931F93CF93DF9300D06A
:1019F000CDB7DEB7FC0124852430E0F48C0180E50E
:101A000091E00E94050122E030E0AE014F5F5F4FA0
:101A100064E070E0F80184850E942C0789819A8136
:101A20009827892798270F900F90DF91CF911F91CA
:101A30000F91089590E080E0F6CFDC018FE891E00F
:101A40008D939D9384E0FB0101900D928A95E1F7BF
:101A50000895EF92FF920F931F93CF93DF9300D0DF
:101A600000D0CDB7DEB78C017B01FB0184858430CB
:101A7000A8F08FE891E0F8019183808312821382AD
:101A800014821582C8010F900F900F900F90DF9174
:101A9000CF911F910F91FF90EF90089580E591E015
:101AA0000E94050124E030E0AE014F5F5F4F6CE023
:101AB00070E0F70184850E942C07BE016F5F7F4FA5
:101AC000C8010E941D0DDECF0F931F93CF93DF93AC
:101AD000CDB7DEB728970FB6F894DEBF0FBECDBFE7
:101AE0008C01D80159964D915C915A974115510539
:101AF00051F0ED91FC91048CF58DE02D70E060E0EB
:101B0000C8010995EECFF801808D0E94660B892BE4
:101B1000B1F148E050E0BE016F5F7F4FD8015896A9
:101B20008C910E948D0B18161906F4F4D80150966A
:101B300084E0FE01319601900D928A95E1F78D8146
:101B400090E0982F88272E81820F911DF801958BA8
:101B5000848B8F81282F30E0322F22278885820FB7
:101B6000932F911D928F818F28960FB6F894DEBF28
:101B70000FBECDBFDF91CF911F910F91089590E0DF
:101B800080E0F2CF4F925F926F927F928F929F92FE
:101B9000AF92BF92CF92DF92EF92FF920F931F937B
:101BA000CF93DF93CDB7DEB763970FB6F894DEBF60
:101BB0000FBECDBF7C016B013A01FB0120E090E03C
:101BC00080E06AE03191332309F461C040ED430FB6
:101BD0004A3008F04DC0689FA001699F500D112444
:101BE000CA01C097830F911D37FD9A958F3F9105CC
:101BF00049F340F3F70142815381648175818091FB
:101C00007C0290917D02A0917E02B0917F024817E4
:101C100059076A077B0709F40DC28701085F1F4F48
:101C20000E9409026F7077277C5FC8010E947809C3
:101C3000813009F004C28FE891E09A838983F7012B
:101C400082819381A481B5818B839C83AD83BE8384
:101C500045E350E0BE016F5F7F4FC8010E94FC0367
:101C6000892BA9F5D12CC12CC8010E940F0617C0E1
:101C70003E3209F0BFCF233009F4BCCFD301A20F0D
:101C8000B11D12968C932F5F90E080E09BCF2330A4
:101C900009F0B0CFF3018583CC24C394D12CC601C5
:101CA00063960FB6F894DEBF0FBECDBFDF91CF9124
:101CB0001F910F91FF90EF90DF90CF90BF90AF906A
:101CC0009F908F907F906F905F904F9008950E94AB
:101CD0000902F7017783668342E050E0B7016A5F4B
:101CE0007F4FC8010E94880A81E090E09A8389832F
:101CF00042E050E0BE016F5F7F4FC8010E94880A3A
:101D000080E091E09A83898342E050E0BE016F5FFA
:101D10007F4FC8010E94880A1A82198242E050E06F
:101D2000BE016F5F7F4FC8010E94880A42E050E009
:101D3000BE016F5F7F4FC8010E94880A42E050E0F9
:101D4000BE016F5F7F4FC8010E94880A5601F601ED
:101D50008081882301F16501F60181912F0188239B
:101D600011F08E32B1F446018A189B081814190438
:101D700074F48D8641E050E0BE01635F7F4FC8017F
:101D80000E94880AA401B501C8010E94880A520174
:101D9000DECF6201E1CF1D8641E050E0BE01635F0E
:101DA0007F4FC8010E94880AC12CDD24D394DA82B7
:101DB000C98242E050E0BE016F5F7F4FC8010E94C0
:101DC000880ADA82C98242E050E0BE016F5F7F4F2D
:101DD000C8010E94880AC8010E948306892B09F461
:101DE00041CFF3E0AF2EB12C230122E0420E511C73
:101DF000D4C0F7014281538164817581808D918DBA
:101E0000A28DB38D481759076A077B0709F008C1EF
:101E1000848D958DC59709F003C181A192A15DEFD5
:101E2000C52EDD24DA940C970CF4ADC04CE050E0E4
:101E3000BE016F5F7F4FC8010E945D0C8B819C814A
:101E40009827892798279A8B898BF7014681578194
:101E500029813A814217530709F0E7C097FFE5C08F
:101E60008F7092703BEFC32EDD24DA94892B09F03A
:101E70008AC06F8078847624672476242AEFC22E65
:101E8000DD24DA946114710409F47DC0D12CC12CD5
:101E90008D819E81982789279827C816D906F8F43E
:101EA00041E050E0BE01635F7F4FC8010E945D0CBE
:101EB0004D85442331F050E070E060E0C8010E949D
:101EC0005D0C8D858111ECCF44E050E070E060E066
:101ED000C8010E945D0CFFEFCF1ADF0AD9CF912C09
:101EE000812C41E050E0BE016D5E7F4FC8010E9431
:101EF0005D0C4B89842F807C09F06CC0442331F049
:101F000050E070E060E0C8010E945D0C8B89811197
:101F1000E8CF42E050E0BE01615F7F4FC8010E9400
:101F20005D0C42E050E0BE01635F7F4FC8010E943C
:101F30005D0C44E050E070E060E0C8010E945D0C80
:101F400042E050E0BE016F5E7F4FC8010E945D0C11
:101F50008F85988949895A898115914009F043C034
:101F6000CD84DE84DC24CD24DC2481E0C816D104B9
:101F7000D1F54115544009F04AC044E050E0B201A7
:101F8000C8010E945D0C21E0A21AB10809F46CCED0
:101F9000FFEFCF16DF0609F067CE0E9409023B0172
:101FA0004C01C8010E94640D181619060CF421CFCB
:101FB0000E940902661977098809990969387341ED
:101FC0008105910548F562E370E080E090E00E94B1
:101FD000D601E7CF41E050E070E060E0C8010E9428
:101FE0005D0C1B8A93CF54274527542770E060E08F
:101FF000C8010E945D0CFFEF8F1A9F0A68147904D4
:1020000009F06FCF96EFC92EDD24DA94BCCFE7EF4D
:10201000CE2EDD24DA94B7CFCC24CA94DC2CB3CFF7
:102020006EEFC62EDD24DA94AECF4CEFC42EDD2445
:10203000DA94A9CF8EEFC82EDD24DA9430CED12CDD
:10204000C12C2DCECF92DF92EF92FF920F931F9370
:10205000CF93DF93CDB7DEB7AF970FB6F894DEBF5F
:102060000FBECDBF7C016A010FE811E01A8309831E
:102070001C861B8688EE93E0A0E0B0E08D879E87EB
:10208000AF87B88B87E391E09A878987188F0F8B8A
:10209000198E1A8E1B8E1C8E84E089A31BA70AA79B
:1020A0001CA61DA61EA61FA680917002909171020B
:1020B000A0917202B09173028EA39FA3A8A7B9A7A3
:1020C0008B839C83AD83BE8318861F82AE01465DE1
:1020D0005F4FCE0101960E94C20D81309105B1F48F
:1020E000D701ED91FC910488F589E02D1DA30CA387
:1020F0008CA59DA5AEA5BFA58EA39FA3A8A7B9A794
:10210000A601BE016C5D7F4FC7010995AF960FB662
:10211000F894DEBF0FBECDBFDF91CF911F910F911D
:10212000FF90EF90DF90CF900895CF92DF92EF92E3
:10213000FF920F931F93CF93DF93CDB7DEB7AF9787
:102140000FB6F894DEBF0FBECDBF8C016B017A01D4
:102150008FE891E09A8389831B821C821D821E82F4
:102160001C861B8648EE53E060E070E04D875E877A
:102170006F87788B27E331E03A872987988F8F8B99
:10218000198E1A8E1B8E1C8E24E029A39BA78AA76A
:102190001CA61DA61EA61FA6D8011C968C918430D5
:1021A00060F40E941C06882321F0F80184850E94B7
:1021B000F70584E0D8011C968C9380917002909171
:1021C0007102A0917202B09173028EA39FA3A8A77F
:1021D000B9A78B839C83AD83BE8318861F82AE0113
:1021E000465D5F4FB601CE0101960E94C20D009779
:1021F000C1F0D801ED91FC910684F785E02D8FE8C0
:1022000091E09DA38CA38CA59DA5AEA5BFA58EA393
:102210009FA3A8A7B9A7A701BE016C5D7F4FC80106
:102220000995AF960FB6F894DEBF0FBECDBFDF9114
:10223000CF911F910F91FF90EF90DF90CF90089575
:102240003F924F925F926F927F928F929F92AF9246
:10225000BF92CF92DF92EF92FF920F931F93CF9393
:10226000DF93CDB7DEB7EA970FB6F894DEBF0FBEA7
:10227000CDBF7C012A013B0169010E9409024B018B
:102280005C0187010D5B1F4FC8010E94640D181689
:1022900019069CF00E940902681979098A099B09AC
:1022A000461657066806790608F466C162E370E0D0
:1022B00080E090E00E94D601E7CF42E250E0BE010C
:1022C0006F5F7F4FC8010E945D0C89818230D1F021
:1022D000312C832DEA960FB6F894DEBF0FBECDBF2A
:1022E000DF91CF911F910F91FF90EF90DF90CF90F2
:1022F000BF90AF909F908F907F906F905F904F9026
:102300003F900895F801848995898334910501F7F8
:102310006D817E818F8198850E94A7224B015C018F
:10232000F60180829182A282B38246E050E0B7013A
:10233000685F7F4FCE014D960E94B422892B41F6F3
:10234000F70180819181A281B38188169906AA063E
:10235000BB0608F4BDCF84819581A681B78188151D
:102360009905AA05BB0508F4B3CF89899A89AB8979
:10237000BC8986879787A08BB18B4EEC50E070E0CC
:1023800060E0C8010E945D0C312CC701829698ABB9
:102390008FA7F701B696FAABE9AB08969CAB8BAB6F
:1023A00067019AE1C90ED11CBD96FEABEDABC7012A
:1023B000429698AF8FABFD97FAAFE9AF4701FEE1C8
:1023C0008F0E911CF801818D928D181619060CF054
:1023D00080CFC8010E947C0C8333910509F4B2C000
:1023E00014F58130910509F464C044F4892B51F34C
:1023F000C8010E947C0CAC01552775C08330910543
:1024000009F462C00697A1F7C8010E947C0CB82E9F
:1024100044E050E0B401C8010E945D0CEB2DE45093
:10242000FF0BAF0160C08A33910509F45FC084F5EA
:1024300085339105B1F1C697D9F6C8010E947C0C8D
:102440005C01B601CE0189960E941D0D8BA59CA54D
:10245000ADA5BEA5892B8A2B8B2BB1F0EDA9FEA9CA
:102460004080518062807380B601CE0183960E94C5
:102470001D0D8DA19EA1AFA1B8A5A50148165906B5
:102480006A067B0609F0B8CF44E050E0B60118C0F8
:102490008B33910509F440C08F3F910509F492CF29
:1024A000A7CFC8010E947C0CC8010E947C0C382E6A
:1024B00089CFC8010E947C0C44E050E06FA978AD40
:1024C000C8010E945D0C7ECFC8010E947C0CB82E12
:1024D00044E050E069AD7AADC8010E945D0C8B2DDF
:1024E0008450990BAC0170E060E0EACFC8010E9413
:1024F0007C0C44E050E069A97AA9C8010E945D0CF7
:10250000F70166A177A180A591A50E94A72266A3E5
:1025100077A380A791A756CFC8010E947C0C44E006
:1025200050E06BA97CA9C8010E945D0CF70162A56F
:1025300073A584A595A50E94A72262A773A784A767
:1025400095A740CFC8010E947C0C44E050E06FA5E5
:1025500078A9C8010E945D0CF70162A173A184A152
:1025600095A10E94A72262A373A384A395A366A743
:1025700077A780AB91AB26CF33243A94AACE7F9233
:102580008F929F92AF92BF92CF92DF92EF92FF9283
:102590000F931F93CF93DF93CDB7DEB7A6970FB6F8
:1025A000F894DEBF0FBECDBF8C01762E942E852E03
:1025B00020E2A22ECE0101967C01DC01EA2D1D92C3
:1025C000EA95E9F76801F3E4CF0ED11C8FE891E0BA
:1025D0009AA389A38FEF8BA38CA38DA38EA343E42F
:1025E00050E0BE016F5D7F4FC6010E94FC03019663
:1025F00009F4BFC081E089838A8386E0B82EBB825C
:102600001C82D80114966D917D918D919C911797A4
:102610000E94A7226D837E838F83988789869A86FE
:1026200080E890E09C878B874CE150E0B701C601C1
:102630000E94880AFE0137968AE1DF011D928A9581
:10264000E9F74801B8E08B0E911CF401D701019025
:102650000D92BA94E1F740E150E0B701C6010E9443
:10266000880AF7011192AA94E9F796E0A92EB12CF5
:1026700040E250E0B701C6010E94880AF1E0AF1ABB
:10268000B108B1F783E6898392E89A8393E59B8347
:102690008C8385E38D8381E08E837F829DE39887A1
:1026A00097E099878A8786E0F401DE011B96019006
:1026B0000D928A95E1F78CE0898B8A8B61E971E054
:1026C000CE0143960E94DA22D8011B966C91CE016E
:1026D00049960E940801F8016485CE014B960E943C
:1026E0000801D8011D966C91CE014D960E940801FB
:1026F0004EE150E0B701C6010E94880AB3E07B12A8
:102700001EC082E3898384E08A83F80196859B83D7
:1027100097859C8390899D8391899E8396E39F836F
:102720008887828D8987838D8A87848D8B87858D25
:102730008C874CE050E0B701C6010E94880A87E30D
:10274000898386E08A8391E09B8393E09C838D83D9
:102750008FE08E838AE38F838BE388878FEF89876F
:1027600049E050E0B701C6010E94880AC6010E94F4
:102770008306A6960FB6F894DEBF0FBECDBFDF91DD
:10278000CF911F910F91FF90EF90DF90CF90BF906E
:10279000AF909F908F907F9008953F924F925F925D
:1027A0006F927F928F929F92AF92BF92CF92DF9261
:1027B000EF92FF920F931F93CF93DF93CDB7DEB7C6
:1027C000A3970FB6F894DEBF0FBECDBF6C010DB757
:1027D0001EB71BA30AA360E070E0CB010E94D601E4
:1027E000D60157968D919C915897B12C029709F478
:1027F00098C056968C9156978F5F56968C935697A5
:1028000054962D913C91232B19F0BB24B39482C094
:102810008330D8F7F601808191810E945504882386
:1028200009F4ABC38E010F5F1F4F480150E1452EE5
:10283000512CD601ED91FC9180819181DC01ED91CB
:10284000FC910084F185E02D0995181619060CF00D
:1028500094C3D601ED91FC9145E050E0BE01695E64
:102860007F4F808191810E941502009711F3059797
:1028700009F04AC0888D998D982789279827998FC4
:10288000888F0A8D1B8D1027012710271B8F0A8F19
:10289000892BD1F18F89811169C00E940902F6014B
:1028A00066837783808791872789308D4A8D5B8DFA
:1028B000232B09F056C0288D398D2130310509F0C0
:1028C00050C049305105E1F0483C510519F0443001
:1028D0005105D1F4D6011E966D937D938D939C93F3
:1028E0005197E1E0F0E05896FC93EE935797C601BC
:1028F0000E94961A60E070E0CB010E94D60199CF49
:1029000083E090E0908F878BD6018D919C910E94FF
:102910006804B12CD60156968C91569781505696E4
:102920008C938B2DAAA1BBA10FB6F894BEBF0FBE8E
:10293000ADBFA3960FB6F894DEBF0FBECDBFDF913B
:10294000CF911F910F91FF90EF90DF90CF90BF90AC
:10295000AF909F908F907F906F905F904F903F903F
:1029600008954530510509F064CFCECFF60180813E
:1029700091810130F1E01F0740F0D60158961C927A
:102980001E9257970E94680454CFADB6BEB6980108
:102990002F5F3F4FEDB7FEB7E21BF30B0FB6F89476
:1029A000FEBF0FBEEDBF2DB73EB72F5F3F4F790182
:1029B000A801B901DC018D919C910E94150280173C
:1029C000910709F068C0EA8DFB8DEE0DFF1D1082A6
:1029D0000E940902F60166837783808791878F8939
:1029E000813109F4B5C248F58630D1F08F3009F451
:1029F000ADC0823041F5D60157968D919C91589784
:102A0000892B71F4E1E0F0E05896FC93EE93579730
:102A1000C6010E94961A60E070E0CB010E94D601C8
:102A2000488D598DF12CE12C08EC10E030E020E0CD
:102A300060E0C6010E94D81812C08D31E1F258F44E
:102A4000843109F483C0F601108E178A8081918148
:102A50000E94680404C0893241F08733A1F70FB6A1
:102A6000F894BEBE0FBEADBEE4CE84819581892BA5
:102A700039F480E490E00E94DB1FF60195838483A3
:102A80000A8D1B8D0E0D1F1DFA82E9821C830B839C
:102A9000E016F10630F00FB6F894BEBE0FBEADBE24
:102AA00033CF40E450E0B701D60114968D919C914C
:102AB0000E94E122D6011496ED91FC9117AEC4015B
:102AC0000E94271AFC018081918180179107D8F517
:102AD00089819A81009799F12B813C818217930714
:102AE00070F50E94C2218B01D6018D919C910E94AC
:102AF0006804D601ED91FC91119714968D919C91EB
:102B00001597918780871387028758961C921E928B
:102B100057970E940902DC01CB0188589341A10913
:102B2000B109F60182879387A487B5878683978347
:102B3000A087B18786879787A08BB18B90CF60E005
:102B400070E0CB01D0CF00E510E0CECF888D998D1D
:102B5000D60155969C938E9354970A8D1B8D19A37D
:102B600008A338016E0C7F1CFD8EEC8E7F8E6E8E5E
:102B7000E614F70408F081C1D7010D911C91CE0134
:102B80004C960E94271AFC01808191818615970539
:102B900008F073C18C8D9D8DDC012C91213409F0DE
:102BA00063C001960E94A4214EE0342E380E069791
:102BB0000CF45FC00637B2E71B0709F45EC108F0EA
:102BC000E6C20136F2E71F0709F4CCC2043622E759
:102BD000120709F05EC033243A949A8A898A1C8AC3
:102BE0001B8A5E8A4D8A66EA71E0CE0141960E9498
:102BF000491A032D10E0B801CE0141960E94711AC6
:102C0000F801E45EFE4F8491F801E85FFE4FF49016
:102C10000C501F4FF801049160E070E0002389F030
:102C200081110E941E01E02FF0E0EE0FFF1FE65120
:102C3000FF4FA591B491EC91FE2261E070E009F4A0
:102C400060E0CE0141960E94711A0B891C890150E7
:102C5000110929893A89F12CE12C50E040E064E126
:102C6000C6010E94D81809C1CE014C960E943A1A9A
:102C7000382E0637B2E71B0709F422C1D0F401361B
:102C8000F2E71F0709F4A8C0043622E7120709F487
:102C9000A4CF00371D4609F464C0D60154964D9167
:102CA0005C91F12CE12C02E010E030E020E060E0EB
:102CB000D7CF043647E7140709F473C0063757E740
:102CC000150709F416C10136174739F7CE014C969E
:102CD0000E94271ADC018D919C918615970508F0BA
:102CE000CCC061E0832D0E947501CE014C960E94FC
:102CF0003A1A8C0161E0832D0E94750101151105BE
:102D000009F465C00F3F110509F092C061E060C091
:102D1000CE014C960E943A1AF82ECE014C960E9493
:102D2000271A0C8D1D8D68E971E0C8010E94D1221F
:102D300060E0892B79F06BE971E0C8010E94D12233
:102D4000892B39F06FE971E0C8010E94D122892BEB
:102D5000E9F461E08F2D0E947501CE014C960E942E
:102D6000271A8C8D9D8D8615970508F086C0DC018D
:102D70002C91213469F601960E94A4213EE0F32EA5
:102D8000F80E069754F2FF24FA94C7CF63EA71E075
:102D9000C8010E94D122892B01F762E0DBCF3324E6
:102DA0003A94CE014C960E94271ADC018D919C9199
:102DB0008615970508F061C061E0832D0E947501BA
:102DC000CE014C960E943A1A61E0892B09F460E02A
:102DD000832D0E94470151C09A8A898A1C8A1B8AC6
:102DE0005E8A4D8A69EA71E0CE0141960E94491AD5
:102DF000632D70E0CE0141960E94711ABDE0B315BB
:102E000010F4E2EF3E0E832D8770806480937C0087
:102E100080917A00806480937A0080917A0086FDA8
:102E2000FCCF8091780060917900762F682F09CFD0
:102E3000E32DF0E0E45EFE4FE491E33039F148F435
:102E4000E130B9F0E230E9F0003811050CF05ECF66
:102E5000BECFE73029F1E83059F1E430A9F780918D
:102E6000800080628093800010938B0000938A0022
:102E700004C084B5806884BD07BDF601158A148A34
:102E8000EECD84B5806284BD08BDF7CF809180000F
:102E90008068809380001093890000938800EDCFB4
:102EA0008091B00080688093B0000093B300E5CFBC
:102EB0008091B00080628093B0000093B400DDCFB9
:102EC0003982BFE1B315C8F2E32DF0E0EE0FFF1F2A
:102ED000E05DFE4F259134912115310571F2E1E05D
:102EE00024303E0751F2C401F9010995C6CF3324BD
:102EF0003A94CE014C960E94271A2C8D3D8DC90123
:102F00008E199F0908A119A1081B190B3A8329835F
:102F10001C830B831E830D83398A1FE1131508F46C
:102F2000ACCFE32DF0E0EE0FFF1FE059FE4F2591EF
:102F300034912115310509F4A0CF41E02330340745
:102F400009F49BCFB401CE014196F901099595CFC3
:102F50008A8D9B8D8E0D9F1DFA82E9829C838B83C7
:102F6000E816F90608F07BCDC4010E94271AD601A5
:102F700055961C921E92549772CD0E9409022B0105
:102F80003C01F601808191810E945504D60157963B
:102F90002D913C912130310509F05CC0F601811181
:102FA00009C046865786608A718A108E178A80818A
:102FB0009181ADCC86819781A085B18593018201F5
:102FC000081B190B2A0B3B0BD901C801893116EFDD
:102FD0009107A105B10548F7893C9F4AA105B105B4
:102FE00090F482859385A485B58593018201081BA1
:102FF000190B2A0B3B0BD901C801893C9F4AA1053B
:10300000B10508F402CCF60186859785A089B189BF
:1030100093018201081B190B2A0B3B0BD901C80134
:1030200081379741A105B10508F4EFCBF12CE12CD4
:1030300010E000E030E020E050E040E066E0C60153
:103040000E94D818D6011E964D925D926D927C9288
:103050005197DBCB232B09F0D8CBF601468557855A
:103060006089718993018201041B150B260B370BB4
:10307000B901A801882381F04137574161057105E5
:1030800008F4C3CB808191810E946804D6015896D0
:103090001C921E9257973DCC4938534161057105EA
:1030A00008F4B3CB808191810E946804D6010D9110
:1030B0001C91F801608571858081918142855385DD
:1030C000DC01ED91FC9161157105A9F00088F18991
:1030D000E02D0995BB24B394019709F0B12CF801B8
:1030E000B486B1101EC0D6011E964D925D926D92AF
:1030F0007C9251970FCC0684F785E02D2FE831E0C4
:103100003A832983D80114968D909D90AD90BC9000
:1031100017978B829C82AD82BE82BE016F5F7F4F0C
:10312000D8CF81E090E0F601938B828B22813381AE
:10313000F90101900020E9F731978F01021B130B71
:10314000F12CE12C41E050E06DE1C6010E94D8185D
:10315000F60182859385A485B58586879787A08BA0
:10316000B18BD8CB9A8A898A1C8A1B8A5E8A4D8A3F
:1031700069EA71E0CE0141960E94491A6FEF70E052
:10318000CE0141960E94711A33243A943ACE043605
:1031900047E7140709F403CE063757E7150709F484
:1031A000A6CE0136174709F078CD33243A948ECD58
:1031B0002F923F924F925F927F928F929F92AF9207
:1031C000BF92CF92DF92EF92FF920F931F93CF9314
:1031D000DF9300D000D01F92CDB7DEB77C01762EF2
:1031E0006A015901DC018D919C910E94550488234C
:1031F00009F4AFC0872D8D7F09F4DAC0B6E07B16E5
:1032000009F4D6C0EDE17E1609F4D2C0D701579675
:103210008D919C91019709F09CC0C114D10481F457
:10322000F701C488D588C114D10451F482899389E7
:10323000019609F4A5C0938B828BF701C288D388CD
:1032400084EF870D8930B0F5D7011A964D915D91C5
:103250006D917C911D9716968D919D910D90BC91CD
:10326000A02D84179507A607B70710F4DB01CA0144
:103270001C012D01E2E42E0E311C411C511C0E9448
:103280000902A2019101261B370B480B590BDA01E9
:10329000C901B7FD7AC0C7010E94CD130E9409027F
:1032A000A2019101261B370B480B590BDA01C9010A
:1032B000B7FFF1CF4801B5E08B0E911CA114B1040A
:1032C00019F485E0882E912C7982DC24CD24DC242D
:1032D000DB82CA82902F812F9D838C83D701ED9151
:1032E000FC9180819181DC01ED91FC910280F38160
:1032F000E02D45E050E0BE016F5F7F4F09956C0106
:1033000060E070E0CB010E94D6017720C1F001158A
:103310001105A9F0D701ED91FC9180819181DC012B
:10332000ED91FC910280F381E02DA801B501099592
:10333000C80ED91E60E070E0CB010E94D6018C144B
:103340009D0461F1F701108E178A808191810E949E
:1033500068040F900F900F900F900F90DF91CF9116
:103360001F910F91FF90EF90DF90CF90BF90AF90A3
:103370009F908F907F905F904F903F902F900895F7
:1033800081E090E0938B828B58CFD70156968C9139
:10339000811190CFC7010E94CD138CCF0E940902EA
:1033A000D7011A966D937D938D939C931D97D1CFE2
:1033B000C114D10409F07ECF33CF1F920F920FB604
:1033C0000F9211242F933F938F939F93AF93BF93AB
:1033D0008091BD019091BE01A091BF01B091C0014B
:1033E0003091BC0123E0230F2D3758F50196A11D24
:1033F000B11D2093BC018093BD019093BE01A093A9
:10340000BF01B093C0018091C1019091C201A09110
:10341000C301B091C4010196A11DB11D8093C101EA
:103420009093C201A093C301B093C401BF91AF9127
:103430009F918F913F912F910F900FBE0F901F90F2
:10344000189526E8230F0296A11DB11DD2CFDC01ED
:10345000ED91FC911197309761F012962D913C916E
:103460001397E217F30728F401900020E9F7ED9392
:10347000FC930895FC0180819181009739F02281AD
:1034800033818217930710F40C94A42190E080E01C
:1034900008950F931F93CF93DF93EC01FB010190ED
:1034A0000020E9F78F01061B170B8A819B81A80179
:1034B000480F591F2C813D812417350768F028815A
:1034C0003981A801820F931F0E94C1224A815B812A
:1034D000400F511F5B834A83DF91CF911F910F9162
:1034E00008950F931F93CF93DF93CDB7DEB7629705
:1034F0000FB6F894DEBF0FBECDBF8C01CB014AE002
:10350000BE016F5F7F4F0E94F221BE016F5F7F4F50
:10351000C8010E94491A62960FB6F894DEBF0FBE2A
:10352000CDBFDF91CF911F910F910895CF92DF9280
:10353000EF92FF920F931F93CF93DF93CDB7DEB738
:10354000C45AD1090FB6F894DEBF0FBECDBF6C01CF
:1035500044E650E060E770E0CE0101960E94E92168
:10356000CE018B599F4F7C0104E610E09E012F5F36
:103570003F4F50E040E061E1C6010E94D818CC55B1
:10358000DF4F0FB6F894DEBF0FBECDBFDF91CF91F6
:103590001F910F91FF90EF90DF90CF900895E0E59D
:1035A000F2E08FE891E0918380831282138214828B
:1035B0001582E6E5F2E09183808312821382148201
:1035C0001582ECE5F2E091838083128213821482EB
:1035D0001582E2E6F2E091838083128213821482E4
:1035E0001582E8E6F2E091838083128213821482CE
:1035F0001582E4E7F2E091838083128213821482C1
:103600001582EEE6F2E091838083128213821482A7
:103610001582EAE7F2E0918380831282138214829A
:103620001582E0E8F2E09183808312821382148293
:103630001582E1ECF2E0918380831282138214827E
:103640001582E2EBF2E01382128221E631E031834F
:10365000208324E0248728EE33E036872587A5EAF7
:10366000B2E013969C938E93129714961D921D921E
:103670001D921C92179719961C921E9218971B96D2
:103680001C921E921A971C961C921C971196FC93E2
:10369000EE9340E757E160E070E044835583668332
:1036A0007783E6E8F2E0B183A08313821282158269
:1036B000148216821782108611861286138614864B
:1036C000158616861786108A118A138A128A158A19
:1036D000148A168A108E178A0895CF93DF93CDB778
:1036E000DEB72A970FB6F894DEBF0FBECDBF789431
:1036F00084B5826084BD84B5816084BD85B58260F7
:1037000085BD85B5816085BD80916E0081608093A7
:103710006E00109281008091810082608093810010
:103720008091810081608093810080918000816020
:10373000809380008091B10084608093B10080917B
:10374000B00081608093B00080917A0084608093A3
:103750007A0080917A00826080937A0080917A006A
:10376000816080937A0080917A00806880937A00EB
:103770001092C1008EEF80939F029DEE9093A00265
:103780002AEB2093A1028093A2028093A30290933C
:10379000A40220E031E0D9010D900020E9F79D015D
:1037A00021503140A0E0B1E0E1E0F0E0AD01405057
:1037B00051404217530784F4AF014F5F5F4F6D9143
:1037C000EA57FD4F818D8627818F4630510514F0D1
:1037D00041E050E0FA01EACF80912B0281112AC02A
:1037E000109213021092120288EE93E0A0E0B0E073
:1037F0008093140290931502A0931602B0931702BF
:1038000087E391E090931102809310028FE891E09A
:1038100090931F0280931E021092200210922102A8
:10382000109222021092230284E08093280281E009
:1038300080932B028DEC91E09093CC018093CB018F
:103840008091CA018111ADC060E372E080E090E038
:103850000E94D601DFB6F8940EEF10E0E2E1EE2E02
:10386000E1E0FE2E8091C801811125C0F80184910C
:10387000F7019491E82FF0E0EE0FFF1FE052FF4FA9
:10388000A591B4918C91982321F461E08AE00E9483
:10389000470161E08AE00E9475018CB580618CBDB2
:1038A0008CB580648CBD61E08DE00E94750161E0A3
:1038B0008BE00E9475018091C8018F5F8093C801E1
:1038C000DFBEF8010491E02FF0E0EE0FFF1FEA5297
:1038D000FF4F859194919093C7018093C601F701A2
:1038E000E490E092C50161E08AE00E9475010E94C7
:1038F0007F0280E591E00E94050184E380934F02FE
:1039000080E80E944B030E94C706882309F4FEC189
:1039100088E00E944B030E94B406883009F0F6C18B
:1039200080E10E944B030E94B406803109F0EEC191
:1039300080E00E944B030E94B406182F8111E6C15B
:1039400041E050E0BE016F5F7F4F8FE190E00E9449
:103950003F058981833009F0D9C180E48093C90192
:1039600042E06EE170E0812F0E94A70342E06FE128
:1039700070E0812F0E94A7031F5F143089F740E099
:103980006EE170E0812F0E94A70340E06FE170E0DC
:10399000812F0E94A7031F5F183089F781E0809371
:1039A000CA0180E591E00E94050146E050E06FE920
:1039B00072E089E090E00E949B028FE891E09A8398
:1039C00089831B821C821D821E8244E050E0BE015E
:1039D0006D5F7F4F8FE090E00E949B020091CB01D2
:1039E0001091CC01D80192961D921D921D921C92AD
:1039F0009597F80116A217A210A611A69A961D92E5
:103A00001D921D921C929D9780E69AEEA0E0B0E078
:103A100086AB97ABA0AFB1AF80EA9FE0A0E0B0E08B
:103A200082AF93AFA4AFB5AFD801189686E0FD0181
:103A3000282F11922A95E9F79801225F3F4F94E1D0
:103A4000F90111929A95E9F7EFE9F2E001900D92F0
:103A50008A95E1F7C8018E5B9F4F9A878987DC01C1
:103A60001C920E944C212FEC37E040E050E00E9475
:103A70004422DC01CB010196A11DB11DF801848314
:103A80009583A683B78380839183A283B3835801F0
:103A9000F3E4AF0EB11CC5010E940F0664E470E0B0
:103AA000C5010E947809882309F499C10E9409027E
:103AB0002B013C0148EEC42E43E0D42EE12CF12C26
:103AC00052E0252E912C812CA985BA858C918330CA
:103AD000B9F181118EC1F80184819581A681B781E8
:103AE0000196A11DB11D84839583A683B7830E948F
:103AF00009026419750986099709A70196010E94B0
:103B00007622A90161E0C8010E94BF1281E0A98567
:103B1000BA858C93F1E08F169104B1F20E940902EC
:103B20006419750986099709D801D6962D913D919A
:103B30004D915C91D997261737074807590710F61A
:103B4000C5010E940F06F80184819581A681B78185
:103B50000196A11DB11D84839583A683B7830E941E
:103B60000902F801FE9660837183828393838A94AD
:103B7000892809F034C180E591E00E940501009197
:103B8000CB011091CC01B801625F7F4FCE0101964D
:103B90000E941D0D44E050E0BE016D5F7F4F8FE03D
:103BA00090E00E949B02B8016A5E7F4FCE010196B1
:103BB0000E941D0D44E050E0BE016D5F7F4F81E02B
:103BC00090E00E949B02B8016E5E7F4FCE0101968D
:103BD0000E941D0D44E050E0BE016D5F7F4F85E007
:103BE00090E00E949B02B801625E7F4FCE01019679
:103BF0000E941D0D8B819C81AD81BE8180937002DE
:103C000090937102A0937202B09373020E94B1016B
:103C10007F73809121019091220168277927709309
:103C200022016093210168EE73E080E090E00E9441
:103C3000D6018FE891E09A8389831B821C821D82C2
:103C40001E8280E591E00E94050144E050E0BE0143
:103C50006D5F7F4F8FE090E00E943F0580E091E034
:103C600090938902809388020E940902DC01CB01B3
:103C700088589341A109B1098093900290939102D1
:103C8000A0939202B093930280938C0290938D0242
:103C9000A0938E02B0938F0280939402909395022A
:103CA000A0939602B0939702E0918602F09187026A
:103CB0008CEA91E09187808780E590E09387828706
:103CC00080918602909187020E94680410929E0261
:103CD00010929D020E9409026B017C0180919D025D
:103CE00090919E02019709F44FC10E9409026C193C
:103CF0007D098E099F09603576448105910508F09C
:103D000043C186E892E00E94CD13E8CF87E3809319
:103D10004F0280E80E944B030E94C706882329F1C6
:103D200088E00E944B030E94B4068830F1F480E1E1
:103D30000E944B030E94B406182F8031B1F480E03A
:103D40000E944B030E94B40681110FC041E050E075
:103D5000BE016F5F7F4F89E390E00E943F0589813C
:103D6000843019F41093C90119CE83E380934F0274
:103D700080E80E944B030E94C706882371F180E10E
:103D80000E944B030E94B406803139F582E10E9403
:103D90004B030E94B406823101F580E00E944B0380
:103DA0000E94B406811119C084E08093C90115E511
:103DB000188741E050E0BE01685F7F4F8BE190E0E3
:103DC0000E949B021F8341E050E0BE01695F7F4F6C
:103DD0008AE190E00E949B02E1CD10924F0260E1E7
:103DE00077E280E090E00E94D601F0E0E0E0099503
:103DF000FFCF8430F9F4F80184819581A681B781E1
:103E00000196A11DB11D84839583A683B7830E946B
:103E100009026419750986099709A70196010E948C
:103E20007622A90163E0C8010E94BF12A985BA8564
:103E30002C9270CE813059F5F80142AD53AD64AD8E
:103E400075AD9E012F5F3F4FC8010E942011382E93
:103E5000F2E08F1392C089819A81AB81BC81F80115
:103E600084839583A683B7830E9409026419750928
:103E700086099709A70196010E947622A90163E0AD
:103E8000C8010E94BF12A985BA853C9243CE8230F8
:103E900009F040CEF80142AD53AD64AD75AD9E0161
:103EA0002F5F3F4FC8010E942011382EF5E08F137D
:103EB0005DC0E3E0A985BA85EC93F80182A193A1E6
:103EC000A4A1B5A1892B8A2B8B2B41F484E893E024
:103ED000A0E0B0E082A393A3A4A3B5A3F80186A1B8
:103EE00097A1A0A5B1A5892B8A2B8B2B61F482A168
:103EF00093A1A4A1B5A1B695A7959795879586A3FB
:103F000097A3A0A7B1A7F80182A593A5A4A5B5A5DD
:103F1000892B8A2B8B2BA9F482A193A1A4A1B5A1F3
:103F2000AC01BD0123E076956795579547952A9595
:103F3000D1F7841B950BA60BB70B82A793A7A4A759
:103F4000B5A7F80186A197A1A0A5B1A586A797A7B7
:103F5000A0ABB1AB82A593A5A4A5B5A582AB93AB4D
:103F6000A4ABB5AB88248394912CD4CDF6E08F1309
:103F700004C0A985BA851C92CDCDBFEF3B12CACD36
:103F8000E985FA851082C6CD80919D0290919E02AE
:103F9000019709F095CE61E082E00E94750100E092
:103FA00010E086E892E00E94CD1301151105C9F3D7
:103FB0000E940000F6CF0F931F93CF93DF938230C0
:103FC000910510F482E090E0E091C902F091CA02FC
:103FD00030E020E0B0E0A0E0309799F42115310501
:103FE00009F44AC0281B390B24303105D8F58A81E1
:103FF0009B816115710589F1FB0193838283FE0129
:1040000011C0408151810281138148175907E0F0A6
:104010004817590799F4109761F012960C9312976C
:1040200013961C933296CF01DF91CF911F910F9180
:1040300008950093C9021093CA02F4CF21153105E7
:1040400051F04217530738F0A901DB019A01BD0175
:10405000DF01F801C1CFEF01F9CF9093CA0280933D
:10406000C902CDCFFE01E20FF31F8193919322503D
:10407000310939832883D7CF2091C7023091C802F4
:10408000232B41F420912501309126013093C80261
:104090002093C7022091230130912401211531057D
:1040A00041F42DB73EB74091270150912801241BC0
:1040B000350BE091C702F091C802E217F307A0F4B4
:1040C0002E1B3F0B2817390778F0AC014E5F5F4F6E
:1040D0002417350748F04E0F5F1F5093C8024093D6
:1040E000C702819391939FCFF0E0E0E09CCFCF9304
:1040F000DF930097E9F0FC01329713821282A091BE
:10410000C902B091CA02ED0130E020E01097A1F49D
:1041100020813181820F931F2091C7023091C80204
:104120002817390709F061C0F093C802E093C7026D
:10413000DF91CF910895EA01CE17DF07E8F54A81B4
:104140005B819E0141155105B1F7E901FB83EA83CB
:1041500049915991C40FD51FEC17FD0761F4808177
:1041600091810296840F951FE9019983888382814A
:1041700093819B838A83F0E0E0E012968D919C917D
:1041800013970097B9F52D913C911197CD010296A7
:10419000820F931F2091C7023091C8022817390758
:1041A00039F6309751F51092CA021092C902B093B5
:1041B000C802A093C702BCCFD383C2834081518180
:1041C000840F951FC817D90761F44E5F5F4F888130
:1041D0009981480F591F518340838A819B81938322
:1041E00082832115310509F0B0CFF093CA02E09324
:1041F000C9029ECFFD01DC01C0CF13821282D7CF4E
:104200008F929F92AF92BF92CF92DF92EF92FF92E6
:10421000CF93DF93EC01688179818A819B8161155D
:1042200071058105910521F464E279ED8BE597E054
:104230002DE133EF41E050E00E94442249015A0150
:104240009B01AC01A7EAB1E40E9463226B017C01EF
:10425000ACEEB4EFA50194010E947122C60ED71EE8
:10426000E81EF91EF7FE06C081E0C81AD108E10871
:1042700080E8F80AC882D982EA82FB82C701B601C7
:104280009F77DF91CF91FF90EF90DF90CF90BF901D
:10429000AF909F908F9008958F929F92AF92BF9210
:1042A000CF92DF92EF92FF926091290170912A01E3
:1042B00080912B0190912C0161157105810591056B
:1042C00021F464E279ED8BE597E02DE133EF41E0F5
:1042D00050E00E94442249015A019B01AC01A7EA27
:1042E000B1E40E9463226B017C01ACEEB4EFA50146
:1042F00094010E947122C60ED71EE81EF91EF7FE19
:1043000006C081E0C81AD108E10880E8F80AC09226
:104310002901D0922A01E0922B01F0922C01C701D1
:10432000B6019F77FF90EF90DF90CF90BF90AF9056
:104330009F908F9008956093290170932A01809334
:104340002B0190932C010895FC0188279927E8946C
:1043500021912032E9F3293010F02E30C8F32B32AE
:1043600041F02D3239F4689404C00E941222820F69
:10437000911D219120532A30C0F31EF49095819510
:104380009F4F08951F93FC0199278827BC01E8944B
:1043900011911032E9F3193010F01E30C8F31B32BE
:1043A00051F01D3249F4689406C00E94FD21610F4E
:1043B000711D811D911D119110531A30B0F33EF4FF
:1043C00090958095709561957F4F8F4F9F4F1F916E
:1043D0000895FB01DC0102C005900D924150504050
:1043E000D8F70895BB274A3031F4992322F4BDE26F
:1043F000909581959F4F0C941B22592F482F372F52
:10440000262F660F771F881F991F660F771F881F3B
:10441000991F620F731F841F951F660F771F881FD8
:10442000991F08957AE0979F902D879F802D910D79
:1044300011240895BB27FB015527AA27880F991F30
:10444000AA1FA41710F0A41B83955051B9F7A05DC3
:10445000AA3308F0A95DA193009779F7B111B19340
:104460001192CB010C943422DC01FC01672F719175
:104470007723E1F7329704C07C916D93708362914A
:10448000AE17BF07C8F30895052E97FB1EF40094DE
:104490000E945B2257FD07D00E94762207FC03D0C2
:1044A0004EF40C945B2250954095309521953F4FEA
:1044B0004F4F5F4F089590958095709561957F4F10
:1044C0008F4F9F4F08950E949822A59F900DB49FF3
:1044D000900DA49F800D911D11240895B7FF0C9499
:1044E00063220E946322821B930B0895A1E21A2E7D
:1044F000AA1BBB1BFD010DC0AA1FBB1FEE1FFF1F88
:10450000A217B307E407F50720F0A21BB30BE40BD7
:10451000F50B661F771F881F991F1A9469F760951E
:104520007095809590959B01AC01BD01CF010895D8
:10453000A29FB001B39FC001A39F700D811D1124E4
:10454000911DB29F700D811D1124911D0895692741
:10455000962769277827872778270895EE0FFF1F6A
:104560000590F491E02D0994FB01DC0104C08D91CC
:104570000190801921F441505040C8F7881B990BD5
:104580000895FB01DC0102C001900D9241505040A2
:10459000D8F70895DC0101C06D9341505040E0F719
:1045A0000895FB01DC018D91019080190110D9F370
:1045B000990B0895FB01DC0101900D920020E1F7B9
:1045C0000895FB01DC014150504048F001900D92EC
:1045D0000020C9F701C01D9241505040E0F70895F6
:0445E000F894FFCF7D
:1045E40076687337433553793250516C554D694D64
:1045F4004F6D3958396D3170635376346B4175554D
:104604000000C00000CB0280000100000001005E39
:1046140000000000000000C403880A520404011AC8
:10462400017C0C0307780913080F06FC032210838E
:1046340006640D5D0C4B043B043704330400000096
:1046440000E503C20A7F0A6A0A840BA60C1207F665
:10465400089510C00C4A062806880485048304DAE9
:10466400037904F30C290DC90C750400000000F54E
:104674000457495A6E657400696E006F7574007052
:10468400776D00707500647700617700626C796EF5
:0C4694006B2D636C6F75642E636F6D00FE
:00000001FF
