:020000040000FA
:100000000C94C2010C94EA010C94EA010C94EA01EC
:100010000C94EA010C94EA010C94EA010C94EA01B4
:100020000C94EA010C94EA010C94EA010C94EA01A4
:100030000C94EA010C94EA010C94EA010C94EA0194
:100040000C944E1D0C94EA010C941C1D0C94F61C8F
:100050000C94EA010C94EA010C94EA010C94EA0174
:100060000C94981D0C94EA0100407A10F35A00A0F9
:10007000724E18090010A5D4E80000E87648170071
:1000800000E40B54020000CA9A3B000000E1F505B1
:10009000000080969800000040420F000000A086FB
:1000A00001000000102700000000E803000000002D
:1000B0006400000000000A000000000001000000D1
:1000C00000002C76D888DC674F0823DFC1DFAE59EB
:1000D000E1B1B796E5E3E453C63AE651997696E87E
:1000E000E6C28426EB898C9B62ED407C6FFCEFBC02
:1000F0009C9F40F2BAA56FA5F490055A2AF75C932D
:100100006B6CF9676DC11BFCE0E40D47FEF520E662
:10011000B500D0ED902E0300943577050080841E45
:10012000080000204E0A000000C80C333333330FA0
:10013000986E12831141EF8D2114893BE65516CF3D
:10014000FEE6DB18D1844B381BF77C1D901DA4BB49
:10015000E424203284725E228100C9F124ECA1E5FE
:100160003D275D2000626C6E6B696E66007665727D
:1001700000312E322E3000682D62656174003435F6
:1001800000627566662D696E0032353600646576EC
:100190000041726475696E6F20556E6F00637075F3
:1001A0000041546D6567613332385000636F6E00F3
:1001B00057353130300066772D7479706500544DB5
:1001C000504C33464F564C4268586E006275696C0D
:1001D00064004D61792020342032303233203138B0
:1001E0003A34353A3036000000436F6E6E65637402
:1001F000696E6720746F2000436F6E6E656374696B
:100200006E6720746F200000000000240027002A81
:100210000000000000250028002B006D73292E002F
:100220005265616479202870696E673A2000000089
:10023000000023002600290004040404040404042C
:100240000202020202020303030303030102040881
:100250001020408001020408102001020408102030
:100260000000000800020100000304070000000075
:1002700000000000EE01EE01EE01EE01EE01EE01E4
:10028000EE01EE01EE01EE01EE01EE01EE01EE01F6
:10029000EE01EE01EE01EE01EE01EE01EE01EE01E6
:1002A000EE01EE01EE01EE01EE01EE01EE01EE01D6
:1002B000EE01EE01590AED013B0AED01EC01560891
:1002C000ED01ED01ED01ED01ED01ED01ED01ED01BE
:1002D000ED01ED01ED01ED01ED01ED01ED01ED01AE
:1002E000ED01ED01ED01ED01ED01ED01ED01ED019E
:1002F000ED01ED01496E76616C6964204857206319
:100300006D643A20005365727665723A200052653A
:10031000646972656374696E6720746F200052654A
:10032000616479005061636B657420746F6F206243
:1003300069673A2000436F6E6E6563742066616979
:100340006C65642E20636F64653A2000496E7661A7
:100350006C6964206175746820746F6B656E004C05
:100360006F67696E2074696D656F757400486561AB
:100370007274626561742074696D656F75740000D4
:10038000561F3D2311241FBECFEFD8E0DEBFCDBFE7
:1003900011E0A0E0B1E0E0E2F5E502C005900D92C9
:1003A000AE3FB107D9F724E0AEEFB1E001C01D9236
:1003B000AF3CB207E1F711E0C1ECD1E004C02197F6
:1003C000FE010E949129C03CD107C9F70E94F62086
:1003D0000C94832A0C9400000895089508958CBD10
:1003E0009DBD0895FC01818D928D08950895089515
:1003F0000895DC01ED91FC910190F081E02D0994CC
:10040000AF92BF92CF92DF92EF92FF920F931F9322
:10041000CF93DF936C017B018B01040F151FEB0160
:100420005E01AE18BF08C017D10759F06991D60117
:10043000ED91FC910190F081E02DC6010995892B89
:1004400079F7C501DF91CF911F910F91FF90EF9048
:10045000DF90CF90BF90AF900895FC01538D448DF5
:10046000252F30E0842F90E0821B930B541710F05F
:10047000CF96089501970895FC01918D828D98176C
:1004800061F0A28DAE0FBF2FB11D5D968C91928D44
:100490009F5F9F73928F90E008958FEF9FEF089575
:1004A000FC01918D828D981731F0828DE80FF11D3E
:1004B000858D90E008958FEF9FEF0895FC01918D59
:1004C000228D892F90E0805C9F4F821B91098F7352
:1004D000992708958DED92E00E945E0221E0892B1C
:1004E00009F420E0822F089580E090E0892B29F024
:1004F0000E946A0281110C9400000895FC01A48DF1
:10050000A80FB92FB11DA35ABF4F2C91848D90E035
:1005100001968F739927848FA689B7892C93A08918
:10052000B1898C91837080648C93938D848D9813A2
:1005300006C00288F389E02D80818F7D8083089535
:10054000EF92FF920F931F93CF93DF93EC0181E023
:10055000888F9B8D8C8D98131AC0E889F9898081CA
:1005600085FF15C09FB7F894EE89FF896083E889FD
:10057000F98980818370806480839FBF81E090E0EF
:10058000DF91CF911F910F91FF90EF900895F62E7C
:100590000B8D10E00F5F1F4F0F731127E02E8C8D16
:1005A0008E110CC00FB607FCFACFE889F98980815B
:1005B00085FFF5CFCE010E947E02F1CFEB8DEC0FCF
:1005C000FD2FF11DE35AFF4FF0829FB7F8940B8F78
:1005D000EA89FB8980818062CFCF0F931F93CF93ED
:1005E000DF938C01D0E0C0E0F801EC0FFD1F6491B7
:1005F000662341F08DED92E00E94A002892B11F05C
:100600002196F2CFCE01DF91CF911F910F910895E6
:10061000CF93DF93EC01888D8823B9F0AA89BB8939
:10062000E889F9898C9185FD03C0808186FD0DC024
:100630000FB607FCF7CF8C9185FFF2CF808185FF45
:10064000EDCFCE010E947E02E9CFDF91CF910895D8
:10065000833081F028F4813099F08230A9F0089538
:100660008730A9F08830C9F08430B1F480918000DF
:100670008F7D03C0809180008F77809380000895E4
:1006800084B58F7784BD089584B58F7DFBCF80912D
:10069000B0008F778093B00008958091B0008F7D77
:1006A000F9CF1F93CF93DF93282F30E0F901E05A61
:1006B000FD4F8491F901E45BFD4FD491F901E85CB1
:1006C000FD4FC491CC23A9F0162F81110E9428035D
:1006D000EC2FF0E0EE0FFF1FEF5EFD4FA591B49100
:1006E0008FB7F894EC91111108C0D095DE23DC93FC
:1006F0008FBFDF91CF911F910895DE2BF8CFCF935D
:10070000DF9390E0FC01E45BFD4F2491885C9D4FFA
:10071000FC0184918823C9F090E0880F991FFC01A7
:10072000E95FFD4FA591B491FC01EF5EFD4FC591CE
:10073000D49161110DC09FB7F8948C9120958223BC
:100740008C938881282328839FBFDF91CF910895C0
:10075000623051F49FB7F8943C91822F80958323A7
:100760008C93E8812E2BEFCF8FB7F894EC912E2B42
:100770002C938FBFEACF1F93CF93DF93182FEB01FA
:1007800061E00E947F03209739F460E0812FDF91C0
:10079000CF911F910C945103CF3FD10511F461E02B
:1007A000F5CFE12FF0E0E05AFD4FE491E33031F175
:1007B00040F4E130B1F0E230E1F0C038D1057CF72F
:1007C000E4CFE73029F1E83059F1E430B1F7809116
:1007D0008000806280938000D0938B00C0938A0059
:1007E00004C084B5806884BDC7BDDF91CF911F91DF
:1007F000089584B5806284BDC8BDF7CF8091800024
:10080000806880938000D0938900C0938800EDCFEA
:100810008091B00080688093B000C093B300E5CFB2
:100820008091B00080628093B000C093B400DDCFAF
:100830008E3008F08E508770806480937C008091A9
:100840007A00806480937A0080917A0086FDFCCFE4
:10085000809178009091790008953FB7F894809145
:10086000B5029091B602A091B702B091B80226B538
:10087000A89B05C02F3F19F00196A11DB11D3FBFD8
:10088000BA2FA92F982F8827BC01CD01620F711DA7
:10089000811D911D42E0660F771F881F991F4A95A1
:1008A000D1F708958F929F92AF92BF92CF92DF922D
:1008B000EF92FF926B017C010E942D044B015C01C1
:1008C000C114D104E104F104B9F00E942D046819A7
:1008D00079098A099B09683E73408105910580F377
:1008E00021E0C21AD108E108F10888EE880E83E001
:1008F000981EA11CB11CE4CFFF90EF90DF90CF9029
:10090000BF90AF909F908F9008952FB7F89460910B
:10091000B1027091B2028091B3029091B4022FBFE4
:1009200008954F925F926F927F92AF92BF92CF9253
:10093000DF92EF92FF920F931F93CF93DF93EC011F
:100940006B017B01E40EF51E8B015801AC18BD084C
:100950000E151F0511F10E948504688779878A8723
:100960009B87E881F9810284F385E02DCE0109950A
:1009700097FF23C00E948504488459846A847B843D
:1009800064197509860997094C805D806E807F80A7
:10099000641575058605970520F3C501DF91CF9194
:1009A0001F910F91FF90EF90DF90CF90BF90AF908D
:1009B0007F906F905F904F900895F80181938F0121
:1009C000C4CF20913F02260F3327331F2132310538
:1009D000ECF420918802FC0190E080E0243069F082
:1009E00082E00895A0913F022191AC01415E5D4FEC
:1009F000A40FB52FB11D2C930196861798F3809103
:100A00003F02680F60933F0280E0089581E00895FF
:100A10001092880281E0809387021092620261E066
:100A200082E10E94510361E083E10E945103E9EBFE
:100A3000F0E080818E7F808380818D7F808388E459
:100A40008093B80085E48093BC000895CF93DF9332
:100A500091E090931E028823B9F0C091B800D09124
:100A6000BA008091BC008A7B8093BC0060E082E188
:100A70000E94510360E083E10E9451030E94080537
:100A8000D093BA00C093B800DF91CF910895E09160
:100A9000C0028091BF02E81730F4F0E0E250FE4F50
:100AA000808190E008958FEF9FEF08959091C002AC
:100AB0008091BF022FEF3FEF981748F4E92FF0E045
:100AC000E250FE4F208130E09F5F9093C002C90149
:100AD00008958091BF029091C002891B990B0895DF
:100AE000CF92DF92EF92FF920F931F93CF93DF93FA
:100AF0007C01CB018A0120918E02222389F0EB0137
:100B00006B01C40ED51ECC15DD0569F06991D701C6
:100B1000ED91FC910190F081E02DC7010995F3CF93
:100B2000642F0E94E104C801DF91CF911F910F91C2
:100B3000FF90EF90DF90CF900895CF93DF931F92B7
:100B4000CDB7DEB7698320918E022223F9F0209180
:100B5000BD02203258F021E030E0FC0133832283D3
:100B600090E080E00F90DF91CF9108958091BE02D8
:100B7000E82FF0E0E157FD4F998190838F5F8093DC
:100B8000BE028093BD0281E090E0ECCF61E0CE0137
:100B900001960E94E104F7CFCF92DF92EF92FF928D
:100BA0000F931F93CF93DF93FC01C48121E0209327
:100BB0008E02C093AF021092BE021092BD028385D6
:100BC000682B8AE793E00E949D05D091BD02D13247
:100BD00008F092C00E942D046B017C018091880274
:100BE000811165C082E08093880281E08093870252
:100BF0008FEF8093860210928502D0938402AFE833
:100C0000B2E0E4E6F2E080E0D81385C0109263021F
:100C100080916302CC0FC82BC09363028091620263
:100C2000813009F07CC0109262020E942D046B0199
:100C30007C01809163028093BB0080918A02909135
:100C40008B02A0918C02B0918D02892B8A2B8B2B69
:100C500099F00E942D0400918A0210918B0220913C
:100C60008C0230918D026C197D098E099F0906173F
:100C7000170728073907E0F18091BC0083FDD9CF21
:100C800085EC8093BC000E942D046B017C01809157
:100C90008802823009F445C0809186028F3F61F15D
:100CA00080918602803241F18091860225C0809138
:100CB0008A0290918B02A0918C02B0918D02892BB7
:100CC0008A2B8B2B09F48ACF0E942D0400918A0273
:100CD00010918B0220918C0230918D026C197D094C
:100CE0008E099F09061717072807390708F076CFDE
:100CF000809189020E9426051092BE021092BD02C8
:100D000010928E02DF91CF911F910F91FF90EF9083
:100D1000DF90CF9008959D9191938F5F75CF85EE71
:100D2000B0CF80918A0290918B02A0918C02B091F9
:100D30008D02892B8A2B8B2B09F4A9CF0E942D04BD
:100D400000918A0210918B0220918C0230918D02C9
:100D50006C197D098E099F0906171707280739079F
:100D600008F095CFC5CFFC0120812EBD9B012150FD
:100D7000310941F051810DB407FEFDCF4EB55EBD86
:100D80004193F5CF61507109860F971F0DB407FE8F
:100D9000FDCF2EB5FC0120830895F0E0E0E08081D6
:100DA00080830895F0E0E0E08081808308958EBD27
:100DB00000000DB407FEFDCF8EB50895CF92DF92EF
:100DC000EF92FF920F931F93CF93DF93CDB7DEB7D0
:100DD00028970FB6F894DEBF0FBECDBF8C017B0104
:100DE0006A010E94D2060F3F110509F028F419820A
:100DF0000A8384E08B830CC017FD1AC019820A8312
:100E000033E0169507953A95E1F7007E0C600B8369
:100E100087010C0D1D1DE6E0CE16D10490F5F701FB
:100E2000DE0114960E171F0799F081918D93FACF6A
:100E3000C80126E0969587952A95E1F7807E19836B
:100E40000A830115104C10F48461D4CF8C61D2CF89
:100E5000B6016D5F7F4FCE0101960E94B3060E94DE
:100E6000CD06C60128960FB6F894DEBF0FBECDBFE3
:100E7000DF91CF911F910F91FF90EF90DF90CF9076
:100E8000089563E070E0CE0101960E94B306F70179
:100E900081917F010E94D706E016F106C1F7DFCFEE
:100EA000982F990F990F990F80E090540895FB01A6
:100EB000BA0190E0982F8827A9018E0F9F1F0C94EC
:100EC000DE06CF93DF9300D0CDB7DEB779836A8398
:100ED00022E030E0AE014F5F5F4F60E170E00E94C2
:100EE00057070F900F90DF91CF910895CF93DF9325
:100EF00000D0CDB7DEB779836A8322E030E0AE015F
:100F00004F5F5F4F64E070E00E9457070F900F90B3
:100F1000DF91CF910895CF93DF931F92CDB7DEB7C6
:100F20009B01498390E0982F882741E050E0BE0163
:100F30006F5F7F4F820F931F0E94DE060F90DF913D
:100F4000CF910895CF93DF931F92CDB7DEB769831A
:100F5000DC01ED91FC910280F381E02D41E050E055
:100F6000BE016F5F7F4F09950F90DF91CF9108957C
:100F7000FC019485FB018485981303C081E09430C3
:100F800008F080E00895CF93DF931F92CDB7DEB7CE
:100F90006983DC01ED91FC910280F381E02D41E059
:100FA00050E0BE016F5F7F4F09950F90DF91CF91A9
:100FB00008950895FF920F931F93CF93DF93EB0152
:100FC000FC01178A168A2A81211109C02B8121115F
:100FD00006C02C81211103C02D81222301F141156E
:100FE0005105E9F08A01FC01F08C80E591E00E9456
:100FF000EF01AE014E5F5F4F24E030E06CE070E047
:101000008F2D0E945707B8018F2D0E94610781E044
:1010100090E0DF91CF911F910F91FF90089580E0B4
:10102000F7CFFC01848595850895FC018489958915
:10103000089524E931E0FC0131832083FB014089DC
:10104000518962897389FC01428353836483758368
:101050000895DC01ED91FC91048CF58DE02D09944F
:1010600090E080E00895FC019485992369F08081E7
:101070009181DC01ED91FC910688F789E02D0995BD
:1010800091E0811101C090E0892F0895DC011C9648
:101090001C921C978D919C91009739F0DC01ED9189
:1010A000FC910488F589E02D099408950895FC01C8
:1010B000768765870895DC01ED91FC91068CF78DAC
:1010C000E02D099591E089270895862F089581E004
:1010D0008627089521E0FC018485843008F020E013
:1010E000822F08950F931F93CF938C01C62F0E94D8
:1010F000CC056C2F6460C8010E94CC056C2F6B7FFF
:10110000C8010E94CC0583EC90E00197F1F7CF91E4
:101110001F910F9108950F931F93CF93DF938C012D
:10112000D62FC42F607F642B0E94720880E1D89F65
:10113000B00111246C2BC801DF91CF911F910F9149
:101140000C947208682F606840E082EC93E00C9485
:101150008B0841E00E948B0881E090E00895FB013C
:1011600001900020E9F73197AF01461B570BDC01D6
:10117000ED91FC910280F381E02D0994CF93DF93F0
:101180000E94ED02EC0166E971E08DED92E00E94B3
:10119000AF088C0F9D1FDF91CF9108958F929F9282
:1011A000AF92BF92EF92FF920F931F93CF93DF9373
:1011B000CDB7DEB7A1970FB6F894DEBF0FBECDBF97
:1011C0007C01FA01CB0119A2223008F42AE08E0139
:1011D0000F5D1F4F822E912CB12CA12CBF01A501B8
:1011E00094010E949228F901CA016A300CF5605DF1
:1011F000D8016E938D01232B242B252B79F790E0BA
:1012000080E0109721F0BD01C7010E94AF08A196B0
:101210000FB6F894DEBF0FBECDBFDF91CF911F9107
:101220000F91FF90EF90BF90AF909F908F90089597
:10123000695CDECFCF93DF93AC0170E060E02AE021
:101240008DED92E00E94CE08EC0166E971E08DED33
:1012500092E00E94AF088C0F9D1FDF91CF910895FF
:101260008F929F92AF92BF92CF92DF92EF92FF92B6
:101270000F931F93CF93DF937C018B016C0182E06E
:10128000C80ED11C4701E5E08E0E911CD0E0C0E0F5
:10129000F60141916F0150E070E060E02AE0C80182
:1012A0000E94CE085C016EE2C8010E94F9018A0D1D
:1012B0009B1DC80FD91FC814D90451F7F7014581E8
:1012C00050E070E060E02AE0C8010E94CE088C0F78
:1012D0009D1FDF91CF911F910F91FF90EF90DF90B5
:1012E000CF90BF90AF909F908F9008956BE58DED5C
:1012F00092E00E94F9010E948504AB01BC012AE042
:101300008DED92E00E94CE0882E691E00C94ED0211
:101310006115710511F00C94AF0890E080E008951C
:10132000EF92FF920F931F93CF93DF9300D000D0E3
:1013300000D0CDB7DEB78C017B01DC0118968D9112
:101340009C91892BB1F10E94760989EE91E00E946F
:10135000ED02F801608571858DED92E00E948809AB
:101360006AE38DED92E00E94F901C7010E941A091B
:10137000D8018D919C91119718966D917C91DC010B
:10138000ED91FC910088F189E02DA701099521E0FC
:10139000019709F020E0822F26960FB6F894DEBF61
:1013A0000FBECDBFDF91CF911F910F91FF90EF90B6
:1013B00008950E94760988EF91E00E94ED02F801FD
:1013C000448150E070E060E02AE08DED92E00E9400
:1013D000CE086EE28DED92E00E94F901D8011596DB
:1013E0004C9150E070E060E02AE08DED92E00E94C8
:1013F000CE086EE28DED92E00E94F901F80146817F
:1014000050E070E060E02AE08DED92E00E94CE08AE
:101410006EE28DED92E00E94F901D80117964C9191
:1014200050E070E060E02AE08DED92E00E94CE088E
:1014300066E971E08DED92E00E94AF08F8018081CD
:101440009181DC01ED91FC910684F785E02D24E982
:1014500031E03A832983D80114964D915D916D91C5
:101460007C9117974B835C836D837E83A701BE01BC
:101470006F5F7F4F8BCFFB01808191810E94892418
:10148000892B69F061E085E00E94510387E00E94AA
:10149000A20869E971E082EC93E00C94880960E0AD
:1014A00085E00E94510387E00E94A20861EA71E092
:1014B000F2CFFB01808191810E948924892B69F000
:1014C00061E084E00E94510387E00E94A2086AEA7A
:1014D00071E082EC93E00C94880960E084E00E9463
:1014E000510387E00E94A20863EB71E0F2CF0F93F3
:1014F0001F93CF93DF93EC0188819981009759F076
:101500002A813B812617370730F081E0DF91CF91A8
:101510001F910F9108958B016F5F7F4F0E94972954
:10152000009759F0998388831B830A832C813D811E
:10153000232B59F7FC011082E8CF80E0E7CF85ED3F
:101540008093BC0080918A0290918B02A0918C02C2
:10155000B0918D020796A11DB11D23E0B695A79508
:10156000979587952A95D1F72091BC0024FD03C05B
:1015700010928802089540918A0250918B026091E6
:101580008C0270918D02452B462B472B69F30097F7
:10159000A105B10541F02AE22A95F1F700C00197B3
:1015A000A109B109E1CF809189020C942605CF925F
:1015B000DF92EF92FF920F931F93CF93DF9300D0B0
:1015C00000D0CDB7DEB78C016B017A010E94D20644
:1015D0000F3F110509F030F519820A831B8263E081
:1015E00070E0CE0101960E94B306A70170E060E0B2
:1015F000C6010E945D2AE114F10421F0B701C60181
:101600000E94B3060E94CD06C7010F900F900F9065
:101610000F90DF91CF911F910F91FF90EF90DF908E
:10162000CF90089517FD0BC019820A8333E01695F9
:1016300007953A95E1F7007E08600B83D0CFC8018B
:1016400026E0969587952A95E1F7807E19830A838F
:101650000115104C18F480618B83C1CF8861FCCFD9
:101660001F93CF93DF931F92CDB7DEB7182F80E57E
:1016700091E00E94EF01812F0E94500727E0129F06
:10168000F0011124EF53FD4F22813381377041E087
:1016900050E0BE016F5F7F4F820F931F0E94D70AF9
:1016A00089810F90DF91CF911F910895FC01808D6A
:1016B000843040F4218D328D232B21F00E94300B99
:1016C00090E008958FEF9FEF0895CF93DF93FC0193
:1016D0002485243028F08FEF9FEFDF91CF9108957C
:1016E000EC010190F081E02D0084F185E02D099559
:1016F000892B89F38C850E94300B90E0EECFCF933D
:10170000DF931F92CDB7DEB79B0190E0982F88271B
:1017100041E050E0BE016F5F7F4F820F931F0E9438
:10172000D70A89810F90DF91CF910895CF93C82F69
:10173000462F61E070E00E948B0761E070E08C2F23
:101740000E947F0B8111F9CFCF910895CF93C82FBD
:1017500080E591E00E94EF0168E070E08C2FCF916E
:101760000C94960BCF93C82F80E591E00E94EF0177
:1017700060E170E08C2FCF910C94960BCF93DF93A8
:10178000EC01888D843020F40E94B20B84E0888FB5
:10179000DF91CF910895CF93C82F80E591E00E940B
:1017A000EF0163E070E08C2FCF910C947F0BCF930F
:1017B000DF93EC018C858430D0F40E94CB0B843114
:1017C00089F0882379F0883169F021E08C3159F46F
:1017D000E881F9810084F185E02DCE01099521E0B1
:1017E000892B09F420E0822FDF91CF91089580E0CA
:1017F000FBCFCF92DF92EF92FF92CF93DF93EC017A
:101800008C85843068F40E94A60B0E9485046B01CD
:101810007C018C850E94CB0B811109C084E08C87F0
:10182000DF91CF91FF90EF90DF90CF90089561E02E
:1018300070E080E090E00E9452040E948504AB01B9
:10184000BC014C195D096E097F098D859E85B0E04C
:10185000A0E0481759076A077B07D8F28C850E94D9
:10186000B20BDCCFCF93FC01C08D80E591E00E94EC
:10187000EF0160E270E08C2F0E94960B62E070E056
:101880008C2F0E947F0B84FD16C062E070E08C2FCD
:101890000E947F0B83FF0AC048E162E070E08C2F5A
:1018A0000E948B0780E090E0CF91089580E591E061
:1018B0000E94EF01E3CF40E162E070E08C2F0E94D4
:1018C0008B0781E0F0CFFB01BA0190E0982F8827C9
:1018D000A9018E0F9F1F0C94D70A84E00895EF9200
:1018E000FF920F931F93CF93DF9300D000D000D0CF
:1018F000CDB7DEB78C017A01FC01808D843010F405
:101900000E94B20BB701CE0101960E946D0CF80146
:10191000808F843090F4F586E486128E118E81E0FB
:1019200026960FB6F894DEBF0FBECDBFDF91CF91E4
:101930001F910F91FF90EF90089580E0F1CFAF924B
:10194000BF92CF92DF92EF92FF920F931F93CF93AC
:10195000DF9300D000D000D0CDB7DEB7082F6B01E9
:1019600080E591E00E94EF019E012F5F3F4F7901DA
:10197000590110E063E070E0812F0E947F0BF501B8
:1019800081935F01882341F11F5F143099F710E0C4
:10199000F70181917F018D31D1F08831C1F08A51F9
:1019A0008230A8F01F5F143099F7812F26960FB66A
:1019B000F894DEBF0FBECDBFDF91CF911F910F9185
:1019C000FF90EF90DF90CF90BF90AF90089560E1CF
:1019D00070E0812F0E94960BE12EF12C83EE93E0B4
:1019E0000197F1F7402F70E060E0812F0E948B0794
:1019F0004FEF62E070E0812F0E948B07B601CD2887
:101A000089F4809100019091010101968115F0EC1B
:101A10009F0798F19093010180930001609100016C
:101A200070910101812F0E94760761E070E0812FA3
:101A30000E94960B27E02E9DC0012F9D900D112432
:101A40009C012F533D4F7901F9011182108222E050
:101A500030E0AE014B5F5F4F68E270E0812F0E9483
:101A6000630C8D819E81982789279827F70193839E
:101A7000828316821582148298CF80E090ECCACFC0
:101A80000F931F93CF93DF93EC018B018C858430F0
:101A900048F40E94CB0B882319F08C850E94A60B7A
:101AA00084E08C87F80182819381A481B5810097BD
:101AB000A105B10539F08F3F9F4FAF4FBF4F11F0D8
:101AC00084E08C8790E080E0DF91CF911F910F91AF
:101AD0000895CF93DF93EC01888D843010F40E9439
:101AE000B20B84E0888F80E0DF91CF9108956F92F0
:101AF0007F929F92AF92BF92CF92DF92EF92FF922E
:101B00000F931F93CF93DF9300D0CDB7DEB7982EFE
:101B10007B013A01590122E030E0AE014F5F5F4F97
:101B200064E270E00E94630C09811A81102701278A
:101B300010270E0D1F1D98013770C92CD12C60E1A4
:101B4000C60ED11CDC2CCC24DD0CDD0CDD0CC90157
:101B50008C0D9D1DA9014A0D5B1D4130584080F13F
:101B600060E078E07B01E21AF30AA701B3010E946A
:101B7000DE06A5014E195F09B3016E0D7F1DC6017A
:101B80000E94DE060A0D1B1D19830A8322E030E045
:101B9000AE014F5F5F4F64E270E0892D0E945707EE
:101BA0000F900F90DF91CF911F910F91FF90EF90C9
:101BB000DF90CF90BF90AF909F907F906F900895EF
:101BC000A501B301DDCFEF92FF921F93CF93DF9377
:101BD00000D0CDB7DEB7182F22E030E0AE014F5F66
:101BE0005F4F60E270E00E94630CE980FA80FE249F
:101BF000EF24FE2422E030E0AE014F5F5F4F60E251
:101C000070E0812F0E94630C89819A81982789272F
:101C10009827E816F90689F487E0189FF001112447
:101C2000EF53FD4FF582E482C7010F900F90DF91D3
:101C3000CF911F91FF90EF9008957C01DBCF1F9310
:101C4000CF93DF93182F80E591E00E94EF01812F61
:101C50000E94E30DEC0163E070E0812F0E947F0B96
:101C6000873121F08C3111F0D0E0C0E0CE01DF915E
:101C7000CF911F910895CF93DF93EC018C85843031
:101C800060F40E94CB0B873111F08C3131F48C85DC
:101C90000E941F0E8115984088F3DF91CF9108951F
:101CA000FC018485843010F40C941F0E90E080E0D9
:101CB00008959F92AF92BF92CF92DF92EF92FF92E0
:101CC0000F931F93CF93DF938C015B01942EE52E2E
:101CD000FC01C688D788F08C80E591E00E94EF0176
:101CE0008F2D0E94E30DC92DDE2D8C179D0708F462
:101CF000EC019E01A501B6018F2D0E94770DF80120
:101D0000868997898C0F9D1F978B868BCE01DF91DB
:101D1000CF911F910F91FF90EF90DF90CF90BF90E8
:101D2000AF909F9008958F929F92AF92BF92CF9263
:101D3000DF92EF92FF920F931F93CF936C015B01A1
:101D40008A01FC01C485C430F0F57A014130584065
:101D500018F0E12C88E0F82E80E591E00E94EF0178
:101D60008C2F0E94E30D4C0163E070E08C2F0E94E9
:101D70007F0B873111F08C3149F58E149F0460F38D
:101D800080E591E00E94EF019701A50170E060E01D
:101D90008C2F0E94770D60E270E08C2F0E94960BD2
:101DA00062E070E08C2F0E947F0B84FD17C063E01F
:101DB00070E08C2F0E947F0B81110BC081E090E0BE
:101DC000F6019383828310E000E010C0F12CE12C37
:101DD000D7CF80E591E00E94EF01E2CF40E162E0E1
:101DE00070E08C2F0E948B07EF2841F3C801CF9140
:101DF0001F910F91FF90EF90DF90CF90BF90AF9029
:101E00009F908F900895FF920F931F93CF93DF932E
:101E100000D0CDB7DEB7F82E22E030E0AE014F5F44
:101E20005F4F66E270E00E94630C09811A811027FF
:101E30000127102722E030E0AE014F5F5F4F66E2DE
:101E400070E08F2D0E94630C89819A8198278927E1
:101E500098270817190749F4C8010F900F90DF91D0
:101E6000CF911F910F91FF9008958C01E3CF1F93A5
:101E7000CF93DF93182F87E0189FE0011124CF53F1
:101E8000DD4F88819981009761F480E591E00E949F
:101E9000EF01812F0E94030F2E81821B91099983EC
:101EA0008883DF91CF911F910895FC018485843050
:101EB00010F40C94370F90E080E008953F924F9219
:101EC0005F926F927F928F929F92AF92BF92CF92CA
:101ED000DF92EF92FF920F931F93CF93DF9300D087
:101EE000CDB7DEB7382E6B017A01A82EB12C27E0D2
:101EF000829FC0011124FC01EF53FD4F4F0100816F
:101F0000118180E591E00E94EF010E151F0554F448
:101F1000832D0E94030FF40126818C01021B1109FD
:101F2000118300830115110539F563E070E0832DFD
:101F30000E947F0B843159F0882349F001E010E0C2
:101F40008C3111F410E000E0119501951109C801E0
:101F50000F900F90DF91CF911F910F91FF90EF9015
:101F6000DF90CF90BF90AF909F908F907F906F90B9
:101F70005F904F903F900895E016F1060CF48701B2
:101F800087E08A9DF0018B9DF00D1124EF53FD4FEA
:101F900042805380C114D10419F13201F7E07F224D
:101FA000832D0E9450074C01C301880D991D980193
:101FB000260D371D2130384008F448C060E078E035
:101FC0007B01E618F708A701B6010E94D70AA8010D
:101FD0004E195F09B6016E0D7F1DC4010E94D70A1C
:101FE000400E511E87E08A9DF0018B9DF00D11245B
:101FF000EF53FD4F5382428220813181201B310BF0
:10200000318320838681800F912F911D8A3F910516
:1020100010F4232BF1F487E08A9DF0018B9DF00DE5
:102020001124EF53FD4F168259824A8222E030E09C
:10203000AE014F5F5F4F68E270E0832D0E9457074B
:1020400060E470E0832D0E94960B81CFA801B60159
:10205000C5CF86837CCFCF93DF93FC01218D328D5A
:102060002115310529F48FEF9FEFDF91CF9108956E
:10207000EC01808D4217530708F0A9010E945E0F02
:102080001816190684F7298D3A8D281B390B3A8FBB
:10209000298FEBCF0F931F93CF93DF931F92CDB771
:1020A000DEB7FC01218D328D232B41F48FEF9FEFA2
:1020B0000F90DF91CF911F910F9108958C0141E016
:1020C00050E0BE016F5F7F4FFC01808D0E945E0F6C
:1020D000181619065CF7F801818D928D0197928F81
:1020E000818F898190E0E4CFCF93DF931F92CDB7AA
:1020F000DEB741E050E0BE016F5F7F4FFC01848599
:102100000E945E0F1816190634F4898190E00F9032
:10211000DF91CF9108958FEF9FEFF9CFFC01848578
:10212000843010F40C945E0F90E080E008950F93DB
:102130001F93CF93DF9300D0CDB7DEB7FC0124858A
:102140002430E0F48C0180E591E00E94EF0122E070
:1021500030E0AE014F5F5F4F60E170E0F8018485D1
:102160000E94630C89819A819827892798270F906C
:102170000F90DF91CF911F910F91089590E080E033
:10218000F6CF0F931F93CF93DF9300D0CDB7DEB779
:10219000FC0124852430E0F48C0180E591E00E946C
:1021A000EF0122E030E0AE014F5F5F4F64E070E08E
:1021B000F80184850E94630C89819A819827892778
:1021C00098270F900F90DF91CF911F910F91089555
:1021D00090E080E0F6CF0F931F93CF93DF93CDB7BE
:1021E000DEB728970FB6F894DEBF0FBECDBF8C01C7
:1021F000D80159964D915C915A974115510551F06E
:10220000ED91FC91048CF58DE02D70E060E0C8014B
:102210000995EECFF801808D0E94370F892BB1F11F
:1022200048E050E0BE016F5F7F4FD80158968C9117
:102230000E945E0F18161906F4F4D801509684E037
:10224000FE01319601900D928A95E1F78D8190E023
:10225000982F88272E81820F911DF801958B848BF2
:102260008F81282F30E0322F22278885820F932FED
:10227000911D928F818F28960FB6F894DEBF0FBE06
:10228000CDBFDF91CF911F910F91089590E080E035
:10229000F2CF4F925F926F927F928F929F92AF9206
:1022A000BF92CF92DF92EF92FF920F931F93CF9343
:1022B000DF93CDB7DEB763970FB6F894DEBF0FBEDE
:1022C000CDBF7C016B013A01FB0120E090E080E092
:1022D0006AE03191332309F461C040ED430F4A3085
:1022E00008F04DC0689FA001699F500D1124CA01DC
:1022F000C097830F911D37FD9A958F3F910549F344
:1023000040F3F70142815381648175818091B2036A
:102310009091B303A091B403B091B5034817590746
:102320006A077B0709F40DC28701085F1F4F0E94EF
:1023300085046F7077277C5FC8010E94690D81302A
:1023400009F004C284E991E09A838983F7018281CC
:102350009381A481B5818B839C83AD83BE8345E348
:1023600050E0BE016F5F7F4FC8010E94DA07892BE2
:10237000A9F5D12CC12CC8010E94BE0B17C03E325A
:1023800009F0BFCF233009F4BCCFD301A20FB11D98
:1023900012968C932F5F90E080E09BCF233009F062
:1023A000B0CFF3018583CC24C394D12CC6016396AE
:1023B0000FB6F894DEBF0FBECDBFDF91CF911F9156
:1023C0000F91FF90EF90DF90CF90BF90AF909F90D4
:1023D0008F907F906F905F904F9008950E9485043A
:1023E000F7017783668342E050E0B7016A5F7F4F71
:1023F000C8010E94590E81E090E09A83898342E0EF
:1024000050E0BE016F5F7F4FC8010E94590E80E00F
:1024100091E09A83898342E050E0BE016F5F7F4F75
:10242000C8010E94590E1A82198242E050E0BE0192
:102430006F5F7F4FC8010E94590E42E050E0BE011D
:102440006F5F7F4FC8010E94590E42E050E0BE010D
:102450006F5F7F4FC8010E94590E5601F6018081BF
:10246000882301F16501F60181912F01882311F084
:102470008E32B1F446018A189B081814190474F4BA
:102480008D8641E050E0BE01635F7F4FC8010E942E
:10249000590EA401B501C8010E94590E5201DECFA8
:1024A0006201E1CF1D8641E050E0BE01635F7F4FD6
:1024B000C8010E94590EC12CDD24D394DA82C9824E
:1024C00042E050E0BE016F5F7F4FC8010E94590E8D
:1024D000DA82C98242E050E0BE016F5F7F4FC801DF
:1024E0000E94590EC8010E94320C892B09F441CF79
:1024F000F3E0AF2EB12C230122E0420E511CD4C0D8
:10250000F7014281538164817581808D918DA28D07
:10251000B38D481759076A077B0709F008C1848DF6
:10252000958DC59709F003C181A192A15DEFC52EDC
:10253000DD24DA940C970CF4ADC04CE050E0BE0101
:102540006F5F7F4FC8010E942B108B819C81982761
:10255000892798279A8B898BF70146815781298192
:102560003A814217530709F0E7C097FFE5C08F7023
:1025700092703BEFC32EDD24DA94892B09F08AC0D8
:102580006F8078847624672476242AEFC22EDD2497
:10259000DA946114710409F47DC0D12CC12C8D81B1
:1025A0009E81982789279827C816D906F8F441E014
:1025B00050E0BE01635F7F4FC8010E942B104D8524
:1025C000442331F050E070E060E0C8010E942B101D
:1025D0008D858111ECCF44E050E070E060E0C801EF
:1025E0000E942B10FFEFCF1ADF0AD9CF912C812C3C
:1025F00041E050E0BE016D5E7F4FC8010E942B108C
:102600004B89842F807C09F06CC0442331F050E06A
:1026100070E060E0C8010E942B108B898111E8CF27
:1026200042E050E0BE01615F7F4FC8010E942B1065
:1026300042E050E0BE01635F7F4FC8010E942B1053
:1026400044E050E070E060E0C8010E942B1042E0DE
:1026500050E0BE016F5E7F4FC8010E942B108F8536
:10266000988949895A898115914009F043C0CD84E0
:10267000DE84DC24CD24DC2481E0C816D104D1F52D
:102680004115544009F04AC044E050E0B201C8018D
:102690000E942B1021E0A21AB10809F46CCEFFEFC2
:1026A000CF16DF0609F067CE0E9485043B014C017E
:1026B000C8010E94EB10181619060CF421CF0E94D5
:1026C0008504661977098809990969387341810574
:1026D000910548F562E370E080E090E00E945204CA
:1026E000E7CF41E050E070E060E0C8010E942B10AD
:1026F0001B8A93CF54274527542770E060E0C80118
:102700000E942B10FFEF8F1A9F0A6814790409F0BA
:102710006FCF96EFC92EDD24DA94BCCFE7EFCE2E33
:10272000DD24DA94B7CFCC24CA94DC2CB3CF6EEF7F
:10273000C62EDD24DA94AECF4CEFC42EDD24DA941D
:10274000A9CF8EEFC82EDD24DA9430CED12CC12C47
:102750002DCECF92DF92EF92FF920F931F93CF93E4
:10276000DF93CDB7DEB7AF970FB6F894DEBF0FBEDD
:10277000CDBF7C016A0104E911E01A8309831C863C
:102780001B8688EE93E0A0E0B0E08D879E87AF8740
:10279000B88B8CE091E09A878987188F0F8B198E00
:1027A0001A8E1B8E1C8E84E089A31BA70AA71CA669
:1027B0001DA61EA61FA68091A6039091A703A09117
:1027C000A803B091A9038EA39FA3A8A7B9A78B8341
:1027D0009C83AD83BE8318861F82AE01465D5F4F2A
:1027E000CE0101960E94491181309105B1F4D701C3
:1027F000ED91FC910488F589E02D1DA30CA38CA517
:102800009DA5AEA5BFA58EA39FA3A8A7B9A7A60106
:10281000BE016C5D7F4FC7010995AF960FB6F89466
:10282000DEBF0FBECDBFDF91CF911F910F91FF9003
:10283000EF90DF90CF900895CF92DF92EF92FF92CA
:102840000F931F93CF93DF93CDB7DEB7AF970FB63C
:10285000F894DEBF0FBECDBF8C016B017A0184E915
:1028600091E09A8389831B821C821D821E821C86B2
:102870001B8648EE53E060E070E04D875E876F870F
:10288000788B2CE031E03A872987988F8F8B198ECF
:102890001A8E1B8E1C8E24E029A39BA78AA71CA638
:1028A0001DA61EA61FA6D8011C968C91843060F42C
:1028B0000E94CB0B882321F0F80184850E94A60B8F
:1028C00084E0D8011C968C938091A6039091A70375
:1028D000A091A803B091A9038EA39FA3A8A7B9A70D
:1028E0008B839C83AD83BE8318861F82AE01465DB9
:1028F0005F4FB601CE0101960E9449110097C1F0C9
:10290000D801ED91FC910684F785E02D84E991E0F2
:102910009DA38CA38CA59DA5AEA5BFA58EA39FA3AB
:10292000A8A7B9A7A701BE016C5D7F4FC801099593
:10293000AF960FB6F894DEBF0FBECDBFDF91CF913B
:102940001F910F91FF90EF90DF90CF900895EF923D
:10295000FF920F931F93CF93DF9300D000D0CDB79A
:10296000DEB78C017B01FB0184858430A8F084E90B
:1029700091E0F80191838083128213821482158280
:10298000C8010F900F900F900F90DF91CF911F9182
:102990000F91FF90EF90089580E591E00E94EF0184
:1029A00024E030E0AE014F5F5F4F6CE070E0F70174
:1029B00084850E94630C84E991E0F801918380830F
:1029C00089819A81AB81BC8182839383A483B583FF
:1029D000D7CF0F931F93CF93DF93EC01FB010190AF
:1029E0000020E9F78F01061B170B8A819B81A80144
:1029F000480F591F2C813D812417350768F0288125
:102A00003981A801820F931F0E94542A4A815B8159
:102A1000400F511F5B834A83DF91CF911F910F912C
:102A200008950F931F93CF93DF93CDB7DEB7289709
:102A30000FB6F894DEBF0FBECDBF8C01CB014AE0CC
:102A4000BE016F5F7F4F0E94D724BE016F5F7F4F33
:102A5000C8010E94E91428960FB6F894DEBF0FBE95
:102A6000CDBFDF91CF911F910F9108953F924F926B
:102A70005F926F927F928F929F92AF92BF92CF920E
:102A8000DF92EF92FF920F931F93CF93DF93CDB717
:102A9000DEB7A1970FB6F894DEBF0FBECDBF5C01C5
:102AA0000DB71EB719A308A360E070E0CB010E9428
:102AB0005204D50191968D919C919297912C0297F9
:102AC00009F4C4C390968C9190978F5F90968C93E5
:102AD00090975E962D913C91232B19F09924939415
:102AE000AEC38330D8F7F501828593850E94330801
:102AF000882309F484C38E010F5F1F4F3801D5016D
:102B00001A96ED91FC9180819181DC01ED91FC910F
:102B10000084F185E02D0995181619060CF06FC395
:102B2000D5011A96ED91FC9145E050E0BE01695E39
:102B30007F4F808191810E949104009701F3059756
:102B400009F074C0888D998D982789279827998FC7
:102B5000888FEA8CFB8CFE24EF24FE24FB8EEA8E09
:102B6000892B09F463C08F89811174C00E94850488
:102B7000F501608B718B828B938B21A132A18A8DA1
:102B80009B8D232B09F062C0288D398D21303105B2
:102B900009F05CC089309105E1F1883C910519F09C
:102BA000049709F048C00E94760980E292E00E94F2
:102BB000ED02D50150964D915D916D917C915397A9
:102BC00058968D919D910D90BC91A02D481B590B4D
:102BD0006A0B7B0B2AE08DED92E00E94CE088BE120
:102BE00092E00E94BE08F50180899189A289B3898B
:102BF000808F918FA28FB38F01E010E012A301A309
:102C0000C5010E94EC1E60E070E0CB010E945204FE
:102C100076CF0E9476098CE493E00E94BE0883E0A0
:102C200090E0D50192969C938E939197D5011A9638
:102C30008D919C9101C30E94760985E393E00E94E7
:102C4000ED028A8D9B8D0E941A09F0CF059709F03D
:102C500056CFECCFB1E0EB16FB0690F00E94760960
:102C600084E293E00E94ED028A8D9B8D0E941A09F6
:102C7000F50112A211A2828593850E9446083FCFDA
:102C80008DB69EB6C70101960DB71EB7081B190B6E
:102C90000FB6F8941EBF0FBE0DBF0F5F1F4FD501BB
:102CA0001A96ED91FC91A701B801808191810E9453
:102CB00091048E159F0509F064C0EA8DFB8DE00F2D
:102CC000F11F10820E948504F501608B718B828B4D
:102CD000938B8F89843109F4C7C0E8F48F3009F4ED
:102CE000C3C0813109F45FC2863009F080C2488DCB
:102CF000598DD12CC12CF12CE12C08EC10E030E0E6
:102D000020E060E0C5010E942F1A0FB6F8949EBE25
:102D10000FBE8DBEF4CE8932F1F0873309F458C26C
:102D20008D3109F064C281A192A1892B01F70E9423
:102D300076098EE193E00E94BE0801E010E0F50103
:102D400012A301A3C5010E94EC1E60E070E0CB015C
:102D50000E945204CCCF86859785892B39F480E474
:102D600090E00E946423F50197878687EA8CFB8CAC
:102D7000E00EF11E1A830983FC82EB820E151F05FB
:102D800030F00FB6F8949EBE0FBE8DBE4FCF40E41C
:102D900050E0B801D5011E968D919C910E94742A35
:102DA000D5011E96ED91FC9117AEC3010E94CA1E7B
:102DB000FC018081918100E510E08E159F0570F483
:102DC00089819A81009709F44BC02B813C8182173D
:102DD000930708F045C00E94A7248B010E94760942
:102DE0008EE093E00E94ED02D5011E966D917C91DC
:102DF0008DED92E00E9488096AE38DED92E00E94D9
:102E0000F901C8010E941A09F501828593850E9483
:102E10004608D5011A96ED91FC911B971E968D914F
:102E20009C911F97918780871387028792961C92A7
:102E30001E9291970E948504DC01CB018858934132
:102E4000A109B109F501848B958BA68BB78B808B7B
:102E5000918BA28BB38B808F918FA28FB38F55CF25
:102E600060E070E0CB01B9CF888D998DD5015F9678
:102E70009C938E935E974A8C5B8C6801C40CD51C26
:102E80001D8F0C8FDF8ECE8E0C151D0508F013C123
:102E9000F801E080F180CE014C960E94CA1EDC0150
:102EA0008D919C918C159D0508F005C18C8D9D8D93
:102EB000FC012081213459F401960E9489244EE0BE
:102EC000342E380E069744F033243A9405C0CE01D0
:102ED0004C960E94DD1E382EF6E7EF16F2E7FF064D
:102EE00009F406C138F531E6E31632E7F30609F4D2
:102EF000E6C044E6E41642E7F40609F478C050E779
:102F0000E5165DE6F50609F037C18C8D9D8D8C15B3
:102F10009D0508F0D0C0FC0120812134A9F501965F
:102F20000E9489243EE0F32EF80E069794F1FF24C8
:102F3000FA942FC084E6E81687E7F80609F4A2C0E1
:102F400096E7E91697E7F90609F4E9C0A1E6EA165B
:102F5000A7E7FA0609F010C1CE014C960E94CA1EDE
:102F6000DC018D919C918C159D0508F0A4C061E059
:102F7000832D0E947F03CE014C960E94DD1EBC0172
:102F8000832D0E94BB0397C0CE014C960E94DD1E8C
:102F9000F82ECE014C960E94CA1E0C8D1D8D6DEB35
:102FA00071E0C8010E94642A60E0892B79F060EC2E
:102FB00071E0C8010E94642A892B39F064EC71E049
:102FC000C8010E94642A892B49F461E08F2D0E9478
:102FD0007F03CE014C960E94CA1E97CF68EC71E029
:102FE000C8010E94642A892BA1F762E0EFCF7A8A98
:102FF000698A1C8A1B8A00E110E01E8B0D8B6BEC2A
:1030000071E0CE0141960E94E914032D10E0B80151
:10301000CE0141960E941115F801E05AFD4F8491AE
:10302000F801E45BFD4FF490085C1D4FF80104913A
:1030300060E070E0002389F081110E942803E02FF6
:10304000F0E0EE0FFF1FE25DFD4FA591B491EC9112
:10305000FE2261E070E009F460E0CE0141960E943A
:1030600011150B891C890150110929893A89D12C24
:10307000C12CF12CE12C50E040E064E1C5010E943C
:103080002F1A19C0CE014C960E94CA1EDC018D91E8
:103090009C918C159D0578F461E0832D0E947F033F
:1030A000CE014C960E94DD1E61E0892B09F460E0A0
:1030B000832D0E945103F501178E168E26CE7A8A33
:1030C000698A1C8A1B8AE0E1F0E0FE8BED8B6EECD6
:1030D00071E0CE0141960E94E914632D70E0CE01AB
:1030E00041960E941115832D0E941804BC01B5CF92
:1030F0003982BFE1B315F8F2E32DF0E0EE0FFF1FC8
:10310000EC58FD4F2591349121153105A1F2E1E0F4
:103110002E3E3E0781F2C301F9010995CCCFCE01C5
:103120004C960E94CA1E8C8D9D8D9C01201B310BDC
:10313000421A530A9A8389835C824B825E824D8253
:10314000398AFFE1F31508F4B6CFE32DF0E0EE0F76
:10315000FF1FEC54FD4F259134912115310509F4E1
:10316000AACF01E02D3E300709F4A5CFB301CE016F
:103170004196F90109959FCF0E94760984EF92E06C
:103180000E94ED02C8010E94B71ED5015E964D91C6
:103190005C91D12CC12CF12CE12C02E010E030E04C
:1031A00020E060E06BCF8A8D9B8D800F911F1A838A
:1031B00009839C838B830817190708F0A6CDC301E8
:1031C0000E94CA1ED5015F961C921E925E979DCDED
:1031D0008A8D9B8D892B09F498CD0E94760985E014
:1031E00093E00E94ED02C8010E94B71E8ECDF5014A
:1031F00012A211A2828593850E94460886CD0E9464
:1032000085042B013C01F501828593850E943308DA
:10321000D50191962D913C9192972130310509F07D
:1032200094C0F501811132C0408E518E628E738E32
:1032300012A211A2828593850E944608912CD50185
:1032400090968C919097815090968C93892DE8A1BF
:10325000F9A10FB6F894FEBF0FBEEDBFA1960FB651
:10326000F894DEBF0FBECDBFDF91CF911F910F91BC
:10327000FF90EF90DF90CF90BF90AF909F908F9096
:103280007F906F905F904F903F90089580899189D3
:10329000A289B38993018201081B190B2A0B3B0BEE
:1032A000D901C801893116EF9107A105B10560F078
:1032B0000E9476098DE693E00E94BE08D5019296A1
:1032C0001C921E929197B3CC893C9F4AA105B105EF
:1032D00098F4F50184899589A689B78993018201BB
:1032E000081B190B2A0B3B0BD901C801893C9F4ACB
:1032F000A105B10508F4F2CBF501808D918DA28D69
:10330000B38D93018201081B190B2A0B3B0BD901CA
:10331000C80181379741A105B10508F4DFCBD12C55
:10332000C12CF12CE12C10E000E030E020E050E076
:1033300040E066E0C5010E942F1AD50158964D92D3
:103340005D926D927C925B97C9CB232B09F0C6CB23
:10335000F501408D518D628D738D93018201041BA7
:10336000150B260B370BB901A8018823B1F04137A3
:1033700057416105710508F4B1CB0E9476098FE5CC
:1033800093E00E94BE08D5011A968D919C910E94EF
:103390004608F50112A211A251CF493853416105E7
:1033A000710508F49BCB1A968D919C910E9446085A
:1033B000F50102851385D8011A966D917C91C8019B
:1033C0000E949009F801848781110DC08285938540
:1033D0008035910599F460E97FE1C8010E94900968
:1033E000D8011C968C93D8011C969C90911011C00A
:1033F000F501408E518E628E738E21CF80399F41B0
:1034000091F760E570E0C8010E949009F801848797
:10341000EACF81E090E0D5015D969C938E935C9716
:103420001C962D913C91F90101900020E9F731970C
:103430008F01021B130BD12CC12CF12CE12C41E08C
:1034400050E06DE1C5010E942F1AF501848995892C
:10345000A689B789808F918FA28FB38FF0CE2F92DC
:103460003F924F925F926F927F928F929F92AF9214
:10347000BF92CF92DF92EF92FF920F931F93CF9361
:10348000DF93CDB7DEB7C854D1090FB6F894DEBFCD
:103490000FBECDBF4C0168AF5AAF49AF27963FAFC3
:1034A0002EAF279721961FAF0EAF21972996FFAE1B
:1034B000EEAE29972396DFAECEAE2397DC011A96A7
:1034C0008D919C910E943308882309F4B7C1B8AD4F
:1034D000BB2351F0B63041F0BD3131F0F40181A190
:1034E00092A1019709F0AAC188AD8F508630A0F54E
:1034F000D40154964D915D916D917C915797509662
:10350000CD90DD90ED90FC905397C416D506E6065D
:10351000F70610F46A017B01B2E4CB0ED11CE11C6A
:10352000F11C0E948504A7019601261B370B480B4E
:10353000590BDA01C901B7FD9BC1C4010E943615C0
:103540000E948504A7019601261B370B480B590BD7
:10355000DA01C901B7FFF1CFF401808191810197B0
:1035600009F0B2C082E090E09183808322813381B0
:10357000448155816681778180859185A0E0FE0137
:103580007A960E94852909F486C1FBABEAAB1DAA95
:103590001CAA88E190E09FAB8EAB62EC71E0CE019B
:1035A000C2960E94E914D40112964C901297139679
:1035B0005C90139714966C90149715967C901597C1
:1035C0001696BC91BBAFF401F781FCAFD4011896FD
:1035D0002C90189719963C90198E9201A3016BAD0F
:1035E0007F2FC101A0E00E94852909F44AC1FE0194
:1035F00079962596FFAFEEAF259727E130E03EAFF5
:103600002DAF8AE0A82EB12CC12CD12CE12CF12CAD
:1036100000E010E09201A3016BAD7CADC1010E94FE
:103620002629F901ED52FE4F80812596AEADBFAD42
:1036300025978E932596BFAFAEAF2597EDADFEAD26
:103640003197FEAFEDAF9AE0A92EB12CC12CD12C51
:10365000E12CF12C00E010E09201A3016BAD7CADF8
:10366000C1010E94282929013A016BAF7CAF1C01DE
:10367000A0E00E94852921F04DAD5EAD452B09F6F5
:103680006DAD7EAD6C0F7D1F6E5F7F4F09F0FEC08C
:10369000EAA9FBA98CA99DA99C012F5F3F4F3DABD7
:1036A0002CABE80FF91F10820CA91DA901501109BC
:1036B0002AA93BA9D12CC12CF12CE12C50E040E0EF
:1036C00065E1C4010E942F1A29AD3AAD232BB9F44C
:1036D000D4015E960D90BC91A02DBAAFA9AFAB2BD3
:1036E00071F4F401848D958D019609F4E9C0958FEC
:1036F000848FF401048CF58DE02DFAAFE9AF2796A5
:103700002EAD3FAD279721960EAD1FAD21970B5FD4
:103710001F4F232B11F405E010E029964EAD5FAD4D
:10372000299790E080E0452B21F023968EAD9FAD48
:103730002397080F191F58AD598389AD9AAD982763
:10374000892798279B838A8321968EAD9FAD2197E9
:103750002396AEADBFAD23978A0F9B1F982789276D
:1037600098279D838C83D4011A96ED91FC918081DA
:103770009181DC01ED91FC910280F381E02D45E027
:1037800050E0BE016F5F7F4F09957C0160E070E003
:10379000CB010E945204B8ADBB2309F444C021966A
:1037A000EEADFFAD2197EF2BE1F0D4011A96ED912C
:1037B000FC9180819181DC01ED91FC910280F3818B
:1037C000E02D21964EAD5FAD219727966EAD7FAD72
:1037D00027970995E80EF91E60E070E0CB010E9482
:1037E00052042396EEADFFAD2397EF2BE1F0D40109
:1037F0001A96ED91FC9180819181DC01ED91FC9113
:103800000280F381E02D23964EAD5FAD239729967C
:103810006EAD7FAD29970995E80EF91E60E070E066
:10382000CB010E945204E016F10609F44EC0F401E7
:1038300012A211A2828593850E944608C85BDF4FC1
:103840000FB6F894DEBF0FBECDBFDF91CF911F91B1
:103850000F91FF90EF90DF90CF90BF90AF909F902F
:103860008F907F906F905F904F903F902F90089532
:10387000D40190968C9181116FCEC4010E943615AF
:103880006BCE80E3888FBE01685E7F4FCE01C2960B
:103890000E94E91409CFFA83E9831C821B8284E029
:1038A00090E09E838D8361ED71E0CE0101960E94D0
:1038B000E9140B811C810150110929813A81FACE4A
:1038C00081E090E0958F848F14CF0E948504D4010D
:1038D00054966D937D938D939C935797AFCFCF92D2
:1038E000DF92EF92FF920F931F93CF93DF93CDB7A9
:1038F000DEB7C75AD1090FB6F894DEBF0FBECDBFF1
:103900008EE00E9418048C01CE010196CE55DF4F47
:1039100099838883C25AD040CC55DF4F19821882D0
:10392000C45AD04080E890E0CA55DF4F998388831D
:10393000C65AD04067EF71E0CE018E559F4F0E946E
:10394000E9146EE070E0CE018E559F4F0E94111574
:10395000B801110F880B990B0E94622720E030E01C
:1039600040EA50E40E949D2720E030E040E85AE31E
:103970000E949D272AE037ED43E25CE30E94B428D1
:103980008E010F571F4F23E045E00E944623B801E8
:10399000CE018E559F4F0E94E914CC55DF4F088110
:1039A0001981C45AD04001501109CE55DF4F2881EA
:1039B0003981C25AD040D12CC12CF12CE12C50E0DD
:1039C00040E064E180E894E00E942F1AC955DF4F7F
:1039D0000FB6F894DEBF0FBECDBFDF91CF911F9120
:1039E0000F91FF90EF90DF90CF9008951F920F926C
:1039F0000FB60F9211242F933F934F935F936F93C2
:103A00007F938F939F93AF93BF93EF93FF938DED2E
:103A100092E00E947E02FF91EF91BF91AF919F9142
:103A20008F917F916F915F914F913F912F910F9067
:103A30000FBE0F901F9018951F920F920FB60F9206
:103A400011242F938F939F93EF93FF93E091ED02B7
:103A5000F091EE028081E091F302F091F40282FD98
:103A60001BC090818091F6028F5F8F732091F702C7
:103A7000821741F0E091F602F0E0E352FD4F958F9E
:103A80008093F602FF91EF919F918F912F910F906C
:103A90000FBE0F901F9018958081F4CF1F920F9248
:103AA0000FB60F9211242F933F938F939F93AF9351
:103AB000BF938091B1029091B202A091B302B091F4
:103AC000B4023091B00223E0230F2D3758F5019650
:103AD000A11DB11D2093B0028093B1029093B20258
:103AE000A093B302B093B4028091B5029091B60254
:103AF000A091B702B091B8020196A11DB11D8093AB
:103B0000B5029093B602A093B702B093B802BF91EA
:103B1000AF919F918F913F912F910F900FBE0F907A
:103B20001F90189526E8230F0296A11DB11DD2CF34
:103B30001F920F920FB60F9211242F933F934F9322
:103B40005F936F937F938F939F93AF93BF93EF9305
:103B5000FF938091B900887F803609F44AC0F0F560
:103B6000883209F4A7C018F5803109F49BC0B8F475
:103B7000882309F4F9C0883009F494C0FF91EF91CB
:103B8000BF91AF919F918F917F916F915F914F9175
:103B90003F912F910F900FBE0F901F901895883175
:103BA00009F488C0803251F78093860214C08034B3
:103BB00009F49DC040F48033B9F38833F9F680935B
:103BC000860285ECB0C0803509F485C0883509F4DB
:103BD00096C0883499F60E949F0AD0CF883909F49C
:103BE0008CC038F5883729F050F4883611F08037CA
:103BF00029F683E0809388021092610257C08838CA
:103C000009F47BC0803919F0803809F0B7CF809172
:103C10006102803208F071C0E091610281E08E0F94
:103C2000809361028091BB00F0E0EF5BFD4F8083E9
:103C30003DC0803B39F0E0F4803A09F479C0883A1D
:103C400009F09CCF84E08093880210924002109289
:103C50003F02E091BB02F091BC02099580913F02C6
:103C600081110FC081E080933F0210921F0209C0B2
:103C7000803C09F4A6CF883C09F4A3CF883B09F027
:103C80007DCFE091400281E08E0F80934002F0E012
:103C9000E15EFD4F80818093BB0090914002809156
:103CA0003F0229C0809163028093BB0085EC809322
:103CB000BC0064CF9091850280918402981758F5DA
:103CC000E091850281E08E0F80938502F0E0EC594F
:103CD000FD4F8081E9CFE091850281E08E0F8093D6
:103CE00085028091BB00F0E0EC59FD4F80839091FC
:103CF0008502809184029817C8F285E8D8CFE091B8
:103D0000850281E08E0F809385028091BB00F0E0F8
:103D1000EC59FD4F80838091870281115CCF81E057
:103D20008093620284EA8093BC001092880226CFBE
:103D300085EC8093BC0010928802809161028032F1
:103D400030F4E0916102F0E0EF5BFD4F1082609192
:103D5000610270E0E091B902F091BA0281E492E070
:103D60000995109261020ACF1092860234CFCF9348
:103D7000DF93BC018DED92E00E94AF08EC0166E993
:103D800071E08DED92E00E94AF088C0F9D1FDF91D6
:103D9000CF910895DC01ED91FC911197309761F07E
:103DA00012962D913C911397E217F30728F4019096
:103DB0000020E9F7ED93FC930895FC018081918147
:103DC000009739F0228133818217930710F40C9405
:103DD000892490E080E00895AF92BF92CF92DF9265
:103DE000EF92FF920F931F93CF93DF93CDB7DEB780
:103DF000C05CD1090FB6F894DEBF0FBECDBF5C0129
:103E0000CE0185589F4FC554DF4F99838883CB5B84
:103E1000D040C354DF4F19821882CD5BD04080E47C
:103E200090E0C154DF4F99838883CF5BD04064EE2C
:103E300071E0CE0185549F4F0E94E91469EE71E054
:103E4000CE0185549F4F0E94E9144AE750E06DE689
:103E500071E0CE0101960E94CE24C354DF4FC8808A
:103E6000D980CD5BD040C554DF4FE880F980CB5B73
:103E7000D0400AE710E09E012F5F3F4F50E040E046
:103E800061E1C5010E942F1AC054DF4F0FB6F894AC
:103E9000DEBF0FBECDBFDF91CF911F910F91FF907D
:103EA000EF90DF90CF90BF90AF9008951092E00216
:103EB0001092DF0288EE93E0A0E0B0E08093E10290
:103EC0009093E202A093E302B093E40226E331E090
:103ED0003093DE022093DD0225EC30E03093EA02DD
:103EE0002093E90224EC30E03093EC022093EB02C3
:103EF00020EC30E03093EE022093ED0221EC30E034
:103F00003093F0022093EF0222EC30E03093F20283
:103F10002093F10226EC30E03093F4022093F30278
:103F20001092F6021092F7021092F8021092F90223
:103F300010927D0310927C0380937E0390937F0305
:103F4000A0938003B093810388E491E090937B0376
:103F500080937A0384E991E09093870380938603AA
:103F6000109288031092890310928A0310928B0397
:103F700090938D0380938C0310928E0310928F0385
:103F80001092900310929103909393038093920365
:103F90001092940310929503109296031092970337
:103FA000909399038093980310929A0310929B0325
:103FB00010929C0310929D0390939F0380939E0305
:103FC0001092A0031092A1031092A2031092A303D7
:103FD0009093AB038093AA031092AC031092AD03AD
:103FE0001092AE031092AF039093A5038093A403A5
:103FF0001092A6031092A7031092A8031092A9038F
:104000009093B1038093B0031092B2031092B30364
:104010001092B4031092B5039093B7038093B60344
:104020001092B8031092B9031092BA031092BB0316
:104030009093C6048093C5041092C7041092C804DC
:104040001092C9041092CA041092B9041092B804D4
:1040500026E631E03093B7042093B60424E02093A1
:10406000C20428EE33E03093C4042093C304909339
:10407000AC048093AB041092AD041092AE04109285
:10408000AF041092B0041092B2041092B1041092D6
:10409000B4041092B3041092B50486EB94E09093AC
:1040A000AA048093A90480E797E1A0E0B0E08093A0
:1040B000BA049093BB04A093BC04B093BD041092C7
:1040C0008104109280041092820410928304109252
:1040D0008404109285041092860410928704109232
:1040E00088041092890489EA94E090938B04809369
:1040F0008A0410928D0410928C0410928F041092F6
:104100008E041092900410929104109292041092D6
:1041100093041092940410929504109296041092B5
:104120009704109298041092990410929A04109295
:104130009B0410929D0410929C0410929F04109274
:104140009E041092A0041092A2041092A1048FEF7A
:104150009FEF90937F0480937E041092C50310928A
:10416000C4038AE591E09093C3038093C20387E27E
:104170008093C60380E18093CB0382E08093CC03DD
:104180001092CD031092BD031092BC031092BF0396
:104190001092BE031092C1031092C00370E060E061
:1041A0008CEB93E00E94770A2091BC033091BD0311
:1041B000811113C02115310519F0C9010E94002495
:1041C0001092BD031092BC031092C1031092C00361
:1041D0001092BF031092BE0308951092C103109273
:1041E000C00368E971E0C9010C946D2ACF93DF9395
:1041F000CDB7DEB7A7970FB6F894DEBF0FBECDBF21
:10420000789484B5826084BD84B5816084BD85B5B1
:10421000826085BD85B5816085BD80916E008160BD
:1042200080936E0010928100809181008260809363
:104230008100809181008160809381008091800065
:104240008160809380008091B10084608093B10090
:104250008091B00081608093B00080917A0084608A
:1042600080937A0080917A00826080937A008091B6
:104270007A00816080937A0080917A0080688093D0
:104280007A001092C10061E083E00E947F031092E7
:10429000C0021092BF021092BE021092BD020E9494
:1042A000080586EF91E09093BC028093BB0287EFF4
:1042B00091E09093BA028093B9021092C703809163
:1042C000CC03823018F098E09093C7038093CA0320
:1042D00062E370E080E090E00E9452046091CD03C0
:1042E00082EC93E00E94CC0568EE73E080E090E001
:1042F0000E94520460E382EC93E00E9472080BE497
:1043000016E4C8010197F1F760E382EC93E00E94A4
:104310007208C8010197F1F760E382EC93E00E9414
:10432000720883E592E00197F1F760E282EC93E096
:104330000E9472086091C703606240E082EC93E0E3
:104340000E948B0884E08093C80340E06CE082EC1C
:1043500093E00E948B0840E061E082EC93E00E94D1
:104360008B080BE31FE1C8010197F1F782E080930E
:10437000C90340E066E082EC93E00E948B0840E0D5
:1043800062E082EC93E00E948B08C8010197F1F78C
:1043900088E08093CD0360E082EC93E00E94CC053E
:1043A00040E061E082EC93E00E948B08C801019735
:1043B000F1F740E062E082EC93E00E948B08C801D4
:1043C0000197F1F780E00E94A2086AEF71E082ECA9
:1043D00093E00E94880961E085E00E947F0361E02C
:1043E00084E00E947F0360E085E00E94510360E06A
:1043F00084E00E94510380917E0490917F0497FF96
:1044000022C00E948504EEECF3E050E040E026E19B
:10441000249FD001259FB00D11248D0102531C4F04
:10442000D801322F1D923A95E9F760837183828318
:1044300093834F5F5F4F76964830510549F710924E
:104440007F0410927E0480917E0490917F040897EF
:10445000CCF5EEECF3E090E080E024813581232B75
:1044600009F0DEC026813781232B09F0D9C026E16F
:10447000289F8001299F100D112402531C4F84EFA7
:1044800091E0A0E0B0E0F80183879487A587B68724
:104490008FE69CE1958384831286108A178681E0DB
:1044A000838B0E948504D8016D937D938D939C939B
:1044B000139780917E0490917F04019690937F04DE
:1044C00080937E0461E080E00E947F03CC24CA9444
:1044D00093E0D92E20E0A22E20E0B22E80E894E0D6
:1044E0000E9436158FE00E941804B601681B790BF4
:1044F000769567957695679583E00E94BB0364E6A1
:1045000070E080E090E00E9452048EE00E94180467
:104510001BA21AA21DA21CA21FA21EA2BC01990FBF
:10452000880B990B0E94622720E030E040EA50E4BB
:104530000E949D2720E030E040E85AE30E949D273A
:104540002AE037ED43E25CE30E94B4288E010F5F5E
:104550001F4F22E044E00E9446237C01009709F4AB
:104560006DC0FC0101900020E9F731978F01081B15
:10457000190BB801CE0182960E94770A2AA13BA1AD
:10458000811155C02115310519F0C9010E9400247F
:104590001BA21AA21FA21EA21DA21CA28091BC03D4
:1045A0009091BD03009709F451C06AA17BA16115E8
:1045B000710509F449C04091BE035091BF032EA17B
:1045C0003FA14217530708F43FC00E946D2A8EA1F5
:1045D0009FA19093C1038093C0031FA21EA28AA132
:1045E0009BA1009711F00E94002482E00E94A20883
:1045F0004091C0035091C1036091BC037091BD0311
:1046000082EC93E00E940002A114B10409F466CF89
:104610000E946A02882309F461CF0E9400005ECFE5
:10462000019676968830910509F017CF4BCF1FA3DE
:104630000EA3B701C9010E946D2AB0CF8AA19BA128
:10464000009709F0A3CFA4CF0E9400248AA19BA1C8
:104650009093BD038093BC038CA19DA19093BF0355
:104660008093BE038EA19FA19093C1038093C0034A
:104670001BA21AA21DA21CA2B0CF8091BC039091D4
:10468000BD03009711F00C9400240895EF920F934E
:104690001F93CF93DF93E80134E047FD34E1042E0C
:1046A000000C550B57FF03C0519541955109E32E5E
:1046B000022F242FAE010E941925CE01DF91CF9148
:1046C0001F910F91EF9008950F931F93CF93DF9356
:1046D0008230910510F482E090E0E091CD04F091F9
:1046E000CE0430E020E0B0E0A0E0309799F421154E
:1046F000310509F44AC0281B390B24303105D8F59F
:104700008A819B816115710589F1FB019383828305
:10471000FE0111C040815181028113814817590760
:10472000E0F04817590799F4109761F012960C932E
:10473000129713961C933296CF01DF91CF911F9160
:104740000F9108950093CD041093CE04F4CF21155A
:10475000310551F04217530738F0A901DB019A01E6
:10476000BD01DF01F801C1CFEF01F9CF9093CE0475
:104770008093CD04CDCFFE01E20FF31F819391937F
:104780002250310939832883D7CF2091CB0430912F
:10479000CC04232B41F42091040130910501309386
:1047A000CC042093CB042091020130910301211508
:1047B000310541F42DB73EB74091060150910701F4
:1047C000241B350BE091CB04F091CC04E217F307E6
:1047D000A0F42E1B3F0B2817390778F0AC014E5F71
:1047E0005F4F2417350748F04E0F5F1F5093CC04DE
:1047F0004093CB04819391939FCFF0E0E0E09CCF76
:10480000CF93DF930097E9F0FC0132971382128275
:10481000A091CD04B091CE04ED0130E020E01097DE
:10482000A1F420813181820F931F2091CB0430911C
:10483000CC042817390709F061C0F093CC04E09349
:10484000CB04DF91CF910895EA01CE17DF07E8F599
:104850004A815B819E0141155105B1F7E901FB8356
:10486000EA8349915991C40FD51FEC17FD0761F4F4
:10487000808191810296840F951FE9019983888335
:10488000828193819B838A83F0E0E0E012968D9190
:104890009C9113970097B9F52D913C911197CD01FB
:1048A0000296820F931F2091CB043091CC042817DD
:1048B000390739F6309751F51092CE041092CD0495
:1048C000B093CC04A093CB04BCCFD383C2834081EC
:1048D0005181840F951FC817D90761F44E5F5F4F50
:1048E00088819981480F591F518340838A819B8118
:1048F000938382832115310509F0B0CFF093CE0464
:10490000E093CD049ECFFD01DC01C0CF1382128263
:10491000D7CFFC0188279927E89421912032E9F329
:10492000293010F02E30C8F32B3241F02D3239F4FB
:10493000689404C00E94F724820F911D2191205396
:104940002A30C0F31EF4909581959F4F08951F93D0
:10495000FC0199278827BC01E89411911032E9F3F2
:10496000193010F01E30C8F31B3251F01D3249F4DB
:10497000689406C00E94E224610F711D811D911D83
:10498000119110531A30B0F33EF4909580957095C4
:1049900061957F4F8F4F9F4F1F910895FB01DC0161
:1049A00002C005900D9241505040D8F70895BB27A2
:1049B0004A3031F4992322F4BDE2909581959F4FBE
:1049C0000C940025592F482F372F262F660F771F5D
:1049D000881F991F660F771F881F991F620F731F0B
:1049E000841F951F660F771F881F991F08957AE00F
:1049F000979F902D879F802D910D11240895BB279F
:104A0000FB015527AA27880F991FAA1FA41710F08A
:104A1000A41B83955051B9F7A05DAA3308F0A95D96
:104A2000A193009779F7B111B1931192CB010C9436
:104A30005027A9E0B0E0EFE1F5E20C9461286A01AB
:104A4000F22EB02E102FFBE3AF2EA01608F41BE3BE
:104A50001F5F012F27E0AE014F5F5F4F0E94782656
:104A6000BC018981982F9970913009F43FC09BE275
:104A7000E1FC04C09E2D9170E0FC3AC05E2D5071A7
:104A8000E82FE87083FF46C084E0911101C083E005
:104A9000EF2DE81B8F1508F0E0E0D6018E2F20E205
:104AA000552351F1992329F0D6019C93C601019613
:104AB0006C0196012D5F3F4FE2FE24C08EE4D601CB
:104AC0008C9391E411969C93119712968C93D90133
:104AD0008E2F90E281111BC0E20FF32FF11D108287
:104AE0008EEF9FEF2996ECE00C947D289DE2C6CFD7
:104AF00090E2C4CF2D9381508111FCCFCE0ED11CFA
:104B0000E0E0D0CF8EE6D6018C9391E6DBCF9D938B
:104B10008150E0CF482F447082FF3DC084E0911166
:104B200001C083E08F1510F4EF2DE81BD6018E2F06
:104B300020E2552309F1992329F0D6019C93C6015F
:104B400001966C0196012D5F3F4FE2FE1BC089E488
:104B5000D6018C938EE411968C93119786E412966D
:104B60008C93D9018E2F90E2882309F4B5CF9D93C1
:104B70008150FACF2D9381508111FCCFCE0ED11CE4
:104B8000E0E0D9CF89E6D6018C938EE611968C931E
:104B9000119786E6E4CF9B0177FF02C030E020E06A
:104BA000A1E0B0E0911102C0B0E0A0E0F9013196BF
:104BB000AE0FBF1F8B2C912CBB2009F461C0540198
:104BC000EFEFAE1ABE0AAA0DBB1DFA161B0619F0AE
:104BD00014F04F2D4A1B511188C0E3FC59C07601D7
:104BE000A42FB0E2A1114FC0C40ED11C992309F427
:104BF0005BC040E0D6011196F60190836D0155230C
:104C000009F448C0012F060F9A81582F507184FF74
:104C100003C0913309F4015010160CF047C009305D
:104C200008F008E0EEE2FE2E5B01A01AB108850153
:104C30009194819491082F3F320729F4D601FC9278
:104C4000F60131966F016217730794F1021713078B
:104C50007CF5DB01A21BB30BAA24A394B12CAC0EF0
:104C6000BD1EAA0DBB1D11968C9121503109D60194
:104C7000119628153905F4F0F60180836D01DBCF1C
:104C8000B12CA12CA0CFF701B1937F01A150AACFE5
:104C90009111B0CFD601942F50E302C05D93915093
:104CA0009111FCCFC40ED11C40E0ACCF01E0BACFD3
:104CB00080E3DBCF6217730731F4963388F49533C2
:104CC00011F4552369F0F6018083FD01842F90E2F1
:104CD000811108C0A40FB11D1C9290E080E002CFAA
:104CE00081E3F1CF91938150F3CF911183CF8ACF9C
:104CF000283008F027E03327DA01990F311D87FDAE
:104D0000916000966105710539F432602E5F3D9324
:104D100030E32A95E1F708959F3F30F08038710520
:104D2000610509F03C5F3C5F3D93913008F080687D
:104D3000911DDF93CF931F930F93FF92EF92192F43
:104D4000987F9695E92F96959695E90FFF27EE5354
:104D5000FF4F99273327EE24FF24A701E701059091
:104D60000894079428F4360FE71EF81E491F511DBA
:104D7000660F771F881F991F0694A1F70590079467
:104D800028F4E70EF81E491F561FC11D770F881F14
:104D9000991F661F0694A1F70590079428F4F80E52
:104DA000491F561FC71FD11D880F991F661F771FE8
:104DB0000694A1F70590079420F4490F561FC71FCA
:104DC000D81F990F661F771F881F0694A9F7849133
:104DD0001095177041F0D695C79557954795F7945C
:104DE000E7941A95C1F7E8E6F0E0689415901591FC
:104DF00035916591959105907FE27395E118F10ADF
:104E0000430B560BC90BD009C0F7E10CF11E431F31
:104E1000561FC91FD01D7EF4703311F48A95E6CF5A
:104E2000E894015030F0080F0AF40027021708F444
:104E3000202F2395022F7A3328F079E37D932A954A
:104E4000E9F710C07D932A9589F6069497956795A2
:104E5000379517951794E118F10A430B560BC90BB8
:104E6000D00998F023957E9173957A3308F070E31A
:104E70007C932013B8F77E9170617D9330F0839519
:104E800071E37D9370E32A95E1F71124EF90FF9091
:104E90000F911F91CF91DF91992787FD90950895EC
:104EA000DC01FC01672F71917723E1F7329704C091
:104EB0007C916D9370836291AE17BF07C8F308951C
:104EC000E89409C097FB3EF49095809570956195A4
:104ED0007F4F8F4F9F4F9923A9F0F92F96E9BB275A
:104EE0009395F695879577956795B795F111F8CFD6
:104EF000FAF4BB0F11F460FF1BC06F5F7F4F8F4F41
:104F00009F4F16C0882311F096E911C0772321F036
:104F10009EE8872F762F05C0662371F096E8862FCE
:104F200070E060E02AF09A95660F771F881FDAF725
:104F3000880F9695879597F908950E94B0270C944D
:104F400021280E94132838F00E941A2820F0952367
:104F500011F00C940A280C94102811240C94552854
:104F60000E94322870F3959FC1F3950F50E0551FB2
:104F7000629FF001729FBB27F00DB11D639FAA27AE
:104F8000F00DB11DAA1F649F6627B00DA11D661FFD
:104F9000829F2227B00DA11D621F739FB00DA11D1E
:104FA000621F839FA00D611D221F749F3327A00DD8
:104FB000611D231F849F600D211D822F762F6A2F74
:104FC00011249F5750409AF0F1F088234AF0EE0FD9
:104FD000FF1FBB1F661F771F881F91505040A9F706
:104FE0009E3F510580F00C940A280C9455285F3F91
:104FF000E4F3983ED4F3869577956795B795F79542
:10500000E7959F5FC1F7FE2B880F911D96958795B9
:1050100097F9089597F99F6780E870E060E0089538
:105020009FEF80EC089500240A94161617061806C0
:105030000906089500240A9412161306140605069C
:105040000895092E0394000C11F4882352F0BB0F2D
:1050500040F4BF2B11F460FF04C06F5F7F4F8F4F90
:105060009F4F089557FD9058440F551F59F05F3FCB
:1050700071F04795880F97FB991F61F09F3F79F07A
:1050800087950895121613061406551FF2CF4695FC
:10509000F1DF08C0161617061806991FF1CF86957E
:1050A0007105610508940895E894BB276627772762
:1050B000CB0197F908952F923F924F925F926F9292
:1050C0007F928F929F92AF92BF92CF92DF92EF9298
:1050D000FF920F931F93CF93DF93CDB7DEB7CA1B19
:1050E000DB0B0FB6F894DEBF0FBECDBF09942A8844
:1050F000398848885F846E847D848C849B84AA84EC
:10510000B984C884DF80EE80FD800C811B81AA8178
:10511000B981CE0FD11D0FB6F894DEBF0FBECDBF43
:10512000ED010895A1E21A2EAA1BBB1BFD010DC0C3
:10513000AA1FBB1FEE1FFF1FA217B307E407F50747
:1051400020F0A21BB30BE40BF50B661F771F881F23
:10515000991F1A9469F760957095809590959B01B9
:10516000AC01BD01CF0108950E94C8280C942128EC
:105170000E941A2858F00E94132840F029F45F3F3B
:1051800029F00C940A2851110C9455280C941028DD
:105190000E94322868F39923B1F3552391F3951BAC
:1051A000550BBB27AA2762177307840738F09F5F48
:1051B0005F4F220F331F441FAA1FA9F335D00E2EB5
:1051C0003AF0E0E832D091505040E695001CCAF722
:1051D0002BD0FE2F29D0660F771F881FBB1F2617E5
:1051E00037074807AB07B0E809F0BB0B802DBF01BC
:1051F000FF2793585F4F3AF09E3F510578F00C948B
:105200000A280C9455285F3FE4F3983ED4F3869522
:1052100077956795B795F7959F5FC9F7880F911DAB
:105220009695879597F90895E1E0660F771F881F97
:10523000BB1F621773078407BA0720F0621B730B4A
:10524000840BBA0BEE1F88F7E0950895689401C0AF
:10525000E8948F929F92CF93DF930E943429DF913D
:10526000CF919F908F90089588249924F401E401B0
:10527000B0E49F93AA279A158B049C04ED05FE05C4
:10528000CF05D007A10798F4AD2FDC2FCF2FFE2F2D
:10529000E92D982C892E982F872F762F652F542F44
:1052A000432F322F2227B85031F7BF9127C01B2E32
:1052B000BF91BB27220F331F441F551F661F771F47
:1052C000881F991F881C991CEE1FFF1FCC1FDD1F14
:1052D000AA1FBB1F8A149B04EC05FD05CE05DF0544
:1052E000A007B10748F08A189B08EC09FD09CE0910
:1052F000DF09A00BB10B21601A94E1F62EF49401A2
:10530000AF01BE01CD01000C08950024A7FD00945B
:105310002A17300540055005600570058005900589
:105320000895EE0FFF1F0590F491E02D0994B0E071
:10533000A0E0EDE9F9E20C945D288C01009751F4AE
:10534000CB010E9464238C01C801CDB7DEB7E0E138
:105350000C947928FC01E60FF71F9C0122503109BB
:10536000E217F30708F49DC0D901CD91DC911197A4
:10537000C617D70798F0C530D10530F3CE01049792
:105380008617970708F3C61BD70B2297C193D193B3
:105390006D937C93CF010E940024D6CF5B01AC1AA1
:1053A000BD0A4C018C0E9D1EA091CD04B091CE047F
:1053B000512C412CF12CE12C109731F58091CB042C
:1053C0009091CC048815990509F05CC046165706E3
:1053D00008F058C08091020190910301009741F4B8
:1053E0008DB79EB74091060150910701841B950B24
:1053F000E817F90708F055C0F093CC04E093CB040C
:10540000F90171836083A0CF8D919C9111971296C1
:105410006C90129713967C901397A815B90559F5BF
:105420006C0142E0C40ED11CCA14DB0420F1AC01B3
:105430004A195B09DA011296159780F0628273822D
:1054400051834083D9016D937C93E114F10471F091
:10545000D7011396FC93EE93129776CF22968C0F7A
:105460009D1FF90191838083F301EFCFF093CE0468
:10547000E093CD0469CF4816590608F42C017D014C
:10548000D3019ACFCB010E9464237C01009749F09D
:10549000AE01B8010E94542AC8010E94002487016D
:1054A00053CF10E000E050CFFB01DC0102C00190BF
:1054B0000D9241505040D8F70895DC0101C06D9322
:1054C00041505040E0F70895FB01DC018D910190BF
:1054D00080190110D9F3990B0895FB01DC010190AB
:1054E0000D920020E1F70895FB01DC01415050408E
:1054F00048F001900D920020C9F701C01D92415063
:105500005040E0F7089511E0C1ECD1E004C0FE0185
:105510000E9491292196C23CD107C9F7F894FFCF88
:1055200000C00000CF04800000000000A207590E58
:105530003008EE01F2014A10560B690D6F0CBE0BDC
:10554000DA07A913320CEB102B10290819081508DB
:10555000110800000000A00200022D0208035E02F4
:105560003C025002000000009D0570053008EE016D
:1055700069055605470500000000A908000230082B
:10558000F80100000000C307930E500E3B0E550FAC
:105590007410650B400D1C148E10F90BD70B6A08A4
:1055A00067086508B8075B08C110A714971057086B
:1055B0000000000030090D0A0048545F52204F4E91
:1055C0000048545F52204F464600434F5F4C5220E4
:1055D0004F4E00434F5F4C52204F464600696E00CD
:1055E0006F75740070776D00707500647700617777
:1055F0000062003031323334353637383961626316
:1056000064656600746D706C00544D504C33464FA9
:0E561000564C4268586E00767700543D0000FC
:107E0000112484B714BE81FFF0D085E080938100F7
:107E100082E08093C00088E18093C10086E0809377
:107E2000C20080E18093C4008EE0C9D0259A86E02C
:107E300020E33CEF91E0309385002093840096BBD3
:107E4000B09BFECF1D9AA8958150A9F7CC24DD24C4
:107E500088248394B5E0AB2EA1E19A2EF3E0BF2EE7
:107E6000A2D0813461F49FD0082FAFD0023811F036
:107E7000013811F484E001C083E08DD089C08234E0
:107E800011F484E103C0853419F485E0A6D080C0E4
:107E9000853579F488D0E82EFF2485D0082F10E0AE
:107EA000102F00270E291F29000F111F8ED06801E7
:107EB0006FC0863521F484E090D080E0DECF843638
:107EC00009F040C070D06FD0082F6DD080E0C81688
:107ED00080E7D80618F4F601B7BEE895C0E0D1E017
:107EE00062D089930C17E1F7F0E0CF16F0E7DF06D8
:107EF00018F0F601B7BEE89568D007B600FCFDCFD4
:107F0000A601A0E0B1E02C9130E011968C91119780
:107F100090E0982F8827822B932B1296FA010C0160
:107F200087BEE89511244E5F5F4FF1E0A038BF0790
:107F300051F7F601A7BEE89507B600FCFDCF97BE46
:107F4000E89526C08437B1F42ED02DD0F82E2BD052
:107F50003CD0F601EF2C8F010F5F1F4F84911BD097
:107F6000EA94F801C1F70894C11CD11CFA94CF0C13
:107F7000D11C0EC0853739F428D08EE10CD085E9AC
:107F80000AD08FE07ACF813511F488E018D01DD067
:107F900080E101D065CF982F8091C00085FFFCCF94
:107FA0009093C60008958091C00087FFFCCF809118
:107FB000C00084FD01C0A8958091C6000895E0E648
:107FC000F0E098E1908380830895EDDF803219F02E
:107FD00088E0F5DFFFCF84E1DECF1F93182FE3DFCA
:107FE0001150E9F7F2DF1F91089580E0E8DFEE27F6
:047FF000FF270994CA
:027FFE00040479
:00000001FF
