:020000040000FA
:100000000C94D9000C9401010C9401010C94010191
:100010000C9401010C9401010C9401010C94010158
:100020000C9401010C9401010C9401010C94010148
:100030000C9401010C9401010C9401010C94010138
:100040000C94461B0C9401010C9401010C940101C9
:100050000C9401010C9401010C9401010C94010118
:100060000C9401010C940101626C6E6B696E660068
:1000700076657200312E322E3000682D6265617413
:1000800000343500627566662D696E0032353600C3
:100090006465760041726475696E6F20556E6F00FD
:1000A0006370750041546D65676133323850006389
:1000B0006F6E005735313030006275696C64004DE9
:1000C000617920203520323032332031303A3530DA
:1000D0003A353100000000000000240027002A000B
:1000E00000000000250028002B0000000000230075
:1000F0002600290004040404040404040202020289
:1001000002020303030303030102040810204080DA
:100110000102040810200102040810200000000859
:1001200000020100000304070000000000000000BE
:100130000401040104010401040104010401040197
:100140000401040104010401040104010401040187
:100150000401040104010401040104010401040177
:100160000401040104010401040104010401040167
:100170007E050301030103010301030103010301E0
:10018000030103010301030103010301030103014F
:10019000030103010301030103010301030103013F
:1001A000030103010301030103010301030103012F
:1001B000101C11241FBECFEFD8E0DEBFCDBF11E071
:1001C000A0E0B1E0E0E5F9E402C005900D92A03DA9
:1001D000B107D9F722E0A0EDB1E001C01D92A93E20
:1001E000B207E1F710E0C9EDD0E004C02197FE01AD
:1001F0000E946424C83DD107C9F70E94B81C0C9422
:10020000A6240C940000089508958CBD9DBD08950A
:1002100020E3FC0120833296862F82958F706F70C9
:100220006A3030F4605D6293682F8111F5CF0895D4
:10023000695CF9CFFC01818D928D0895833081F046
:1002400028F4813099F08230A9F008958730A9F020
:100250008830C9F08430B1F4809180008F7D03C074
:10026000809180008F7780938000089584B58F7788
:1002700084BD089584B58F7DFBCF8091B0008F77CA
:100280008093B00008958091B0008F7DF9CF1F93C7
:10029000CF93DF93282F30E0F901E45EFE4F849185
:1002A000F901E85FFE4FD491F901EC50FF4FC49182
:1002B000CC23A9F0162F81110E941E01EC2FF0E033
:1002C000EE0FFF1FE052FF4FA591B4918FB7F89446
:1002D000EC91111108C0D095DE23DC938FBFDF9124
:1002E000CF911F910895DE2BF8CFCF93DF9390E04D
:1002F000FC01E85FFE4F24918C509F4FFC018491DC
:100300008823C9F090E0880F991FFC01EA52FF4F43
:10031000A591B491FC01E052FF4FC591D4916111B8
:100320000DC09FB7F8948C91209582238C9388817F
:10033000282328839FBFDF91CF910895623051F425
:100340009FB7F8943C91822F809583238C93E8810A
:100350002E2BEFCF8FB7F894EC912E2B2C938FBFD1
:10036000EACF3FB7F8948091430290914402A09164
:100370004502B091460226B5A89B05C02F3F19F053
:100380000196A11DB11D3FBFBA2FA92F982F882715
:10039000BC01CD01620F711D811D911D42E0660FF0
:1003A000771F881F991F4A95D1F708958F929F92C2
:1003B000AF92BF92CF92DF92EF92FF926B017C01DE
:1003C0000E94B1014B015C01C114D104E104F104AC
:1003D000B9F00E94B101681979098A099B09683E40
:1003E00073408105910580F321E0C21AD108E1082C
:1003F000F10888EE880E83E0981EA11CB11CE4CFA2
:10040000FF90EF90DF90CF90BF90AF909F908F9034
:1004100008952FB7F89460913F0270914002809147
:100420004102909142022FBF08954F925F926F92C6
:100430007F92AF92BF92CF92DF92EF92FF920F9393
:100440001F93CF93DF93EC016B017B01E40EF51E4C
:100450008B015801AC18BD080E151F0511F10E9443
:100460000902688779878A879B87E881F9810284F6
:10047000F385E02DCE01099597FF23C00E94090264
:10048000488459846A847B846419750986099709AC
:100490004C805D806E807F806415750586059705AC
:1004A00020F3C501DF91CF911F910F91FF90EF9045
:1004B000DF90CF90BF90AF907F906F905F904F9004
:1004C0000895F80181938F01C4CFFC0120812EBDD6
:1004D0009B012150310941F051810DB407FEFDCF40
:1004E0004EB55EBD4193F5CF61507109860F971FE0
:1004F0000DB407FEFDCF2EB5FC0120830895E091D9
:10050000D101F091D20180819091D001892B80831B
:100510000895E091D101F091D20190818091D001B4
:1005200080958923808308958EBD00000DB407FE59
:10053000FDCF8EB50895AF92BF92CF92DF92EF922A
:10054000FF920F931F93CF93DF93CDB7DEB728971A
:100550000FB6F894DEBF0FBECDBF8C017B016A01E0
:10056000809163028333E1F45801A40EB51EA016F6
:10057000B10609F46FC00E94890280EF0E949402C4
:10058000812F0E949402802F0E9494020F5F1F4FC0
:10059000F70181917F010E9494020E947F02E7CFC0
:1005A0005B01A40EB51E8433C1F40E948902198335
:1005B0000A838D2D80688B83CC8264E070E0CE014D
:1005C00001960E946502AE14BF0409F441C0F70110
:1005D00081917F010E949402F6CF0E9489020F3F11
:1005E000110509F028F419820A8384E08B830CC07A
:1005F00017FD17C019820A8333E0169507953A95BF
:10060000E1F7007E0C600B8386E0C816D104A0F5EC
:10061000F701DE011496EA15FB0599F081918D939F
:10062000FACFC80126E0969587952A95E1F7807E56
:1006300019830A830115104C10F48461D7CF8C61A3
:10064000D5CFB6016D5F7F4FCE0101960E94650246
:100650000E947F02C60128960FB6F894DEBF0FBE37
:10066000CDBFDF91CF911F910F91FF90EF90DF9061
:10067000CF90BF90AF90089563E070E0CE010196F7
:100680000E946502F70181917F010E949402AE14DD
:10069000BF04C1F7DDCFCF93DF931F92CDB7DEB795
:1006A000898341E050E0BE016F5F7F4F90E080E0C2
:1006B0000E949B020F90DF91CF91089590E02091CE
:1006C0006302233339F40C96982F990F990F990FE1
:1006D00080E008954896F8CFDA01E091D401F0E087
:1006E000FE2FEE27E60FF71F90E0982F8827A9012D
:1006F000BD018E0F9F1F0C949B02CF93DF9300D000
:10070000CDB7DEB779836A8322E030E0AE014F5F78
:100710005F4F60E170E00E946C030F900F90DF91DB
:10072000CF910895CF93DF9300D0CDB7DEB7798313
:100730006A8322E030E0AE014F5F5F4F64E070E01B
:100740000E946C030F900F90DF91CF910895CF938B
:10075000DF931F92CDB7DEB72091D40130E0322F66
:100760002227260F371F90E0982F8827498341E0E2
:1007700050E0BE016F5F7F4F820F931F0E949B026C
:100780000F90DF91CF910895CF93DF931F92CDB754
:10079000DEB76983DC01ED91FC910280F381E02DED
:1007A00041E050E0BE016F5F7F4F09950F90DF91F0
:1007B000CF910895FC019485FB018485981303C0B3
:1007C00081E0943008F080E00895CF93DF931F928A
:1007D000CDB7DEB76983DC01ED91FC910280F38136
:1007E000E02D41E050E0BE016F5F7F4F09950F9013
:1007F000DF91CF9108950895FF920F931F93CF93A8
:10080000DF93EB01FC01178A168A2A81211109C0A6
:100810002B81211106C02C81211103C02D8122239F
:1008200001F141155105E9F08A01FC01F08C80E5E8
:1008300091E00E940501AE014E5F5F4F24E030E081
:100840006CE070E08F2D0E946C03B8018F2D0E9428
:100850007D0381E090E0DF91CF911F910F91FF9098
:10086000089580E0F7CFFC01848595850895FC010B
:1008700084899589089523E931E0FC01318320833F
:10088000FB014089518962897389FC01428353834A
:10089000648375830895DC01ED91FC91048CF58DE2
:1008A000E02D099490E080E00895EF92FF920F937D
:1008B0001F93CF93DF9300D000D000D0CDB7DEB729
:1008C000DC01AB0118966D917C9119978D919C91EB
:1008D0001197FC012081318161157105B9F0D901B1
:1008E0005096ED91FC91099521E0019709F020E0E7
:1008F000822F26960FB6F894DEBF0FBECDBFDF91D4
:10090000CF911F910F91FF90EF900895F901E68428
:10091000F78423E931E03A83298314960D911D91E0
:100920002D913C9117970B831C832D833E83BE0131
:100930006F5F7F4FF701D7CFFC019485992369F052
:1009400080819181DC01ED91FC910688F789E02D91
:10095000099591E0811101C090E0892F0895DC0193
:100960001C961C921C978D919C91009739F0DC018C
:10097000ED91FC910488F589E02D09940895FC011E
:10098000768765870895DC01ED91FC9102A0F3A1C3
:10099000E02D099591E089270895862F089581E03B
:1009A0008627089521E0FC018485843008F020E04A
:1009B000822F089508958F929F92AF92BF92EF92E7
:1009C000FF920F931F93CF93DF93CDB7DEB7A1971D
:1009D0000FB6F894DEBF0FBECDBF7C01FA01CB018C
:1009E00019A2223008F42AE08E010F5D1F4F822EDB
:1009F000912CB12CA12CBF01A50194010E94C1230F
:100A0000F901CA016A3074F5605DD8016E938D01F9
:100A1000232B242B252B79F790E080E0109789F089
:100A2000FD0101900020E9F73197AF014A1B5B0BF4
:100A3000D701ED91FC910280F381E02DB801C7014F
:100A40000995A1960FB6F894DEBF0FBECDBFDF911A
:100A5000CF911F910F91FF90EF90BF90AF909F901B
:100A60008F900895695CD1CF8F929F92AF92BF9281
:100A7000CF92DF92EF92FF920F931F93CF93DF936A
:100A80007C01EB016C0182E0C80ED11C4701E5E05E
:100A90008E0E911C10E000E0F60141916F0150E0D4
:100AA00070E060E02AE0CE010E94DB045C01E88196
:100AB000F9810190F081E02D6EE2CE0109958A0D59
:100AC0009B1D080F191FC814D90431F7F701458180
:100AD00050E070E060E02AE0CE010E94DB04800F6D
:100AE000911FDF91CF911F910F91FF90EF90DF90B9
:100AF000CF90BF90AF909F908F900895FB01808121
:100B000091810E94EF2261E0892B09F460E082E08C
:100B10000C944701AF92BF92CF92DF92EF92FF9277
:100B20000F931F93CF93DF9300D000D0CDB7DEB7E4
:100B30008C016B017A01809163028333E9F45B01DC
:100B40006801C40ED51EC016D106A9F10E94890203
:100B50008FE00E949402812F0E949402802F0E94B5
:100B600094020F5F1F4F80E00E949402F501819371
:100B70005F010E947F02E7CF843369F50E948902FA
:100B800019830A838F2D8F778B83EC8264E070E06A
:100B9000CE0101960E946502A70170E060E0C601E7
:100BA0000E948024E114F10421F0B701C6010E94E3
:100BB00065020E947F02C7010F900F900F900F9067
:100BC000DF91CF911F910F91FF90EF90DF90CF9029
:100BD000BF90AF9008950E9489020F3F110509F060
:100BE00030F419820A831B8263E070E0D1CF17FDD5
:100BF0000BC019820A8333E0169507953A95E1F701
:100C0000007E08600B83F0CFC80126E0969587959B
:100C10002A95E1F7807E19830A830115104C18F498
:100C200080618B83E1CF8861FCCFCF93DF931F92EC
:100C3000CDB7DEB72091D40130E0322F2227260F26
:100C4000371F90E0982F882741E050E0BE016F5F8A
:100C50007F4F820F931F0E948A0589810F90DF9139
:100C6000CF910895CF93C82F462F61E070E00E9486
:100C7000A70361E070E08C2F0E9415068111F9CF67
:100C8000CF910895CF93C82F80E591E00E94050190
:100C900068E070E08C2FCF910C943206CF93C82F70
:100CA00080E591E00E94050160E170E08C2FCF911A
:100CB0000C943206CF93DF93EC01888D843020F4BE
:100CC0000E944E0684E0888FDF91CF910895CF93E4
:100CD000C82F80E591E00E94050163E070E08C2F51
:100CE000CF910C941506CF93DF93EC018C85843063
:100CF000D0F40E946706843189F0882379F0883126
:100D000069F021E08C3159F4E881F9810084F185A2
:100D1000E02DCE01099521E0892B09F420E0822FF6
:100D2000DF91CF91089580E0FBCFCF92DF92EF92D9
:100D3000FF92CF93DF93EC018C85843068F40E949E
:100D400042060E9409026B017C018C850E946706A5
:100D5000811109C084E08C87DF91CF91FF90EF90E3
:100D6000DF90CF90089561E070E080E090E00E9415
:100D7000D6010E940902AB01BC014C195D096E0944
:100D80007F098D859E85B0E0A0E0481759076A0766
:100D90007B07D8F28C850E944E06DCCFCF93FC01F6
:100DA000C08D80E591E00E94050160E270E08C2F2B
:100DB0000E94320662E070E08C2F0E94150684FDCE
:100DC00016C062E070E08C2F0E94150683FF0AC0F7
:100DD00048E162E070E08C2F0E94A70380E090E081
:100DE000CF91089580E591E00E940501E3CF40E1B5
:100DF00062E070E08C2F0E94A70381E0F0CFCF93D8
:100E0000DF931F92CDB7DEB741E050E0BE016F5FC8
:100E10007F4F90E080E00E948A0589810F90DF91EA
:100E2000CF910895CF93DF93C4E1D0E00E94FF06F5
:100E3000882361F061E070E080E090E00E94D601DC
:100E40002197A1F780E0DF91CF91089581E0FBCF5A
:100E50001F93CF93DF931F92CDB7DEB7182F80E596
:100E600091E00E940501812F0E945E0327E0129FFE
:100E7000F0011124E95BFD4F22813381377041E09D
:100E800050E0BE016F5F7F4F820F931F0E948A0563
:100E900089810F90DF91CF911F910895FC01808D82
:100EA000843040F4218D328D232B21F00E942807BD
:100EB00090E008958FEF9FEF0895CF93DF93FC01AB
:100EC0002485243028F08FEF9FEFDF91CF91089594
:100ED000EC010190F081E02D0084F185E02D099571
:100EE000892B89F38C850E94280790E0EECFDA01E8
:100EF000E091D401F0E0FE2FEE27E60FF71F90E01F
:100F0000982F8827A901BD018E0F9F1F0C948A0579
:100F10008F929F92AF92BF92CF92DF92EF92FF9209
:100F20001F93CF93DF93CDB7DEB72C970FB6F8940E
:100F3000DEBF0FBECDBF2091630214E0222339F142
:100F40006B017C0180E591E00E9405015E0127E0D4
:100F5000A20EB11C450110E063E070E0812F0E94F9
:100F60001506F40181934F01882349F11F5F143066
:100F700099F710E0F50181915F018D31D9F0883149
:100F8000C9F08A518230B0F01F5F143099F7812F79
:100F90002C960FB6F894DEBF0FBECDBFDF91CF9178
:100FA0001F91FF90EF90DF90CF90BF90AF909F90F8
:100FB0008F90089560E170E0812F0E943206A12E8B
:100FC000B12C83EE93E00197F1F742E870E060E026
:100FD000812F0E94A7034FEF62E070E0812F0E94F3
:100FE000A703B601C114D10491F48091210190911D
:100FF000220101968115F0EC9F0708F45CC09093E4
:101000002201809321016091210170912201812FA1
:101010000E94920386E0EDE2F1E0DE01119601907C
:101020000D928A95E1F7F70183818F778C83848114
:101030008D8385818E83A7014E5F5F4F24E030E072
:101040006CE070E0812F0E946C03B601812F0E943A
:101050007D0326E030E0AE014F5F5F4F66E070E059
:10106000812F0E946C0361E070E0812F0E943206A4
:1010700027E02A9DC0012B9D900D11249C01295B26
:101080003D4F7901F9011182108222E030E0AE017A
:10109000455F5F4F68E270E0812F0E9477078B8584
:1010A0009C85982789279827F70193838283168246
:1010B000158214826CCF80E090ECA1CFCF92DF92AA
:1010C000EF92FF920F931F93CF93DF9300D000D046
:1010D00000D0CDB7DEB78C016B017A01FC01808DA9
:1010E000843010F40E944E0683E991E09A8389834C
:1010F000F60182819381A481B5818B839C83AD832A
:10110000BE83B701CE0101960E948807F801808F47
:101110008430A0F4F586E486128E118E81E0269646
:101120000FB6F894DEBF0FBECDBFDF91CF911F91F8
:101130000F91FF90EF90DF90CF90089580E0EFCF78
:10114000AF92BF92CF92DF92EF92FF920F931F93D5
:10115000CF93DF9300D000D000D0CDB7DEB7082FFB
:101160006B0180E591E00E9405019E012F5F3F4FDA
:101170007901590110E063E070E0812F0E941506AB
:10118000F50181935F01882341F11F5F143099F7C6
:1011900010E0F70181917F018D31D1F08831C1F0EC
:1011A0008A518230A8F01F5F143099F7812F26965C
:1011B0000FB6F894DEBF0FBECDBFDF91CF911F9168
:1011C0000F91FF90EF90DF90CF90BF90AF90089578
:1011D00060E170E0812F0E943206E12EF12C83EE57
:1011E00093E00197F1F7402F70E060E0812F0E94BB
:1011F000A7034FEF62E070E0812F0E94A703B601C2
:10120000CD2889F4809121019091220101968115C8
:10121000F0EC9F0798F19093220180932101609157
:10122000210170912201812F0E94920361E070E000
:10123000812F0E94320627E02E9DC0012F9D900D28
:1012400011249C01295B3D4F7901F9011182108223
:1012500022E030E0AE014B5F5F4F68E270E0812F2B
:101260000E9477078D819E81982789279827F7010B
:101270009383828316821582148298CF80E090EC4B
:10128000CACFCF92DF92EF92FF921F93CF93DF935B
:10129000EC017B016A018C85843048F40E9467066A
:1012A000882319F08C850E94420684E08C87F70120
:1012B00082819381A481B5810097A105B10551F484
:1012C00090E080E0DF91CF911F91FF90EF90DF9051
:1012D000CF9008958F3F9F4FAF4FBF4F89F38091BD
:1012E0006302811103C084E08C87EACF70E060E084
:1012F00081E20E94A008182F8C87843008F780E5CF
:1013000091E00E940501A7014E5F5F4F24E030E0AD
:101310006CE070E0812F0E946C03B601812F0E9467
:101320007D0364E070E0812F0E9432060E94090272
:101330006B017C018C850E946706873109F18C3135
:10134000F9F0882309F4BCCF0E940902AB01BC016B
:101350004C195D096E097F098D859E85B0E0A0E07E
:1013600084179507A607B70738F061E070E080E0C2
:1013700090E00E94D601DECF8C850E944E06B3CF4E
:1013800081E090E09FCF0F931F93CF93DF93EC0109
:101390008B01888D843010F40E944E068091630288
:1013A000811107C094E0988FDF91CF911F910F9129
:1013B0000895B80182E00E94A008888F843030F43C
:1013C0001D870C871A8E198E81E0EECF80E0ECCF5E
:1013D0007F928F929F92AF92BF92CF92DF92EF92C5
:1013E000FF920F931F93CF93DF9300D0CDB7DEB75B
:1013F000782E8B014A01590122E030E0AE014F5FA7
:101400005F4F64E270E00E947707E980FA80FE2473
:10141000EF24FE24E00EF11E970137704091630225
:10142000072D10E0433309F042C0085F1F4F102F13
:101430000027110F110F110FC901800F911F4733A2
:10144000C9F1A9014A0D5B1D4130584098F160E097
:1014500078E06B01C21AD30AA601B4010E949B0274
:10146000A5014C195D09B4016C0D7D1DC8010E94D8
:101470009B02EA0CFB1CF982EA8222E030E0AE011A
:101480004F5F5F4F64E270E0872D0E946C030F9006
:101490000F90DF91CF911F910F91FF90EF90DF9010
:1014A000CF90BF90AF909F908F907F900895005FF6
:1014B0001F4FBDCFA501B401DACFEF92FF921F936A
:1014C000CF93DF9300D0CDB7DEB7182F22E030E006
:1014D000AE014F5F5F4F60E270E00E947707E980E6
:1014E000FA80FE24EF24FE2422E030E0AE014F5FBC
:1014F0005F4F60E270E0812F0E94770789819A81B7
:10150000982789279827E816F90689F487E0189F15
:10151000F0011124E95BFD4FF582E482C7010F90D1
:101520000F90DF91CF911F91FF90EF9008957C0174
:10153000DBCF1F93CF93DF93182F80E591E00E94BC
:101540000501812F0E945D0AEC0163E070E0812FAC
:101550000E941506873121F08C3111F0D0E0C0E0F7
:10156000CE01DF91CF911F910895CF93DF93EC01CE
:101570008C85843060F40E946706873111F08C31CD
:1015800031F48C850E94990A8115984088F3DF9187
:10159000CF910895FC018485843010F40C94990A4D
:1015A00090E080E008959F92AF92BF92CF92DF9239
:1015B000EF92FF920F931F93CF93DF938C015B0108
:1015C000942EE52EFC01C688D788F08C80E591E04A
:1015D0000E9405018F2D0E945D0AC92DDE2D8C17FA
:1015E0009D0708F4EC019E01A501B6018F2D0E9414
:1015F000E809F801868997898C0F9D1F978B868B48
:10160000CE01DF91CF911F910F91FF90EF90DF906E
:10161000CF90BF90AF909F9008958F929F92AF927E
:10162000BF92CF92DF92EF92FF920F931F93CF93CF
:101630006C015B018A01FC01C485C430F0F57A01BC
:101640004130584018F0E12C88E0F82E80E591E018
:101650000E9405018C2F0E945D0A4C0163E070E03E
:101660008C2F0E941506873111F08C3149F58E14AC
:101670009F0460F380E591E00E9405019701A501B8
:1016800070E060E08C2F0E94E80960E270E08C2F2F
:101690000E94320662E070E08C2F0E94150684FDE5
:1016A00017C063E070E08C2F0E94150681110BC0FB
:1016B00081E090E0F6019383828310E000E010C0A7
:1016C000F12CE12CD7CF80E591E00E940501E2CF1B
:1016D00040E162E070E08C2F0E94A703EF2841F305
:1016E000C801CF911F910F91FF90EF90DF90CF90A5
:1016F000BF90AF909F908F900895FF920F931F938C
:10170000CF93DF9300D0CDB7DEB7F82E22E030E0E4
:10171000AE014F5F5F4F66E270E00E94770709817C
:101720001A8110270127102722E030E0AE014F5F19
:101730005F4F66E270E08F2D0E94770789819A8162
:101740009827892798270817190749F4C8010F9087
:101750000F90DF91CF911F910F91FF9008958C0111
:10176000E3CF1F93CF93DF93182F87E0189FE001FB
:101770001124C95BDD4F88819981009761F480E570
:1017800091E00E940501812F0E947D0B2E81821B1A
:10179000910999838883DF91CF911F910895FC016E
:1017A0008485843010F40C94B10B90E080E00895AF
:1017B0004F925F927F928F929F92AF92BF92CF9201
:1017C000DF92EF92FF920F931F93CF93DF9300D09E
:1017D000CDB7DEB7782E6B014A01A82EB12C27E0D9
:1017E000829FC0011124FC01E95BFD4F7F01008154
:1017F000118180E591E00E9405010815190554F456
:10180000872D0E947D0BF70126818C01021B110997
:10181000118300830115110529F563E070E0872D20
:101820000E941506843159F0882349F001E010E048
:101830008C3111F410E000E0119501951109C801F7
:101840000F900F90DF91CF911F910F91FF90EF902C
:10185000DF90CF90BF90AF909F908F907F905F90E0
:101860004F900895801691060CF4840187E08A9DBC
:10187000F0018B9DF00D1124E95BFD4FE280F380B8
:10188000C114D10451F12701F7E05F22872D0E9496
:101890005E03840D951D20916302273309F453C024
:1018A0009801240D351D2130384008F44CC020E04B
:1018B00038E0490184189508A401B6010E948A0500
:1018C0002601480C591C6801C818D908872D0E94A8
:1018D0005E03A601B2010E948A05E00EF11E87E0B8
:1018E0008A9DF0018B9DF00D1124E95BFD4FF38281
:1018F000E28220813181201B310B3183208386815C
:10190000800F912F911D8A3F910510F4232BF1F444
:1019100087E08A9DF0018B9DF00D1124E95BFD4F5E
:101920001682F982EA8222E030E0AE014F5F5F4F1B
:1019300068E270E0872D0E946C0360E470E0872D00
:101940000E9432067CCFA801B601C5CF868377CF2F
:10195000CF93DF93FC01218D328D2115310529F4C0
:101960008FEF9FEFDF91CF910895EC01808D4217AB
:10197000530708F0A9010E94D80B1816190684F71E
:10198000298D3A8D281B390B3A8F298FEBCF0F9376
:101990001F93CF93DF931F92CDB7DEB7FC01218D4C
:1019A000328D232B41F48FEF9FEF0F90DF91CF917A
:1019B0001F910F9108958C0141E050E0BE016F5FCF
:1019C0007F4FFC01808D0E94D80B181619065CF71A
:1019D000F801818D928D0197928F818F898190E09E
:1019E000E4CFCF93DF931F92CDB7DEB741E050E055
:1019F000BE016F5F7F4FFC0184850E94D80B1816D3
:101A0000190634F4898190E00F90DF91CF91089509
:101A10008FEF9FEFF9CFFC018485843010F40C9494
:101A2000D80B90E080E008950F931F93CF93DF933E
:101A300000D0CDB7DEB7FC0124852430E0F48C0162
:101A400080E591E00E94050122E030E0AE014F5FA9
:101A50005F4F60E170E0F80184850E94770789811B
:101A60009A819827892798270F900F90DF91CF911F
:101A70001F910F91089590E080E0F6CF0F931F9390
:101A8000CF93DF9300D0CDB7DEB7FC01248524309F
:101A9000E0F48C0180E591E00E94050122E030E055
:101AA000AE014F5F5F4F64E070E0F80184850E94F3
:101AB000770789819A819827892798270F900F9017
:101AC000DF91CF911F910F91089590E080E0F6CFC4
:101AD000DC0183E991E08D939D9384E0FB0101900B
:101AE0000D928A95E1F70895EF92FF920F931F935D
:101AF000CF93DF9300D000D0CDB7DEB78C017B0150
:101B0000FB0184858430A8F083E991E0F80191839A
:101B100080831282138214821582C8010F900F9065
:101B20000F900F90DF91CF911F910F91FF90EF9049
:101B3000089580E591E00E94050124E030E0AE01C7
:101B40004F5F5F4F6CE070E0F70184850E9477077C
:101B5000BE016F5F7F4FC8010E94680DDECF0F93FB
:101B60001F93CF93DF93CDB7DEB728970FB6F894C6
:101B7000DEBF0FBECDBF8C01D80159964D915C914F
:101B80005A974115510551F0ED91FC91048CF58D5A
:101B9000E02D70E060E0C8010995EECFF801808D7E
:101BA0000E94B10B892BB1F148E050E0BE016F5F9C
:101BB0007F4FD80158968C910E94D80B18161906A1
:101BC000F4F4D801509684E0FE01319601900D9214
:101BD0008A95E1F78D8190E0982F88272E81820FDA
:101BE000911DF801958B848B8F81282F30E0322F47
:101BF00022278885820F932F911D928F818F28969F
:101C00000FB6F894DEBF0FBECDBFDF91CF911F910D
:101C10000F91089590E080E0F2CF4F925F926F9223
:101C20007F928F929F92AF92BF92CF92DF92EF926C
:101C3000FF920F931F93CF93DF93CDB7DEB76397D8
:101C40000FB6F894DEBF0FBECDBF7C016B013A0129
:101C5000FB0120E090E080E06AE03191332309F459
:101C600061C040ED430F4A3008F04DC0689FA001AD
:101C7000699F500D1124CA01C097830F911D37FD34
:101C80009A958F3F910549F340F3F70142815381C3
:101C9000648175818091900290919102A09192024D
:101CA000B0919302481759076A077B0709F40DC2E0
:101CB0008701085F1F4F0E9409026F7077277C5FC2
:101CC000C8010E94C309813009F004C283E991E090
:101CD0009A838983F70182819381A481B5818B8363
:101CE0009C83AD83BE8345E350E0BE016F5F7F4FB1
:101CF000C8010E94FC03892BA9F5D12CC12CC80175
:101D00000E945A0617C03E3209F0BFCF233009F4B3
:101D1000BCCFD301A20FB11D12968C932F5F90E020
:101D200080E09BCF233009F0B0CFF3018583CC2432
:101D3000C394D12CC60163960FB6F894DEBF0FBED4
:101D4000CDBFDF91CF911F910F91FF90EF90DF906A
:101D5000CF90BF90AF909F908F907F906F905F904B
:101D60004F9008950E940902F7017783668342E04D
:101D700050E0B7016A5F7F4FC8010E94D30A81E03B
:101D800090E09A83898342E050E0BE016F5F7F4F0D
:101D9000C8010E94D30A80E091E09A83898342E0DF
:101DA00050E0BE016F5F7F4FC8010E94D30A1A82C4
:101DB000198242E050E0BE016F5F7F4FC8010E9470
:101DC000D30A42E050E0BE016F5F7F4FC8010E941E
:101DD000D30A42E050E0BE016F5F7F4FC8010E940E
:101DE000D30A5601F6018081882301F16501F601CD
:101DF00081912F01882311F08E32B1F446018A18A7
:101E00009B081814190474F48D8641E050E0BE015B
:101E1000635F7F4FC8010E94D30AA401B501C801C6
:101E20000E94D30A5201DECF6201E1CF1D8641E05C
:101E300050E0BE01635F7F4FC8010E94D30AC12CEE
:101E4000DD24D394DA82C98242E050E0BE016F5FA4
:101E50007F4FC8010E94D30ADA82C98242E050E073
:101E6000BE016F5F7F4FC8010E94D30AC8010E9464
:101E7000CE06892B09F441CFF3E0AF2EB12C23011C
:101E800022E0420E511CD4C0F7014281538164818B
:101E90007581808D918DA28DB38D481759076A0782
:101EA0007B0709F008C1848D958DC59709F003C1A2
:101EB00081A192A15DEFC52EDD24DA940C970CF47C
:101EC000ADC04CE050E0BE016F5F7F4FC8010E9483
:101ED000A80C8B819C819827892798279A8B898BBE
:101EE000F7014681578129813A814217530709F04A
:101EF000E7C097FFE5C08F7092703BEFC32EDD24E3
:101F0000DA94892B09F08AC06F807884762467245C
:101F100076242AEFC22EDD24DA946114710409F4C8
:101F20007DC0D12CC12C8D819E819827892798272F
:101F3000C816D906F8F441E050E0BE01635F7F4F58
:101F4000C8010E94A80C4D85442331F050E070E098
:101F500060E0C8010E94A80C8D858111ECCF44E09F
:101F600050E070E060E0C8010E94A80CFFEFCF1ABB
:101F7000DF0AD9CF912C812C41E050E0BE016D5E8B
:101F80007F4FC8010E94A80C4B89842F807C09F0E8
:101F90006CC0442331F050E070E060E0C8010E9462
:101FA000A80C8B898111E8CF42E050E0BE01615F4F
:101FB0007F4FC8010E94A80C42E050E0BE01635F61
:101FC0007F4FC8010E94A80C44E050E070E060E040
:101FD000C8010E94A80C42E050E0BE016F5E7F4F36
:101FE000C8010E94A80C8F85988949895A89811552
:101FF000914009F043C0CD84DE84DC24CD24DC2470
:1020000081E0C816D104D1F54115544009F04AC009
:1020100044E050E0B201C8010E94A80C21E0A21ADD
:10202000B10809F46CCEFFEFCF16DF0609F067CEDA
:102030000E9409023B014C01C8010E94AF0D181615
:1020400019060CF421CF0E94090266197709880944
:102050009909693873418105910548F562E370E09B
:1020600080E090E00E94D601E7CF41E050E070E0D0
:1020700060E0C8010E94A80C1B8A93CF5427452713
:10208000542770E060E0C8010E94A80CFFEF8F1A8F
:102090009F0A6814790409F06FCF96EFC92EDD24EA
:1020A000DA94BCCFE7EFCE2EDD24DA94B7CFCC2480
:1020B000CA94DC2CB3CF6EEFC62EDD24DA94AECFFB
:1020C0004CEFC42EDD24DA94A9CF8EEFC82EDD2488
:1020D000DA9430CED12CC12C2DCECF92DF92EF925C
:1020E000FF920F931F93CF93DF93CDB7DEB7AF97D8
:1020F0000FB6F894DEBF0FBECDBF7C016A0103E9C5
:1021000011E01A8309831C861B8688EE93E0A0E009
:10211000B0E08D879E87AF87B88B87E391E09A8781
:102120008987188F0F8B198E1A8E1B8E1C8E84E058
:1021300089A31BA70AA71CA61DA61EA61FA68091E1
:10214000840290918502A0918602B09187028EA3AD
:102150009FA3A8A7B9A78B839C83AD83BE83188652
:102160001F82AE01465D5F4FCE0101960E940D0EAB
:1021700081309105B1F4D701ED91FC910488F58986
:10218000E02D1DA30CA38CA59DA5AEA5BFA58EA378
:102190009FA3A8A7B9A7A601BE016C5D7F4FC70189
:1021A0000995AF960FB6F894DEBF0FBECDBFDF9195
:1021B000CF911F910F91FF90EF90DF90CF900895F6
:1021C000CF92DF92EF92FF920F931F93CF93DF9303
:1021D000CDB7DEB7AF970FB6F894DEBF0FBECDBF59
:1021E0008C016B017A0183E991E09A8389831B82D8
:1021F0001C821D821E821C861B8648EE53E060E016
:1022000070E04D875E876F87788B27E331E03A87F0
:102210002987988F8F8B198E1A8E1B8E1C8E24E027
:1022200029A39BA78AA71CA61DA61EA61FA6D80188
:102230001C968C91843060F40E946706882321F0FC
:10224000F80184850E94420684E0D8011C968C9394
:102250008091840290918502A0918602B0918702BC
:102260008EA39FA3A8A7B9A78B839C83AD83BE83AE
:1022700018861F82AE01465D5F4FB601CE01019602
:102280000E940D0E0097C1F0D801ED91FC910684DB
:10229000F785E02D83E991E09DA38CA38CA59DA5F6
:1022A000AEA5BFA58EA39FA3A8A7B9A7A701BE01EE
:1022B0006C5D7F4FC8010995AF960FB6F894DEBFED
:1022C0000FBECDBFDF91CF911F910F91FF90EF9087
:1022D000DF90CF9008950F931F93CF93DF93EC017E
:1022E000FB0101900020E9F78F01061B170B8A8183
:1022F0009B81A801480F591F2C813D812417350768
:1023000068F028813981A801820F931F0E947724E9
:102310004A815B81400F511F5B834A83DF91CF91DC
:102320001F910F9108953F924F925F926F927F920B
:102330008F929F92AF92BF92CF92DF92EF92FF92D5
:102340000F931F93CF93DF93CDB7DEB7EA970FB606
:10235000F894DEBF0FBECDBF7C012A013B016901AD
:102360000E9409024B015C0187010D5B1F4FC801F0
:102370000E94AF0D181619069CF00E9409026819F8
:1023800079098A099B09461657066806790608F4F2
:1023900066C162E370E080E090E00E94D601E7CF82
:1023A00042E250E0BE016F5F7F4FC8010E94A80C5F
:1023B00089818230D1F0312C832DEA960FB6F894C2
:1023C000DEBF0FBECDBFDF91CF911F910F91FF9068
:1023D000EF90DF90CF90BF90AF909F908F907F90C5
:1023E0006F905F904F903F900895F8018489958990
:1023F0008334910501F76D817E818F8198850E94DC
:10240000F2234B015C01F60180829182A282B382A9
:1024100046E050E0B701685F7F4FCE014D960E94C5
:102420006A24892B41F6F70180819181A281B381D1
:1024300088169906AA06BB0608F4BDCF848195814B
:10244000A681B78188159905AA05BB0508F4B3CF05
:1024500089899A89AB89BC8986879787A08BB18B3C
:102460004EEC50E070E060E0C8010E94A80C312CF6
:10247000C701829698AB8FA7F701B696FAABE9AB86
:1024800008969CAB8BAB67019AE1C90ED11CBD9637
:10249000FEABEDABC701429698AF8FABFD97FAAF9D
:1024A000E9AF4701FEE18F0E911CF801818D928DFD
:1024B000181619060CF080CFC8010E94C70C833390
:1024C000910509F4B2C014F58130910509F464C096
:1024D00044F4892B51F3C8010E94C70CAC01552765
:1024E00075C08330910509F462C00697A1F7C80151
:1024F0000E94C70CB82E44E050E0B401C8010E940D
:10250000A80CEB2DE450FF0BAF0160C08A3391059E
:1025100009F45FC084F585339105B1F1C697D9F60A
:10252000C8010E94C70C5C01B601CE0189960E94C9
:10253000680D8BA59CA5ADA5BEA5892B8A2B8B2BE1
:10254000B1F0EDA9FEA94080518062807380B60190
:10255000CE0183960E94680D8DA19EA1AFA1B8A562
:10256000A501481659066A067B0609F0B8CF44E073
:1025700050E0B60118C08B33910509F440C08F3F7D
:10258000910509F492CFA7CFC8010E94C70CC801DA
:102590000E94C70C382E89CFC8010E94C70C44E0A6
:1025A00050E06FA978ADC8010E94A80C7ECFC80189
:1025B0000E94C70CB82E44E050E069AD7AADC80166
:1025C0000E94A80C8B2D8450990BAC0170E060E048
:1025D000EACFC8010E94C70C44E050E069A97AA97B
:1025E000C8010E94A80CF70166A177A180A591A55A
:1025F0000E94F22366A377A380A791A756CFC801B4
:102600000E94C70C44E050E06BA97CA9C8010E945D
:10261000A80CF70162A573A584A595A50E94F223D5
:1026200062A773A784A795A740CFC8010E94C70CD3
:1026300044E050E06FA578A9C8010E94A80CF701FA
:1026400062A173A184A195A10E94F22362A373A346
:1026500084A395A366A777A780AB91AB26CF33243D
:102660003A94AACE7F928F929F92AF92BF92CF92CE
:10267000DF92EF92FF920F931F93CF93DF93CDB72B
:10268000DEB7A6970FB6F894DEBF0FBECDBF8C01A4
:10269000762E942E852E20E2A22ECE0101967C016C
:1026A000DC01EA2D1D92EA95E9F76801F3E4CF0E0B
:1026B000D11C83E991E09AA389A38FEF8BA38CA30C
:1026C0008DA38EA343E450E0BE016F5D7F4FC60132
:1026D0000E94FC03019609F4BFC081E089838A83CC
:1026E00086E0B82EBB821C82D80114966D917D9134
:1026F0008D919C9117970E94F2236D837E838F8327
:10270000988789869A8680E890E09C878B874CE141
:1027100050E0B701C6010E94D30AFE0137968AE154
:10272000DF011D928A95E9F74801B8E08B0E911CF4
:10273000F401D70101900D92BA94E1F740E150E025
:10274000B701C6010E94D30AF7011192AA94E9F7D2
:1027500096E0A92EB12C40E250E0B701C6010E94DC
:10276000D30AF1E0AF1AB108B1F783E6898392E8A2
:102770009A8393E59B838C8385E38D8381E08E83AD
:102780007F829DE3988797E099878A8786E0F401A6
:10279000DE011B9601900D928A95E1F78CE0898B02
:1027A0008A8B65E971E0CE0143960E949024D8019E
:1027B0001B966C91CE0149960E940801F801648530
:1027C000CE014B960E940801D8011D966C91CE0156
:1027D0004D960E9408014EE150E0B701C6010E94EB
:1027E000D30AB3E07B121EC082E3898384E08A832C
:1027F000F80196859B8397859C8390899D83918919
:102800009E8396E39F838887828D8987838D8A87BD
:10281000848D8B87858D8C874CE050E0B701C60195
:102820000E94D30A87E3898386E08A8391E09B83B1
:1028300093E09C838D838FE08E838AE38F838BE389
:1028400088878FEF898749E050E0B701C6010E9471
:10285000D30AC6010E94CE06A6960FB6F894DEBF34
:102860000FBECDBFDF91CF911F910F91FF90EF90E1
:10287000DF90CF90BF90AF909F908F907F90089502
:102880003F924F925F926F927F928F929F92AF9200
:10289000BF92CF92DF92EF92FF920F931F93CF934D
:1028A000DF93CDB7DEB7A3970FB6F894DEBF0FBEA8
:1028B000CDBF6C010DB71EB71BA30AA360E070E08B
:1028C000CB010E94D601D60191968D919C91929751
:1028D000B12C029709F49BC090968C9190978F5FD2
:1028E00090968C9390975E962D913C91232B19F0A6
:1028F000BB24B39485C08330D8F7F60182859385D5
:102900000E949C04882309F4ABC38E010F5F1F4F04
:10291000480150E1452E512CD6011A96ED91FC91BB
:1029200080819181DC01ED91FC910084F185E02DA5
:102930000995181619060CF093C3D6011A96ED9155
:10294000FC9145E050E0BE01695E7F4F808191813E
:102950000E941502009701F3059709F04AC0888D7F
:10296000998D982789279827998F888F0A8D1B8D95
:102970001027012710271B8F0A8F892BD1F18F89F0
:1029800081116AC00E940902F601608B718B828BF3
:10299000938B21A132A14A8D5B8D232B09F057C067
:1029A000288D398D2130310509F051C0493051054C
:1029B000E1F0483C510519F044305105D1F4D601FD
:1029C00058966D937D938D939C935B97E1E0F0E037
:1029D0009296FC93EE939197C6010E94D71B60E0FC
:1029E00070E0CB010E94D60197CF83E090E092A3E4
:1029F00081A3D6011A968D919C910E94AF04B12CAF
:102A0000D60190968C919097815090968C938B2DB7
:102A1000AAA1BBA10FB6F894BEBF0FBEADBFA396CF
:102A20000FB6F894DEBF0FBECDBFDF91CF911F91DF
:102A30000F91FF90EF90DF90CF90BF90AF909F905D
:102A40008F907F906F905F904F903F9008954530AA
:102A5000510509F061CFCDCFF60182859385013014
:102A6000F1E01F0740F0D60192961C921E929197BA
:102A70000E94AF0451CFADB6BEB698012F5F3F4F55
:102A8000EDB7FEB7E21BF30B0FB6F894FEBF0FBE17
:102A9000EDBF2DB73EB72F5F3F4F7901A801B901B8
:102AA000DC018D919C910E9415028017910709F01D
:102AB0005DC0EA8DFB8DEE0DFF1D10820E940902A4
:102AC000F601608B718B828B938B8F89843109F433
:102AD000AAC0D8F48F3009F4A6C0813109F4A3C28A
:102AE000863009F0B5C2488D598DF12CE12C08ECE7
:102AF00010E030E020E060E0C6010E9445190FB60A
:102B0000F894BEBE0FBEADBE07CF8932C9F0873381
:102B1000B1F38D3109F09CC2D60181A192A1892B1C
:102B200011F7E1E0F0E09296FC93EE939197C601E5
:102B30000E94D71B60E070E0CB010E94D601D3CF8A
:102B400086859785892B39F480E490E00E942621C0
:102B5000F601978786870A8D1B8D0E0D1F1DFA8241
:102B6000E9821C830B83E016F10630F00FB6F8946F
:102B7000BEBE0FBEADBE3DCF40E450E0B701D601B2
:102B80001E968D919C910E949724D6011E96ED91E0
:102B9000FC9117AEC4010E94901BFC0180819181C1
:102BA00080179107E8F589819A810097A9F12B8117
:102BB0003C818217930780F50E940D238B01D6017B
:102BC0001A968D919C910E94AF04D6011A96ED91B0
:102BD000FC911B971E968D919C911F9791878087E2
:102BE0001387028792961C921E9291970E94090267
:102BF000DC01CB0188589341A109B109F601848B0E
:102C0000958BA68BB78B808B918BA28BB38B808F90
:102C1000918FA28FB38F73CF60E070E0CB01CECFE6
:102C200000E510E0CCCF888D998DD6015F969C93FE
:102C30008E935E970A8D1B8D19A308A338016E0C25
:102C40007F1CFD8EEC8E7F8E6E8EE614F70408F0EE
:102C50007FC1D7010D911C91CE014C960E94901B13
:102C6000FC01808191818615970508F071C18C8DDA
:102C70009D8DDC012C91213409F063C001960E94E6
:102C8000EF224EE0342E380E06970CF45FC0063764
:102C9000B2E71B0709F45CC108F0E6C20136F2E7AF
:102CA0001F0709F4CCC2043622E7120709F05EC000
:102CB00033243A949A8A898A1C8A1B8A5E8A4D8AAE
:102CC0006AEA71E0CE0141960E946B11032D10E07B
:102CD000B801CE0141960E94B21BF801E45EFE4F9E
:102CE0008491F801E85FFE4FF4900C501F4FF801FB
:102CF000049160E070E0002389F081110E941E01C0
:102D0000E02FF0E0EE0FFF1FE651FF4FA591B491C9
:102D1000EC91FE2261E070E009F460E0CE014196A2
:102D20000E94B21B0B891C890150110929893A891B
:102D3000F12CE12C50E040E064E1C6010E9445190D
:102D400007C1CE014C960E94A31B382E0637B2E76E
:102D50001B0709F420C1D0F40136F2E71F0709F47C
:102D6000A8C0043622E7120709F4A4CF00371D4695
:102D700009F464C0D6015E964D915C91F12CE12C72
:102D800002E010E030E020E060E0D7CF043647E713
:102D9000140709F473C0063757E7150709F414C17F
:102DA0000136174739F7CE014C960E94901BDC0183
:102DB0008D919C918615970508F0CAC061E0832D1E
:102DC0000E947501CE014C960E94A31B8C0161E00C
:102DD000832D0E9475010115110509F465C00F3F8F
:102DE000110509F090C061E060C0CE014C960E94D0
:102DF000A31BF82ECE014C960E94901B0C8D1D8DAE
:102E00006CE971E0C8010E94872460E0892B79F0A9
:102E10006FE971E0C8010E948724892B39F063EAC9
:102E200071E0C8010E948724892BE9F461E08F2DAD
:102E30000E947501CE014C960E94901B8C8D9D8D39
:102E40008615970508F084C0DC012C91213469F6C1
:102E500001960E94EF223EE0F32EF80E069754F200
:102E6000FF24FA94C7CF67EA71E0C8010E94872463
:102E7000892B01F762E0DBCF33243A94CE014C96E4
:102E80000E94901BDC018D919C918615970508F09E
:102E90005FC061E0832D0E947501CE014C960E94B7
:102EA000A31B61E0892B09F460E0832D0E94470198
:102EB0004FC09A8A898A1C8A1B8A5E8A4D8A6DEA6B
:102EC00071E0CE0141960E946B11632D70E0CE013E
:102ED00041960E94B21BBDE0B31510F4E2EF3E0E26
:102EE000832D8770806480937C0080917A00806459
:102EF00080937A0080917A0086FDFCCF6091780003
:102F0000709179000BCFE32DF0E0E45EFE4FE49189
:102F1000E33039F148F4E130B9F0E230E9F000385B
:102F200011050CF060CFC0CFE73029F1E83059F13E
:102F3000E430A9F780918000806280938000109334
:102F40008B0000938A0004C084B5806884BD07BDEF
:102F5000F601178E168ED3CD84B5806284BD08BD70
:102F6000F7CF809180008068809380001093890063
:102F700000938800EDCF8091B00080688093B0000E
:102F80000093B300E5CF8091B00080628093B000E1
:102F90000093B400DDCF3982BFE1B315C8F2E32D51
:102FA000F0E0EE0FFF1FE05DFE4F259134912115FB
:102FB000310571F2E1E024303E0751F2C401F9011C
:102FC0000995C6CF33243A94CE014C960E94901BAB
:102FD0002C8D3D8DC9018E199F0908A119A1081BCF
:102FE000190B3A8329831C830B831E830D83398A33
:102FF0001FE1131508F4ACCFE32DF0E0EE0FFF1F37
:10300000E059FE4F259134912115310509F4A0CFE7
:1030100041E02330340709F49BCFB401CE0141963F
:10302000F901099595CF8A8D9B8D8E0D9F1DFA8292
:10303000E9829C838B83E816F90608F060CDC40111
:103040000E94901BD6015F961C921E925E9757CDF0
:10305000F60112A211A2828593850E94AF044FCD82
:103060000E9409022B013C01F601828593850E9492
:103070009C04D60191962D913C912130310509F0A7
:103080005CC0F601811109C0408E518E628E738E34
:1030900012A211A282859385B0CC80899189A289E0
:1030A000B38993018201081B190B2A0B3B0BD90131
:1030B000C801893116EF9107A105B10548F7893C90
:1030C0009F4AA105B10590F484899589A689B7899D
:1030D00093018201081B190B2A0B3B0BD901C80174
:1030E000893C9F4AA105B10508F402CCF601808D08
:1030F000918DA28DB38D93018201081B190B2A0BB0
:103100003B0BD901C80181379741A105B10508F4EE
:10311000EFCBF12CE12C10E000E030E020E050E0BB
:1031200040E066E0C6010E944519D60158964D92CE
:103130005D926D927C925B97DBCB232B09F0D8CB11
:10314000F601408D518D628D738D93018201041BB8
:10315000150B260B370BB901A801882381F04137E5
:1031600057416105710508F4C3CB828593850E94A0
:10317000AF04D60192961C921E92919740CC49388A
:1031800053416105710508F4B3CB828593850E9494
:10319000AF04D6011A960D911C91F80162857385D2
:1031A000C8010E945504D8011C968C931C9781116C
:1031B0000DC01A968D919C918035910599F460E926
:1031C0007FE1C8010E945504F8018487F801B484A6
:1031D000B11014C0D60158964D925D926D927C92BA
:1031E0005B970ECC80399F4189F760E570E0C8019C
:1031F0000E945504D8011C968C93E8CF81E090E0A2
:10320000F601958F848F24853585F9010190002082
:10321000E9F731978F01021B130BF12CE12C41E0F0
:1032200050E06DE1C6010E944519F6018489958937
:10323000A689B789808F918FA28FB38FE1CB9A8AAD
:10324000898A1C8A1B8A5E8A4D8A6DEA71E0CE01EA
:1032500041960E946B116FEF70E0CE0141960E9483
:10326000B21B33243A943ACE043647E7140709F4E4
:1032700003CE063757E7150709F4A4CE01361747E2
:1032800009F078CD33243A948ECD2F923F924F920D
:103290005F926F927F928F929F92AF92BF92CF92E6
:1032A000DF92EF92FF920F931F93CF93DF93CDB7EF
:1032B000DEB7C454D1090FB6F894DEBF0FBECDBF40
:1032C0004C0168AF5AAF49AF25963FAF2EAF259757
:1032D00021961FAF0EAF2197DC011A968D919C911C
:1032E0000E949C04882309F47EC1B8ADBB2351F031
:1032F000B63041F0BD3131F0F40181A192A10197C6
:1033000009F071C188AD8F508630A0F5D401549674
:103310004D915D916D917C9157975096CD90DD9038
:10332000ED90FC905397C416D506E606F70610F408
:103330006A017B01B2E4CB0ED11CE11CF11C0E949E
:103340000902A7019601261B370B480B590BDA011E
:10335000C901B7FD62C1C4010E9440140E94090264
:10336000A7019601261B370B480B590BDA01C9013F
:10337000B7FFF1CFF40180819181019709F0B0C0CE
:1033800082E090E091838083228133814481558162
:103390006681778180859185A0E0FE017A960E9402
:1033A000582409F44DC1FBABEAAB1DAA1CAA88E165
:1033B00090E09FAB8EAB6AE971E0CE01C2960E94AD
:1033C0006B11D40112964C90129713965C90139740
:1033D00014966C90149715967C9015971696BC9140
:1033E000BBAFF401F781FCAFD40118962C9018976D
:1033F00019963C90198E9201A3016BAD7F2FC101EC
:10340000A0E00E94582409F411C1FE017996239688
:10341000FFAFEEAF239727E130E03EAF2DAF8AE05C
:10342000A82EB12CC12CD12CE12CF12C00E010E005
:103430009201A3016BAD7CADC1010E94F923F9019A
:10344000EE54FE4F80812396AEADBFAD23978E9391
:103450002396BFAFAEAF2397EDADFEAD3197FEAF74
:10346000EDAF9AE0A92EB12CC12CD12CE12CF12C7E
:1034700000E010E09201A3016BAD7CADC1010E94A0
:10348000FB2329013A016BAF7CAF1C01A0E00E9435
:10349000582421F04DAD5EAD452B09F66DAD7EADE6
:1034A0006C0F7D1F6E5F7F4F09F0C5C0EAA9FBA9B5
:1034B0008CA99DA99C012F5F3F4F3DAB2CABE80F22
:1034C000F91F10820CA91DA9015011092AA93BA9B5
:1034D000F12CE12C50E040E065E1C4010E94451967
:1034E00029AD3AAD232BB9F4D4015E960D90BC9171
:1034F000A02DBAAFA9AFAB2B71F4F401848D958DDB
:10350000019609F4B2C0958F848FF401048CF58D77
:10351000E02DFAAFE9AF25962EAD3FAD2597219668
:103520000EAD1FAD21970B5F1F4F232B11F405E04C
:1035300010E038AD398389AD9AAD9827892798274F
:103540009B838A8321968EAD9FAD219798278927EB
:1035500098279D838C83D4011A96ED91FC918081EC
:103560009181DC01ED91FC910280F381E02D45E039
:1035700050E0BE016F5F7F4F09957C0160E070E015
:10358000CB010E94D601B8ADBB2311F12196EEAD5F
:10359000FFAD2197EF2BE1F0D4011A96ED91FC914C
:1035A00080819181DC01ED91FC910280F381E02D1D
:1035B00021964EAD5FAD219725966EAD7FAD2597D7
:1035C0000995E80EF91E60E070E0CB010E94D6017B
:1035D0000E151F0509F44EC0F40112A211A2828536
:1035E00093850E94AF04CC5BDF4F0FB6F894DEBF2B
:1035F0000FBECDBFDF91CF911F910F91FF90EF9044
:10360000DF90CF90BF90AF909F908F907F906F9002
:103610005F904F903F902F900895D40190968C9199
:103620008111A8CEC4010E944014A4CE80E3888FEB
:10363000BE01685E7F4FCE01C2960E946B1142CFE1
:10364000FA83E9831C821B8284E090E09E838D8351
:1036500060EB71E0CE0101960E946B110B811C8121
:103660000150110929813A8133CF81E090E0958F93
:10367000848F4BCF0E940902D40154966D937D93A1
:103680008D939C935797AFCF0C94C2211F920F92AA
:103690000FB60F9211242F933F938F939F93AF9365
:1036A000BF9380913F0290914002A0914102B0915E
:1036B000420230913E0223E0230F2D3758F5019648
:1036C000A11DB11D20933E0280933F0290934002C2
:1036D000A0934102B0934202809143029091440230
:1036E000A0914502B09146020196A11DB11D8093A3
:1036F000430290934402A0934502B0934602BF91C7
:10370000AF919F918F913F912F910F900FBE0F908E
:103710001F90189526E8230F0296A11DB11DD2CF48
:10372000DC01ED91FC911197309761F012962D918B
:103730003C911397E217F30728F401900020E9F772
:10374000ED93FC930895FC0180819181009739F0FD
:10375000228133818217930710F40C94EF2290E0BA
:1037600080E008950F931F93CF93DF93CDB7DEB71B
:1037700028970FB6F894DEBF0FBECDBF8C01CB01EA
:103780004AE0BE016F5F7F4F0E943D23BE016F5F25
:103790007F4FC8010E946B1128960FB6F894DEBFC8
:1037A0000FBECDBFDF91CF911F910F910895CF92A2
:1037B000DF92EF92FF920F931F93CF93DF93CDB7DA
:1037C000DEB7C45AD1090FB6F894DEBF0FBECDBF25
:1037D0006C0144E650E060E770E0CE0101960E9483
:1037E0003423CE018B599F4F7C0104E610E09E01EB
:1037F0002F5F3F4F50E040E061E1C6010E94451954
:10380000CC55DF4F0FB6F894DEBF0FBECDBFDF91B2
:10381000CF911F910F91FF90EF90DF90CF9008957F
:10382000E4E6F2E083E991E09183808312821382DF
:1038300014821582EAE6F2E0918380831282138279
:1038400014821582E0E7F2E0918380831282138272
:1038500014821582E6E7F2E091838083128213825C
:1038600014821582ECE7F2E0918380831282138246
:1038700014821582E8E8F2E0918380831282138239
:1038800014821582E2E8F2E091838083128213822F
:1038900014821582EEE8F2E0918380831282138213
:1038A00014821582E4E9F2E091838083128213820C
:1038B00014821582EFEDF2E09183808312821382ED
:1038C00014821582E0EDF2E01382128221E631E0EB
:1038D0003183208324E0248728EE33E03687258750
:1038E000A3ECB2E013969C938E93129714961D92BC
:1038F0001D921D921C92179719961C921E92189752
:103900001B961C921E921A971C961C921C9711963D
:10391000FC93EE9340E757E160E070E04483558309
:1039200066837783EAE9F2E01182108212821382C1
:10393000148215821682178210861186B387A28799
:103940001586148617861686108A118A128A138A9B
:10395000148A158A168A178A108E118E128E138E6B
:10396000158E148E178E168E10A212A211A2089513
:10397000CF93DF93CDB7DEB72A970FB6F894DEBFAB
:103980000FBECDBF789484B5826084BD84B581605C
:1039900084BD85B5826085BD85B5816085BD80911A
:1039A0006E00816080936E00109281008091810092
:1039B000826080938100809181008160809381008A
:1039C000809180008160809380008091B10084604C
:1039D0008093B1008091B00081608093B0008091AD
:1039E0007A00846080937A0080917A00826080936C
:1039F0007A0080917A00816080937A0080917A00C9
:103A0000806880937A001092C1008EEF8093BD028F
:103A10009DEE9093BE022AEB2093BF028093C002DA
:103A20008093C1029093C20220E031E0D9010D9051
:103A30000020E9F79D0121503140A0E0B1E0E1E034
:103A4000F0E0AD01405051404217530784F4AF01FC
:103A50004F5F5F4F6D91E656FD4F83A1862783A38D
:103A60004630510514F041E050E0FA01EACF809170
:103A7000360281112AC010921E0210921D0288EE99
:103A800093E0A0E0B0E080931F0290932002A09307
:103A90002102B093220287E391E090931C0280936D
:103AA0001B0283E991E090932A02809329021092ED
:103AB0002B0210922C0210922D0210922E0284E002
:103AC0008093330281E08093360288ED91E09093F9
:103AD000D7018093D6018091D5018111ADC060E3FB
:103AE00072E080E090E00E94D601DFB6F8940EEF1D
:103AF00010E0E2E1EE2EE1E0FE2E8091D301811193
:103B000025C0F8018491F7019491E82FF0E0EE0FC1
:103B1000FF1FEA52FF4FA591B4918C91982321F495
:103B200061E08AE00E94470161E08AE00E9475013D
:103B30008CB580618CBD8CB580648CBD61E08DE0FE
:103B40000E94750161E08BE00E9475018091D301B4
:103B50008F5F8093D301DFBEF8010491E02FF0E086
:103B6000EE0FFF1FE052FF4F859194919093D20189
:103B70008093D101F701E490E092D00161E08AE006
:103B80000E9475010E947F0280E591E00E9405017C
:103B900084E38093630280E80E944B030E94120733
:103BA000882309F4FEC188E00E944B030E94FF06AF
:103BB000883009F0F6C180E10E944B030E94FF06A5
:103BC000803109F0EEC180E00E944B030E94FF06A5
:103BD000182F8111E6C141E050E0BE016F5F7F4FB9
:103BE0008FE190E00E948A058981833009F0D9C174
:103BF00080E48093D40142E06EE170E0812F0E9466
:103C0000A70342E06FE170E0812F0E94A7031F5FCE
:103C1000143089F740E06EE170E0812F0E94A70325
:103C200040E06FE170E0812F0E94A7031F5F183012
:103C300089F781E08093D50180E591E00E9405013C
:103C400046E050E06DEB72E089E090E00E949B025C
:103C500083E991E09A8389831B821C821D821E82E4
:103C600044E050E0BE016D5F7F4F8FE090E00E9426
:103C70009B020091D6011091D701D80192961D9216
:103C80001D921D921C929597F80116A217A210A6DC
:103C900011A69A961D921D921D921C929D9780E6E8
:103CA0009AEEA0E0B0E086AB97ABA0AFB1AF80EAF0
:103CB0009FE0A0E0B0E082AF93AFA4AFB5AFD80172
:103CC000189686E0FD01282F11922A95E9F79801B0
:103CD000225F3F4F94E1F90111929A95E9F7EDEBDC
:103CE000F2E001900D928A95E1F7C8018E5B9F4F3B
:103CF0009A878987DC011C920E9497222FEC37E07B
:103D000040E050E00E948F23DC01CB010196A11D11
:103D1000B11DF80184839583A683B7838083918343
:103D2000A283B3835801F3E4AF0EB11CC5010E9416
:103D30005A0664E470E0C5010E94C309882309F4AF
:103D400099C10E9409022B013C0148EEC42E43E0B8
:103D5000D42EE12CF12C52E0252E912C812CA9851A
:103D6000BA858C918330B9F181118EC1F8018481BB
:103D70009581A681B7810196A11DB11D848395838C
:103D8000A683B7830E9409026419750986099709F9
:103D9000A70196010E94C123A90161E0C8010E9408
:103DA000321381E0A985BA858C93F1E08F169104D6
:103DB000B1F20E9409026419750986099709D801B0
:103DC000D6962D913D914D915C91D9972617370745
:103DD0004807590710F6C5010E945A06F801848168
:103DE0009581A681B7810196A11DB11D848395831C
:103DF000A683B7830E940902F801FE96608371834F
:103E0000828393838A94892809F034C180E591E004
:103E10000E9405010091D6011091D701B801625F9F
:103E20007F4FCE0101960E94680D44E050E0BE0134
:103E30006D5F7F4F8FE090E00E949B02B8016A5E49
:103E40007F4FCE0101960E94680D44E050E0BE0114
:103E50006D5F7F4F81E090E00E949B02B8016E5E33
:103E60007F4FCE0101960E94680D44E050E0BE01F4
:103E70006D5F7F4F85E090E00E949B02B801625E1B
:103E80007F4FCE0101960E94680D8B819C81AD8190
:103E9000BE818093840290938502A0938602B093A2
:103EA00087020E94B1017F738091210190912201CC
:103EB00068277927709322016093210168EE73E0EF
:103EC00080E090E00E94D60183E991E09A838983A3
:103ED0001B821C821D821E8280E591E00E940501EA
:103EE00044E050E0BE016D5F7F4F8FE090E00E94A4
:103EF0008A0580E091E09093A7028093A6020E9439
:103F00000902DC01CB0188589341A109B1098093D2
:103F1000AE029093AF02A093B002B093B10280932F
:103F2000AA029093AB02A093AC02B093AD0280932F
:103F3000B2029093B302A093B402B093B502E091A1
:103F4000A402F091A50283EC91E09187808780E53F
:103F500090E0938782878091A4029091A5020E94AD
:103F6000AF041092BC021092BB020E9409026B01C6
:103F70007C018091BB029091BC02019709F44FC172
:103F80000E9409026C197D098E099F0960357644EB
:103F90008105910508F043C18AE992E00E9440142E
:103FA000E8CF87E38093630280E80E944B030E947E
:103FB0001207882329F188E00E944B030E94FF0624
:103FC0008830F1F480E10E944B030E94FF06182F15
:103FD0008031B1F480E00E944B030E94FF06811102
:103FE0000FC041E050E0BE016F5F7F4F89E390E07A
:103FF0000E948A058981843019F41093D40119CE66
:1040000083E38093630280E80E944B030E941207BF
:10401000882371F180E10E944B030E94FF068031EA
:1040200039F582E10E944B030E94FF06823101F5BF
:1040300080E00E944B030E94FF06811119C084E0BA
:104040008093D40115E5188741E050E0BE01685F18
:104050007F4F8BE190E00E949B021F8341E050E084
:10406000BE01695F7F4F8AE190E00E949B02E1CD33
:104070001092630260E177E280E090E00E94D60156
:10408000F0E0E0E00995FFCF8430F9F4F801848195
:104090009581A681B7810196A11DB11D8483958369
:1040A000A683B7830E9409026419750986099709D6
:1040B000A70196010E94C123A90163E0C8010E94E3
:1040C0003213A985BA852C9270CE813059F5F8014A
:1040D00042AD53AD64AD75AD9E012F5F3F4FC8013A
:1040E0000E949311382EF2E08F1392C089819A8139
:1040F000AB81BC81F80184839583A683B7830E943A
:1041000009026419750986099709A70196010E9499
:10411000C123A90163E0C8010E943213A985BA85B1
:104120003C9243CE823009F040CEF80142AD53AD0F
:1041300064AD75AD9E012F5F3F4FC8010E94931182
:10414000382EF5E08F135DC0E3E0A985BA85EC93C6
:10415000F80182A193A1A4A1B5A1892B8A2B8B2B55
:1041600041F484E893E0A0E0B0E082A393A3A4A389
:10417000B5A3F80186A197A1A0A5B1A5892B8A2B8B
:104180008B2B61F482A193A1A4A1B5A1B695A795AB
:104190009795879586A397A3A0A7B1A7F80182A5B5
:1041A00093A5A4A5B5A5892B8A2B8B2BA9F482A155
:1041B00093A1A4A1B5A1AC01BD0123E076956795BB
:1041C000579547952A95D1F7841B950BA60BB70BEE
:1041D00082A793A7A4A7B5A7F80186A197A1A0A538
:1041E000B1A586A797A7A0ABB1AB82A593A5A4A5BF
:1041F000B5A582AB93ABA4ABB5AB88248394912CCB
:10420000D4CDF6E08F1304C0A985BA851C92CDCD1C
:10421000BFEF3B12CACDE985FA851082C6CD8091E9
:10422000BB029091BC02019709F095CE61E082E05B
:104230000E94750100E010E08AE992E00E944014BB
:1042400001151105C9F30E940000F6CF0F931F93CB
:10425000CF93DF938230910510F482E090E0E091FB
:10426000E702F091E80230E020E0B0E0A0E0309713
:1042700099F42115310509F44AC0281B390B243063
:104280003105D8F58A819B816115710589F1FB01A2
:1042900093838283FE0111C0408151810281138189
:1042A00048175907E0F04817590799F4109761F03B
:1042B00012960C93129713961C933296CF01DF91AE
:1042C000CF911F910F9108950093E7021093E80298
:1042D000F4CF2115310551F04217530738F0A901E9
:1042E000DB019A01BD01DF01F801C1CFEF01F9CF78
:1042F0009093E8028093E702CDCFFE01E20FF31F17
:10430000819391932250310939832883D7CF20910B
:10431000E5023091E602232B41F4209125013091F2
:1043200026013093E6022093E5022091230130918B
:1043300024012115310541F42DB73EB740912701E5
:1043400050912801241B350BE091E502F091E60223
:10435000E217F307A0F42E1B3F0B2817390778F05C
:10436000AC014E5F5F4F2417350748F04E0F5F1FBB
:104370005093E6024093E502819391939FCFF0E042
:10438000E0E09CCFCF93DF930097E9F0FC013297F8
:1043900013821282A091E702B091E802ED0130E0B1
:1043A00020E01097A1F420813181820F931F20918A
:1043B000E5023091E6022817390709F061C0F09351
:1043C000E602E093E502DF91CF910895EA01CE176E
:1043D000DF07E8F54A815B819E0141155105B1F780
:1043E000E901FB83EA8349915991C40FD51FEC176A
:1043F000FD0761F4808191810296840F951FE90188
:1044000099838883828193819B838A83F0E0E0E0B3
:1044100012968D919C9113970097B9F52D913C912F
:104420001197CD010296820F931F2091E5023091E2
:10443000E6022817390739F6309751F51092E8024D
:104440001092E702B093E602A093E502BCCFD383BB
:10445000C28340815181840F951FC817D90761F429
:104460004E5F5F4F88819981480F591F5183408368
:104470008A819B81938382832115310509F0B0CF16
:10448000F093E802E093E7029ECFFD01DC01C0CF8C
:1044900013821282D7CF8F929F92AF92BF92CF9208
:1044A000DF92EF92FF92CF93DF93EC0168817981E5
:1044B0008A819B81611571058105910521F464E272
:1044C00079ED8BE597E02DE133EF41E050E00E947C
:1044D0008F2349015A019B01AC01A7EAB1E40E9474
:1044E000AE236B017C01ACEEB4EFA50194010E94F8
:1044F000BC23C60ED71EE81EF91EF7FE06C081E0DB
:10450000C81AD108E10880E8F80AC882D982EA828C
:10451000FB82C701B6019F77DF91CF91FF90EF90AB
:10452000DF90CF90BF90AF909F908F9008958F9223
:104530009F92AF92BF92CF92DF92EF92FF926091E3
:10454000290170912A0180912B0190912C01611514
:1045500071058105910521F464E279ED8BE597E021
:104560002DE133EF41E050E00E948F2349015A01D1
:104570009B01AC01A7EAB1E40E94AE236B017C0170
:10458000ACEEB4EFA50194010E94BC23C60ED71E69
:10459000E81EF91EF7FE06C081E0C81AD108E1083E
:1045A00080E8F80AC0922901D0922A01E0922B01FA
:1045B000F0922C01C701B6019F77FF90EF90DF903A
:1045C000CF90BF90AF909F908F90089560932901F6
:1045D00070932A0180932B0190932C010895FC0184
:1045E00088279927E89421912032E9F3293010F0A7
:1045F0002E30C8F32B3241F02D3239F4689404C0C8
:104600000E945D23820F911D219120532A30C0F317
:104610001EF4909581959F4F08951F93FC01992753
:104620008827BC01E89411911032E9F3193010F099
:104630001E30C8F31B3251F01D3249F4689406C095
:104640000E944823610F711D811D911D119110530E
:104650001A30B0F33EF490958095709561957F4F38
:104660008F4F9F4F1F910895FB01DC0102C0059001
:104670000D9241505040D8F70895BB274A3031F48D
:10468000992322F4BDE2909581959F4F0C94662367
:10469000592F482F372F262F660F771F881F991FF6
:1046A000660F771F881F991F620F731F841F951F46
:1046B000660F771F881F991F08957AE0979F902DA6
:1046C000879F802D910D11240895BB27FB0155274D
:1046D000AA27880F991FAA1FA41710F0A41B83955F
:1046E0005051B9F7A05DAA3308F0A95DA1930097D6
:1046F00079F7B111B1931192CB010C947F23DC01B6
:10470000FC01672F71917723E1F7329704C07C9108
:104710006D9370836291AE17BF07C8F30895052E9D
:1047200097FB1EF400940E94A62357FD07D00E9419
:10473000C12307FC03D04EF40C94A623509540955A
:10474000309521953F4F4F4F5F4F0895909580953D
:10475000709561957F4F8F4F9F4F08950E94E3237F
:10476000A59F900DB49F900DA49F800D911D1124C5
:104770000895B7FF0C94AE230E94AE23821B930BC7
:104780000895A1E21A2EAA1BBB1BFD010DC0AA1F92
:10479000BB1FEE1FFF1FA217B307E407F50720F0AA
:1047A000A21BB30BE40BF50B661F771F881F991F25
:1047B0001A9469F760957095809590959B01AC016E
:1047C000BD01CF010895A29FB001B39FC001A39F77
:1047D000700D811D1124911DB29F700D811D11243A
:1047E000911D0895692796276927782787277827B5
:1047F0000895689401C0E8948F929F92CF93DF93BD
:104800000E940724DF91CF919F908F900895882474
:104810009924F401E401B0E49F93AA279A158B042C
:104820009C04ED05FE05CF05D007A10798F4AD2F38
:10483000DC2FCF2FFE2FE92D982C892E982F872F34
:10484000762F652F542F432F322F2227B85031F760
:10485000BF9127C01B2EBF91BB27220F331F441FC0
:10486000551F661F771F881F991F881C991CEE1FF4
:10487000FF1FCC1FDD1FAA1FBB1F8A149B04EC0562
:10488000FD05CE05DF05A007B10748F08A189B0893
:10489000EC09FD09CE09DF09A00BB10B21601A94C8
:1048A000E1F62EF49401AF01BE01CD01000C089594
:1048B0000024A7FD00942A17300540055005600527
:1048C0007005800590050895EE0FFF1F0590F49187
:1048D000E02D0994FB01DC0104C08D910190801949
:1048E00021F441505040C8F7881B990B0895FB01F3
:1048F000DC0102C001900D9241505040D8F708955C
:10490000DC0101C06D9341505040E0F70895FB0178
:10491000DC018D91019080190110D9F3990B089554
:10492000FB01DC0101900D920020E1F70895FB01ED
:10493000DC014150504048F001900D920020C9F731
:1049400001C01D9241505040E0F70895F894FFCF08
:10495000422D5752684F363076695F6748594B622F
:10496000586B636744446F65794F397756456A6180
:104970000000C00000E90280000100000001005EAC
:1049800000000000000000C403D30A520404011A0E
:1049900001C70C4E07C3095E085A06FC036D10CE12
:1049A00006AF0DA80C4B043B043704330400000091
:1049B00000E5030D0BCA0AB50ACF0BF10C5D0741E8
:1049C00009E0100B0D95067306D204DA04441BCFE0
:1049D00004CD04DA03C3043E0D740D140DBF0400AE
:1049E000000000340557495A6E657400696E006F07
:1049F00075740070776D00707500647700617700E2
:104A000062003031323334353637383961626364AD
:104A1000656600626C796E6B2E636C6F7564000066
:107E0000112484B714BE81FFF0D085E080938100F7
:107E100082E08093C00088E18093C10086E0809377
:107E2000C20080E18093C4008EE0C9D0259A86E02C
:107E300020E33CEF91E0309385002093840096BBD3
:107E4000B09BFECF1D9AA8958150A9F7CC24DD24C4
:107E500088248394B5E0AB2EA1E19A2EF3E0BF2EE7
:107E6000A2D0813461F49FD0082FAFD0023811F036
:107E7000013811F484E001C083E08DD089C08234E0
:107E800011F484E103C0853419F485E0A6D080C0E4
:107E9000853579F488D0E82EFF2485D0082F10E0AE
:107EA000102F00270E291F29000F111F8ED06801E7
:107EB0006FC0863521F484E090D080E0DECF843638
:107EC00009F040C070D06FD0082F6DD080E0C81688
:107ED00080E7D80618F4F601B7BEE895C0E0D1E017
:107EE00062D089930C17E1F7F0E0CF16F0E7DF06D8
:107EF00018F0F601B7BEE89568D007B600FCFDCFD4
:107F0000A601A0E0B1E02C9130E011968C91119780
:107F100090E0982F8827822B932B1296FA010C0160
:107F200087BEE89511244E5F5F4FF1E0A038BF0790
:107F300051F7F601A7BEE89507B600FCFDCF97BE46
:107F4000E89526C08437B1F42ED02DD0F82E2BD052
:107F50003CD0F601EF2C8F010F5F1F4F84911BD097
:107F6000EA94F801C1F70894C11CD11CFA94CF0C13
:107F7000D11C0EC0853739F428D08EE10CD085E9AC
:107F80000AD08FE07ACF813511F488E018D01DD067
:107F900080E101D065CF982F8091C00085FFFCCF94
:107FA0009093C60008958091C00087FFFCCF809118
:107FB000C00084FD01C0A8958091C6000895E0E648
:107FC000F0E098E1908380830895EDDF803219F02E
:107FD00088E0F5DFFFCF84E1DECF1F93182FE3DFCA
:107FE0001150E9F7F2DF1F91089580E0E8DFEE27F6
:047FF000FF270994CA
:027FFE00040479
:00000001FF
