:020000040000FA
:100000000C9431020C9459020C9459020C9459022C
:100010000C9459020C9459020C9459020C945902F4
:100020000C9459020C9459020C9459020C945902E4
:100030000C9459020C9459020C9459020C945902D4
:100040000C94FF200C9459020C946F210C944921BC
:100050000C9459020C9459020C9459020C945902B4
:100060000C94A1210C94590200407A10F35A00A07C
:10007000724E18090010A5D4E80000E87648170071
:1000800000E40B54020000CA9A3B000000E1F505B1
:10009000000080969800000040420F000000A086FB
:1000A00001000000102700000000E803000000002D
:1000B0006400000000000A000000000001000000D1
:1000C00000002C76D888DC674F0823DFC1DFAE59EB
:1000D000E1B1B796E5E3E453C63AE651997696E87E
:1000E000E6C28426EB898C9B62ED407C6FFCEFBC02
:1000F0009C9F40F2BAA56FA5F490055A2AF75C932D
:100100006B6CF9676DC11BFCE0E40D47FEF520E662
:10011000B500D0ED902E0300943577050080841E45
:10012000080000204E0A000000C80C333333330FA0
:10013000986E12831141EF8D2114893BE65516CF3D
:10014000FEE6DB18D1844B381BF77C1D901DA4BB49
:10015000E424203284725E228100C9F124ECA1E5FE
:100160003D275D2000626C6E6B696E66007665727D
:1001700000312E312E3000682D62656174003435F7
:1001800000627566662D696E0032353600646576EC
:100190000041726475696E6F20556E6F00637075F3
:1001A0000041546D6567613332385000636F6E00F3
:1001B00057353130300066772D7479706500544DB5
:1001C000504C33464F564C4268586E006275696C0D
:1001D00064004D61792020342032303233203139AF
:1001E0003A34393A33330000000D0A202020205FD2
:1001F0005F5F20205F5F2020202020202020202003
:100200005F5F0D0A2020202F205F20292F202F5FE5
:10021000205F5F5F5F5F20202F202F5F5F0D0A2030
:10022000202F205F20202F202F202F2F202F205FF6
:10023000205C2F2020275F2F0D0A202F5F5F5F5F3C
:100240002F5F2F5C5F2C202F5F2F2F5F2F5F2F5C86
:100250005F5C0D0A20202020202020202F5F5F5F80
:100260002F2076312E312E30206F6E204172647532
:10027000696E6F20556E6F0D0A0D0A20235374614D
:100280006E6457697468556B7261696E65202020D1
:100290002068747470733A2F2F6269742E6C792FF2
:1002A000737775610D0A0D0A0049503A00444843BE
:1002B00050204661696C6564210047657474696EFD
:1002C000672049502E2E2E00000000002400270039
:1002D0002A0000000000250028002B00436F6E6EEE
:1002E000656374696E6720746F2000436F6E6E657E
:1002F0006374696E6720746F20006D73292E00523D
:1003000065616479202870696E673A2000000000FA
:100310000023002600290004040404040404040249
:100320000202020202030303030303010204081092
:10033000204080010204081020010204081020005F
:100340000000080002010000030407000000000094
:100350000000005D025D025D025D025D025D025D06
:10036000025D025D025D025D025D025D025D025D95
:10037000025D025D025D025D025D025D025D025D85
:10038000025D025D025D025D025D025D025D025D75
:10039000025D029E0A5C02800A5C025B0244095C08
:1003A000025C025C025C025C025C025C025C025C5D
:1003B000025C025C025C025C025C025C025C025C4D
:1003C000025C025C025C025C025C025C025C025C3D
:1003D000025C02496E76616C696420485720636D47
:1003E000643A20005365727665723A200052656463
:1003F0006972656374696E6720746F20005265616D
:100400006479005061636B657420746F6F2062695A
:10041000673A2000436F6E6E656374206661696C95
:1004200065642E20636F64653A2000496E76616CC6
:100430006964206175746820746F6B656E004C6F21
:1004400067696E2074696D656F75740048656172C7
:1004500074626561742074696D656F7574005F23E3
:10046000832B11241FBECFEFD8E0DEBFCDBF12E03B
:10047000A0E0B1E0E8ECF6E602C005900D92AC32E7
:10048000B107D9F726E0ACE2B2E001C01D92A2317B
:10049000B207E1F712E0C0E3D2E004C02197FE0109
:1004A0000E945832CF32D107C9F70E94EB240C9436
:1004B00057330C9400000895089508958CBD9DBD98
:1004C000089520E3FC0120833296862F82958F7059
:1004D0006F706A3030F4605D6293682F8111F5CFE0
:1004E0000895695CF9CFFC01818D928D0895833068
:1004F00081F028F4813099F08230A9F00895873096
:10050000A9F08830C9F08430B1F4809180008F7DEB
:1005100003C0809180008F7780938000089584B518
:100520008F7784BD089584B58F7DFBCF8091B00017
:100530008F778093B00008958091B0008F7DF9CFC0
:100540001F93CF93DF93282F30E0F901E15CFC4F3C
:100550008491F901E55DFC4FD491F901E95EFC4F0E
:10056000C491CC23A9F0162F81110E947702EC2FA1
:10057000F0E0EE0FFF1FEE52FD4FA591B4918FB743
:10058000F894EC91111108C0D095DE23DC938FBF55
:10059000DF91CF911F910895DE2BF8CFCF93DF939A
:1005A00090E0FC01E55DFC4F2491895E9C4FFC01CD
:1005B00084918823C9F090E0880F991FFC01E853CB
:1005C000FD4FA591B491FC01EE52FD4FC591D49120
:1005D00061110DC09FB7F8948C91209582238C9364
:1005E0008881282328839FBFDF91CF9108956230AF
:1005F00051F49FB7F8943C91822F809583238C937C
:10060000E8812E2BEFCF8FB7F894EC912E2B2C9303
:100610008FBFEACF1F93CF93DF93182FEB0161E0D9
:100620000E94CE02209739F460E0812FDF91CF91B4
:100630001F910C94A002CF3FD10511F461E0F5CFDA
:10064000E12FF0E0E15CFC4FE491E33031F140F464
:10065000E130B1F0E230E1F0C038D1057CF7E4CF11
:10066000E73029F1E83059F1E430B1F780918000AA
:10067000806280938000D0938B00C0938A0004C076
:1006800084B5806884BDC7BDDF91CF911F91089567
:1006900084B5806284BDC8BDF7CF8091800080683A
:1006A00080938000D0938900C0938800EDCF809123
:1006B000B00080688093B000C093B300E5CF809114
:1006C000B00080628093B000C093B400DDCF8E3064
:1006D00008F08E508770806480937C0080917A004F
:1006E000806480937A0080917A0086FDFCCF8091AF
:1006F00078009091790008953FB7F894809159035C
:1007000090915A03A0915B03B0915C0326B5A89B1E
:1007100005C02F3F19F00196A11DB11D3FBFBA2F93
:10072000A92F982F8827BC01CD01620F711D811D53
:10073000911D42E0660F771F881F991F4A95D1F7D8
:1007400008958F929F92AF92BF92CF92DF92EF92D5
:10075000FF926B017C010E947C034B015C01C11480
:10076000D104E104F104B9F00E947C03681979090D
:100770008A099B09683E73408105910580F321E059
:10078000C21AD108E108F10888EE880E83E0981EAD
:10079000A11CB11CE4CFFF90EF90DF90CF90BF90F1
:1007A000AF909F908F9008952FB7F8946091550364
:1007B0007091560380915703909158032FBF08956D
:1007C0000895089508954F925F926F927F92AF922D
:1007D000BF92CF92DF92EF92FF920F931F93CF932E
:1007E000DF93EC016B017B01E40EF51E8B015801D8
:1007F000AC18BD080E151F0511F10E94D4036887BF
:1008000079878A879B87E881F9810284F385E02DC7
:10081000CE01099597FF23C00E94D40348845984D0
:100820006A847B8464197509860997094C805D8008
:100830006E807F80641575058605970520F3C501D8
:10084000DF91CF911F910F91FF90EF90DF90CF90AC
:10085000BF90AF907F906F905F904F900895F80198
:1008600081938F01C4CFDC01ED91FC910190F08167
:10087000E02D0994AF92BF92CF92DF92EF92FF9258
:100880000F931F93CF93DF936C017B018B01040FB8
:10089000151FEB015E01AE18BF08C017D10759F054
:1008A0006991D601ED91FC910190F081E02DC60196
:1008B0000995892B79F7C501DF91CF911F910F9190
:1008C000FF90EF90DF90CF90BF90AF900895FC0124
:1008D000538D448D252F30E0842F90E0821B930BA5
:1008E000541710F0CF96089501970895FC01918D4B
:1008F000828D981761F0A28DAE0FBF2FB11D5D964E
:100900008C91928D9F5F9F73928F90E008958FEFEF
:100910009FEF0895FC01918D828D981731F0828DA3
:10092000E80FF11D858D90E008958FEF9FEF0895FA
:10093000FC01918D228D892F90E0805C9F4F821B5E
:1009400091098F73992708958AE793E00E9498048C
:1009500021E0892B09F420E0822F089580E090E0C7
:10096000892B29F00E94A40481110C9400000895A1
:10097000FC01A48DA80FB92FB11DA35ABF4F2C9114
:10098000848D90E001968F739927848FA689B7890B
:100990002C93A089B1898C91837080648C93938D02
:1009A000848D981306C00288F389E02D80818F7DA5
:1009B00080830895EF92FF920F931F93CF93DF935D
:1009C000EC0181E0888F9B8D8C8D98131AC0E8898B
:1009D000F989808185FF15C09FB7F894EE89FF895A
:1009E0006083E889F98980818370806480839FBFF8
:1009F00081E090E0DF91CF911F910F91FF90EF90F8
:100A00000895F62E0B8D10E00F5F1F4F0F73112707
:100A1000E02E8C8D8E110CC00FB607FCFACFE88942
:100A2000F989808185FFF5CFCE010E94B804F1CF0E
:100A3000EB8DEC0FFD2FF11DE35AFF4FF0829FB7B6
:100A4000F8940B8FEA89FB8980818062CFCF0F9366
:100A50001F93CF93DF938C01D0E0C0E0F801EC0F3F
:100A6000FD1F6491662341F08AE793E00E94DA0457
:100A7000892B11F02196F2CFCE01DF91CF911F91FA
:100A80000F910895CF93DF93EC01888D8823B9F0FF
:100A9000AA89BB89E889F9898C9185FD03C0808189
:100AA00086FD0DC00FB607FCF7CF8C9185FFF2CF06
:100AB000808185FFEDCFCE010E94B804E9CFDF91A0
:100AC000CF91089520916D02260F3327331F2132D5
:100AD0003105ECF42091B602FC0190E080E0243076
:100AE00069F082E00895A0916D022191AC01435B11
:100AF0005D4FA40FB52FB11D2C930196861798F367
:100B000080916D02680F60936D0280E0089581E02E
:100B100008951092B60281E08093B502109290027F
:100B200061E082E10E94A00261E083E10E94A002F4
:100B3000E9EBF0E080818E7F808380818D7F8083F0
:100B400088E48093B80085E48093BC000895CF9337
:100B5000DF9391E090934C028823B9F0C091B800E4
:100B6000D091BA008091BC008A7B8093BC0060E089
:100B700082E10E94A00260E083E10E94A0020E9444
:100B80008905D093BA00C093B800DF91CF91089542
:100B9000E091E5028091E402E81730F4F0E0E45DD2
:100BA000FD4F808190E008958FEF9FEF0895909121
:100BB000E5028091E4022FEF3FEF981748F4E92F08
:100BC000F0E0E45DFD4F208130E09F5F9093E5020F
:100BD000C90108958091E4029091E502891B990B67
:100BE0000895CF92DF92EF92FF920F931F93CF93CE
:100BF000DF937C01CB018A012091BC02222389F082
:100C0000EB016B01C40ED51ECC15DD0569F06991B1
:100C1000D701ED91FC910190F081E02DC70109957C
:100C2000F3CF642F0E946205C801DF91CF911F911D
:100C30000F91FF90EF90DF90CF900895CF93DF93C7
:100C40001F92CDB7DEB769832091BC022223F9F051
:100C50002091E202203258F021E030E0FC013383A1
:100C6000228390E080E00F90DF91CF9108958091F2
:100C7000E302E82FF0E0E354FD4F998190838F5F0A
:100C80008093E3028093E20281E090E0ECCF61E0A8
:100C9000CE0101960E946205F7CFCF92DF92EF92CC
:100CA000FF920F931F93CF93DF93FC01C48121E048
:100CB0002093BC02C093DD021092E3021092E20284
:100CC0008385682B87E194E00E941E06D091E202A2
:100CD000D13208F092C00E947C036B017C018091AC
:100CE000B602811165C082E08093B60281E08093F4
:100CF000B5028FEF8093B4021092B302D093B20288
:100D0000ADEBB2E0E2E9F2E080E0D81385C01092EA
:100D1000910280919102CC0FC82BC09391028091D7
:100D20009002813009F07CC0109290020E947C03F6
:100D30006B017C01809191028093BB008091B8028D
:100D40009091B902A091BA02B091BB02892B8A2B73
:100D50008B2B99F00E947C030091B8021091B9028C
:100D60002091BA023091BB026C197D098E099F094E
:100D70000617170728073907E0F18091BC0083FDAB
:100D8000D9CF85EC8093BC000E947C036B017C0171
:100D90008091B602823009F445C08091B4028F3F41
:100DA00061F18091B402803241F18091B40225C09A
:100DB0008091B8029091B902A091BA02B091BB02A1
:100DC000892B8A2B8B2B09F48ACF0E947C030091FC
:100DD000B8021091B9022091BA023091BB026C198D
:100DE0007D098E099F09061717072807390708F09C
:100DF00076CF8091B7020E94A7051092E30210926D
:100E0000E2021092BC02DF91CF911F910F91FF90EF
:100E1000EF90DF90CF9008959D9191938F5F75CF64
:100E200085EEB0CF8091B8029091B902A091BA023C
:100E3000B091BB02892B8A2B8B2B09F4A9CF0E947E
:100E40007C030091B8021091B9022091BA0230914E
:100E5000BB026C197D098E099F0906171707280721
:100E6000390708F095CFC5CFFC0120812EBD9B012D
:100E70002150310941F051810DB407FEFDCF4EB52F
:100E80005EBD4193F5CF61507109860F971F0DB478
:100E900007FEFDCF2EB5FC0120830895E091E70207
:100EA000F091E80280819091E602892B8083089579
:100EB000E091E702F091E80290818091E60280954E
:100EC0008923808308958EBD00000DB407FEFDCFF9
:100ED0008EB50895AF92BF92CF92DF92EF92FF92BC
:100EE0000F931F93CF93DF93CDB7DEB728970FB63D
:100EF000F894DEBF0FBECDBF8C017B016A018091EB
:100F000079038333E1F45801A40EB51EA016B1068F
:100F100009F46FC00E94580780EF0E946307812F79
:100F20000E946307802F0E9463070F5F1F4FF70126
:100F300081917F010E9463070E944E07E7CF5B010A
:100F4000A40EB51E8433C1F40E94580719830A8386
:100F50008D2D80688B83CC8264E070E0CE01019699
:100F60000E943407AE14BF0409F441C0F701819117
:100F70007F010E946307F6CF0E9458070F3F1105BB
:100F800009F028F419820A8384E08B830CC017FDD2
:100F900017C019820A8333E0169507953A95E1F751
:100FA000007E0C600B8386E0C816D104A0F5F70123
:100FB000DE011496EA15FB0599F081918D93FACF25
:100FC000C80126E0969587952A95E1F7807E1983DA
:100FD0000A830115104C10F48461D7CF8C61D5CFF2
:100FE000B6016D5F7F4FCE0101960E9434070E94CB
:100FF0004E07C60128960FB6F894DEBF0FBECDBFD0
:10100000DF91CF911F910F91FF90EF90DF90CF90E4
:10101000BF90AF90089563E070E0CE0101960E940A
:101020003407F70181917F010E946307AE14BF046A
:10103000C1F7DDCFCF93DF931F92CDB7DEB78983A2
:1010400041E050E0BE016F5F7F4F90E080E00E9482
:101050006A070F90DF91CF91089590E02091790376
:10106000233339F40C96982F990F990F990F80E03C
:1010700008954896F8CFDA01E091EA02F0E0FE2FF9
:10108000EE27E60FF71F90E0982F8827A901BD01F2
:101090008E0F9F1F0C946A07CF93DF9300D0CDB7BC
:1010A000DEB779836A8322E030E0AE014F5F5F4FA5
:1010B00060E170E00E943B080F900F90DF91CF91AC
:1010C0000895CF93DF9300D0CDB7DEB779836A83DD
:1010D00022E030E0AE014F5F5F4F64E070E00E94BD
:1010E0003B080F900F90DF91CF910895CF93DF933E
:1010F0001F92CDB7DEB72091EA0230E0322F2227CF
:10110000260F371F90E0982F8827498341E050E051
:10111000BE016F5F7F4F820F931F0E946A070F907F
:10112000DF91CF910895CF93DF931F92CDB7DEB7B4
:101130006983DC01ED91FC910280F381E02D41E0B7
:1011400050E0BE016F5F7F4F09950F90DF91CF9107
:101150000895FC019485FB018485981303C081E008
:10116000943008F080E00895CF93DF931F92CDB7BD
:10117000DEB76983DC01ED91FC910280F381E02D03
:1011800041E050E0BE016F5F7F4F09950F90DF9106
:10119000CF9108950895FF920F931F93CF93DF93FC
:1011A000EB01FC01178A168A2A81211109C02B81C3
:1011B000211106C02C81211103C02D81222301F1B0
:1011C00041155105E9F08A01FC01F08C80E591E0C0
:1011D0000E945E02AE014E5F5F4F24E030E06CE0A3
:1011E00070E08F2D0E943B08B8018F2D0E944C08A3
:1011F00081E090E0DF91CF911F910F91FF900895D2
:1012000080E0F7CFFC01848595850895FC018489F1
:101210009589089523EC31E0FC0131832083FB01A3
:101220004089518962897389FC01428353836483B5
:1012300075830895DC01ED91FC91048CF58DE02D12
:10124000099490E080E00895FC019485992369F069
:1012500080819181DC01ED91FC910688F789E02D78
:10126000099591E0811101C090E0892F0895DC017A
:101270001C961C921C978D919C91DC01ED91FC9128
:101280000488F589E02D09940895FC017687658727
:101290000895DC01ED91FC9102A0F3A1E02D0995E8
:1012A00091E089270895862F089581E08627089583
:1012B00021E0FC018485843008F020E0822F08952D
:1012C00008950F931F93CF938C01C62F0E944D0654
:1012D0006C2F6460C8010E944D066C2F6B7FC801A3
:1012E0000E944D0683EC90E00197F1F7CF911F919A
:1012F0000F9108950F931F93CF93DF938C01D62FF7
:10130000C42F607F642B0E94610980E1D89FB001E7
:1013100011246C2BC801DF91CF911F910F910C9478
:101320006109682F606840E08FE594E00C947A09C9
:1013300041E00E947A0981E090E00895FB0101906C
:101340000020E9F73197AF01461B570BDC01ED9107
:10135000FC910280F381E02D0994CF93DF930E94EA
:101360002705EC0165EC71E08AE793E00E949E0995
:101370008C0F9D1FDF91CF9108958F929F92AF9216
:10138000BF92EF92FF920F931F93CF93DF93CDB74E
:10139000DEB7A1970FB6F894DEBF0FBECDBF7C01BC
:1013A000FA01CB0119A2223008F42AE08E010F5D68
:1013B0001F4F822E912CB12CA12CBF01A5019401AD
:1013C0000E94AE31F901CA016A300CF5605DD801A6
:1013D0006E938D01232B242B252B79F790E080E051
:1013E000109721F0BD01C7010E949E09A1960FB67A
:1013F000F894DEBF0FBECDBFDF91CF911F910F914B
:10140000FF90EF90BF90AF909F908F900895695C90
:10141000DECF462F50E070E060E02AE00C94BD097A
:101420008F929F92AF92BF92CF92DF92EF92FF92F4
:101430000F931F93CF93DF937C018B014C0182E0CC
:10144000880E911C5701E5E0AE0EB11CD0E0C0E063
:10145000F40161914F01C8010E94090A6C016EE21A
:10146000C8010E9433048C0D9D1DC80FD91F8A141A
:101470009B0471F7F7016581C8010E94090A8C0F6E
:101480009D1FDF91CF911F910F91FF90EF90DF9003
:10149000CF90BF90AF909F908F900895CF93DF93A0
:1014A000AC0170E060E02AE08AE793E00E94BD09A9
:1014B000EC0165EC71E08AE793E00E949E098C0FD5
:1014C0009D1FDF91CF9108956BE58AE793E00E941D
:1014D00033040E94D403AB01BC012AE08AE793E005
:1014E0000E94BD0982E691E00C9427056115710503
:1014F00011F00C949E0990E080E008950C94462C25
:10150000FB01808191810E94732D892B69F061E03C
:1015100085E00E94A00287E00E94910968EC71E0DA
:101520008FE594E00C94760A60E085E00E94A002CA
:1015300087E00E94910960ED71E0F2CFFB018081AC
:1015400091810E94732D892B69F061E084E00E94F3
:10155000A00287E00E94910969ED71E08FE594E0B7
:101560000C94760A60E084E00E94A00287E00E946A
:10157000910962EE71E0F2CFAF92BF92CF92DF920B
:10158000EF92FF920F931F93CF93DF9300D000D081
:10159000CDB7DEB78C016B017A018091790383337B
:1015A000E9F45B016801C40ED51EC016D106A9F18D
:1015B0000E9458078FE00E946307812F0E946307F3
:1015C000802F0E9463070F5F1F4F80E00E94630718
:1015D000F50181935F010E944E07E7CF843369F5DF
:1015E0000E94580719830A838F2D8F778B83EC8293
:1015F00064E070E0CE0101960E943407A70170E01C
:1016000060E0C6010E943133E114F10421F0B7011A
:10161000C6010E9434070E944E07C7010F900F9029
:101620000F900F90DF91CF911F910F91FF90EF904E
:10163000DF90CF90BF90AF9008950E9458070F3F62
:10164000110509F030F419820A831B8263E070E00F
:10165000D1CF17FD0BC019820A8333E01695079589
:101660003A95E1F7007E08600B83F0CFC80126E0D1
:10167000969587952A95E1F7807E19830A8301154F
:10168000104C18F480618B83E1CF8861FCCFCF933D
:10169000DF931F92CDB7DEB72091EA0230E0322F00
:1016A0002227260F371F90E0982F882741E050E02F
:1016B000BE016F5F7F4F820F931F0E94BC0A89811A
:1016C0000F90DF91CF910895CF93C82F462F61E0FF
:1016D00070E00E94760861E070E08C2F0E94470B5A
:1016E0008111F9CFCF910895CF93C82F80E591E074
:1016F0000E945E0268E070E08C2FCF910C94640B26
:10170000CF93C82F80E591E00E945E0260E170E017
:101710008C2FCF910C94640BCF93DF93EC01888DC9
:10172000843020F40E94800B84E0888FDF91CF9179
:101730000895CF93C82F80E591E00E945E0263E098
:1017400070E08C2FCF910C94470BCF93DF93EC017B
:101750008C858430D0F40E94990B843189F08823E1
:1017600079F0883169F021E08C3159F4E881F98110
:101770000084F185E02DCE01099521E0892B09F443
:1017800020E0822FDF91CF91089580E0FBCFCF92B0
:10179000DF92EF92FF92CF93DF93EC018C85843040
:1017A00068F40E94740B0E94D4036B017C018C8549
:1017B0000E94990B811109C084E08C87DF91CF9141
:1017C000FF90EF90DF90CF90089561E070E080E0AF
:1017D00090E00E94A1030E94D403AB01BC014C190C
:1017E0005D096E097F098D859E85B0E0A0E04817F0
:1017F00059076A077B07D8F28C850E94800BDCCFE3
:10180000CF93FC01C08D80E591E00E945E0260E212
:1018100070E08C2F0E94640B62E070E08C2F0E94BD
:10182000470B84FD16C062E070E08C2F0E94470BCE
:1018300083FF0AC048E162E070E08C2F0E947608C6
:1018400080E090E0CF91089580E591E00E945E02F3
:10185000E3CF40E162E070E08C2F0E94760881E0E7
:10186000F0CFCF93DF931F92CDB7DEB741E050E0CA
:10187000BE016F5F7F4F90E080E00E94BC0A8981CB
:101880000F90DF91CF910895CF93DF93C4E1D0E023
:101890000E94310C882361F061E070E080E090E00C
:1018A0000E94A1032197A1F780E0DF91CF910895D5
:1018B00081E0FBCF1F93CF93DF931F92CDB7DEB7AD
:1018C000182F80E591E00E945E02812F0E942D0872
:1018D00027E0129FF0011124E35AFC4F228133814B
:1018E000377041E050E0BE016F5F7F4F820F931F62
:1018F0000E94BC0A89810F90DF91CF911F910895BA
:10190000FC01808D843040F4218D328D232B21F019
:101910000E945A0C90E008958FEF9FEF0895CF93A7
:10192000DF93FC012485243028F08FEF9FEFDF91B7
:10193000CF910895EC010190F081E02D0084F185B4
:10194000E02D0995892B89F38C850E945A0C90E033
:10195000EECFDA01E091EA02F0E0FE2FEE27E60F8B
:10196000F71F90E0982F8827A901BD018E0F9F1FB8
:101970000C94BC0A8F929F92AF92BF92CF92DF924B
:10198000EF92FF921F93CF93DF93CDB7DEB72C97E3
:101990000FB6F894DEBF0FBECDBF2091790314E0DF
:1019A000222339F16B017C0180E591E00E945E0207
:1019B0005E0127E0A20EB11C450110E063E070E07B
:1019C000812F0E94470BF40181934F01882349F135
:1019D0001F5F143099F710E0F50181915F018D319F
:1019E000D9F08831C9F08A518230B0F01F5F1430CD
:1019F00099F7812F2C960FB6F894DEBF0FBECDBF9E
:101A0000DF91CF911F91FF90EF90DF90CF90BF902B
:101A1000AF909F908F90089560E170E0812F0E94B9
:101A2000640BA12EB12C83EE93E00197F1F742E80D
:101A300070E060E0812F0E9476084FEF62E070E076
:101A4000812F0E947608B601C114D10491F48091CF
:101A500021019091220101968115F0EC9F0708F475
:101A60005CC09093220180932101609121017091CB
:101A70002201812F0E94610886E0EDE2F1E0DE01A3
:101A8000119601900D928A95E1F7F70183818F7786
:101A90008C8384818D8385818E83A7014E5F5F4F08
:101AA00024E030E06CE070E0812F0E943B08B6013A
:101AB000812F0E944C0826E030E0AE014F5F5F4F5F
:101AC00066E070E0812F0E943B0861E070E0812FAA
:101AD0000E94640B27E02A9DC0012B9D900D1124CC
:101AE0009C01235A3C4F7901F9011182108222E0B6
:101AF00030E0AE01455F5F4F68E270E0812F0E94E9
:101B0000A90C8B859C85982789279827F7019383B3
:101B100082831682158214826CCF80E090ECA1CF74
:101B2000CF92DF92EF92FF920F931F93CF93DF93A9
:101B300000D000D000D0CDB7DEB78C016B017A01A8
:101B4000FC01808D843010F40E94800B83EC91E0C6
:101B50009A838983F60182819381A481B5818B83E5
:101B60009C83AD83BE83B701CE0101960E94BA0C5F
:101B7000F801808F8430A0F4F586E486128E118EF1
:101B800081E026960FB6F894DEBF0FBECDBFDF9181
:101B9000CF911F910F91FF90EF90DF90CF9008951C
:101BA00080E0EFCFAF92BF92CF92DF92EF92FF92A1
:101BB0000F931F93CF93DF9300D000D000D0CDB709
:101BC000DEB7082F6B0180E591E00E945E029E0166
:101BD0002F5F3F4F7901590110E063E070E0812FE2
:101BE0000E94470BF50181935F01882341F11F5F3C
:101BF000143099F710E0F70181917F018D31D1F018
:101C00008831C1F08A518230A8F01F5F143099F7F3
:101C1000812F26960FB6F894DEBF0FBECDBFDF91A1
:101C2000CF911F910F91FF90EF90DF90CF90BF90D9
:101C3000AF90089560E170E0812F0E94640BE12E67
:101C4000F12C83EE93E00197F1F7402F70E060E014
:101C5000812F0E9476084FEF62E070E0812F0E9492
:101C60007608B601CD2889F4809121019091220156
:101C700001968115F0EC9F0798F1909322018093D3
:101C800021016091210170912201812F0E94610840
:101C900061E070E0812F0E94640B27E02E9DC0015F
:101CA0002F9D900D11249C01235A3C4F7901F9017D
:101CB0001182108222E030E0AE014B5F5F4F68E29C
:101CC00070E0812F0E94A90C8D819E819827892721
:101CD0009827F7019383828316821582148298CF06
:101CE00080E090ECCACFCF92DF92EF92FF921F93E9
:101CF000CF93DF93EC017B016A018C85843048F43B
:101D00000E94990B882319F08C850E94740B84E043
:101D10008C87F70182819381A481B5810097A10509
:101D2000B10551F490E080E0DF91CF911F91FF90D9
:101D3000EF90DF90CF9008958F3F9F4FAF4FBF4FF1
:101D400089F380917903811103C084E08C87EACF05
:101D500070E060E081E20E94D20D182F8C87843001
:101D600008F780E591E00E945E02A7014E5F5F4F99
:101D700024E030E06CE070E0812F0E943B08B60167
:101D8000812F0E944C0864E070E0812F0E94640B58
:101D90000E94D4036B017C018C850E94990B8731D2
:101DA00009F18C31F9F0882309F4BCCF0E94D403E7
:101DB000AB01BC014C195D096E097F098D859E85BB
:101DC000B0E0A0E084179507A607B70738F061E0F8
:101DD00070E080E090E00E94A103DECF8C850E943D
:101DE000800BB3CF81E090E09FCF0F931F93CF93F1
:101DF000DF93EC018B01888D843010F40E94800BFE
:101E000080917903811107C094E0988FDF91CF9181
:101E10001F910F910895B80182E00E94D20D888F22
:101E2000843030F41D870C871A8E198E81E0EECF36
:101E300080E0ECCF7F928F929F92AF92BF92CF9231
:101E4000DF92EF92FF920F931F93CF93DF9300D017
:101E5000CDB7DEB7782E8B014A01590122E030E080
:101E6000AE014F5F5F4F64E270E00E94A90CE98011
:101E7000FA80FE24EF24FE24E00EF11E9701377055
:101E800040917903072D10E0433309F042C0085F09
:101E90001F4F102F0027110F110F110FC901800FB5
:101EA000911F4733C9F1A9014A0D5B1D41305840CC
:101EB00098F160E078E06B01C21AD30AA601B40180
:101EC0000E946A07A5014C195D09B4016C0D7D1DC6
:101ED000C8010E946A07EA0CFB1CF982EA8222E030
:101EE00030E0AE014F5F5F4F64E270E0872D0E94EB
:101EF0003B080F900F90DF91CF911F910F91FF90B2
:101F0000EF90DF90CF90BF90AF909F908F907F9099
:101F10000895005F1F4FBDCFA501B401DACFEF9246
:101F2000FF921F93CF93DF9300D0CDB7DEB7182F6A
:101F300022E030E0AE014F5F5F4F60E270E00E9450
:101F4000A90CE980FA80FE24EF24FE2422E030E090
:101F5000AE014F5F5F4F60E270E0812F0E94A90CDD
:101F600089819A81982789279827E816F90689F4A4
:101F700087E0189FF0011124E35AFC4FF582E482B8
:101F8000C7010F900F90DF91CF911F91FF90EF90BD
:101F900008957C01DBCF1F93CF93DF93182F80E54B
:101FA00091E00E945E02812F0E948F0FEC0163E09E
:101FB00070E0812F0E94470B873121F08C3111F0A6
:101FC000D0E0C0E0CE01DF91CF911F910895CF9373
:101FD000DF93EC018C85843060F40E94990B87318B
:101FE00011F08C3131F48C850E94CB0F8115984013
:101FF00088F3DF91CF910895FC018485843010F43B
:102000000C94CB0F90E080E008959F92AF92BF9226
:10201000CF92DF92EF92FF920F931F93CF93DF93B4
:102020008C015B01942EE52EFC01C688D788F08CCC
:1020300080E591E00E945E028F2D0E948F0FC92DD6
:10204000DE2D8C179D0708F4EC019E01A501B60159
:102050008F2D0E941A0FF801868997898C0F9D1F7A
:10206000978B868BCE01DF91CF911F910F91FF90BF
:10207000EF90DF90CF90BF90AF909F9008958F9298
:102080009F92AF92BF92CF92DF92EF92FF920F9307
:102090001F93CF936C015B018A01FC01C485C4309E
:1020A000F0F57A014130584018F0E12C88E0F82E24
:1020B00080E591E00E945E028C2F0E948F0F4C0100
:1020C00063E070E08C2F0E94470B873111F08C3158
:1020D00049F58E149F0460F380E591E00E945E0252
:1020E0009701A50170E060E08C2F0E941A0F60E25A
:1020F00070E08C2F0E94640B62E070E08C2F0E94D5
:10210000470B84FD17C063E070E08C2F0E94470BE3
:1021100081110BC081E090E0F6019383828310E08F
:1021200000E010C0F12CE12CD7CF80E591E00E94B7
:102130005E02E2CF40E162E070E08C2F0E94760800
:10214000EF2841F3C801CF911F910F91FF90EF90BD
:10215000DF90CF90BF90AF909F908F900895FF92A7
:102160000F931F93CF93DF9300D0CDB7DEB7F82E38
:1021700022E030E0AE014F5F5F4F66E270E00E9408
:10218000A90C09811A8110270127102722E030E0CD
:10219000AE014F5F5F4F66E270E08F2D0E94A90C89
:1021A00089819A819827892798270817190749F460
:1021B000C8010F900F90DF91CF911F910F91FF9069
:1021C00008958C01E3CF1F93CF93DF93182F87E0FF
:1021D000189FE0011124C35ADC4F88819981009730
:1021E00061F480E591E00E945E02812F0E94AF10B1
:1021F0002E81821B910999838883DF91CF911F9152
:102200000895FC018485843010F40C94E31090E070
:1022100080E008954F925F927F928F929F92AF924B
:10222000BF92CF92DF92EF92FF920F931F93CF93C3
:10223000DF9300D0CDB7DEB7782E6B014A01A82E10
:10224000B12C27E0829FC0011124FC01E35AFC4F0E
:102250007F010081118180E591E00E945E020815F6
:10226000190554F4872D0E94AF10F70126818C01C7
:10227000021B1109118300830115110529F563E083
:1022800070E0872D0E94470B843159F0882349F074
:1022900001E010E08C3111F410E000E0119501959F
:1022A0001109C8010F900F90DF91CF911F910F91ED
:1022B000FF90EF90DF90CF90BF90AF909F908F9066
:1022C0007F905F904F900895801691060CF48401E2
:1022D00087E08A9DF0018B9DF00D1124E35AFC4F9D
:1022E000E280F380C114D10451F12701F7E05F22AD
:1022F000872D0E942D08840D951D20917903273389
:1023000009F453C09801240D351D2130384008F4DC
:102310004CC020E038E0490184189508A401B601BA
:102320000E94BC0A2601480C591C6801C818D9082B
:10233000872D0E942D08A601B2010E94BC0AE00E62
:10234000F11E87E08A9DF0018B9DF00D1124E35A68
:10235000FC4FF382E28220813181201B310B3183DB
:1023600020838681800F912F911D8A3F910510F463
:10237000232BF1F487E08A9DF0018B9DF00D112451
:10238000E35AFC4F1682F982EA8222E030E0AE0185
:102390004F5F5F4F68E270E0872D0E943B0860E46A
:1023A00070E0872D0E94640B7CCFA801B601C5CFD9
:1023B000868377CFCF93DF93FC01218D328D21155A
:1023C000310529F48FEF9FEFDF91CF910895EC0154
:1023D000808D4217530708F0A9010E940A111816B0
:1023E000190684F7298D3A8D281B390B3A8F298FCE
:1023F000EBCF0F931F93CF93DF931F92CDB7DEB731
:10240000FC01218D328D232B41F48FEF9FEF0F9034
:10241000DF91CF911F910F9108958C0141E050E021
:10242000BE016F5F7F4FFC01808D0E940A1118165C
:1024300019065CF7F801818D928D0197928F818F3B
:10244000898190E0E4CFCF93DF931F92CDB7DEB7C1
:1024500041E050E0BE016F5F7F4FFC0184850E9428
:102460000A111816190634F4898190E00F90DF9153
:10247000CF9108958FEF9FEFF9CFFC0184858430D1
:1024800010F40C940A1190E080E008950F931F93CC
:10249000CF93DF9300D0CDB7DEB7FC012485243085
:1024A000E0F48C0180E591E00E945E0222E030E0E1
:1024B000AE014F5F5F4F60E170E0F80184850E94DC
:1024C000A90C89819A819827892798270F900F90C6
:1024D000DF91CF911F910F91089590E080E0F6CFAA
:1024E0000F931F93CF93DF9300D0CDB7DEB7FC01DE
:1024F00024852430E0F48C0180E591E00E945E02A6
:1025000022E030E0AE014F5F5F4F64E070E0F80121
:1025100084850E94A90C89819A8198278927982708
:102520000F900F90DF91CF911F910F91089590E040
:1025300080E0F6CFDC0183EC91E08D939D9384E005
:10254000FB0101900D928A95E1F70895EF92FF92B9
:102550000F931F93CF93DF9300D000D0CDB7DEB79A
:102560008C017B01FB0184858430A8F083EC91E031
:10257000F801918380831282138214821582C8012C
:102580000F900F900F900F90DF91CF911F910F91AF
:10259000FF90EF90089580E591E00E945E0224E0B4
:1025A00030E0AE014F5F5F4F6CE070E0F701848573
:1025B0000E94A90CBE016F5F7F4FC8010E949A1252
:1025C000DECF0F931F93CF93DF93CDB7DEB728975E
:1025D0000FB6F894DEBF0FBECDBF8C01D80159965F
:1025E0004D915C915A974115510551F0ED91FC9137
:1025F000048CF58DE02D70E060E0C8010995EECF08
:10260000F801808D0E94E310892BB1F148E050E081
:10261000BE016F5F7F4FD80158968C910E940A11BE
:1026200018161906F4F4D801509684E0FE0131968C
:1026300001900D928A95E1F78D8190E0982F88277F
:102640002E81820F911DF801958B848B8F81282F0D
:1026500030E0322F22278885820F932F911D928F91
:10266000818F28960FB6F894DEBF0FBECDBFDF91E5
:10267000CF911F910F91089590E080E0F2CF4F929B
:102680005F926F927F928F929F92AF92BF92CF9202
:10269000DF92EF92FF920F931F93CF93DF93CDB70B
:1026A000DEB763970FB6F894DEBF0FBECDBF7C01D7
:1026B0006B013A01FB0120E090E080E06AE031919B
:1026C000332309F461C040ED430F4A3008F04DC098
:1026D000689FA001699F500D1124CA01C097830F04
:1026E000911D37FD9A958F3F910549F340F3F7010E
:1026F000428153816481758180914F04909150048F
:10270000A0915104B0915204481759076A077B07FA
:1027100009F40DC28701085F1F4F0E94D4036F7038
:1027200077277C5FC8010E94F50E813009F004C252
:1027300083EC91E09A838983F70182819381A4815C
:10274000B5818B839C83AD83BE8345E350E0BE019E
:102750006F5F7F4FC8010E94CB08892BA9F5D12C50
:10276000C12CC8010E948C0B17C03E3209F0BFCFAC
:10277000233009F4BCCFD301A20FB11D12968C9364
:102780002F5F90E080E09BCF233009F0B0CFF301C2
:102790008583CC24C394D12CC60163960FB6F894DC
:1027A000DEBF0FBECDBFDF91CF911F910F91FF9084
:1027B000EF90DF90CF90BF90AF909F908F907F90E1
:1027C0006F905F904F9008950E94D403F701778334
:1027D000668342E050E0B7016A5F7F4FC8010E9404
:1027E000051081E090E09A83898342E050E0BE01C9
:1027F0006F5F7F4FC8010E94051080E091E09A83CF
:10280000898342E050E0BE016F5F7F4FC8010E94A4
:1028100005101A82198242E050E0BE016F5F7F4FBF
:10282000C8010E94051042E050E0BE016F5F7F4F7B
:10283000C8010E94051042E050E0BE016F5F7F4F6B
:10284000C8010E9405105601F6018081882301F11C
:102850006501F60181912F01882311F08E32B1F4C8
:1028600046018A189B081814190474F48D8641E0F7
:1028700050E0BE01635F7F4FC8010E940510A401B4
:10288000B501C8010E9405105201DECF6201E1CFFF
:102890001D8641E050E0BE01635F7F4FC8010E948A
:1028A0000510C12CDD24D394DA82C98242E050E0C5
:1028B000BE016F5F7F4FC8010E940510DA82C98296
:1028C00042E050E0BE016F5F7F4FC8010E940510DB
:1028D000C8010E94000C892B09F441CFF3E0AF2E10
:1028E000B12C230122E0420E511CD4C0F7014281D9
:1028F000538164817581808D918DA28DB38D481730
:1029000059076A077B0709F008C1848D958DC59723
:1029100009F003C181A192A15DEFC52EDD24DA94F7
:102920000C970CF4ADC04CE050E0BE016F5F7F4FE0
:10293000C8010E94DA118B819C81982789279827EA
:102940009A8B898BF7014681578129813A814217F9
:10295000530709F0E7C097FFE5C08F7092703BEF17
:10296000C32EDD24DA94892B09F08AC06F80788425
:102970007624672476242AEFC22EDD24DA946114AB
:10298000710409F47DC0D12CC12C8D819E819827C2
:1029900089279827C816D906F8F441E050E0BE010F
:1029A000635F7F4FC8010E94DA114D85442331F0E7
:1029B00050E070E060E0C8010E94DA118D8581115D
:1029C000ECCF44E050E070E060E0C8010E94DA1112
:1029D000FFEFCF1ADF0AD9CF912C812C41E050E0D4
:1029E000BE016D5E7F4FC8010E94DA114B89842FB2
:1029F000807C09F06CC0442331F050E070E060E06E
:102A0000C8010E94DA118B898111E8CF42E050E0C1
:102A1000BE01615F7F4FC8010E94DA1142E050E0C1
:102A2000BE01635F7F4FC8010E94DA1144E050E0AD
:102A300070E060E0C8010E94DA1142E050E0BE019F
:102A40006F5E7F4FC8010E94DA118F85988949898E
:102A50005A898115914009F043C0CD84DE84DC247D
:102A6000CD24DC2481E0C816D104D1F541155440B1
:102A700009F04AC044E050E0B201C8010E94DA11F6
:102A800021E0A21AB10809F46CCEFFEFCF16DF06E1
:102A900009F067CE0E94D4033B014C01C8010E949B
:102AA000E112181619060CF421CF0E94D4036619FE
:102AB000770988099909693873418105910548F5B5
:102AC00062E370E080E090E00E94A103E7CF41E084
:102AD00050E070E060E0C8010E94DA111B8A93CFD9
:102AE00054274527542770E060E0C8010E94DA119E
:102AF000FFEF8F1A9F0A6814790409F06FCF96EFE1
:102B0000C92EDD24DA94BCCFE7EFCE2EDD24DA9493
:102B1000B7CFCC24CA94DC2CB3CF6EEFC62EDD2405
:102B2000DA94AECF4CEFC42EDD24DA94A9CF8EEF29
:102B3000C82EDD24DA9430CED12CC12C2DCECF92EC
:102B4000DF92EF92FF920F931F93CF93DF93CDB756
:102B5000DEB7AF970FB6F894DEBF0FBECDBF7C01D6
:102B60006A0103EC11E01A8309831C861B8688EE38
:102B700093E0A0E0B0E08D879E87AF87B88B87E3B6
:102B800091E09A878987188F0F8B198E1A8E1B8E6A
:102B90001C8E84E089A31BA70AA71CA61DA61EA63F
:102BA0001FA68091430490914404A0914504B091E4
:102BB00046048EA39FA3A8A7B9A78B839C83AD834C
:102BC000BE8318861F82AE01465D5F4FCE0101961F
:102BD0000E943F1381309105B1F4D701ED91FC9132
:102BE0000488F589E02D1DA30CA38CA59DA5AEA599
:102BF000BFA58EA39FA3A8A7B9A7A601BE016C5D20
:102C00007F4FC7010995AF960FB6F894DEBF0FBE90
:102C1000CDBFDF91CF911F910F91FF90EF90DF908B
:102C2000CF900895CF92DF92EF92FF920F931F9370
:102C3000CF93DF93CDB7DEB7AF970FB6F894DEBF73
:102C40000FBECDBF8C016B017A0183EC91E09A83BA
:102C500089831B821C821D821E821C861B8648EE75
:102C600053E060E070E04D875E876F87788B27E3E5
:102C700031E03A872987988F8F8B198E1A8E1B8E99
:102C80001C8E24E029A39BA78AA71CA61DA61EA60E
:102C90001FA6D8011C968C91843060F40E94990B79
:102CA000882321F0F80184850E94740B84E0D80108
:102CB0001C968C938091430490914404A091450408
:102CC000B09146048EA39FA3A8A7B9A78B839C832A
:102CD000AD83BE8318861F82AE01465D5F4FB6018D
:102CE000CE0101960E943F130097C1F0D801ED91EB
:102CF000FC910684F785E02D83EC91E09DA38CA3E5
:102D00008CA59DA5AEA5BFA58EA39FA3A8A7B9A777
:102D1000A701BE016C5D7F4FC8010995AF960FB644
:102D2000F894DEBF0FBECDBFDF91CF911F910F9101
:102D3000FF90EF90DF90CF9008957F928F929F92B7
:102D4000AF92BF92CF92DF92EF92FF920F931F93B9
:102D5000CF93DF93CDB7DEB7A6970FB6F894DEBF5B
:102D60000FBECDBF8C01762E942E852E20E2A22E92
:102D7000CE0101967C01DC01EA2D1D92EA95E9F76E
:102D80006801F3E4CF0ED11C83EC91E09AA389A3F0
:102D90008FEF8BA38CA38DA38EA343E450E0BE01E1
:102DA0006F5D7F4FC6010E94CB08019609F4BFC03A
:102DB00081E089838A8386E0B82EBB821C82D80199
:102DC00014966D917D918D919C9117970E9451322F
:102DD0006D837E838F83988789869A8680E890E0CA
:102DE0009C878B874CE150E0B701C6010E9405101B
:102DF000FE0137968AE1DF011D928A95E9F74801C5
:102E0000B8E08B0E911CF401D70101900D92BA9499
:102E1000E1F740E150E0B701C6010E940510F7015B
:102E20001192AA94E9F796E0A92EB12C40E250E065
:102E3000B701C6010E940510F1E0AF1AB108B1F761
:102E400083E6898392E89A8393E59B838C8385E369
:102E50008D8381E08E837F829DE3988797E09987B9
:102E60008A8786E0F401DE011B9601900D928A9517
:102E7000E1F78CE0898B8A8B6CEE71E0CE01439692
:102E80000E944133D8011B966C91CE0149960E9455
:102E90006102F8016485CE014B960E946102D8015F
:102EA0001D966C91CE014D960E9461024EE150E05C
:102EB000B701C6010E940510B3E07B121EC082E379
:102EC000898384E08A83F80196859B8397859C8318
:102ED00090899D8391899E8396E39F838887828DC5
:102EE0008987838D8A87848D8B87858D8C874CE03D
:102EF00050E0B701C6010E94051087E3898386E090
:102F00008A8391E09B8393E09C838D838FE08E8303
:102F10008AE38F838BE388878FEF898749E050E0CE
:102F2000B701C6010E940510C6010E94000CA696BA
:102F30000FB6F894DEBF0FBECDBFDF91CF911F91CA
:102F40000F91FF90EF90DF90CF90BF90AF909F9048
:102F50008F907F9008950F931F93CF93DF93EC0191
:102F6000FB0101900020E9F78F01061B170B8A81F6
:102F70009B81A801480F591F2C813D8124173507DB
:102F800068F028813981A801820F931F0E9428339D
:102F90004A815B81400F511F5B834A83DF91CF9150
:102FA0001F910F9108950F931F93CF93DF93EC011F
:102FB00088819981009759F02A813B81261737072C
:102FC00030F081E0DF91CF911F910F9108958B0137
:102FD0006F5F7F4F0E945E32009759F0998388831C
:102FE0001B830A832C813D81232B59F7FC0110821E
:102FF000E8CF80E0E7CF85ED8093BC008091B802F8
:103000009091B902A091BA02B091BB020796A11D9E
:10301000B11D23E0B695A795979587952A95D1F789
:103020002091BC0024FD03C01092B6020895409187
:10303000B8025091B9026091BA027091BB02452B5F
:10304000462B472B69F30097A105B10541F02AE211
:103050002A95F1F700C00197A109B109E1CF80914C
:10306000B7020C94A7053F924F925F926F927F92A6
:103070008F929F92AF92BF92CF92DF92EF92FF9288
:103080000F931F93CF93DF93CDB7DEB7EA970FB6B9
:10309000F894DEBF0FBECDBF7C012A013B01690160
:1030A0000E94D4034B015C0187010D5B1F4FC801D7
:1030B0000E94E112181619069CF00E94D4036819A8
:1030C00079098A099B09461657066806790608F4A5
:1030D00066C162E370E080E090E00E94A103E7CF68
:1030E00042E250E0BE016F5F7F4FC8010E94DA11DB
:1030F00089818230D1F0312C832DEA960FB6F89475
:10310000DEBF0FBECDBFDF91CF911F910F91FF901A
:10311000EF90DF90CF90BF90AF909F908F907F9077
:103120006F905F904F903F900895F8018489958942
:103130008334910501F76D817E818F8198850E948E
:1031400051324B015C01F60180829182A282B382EE
:1031500046E050E0B701685F7F4FCE014D960E9478
:103160001B33892B41F6F70180819181A281B381C4
:1031700088169906AA06BB0608F4BDCF84819581FE
:10318000A681B78188159905AA05BB0508F4B3CFB8
:1031900089899A89AB89BC8986879787A08BB18BEF
:1031A0004EEC50E070E060E0C8010E94DA11312C72
:1031B000C701829698AB8FA7F701B696FAABE9AB39
:1031C00008969CAB8BAB67019AE1C90ED11CBD96EA
:1031D000FEABEDABC701429698AF8FABFD97FAAF50
:1031E000E9AF4701FEE18F0E911CF801818D928DB0
:1031F000181619060CF080CFC8010E94F91183330C
:10320000910509F4B2C014F58130910509F464C048
:1032100044F4892B51F3C8010E94F911AC015527E0
:1032200075C08330910509F462C00697A1F7C80103
:103230000E94F911B82E44E050E0B401C8010E9488
:10324000DA11EB2DE450FF0BAF0160C08A3391051A
:1032500009F45FC084F585339105B1F1C697D9F6BD
:10326000C8010E94F9115C01B601CE0189960E9445
:103270009A128BA59CA5ADA5BEA5892B8A2B8B2B5D
:10328000B1F0EDA9FEA94080518062807380B60143
:10329000CE0183960E949A128DA19EA1AFA1B8A5DE
:1032A000A501481659066A067B0609F0B8CF44E026
:1032B00050E0B60118C08B33910509F440C08F3F30
:1032C000910509F492CFA7CFC8010E94F911C80156
:1032D0000E94F911382E89CFC8010E94F91144E0EB
:1032E00050E06FA978ADC8010E94DA117ECFC80105
:1032F0000E94F911B82E44E050E069AD7AADC801E2
:103300000E94DA118B2D8450990BAC0170E060E0C3
:10331000EACFC8010E94F91144E050E069A97AA9F6
:10332000C8010E94DA11F70166A177A180A591A5D5
:103330000E94513266A377A380A791A756CFC801F8
:103340000E94F91144E050E06BA97CA9C8010E94D9
:10335000DA11F70162A573A584A595A50E945132E3
:1033600062A773A784A795A740CFC8010E94F9114F
:1033700044E050E06FA578A9C8010E94DA11F70176
:1033800062A173A184A195A10E94513262A373A38B
:1033900084A395A366A777A780AB91AB26CF3324F0
:1033A0003A94AACE0F931F93CF93DF93CDB7DEB796
:1033B00062970FB6F894DEBF0FBECDBF8C01CB0174
:1033C0004AE0BE016F5F7F4F0E94C12DBE016F5F5B
:1033D0007F4FC8010E94AB1762960FB6F894DEBF0C
:1033E0000FBECDBFDF91CF911F910F9108953F92F6
:1033F0004F925F926F927F928F929F92AF92BF9205
:10340000CF92DF92EF92FF920F931F93CF93DF93B0
:10341000CDB7DEB7A1970FB6F894DEBF0FBECDBF14
:103420005C010DB71EB719A308A360E070E0CB01E3
:103430000E94A103D50157968D919C915897912C8C
:10344000029709F4BFC356968C9156978F5F569694
:103450008C93569754962D913C91232B19F09924D7
:103460009394A9C38330D8F7F501808191810E949C
:103470002409882309F47FC38E010F5F1F4F380191
:10348000D501ED91FC9180819181DC01ED91FC9160
:103490000084F185E02D0995181619060CF06BC310
:1034A000D501ED91FC9145E050E0BE01695E7F4F92
:1034B000808191810E94E303009711F3059709F041
:1034C00074C0888D998D982789279827998F888F20
:1034D000EA8CFB8CFE24EF24FE24FB8EEA8E892BE3
:1034E00009F463C08F89811173C00E94D403F50170
:1034F00066837783808791872789308D8A8D9B8D1E
:10350000232B09F061C0288D398D2130310509F058
:103510005BC089309105E1F1883C910519F0049771
:1035200009F047C00E94640A8FEF92E00E942705CD
:10353000D50116964D915D916D917C9119971E96CE
:103540008D919D910D90BC91A02D481B590B6A0B3C
:103550007B0B2AE08AE793E00E94BD098AEF92E0A4
:103560000E94AD09F50186819781A085B185868786
:103570009787A08BB18B01E010E0108F078BC501FE
:103580000E94F52260E070E0CB010E94A10378CF99
:103590000E94640A8BE294E00E94AD0983E090E00F
:1035A000D50158969C938E935797D5018D919C91F8
:1035B000FFC20E94640A84E194E00E9427058A8D7C
:1035C0009B8D0E944E0AF1CF059709F059CFEDCFA0
:1035D000B1E0EB16FB0690F00E94640A83E094E0F1
:1035E0000E9427058A8D9B8D0E944E0AF501108E40
:1035F000178A808191810E94370942CF8DB69EB68D
:10360000C70101960DB71EB7081B190B0FB6F8942A
:103610001EBF0FBE0DBF0F5F1F4FD501ED91FC9177
:10362000A701B801808191810E94E3038E159F0557
:1036300009F07BC0EA8DFB8DE00FF11F10820E9424
:10364000D403F50166837783808791878F898131E1
:1036500009F47CC2A0F58630F1F08F3009F4D7C0B0
:10366000823099F5D50157968D919C91892B99F4CB
:103670000E94640A8DEF93E00E94AD0901E010E022
:10368000F501108F078BC5010E94F52260E070E004
:10369000CB010E94A103488D598DD12CC12CF12C56
:1036A000E12C08EC10E030E020E060E0C5010E9471
:1036B0004B1F0FB6F8949EBE0FBE8DBEE1CE8D316E
:1036C00089F258F4843109F4A2C0F501108E178AEA
:1036D000808191810E943709ECCF893281F0873354
:1036E000A1F78A8D9B8D892B21F30E94640A84EEB9
:1036F00093E00E942705C8010E94C022DACF84818E
:103700009581892B39F480E490E00E94AA2BF50181
:1037100095838483EA8CFB8CE00EF11E1A83098367
:10372000FC82EB820E151F0530F00FB6F8949EBE9A
:103730000FBE8DBE3ACF40E450E0B801D5011496DB
:103740008D919C910E944833D5011496ED91FC9186
:1037500017AEC3010E94D322FC018081918100E554
:1037600010E08E159F0570F489819A81009709F405
:103770004AC02B813C818217930708F044C00E9405
:10378000912D8B010E94640A8DEE93E00E94270523
:10379000D50114966D917C918AE793E00E94760A98
:1037A0006AE38AE793E00E943304C8010E944E0A4C
:1037B000F501808191810E943709D501ED91FC913D
:1037C000119714968D919C911597918780871387F7
:1037D000028758961C921E9257970E94D403DC01D0
:1037E000CB0188589341A109B109F50182879387DC
:1037F000A487B58786839783A087B18786879787B5
:10380000A08BB18B56CF60E070E0CB01BACF888D32
:10381000998DD50155969C938E9354974A8C5B8CC9
:103820006801C40CD51C1D8F0C8FDF8ECE8E0C153D
:103830001D0508F013C1F801E080F180CE014C961F
:103840000E94D322DC018D919C918C159D0508F07E
:1038500005C18C8D9D8DFC012081213459F4019688
:103860000E94732D4EE0342E380E069744F0332418
:103870003A9405C0CE014C960E94E622382EF6E717
:10388000EF16F2E7FF0609F406C138F531E6E31654
:1038900032E7F30609F4E6C044E6E41642E7F4062C
:1038A00009F478C050E7E5165DE6F50609F037C182
:1038B0008C8D9D8D8C159D0508F0D0C0FC0120815C
:1038C0002134A9F501960E94732D3EE0F32EF80EE7
:1038D000069794F1FF24FA942FC084E6E81687E750
:1038E000F80609F4A2C096E7E91697E7F90609F485
:1038F000E9C0A1E6EA16A7E7FA0609F010C1CE0171
:103900004C960E94D322DC018D919C918C159D05D3
:1039100008F0A4C061E0832D0E94CE02CE014C9637
:103920000E94E622BC01832D0E940A0397C0CE01AB
:103930004C960E94E622F82ECE014C960E94D3228D
:103940000C8D1D8D63EF71E0C8010E94383360E07B
:10395000892B79F066EF71E0C8010E943833892B1A
:1039600039F06AEF71E0C8010E943833892B49F4BD
:1039700061E08F2D0E94CE02CE014C960E94D32290
:1039800097CF6EEF71E0C8010E943833892BA1F701
:1039900062E0EFCF7A8A698A1C8A1B8A00E110E014
:1039A0001E8B0D8B61E072E0CE0141960E94AB1739
:1039B000032D10E0B801CE0141960E94D219F80102
:1039C000E15CFC4F8491F801E55DFC4FF490095EE9
:1039D0001C4FF801049160E070E0002389F0811130
:1039E0000E947702E02FF0E0EE0FFF1FE35FFC4F35
:1039F000A591B491EC91FE2261E070E009F460E0E1
:103A0000CE0141960E94D2190B891C8901501109DF
:103A100029893A89D12CC12CF12CE12C50E040E0CD
:103A200064E1C5010E944B1F19C0CE014C960E9453
:103A3000D322DC018D919C918C159D0578F461E079
:103A4000832D0E94CE02CE014C960E94E62261E0B8
:103A5000892B09F460E0832D0E94A002F501158AEC
:103A6000148A27CE7A8A698A1C8A1B8AE0E1F0E0F0
:103A7000FE8BED8B64E072E0CE0141960E94AB17A5
:103A8000632D70E0CE0141960E94D219832D0E94D1
:103A90006703BC01B5CF3982BFE1B315F8F2E32D5E
:103AA000F0E0EE0FFF1FED5AFC4F259134912115E8
:103AB0003105A1F2E2E02D353E0781F2C301F901A3
:103AC0000995CCCFCE014C960E94D3228C8D9D8D32
:103AD0009C01201B310B421A530A9A8389835C8212
:103AE0004B825E824D82398AFFE1F31508F4B6CF2E
:103AF000E32DF0E0EE0FFF1FED56FC4F25913491C2
:103B00002115310509F4AACF02E02C35300709F45C
:103B1000A5CFB301CE014196F90109959FCF0E942F
:103B2000640A83ED93E00E942705C8010E94C02229
:103B3000D50154964D915C91D12CC12CF12CE12CE6
:103B400002E010E030E020E060E06BCF8A8D9B8DDA
:103B5000800F911F1A8309839C838B830817190791
:103B600008F0A7CDC3010E94D322D50155961C921F
:103B70001E9254979ECD0E94D4032B013C01F50167
:103B8000808191810E942409D50157962D913C9105
:103B900058972130310509F094C0F501811132C0E8
:103BA00046865786608A718A108E178A8081918135
:103BB0000E943709912CD50156968C9156978150C9
:103BC00056968C93892DE8A1F9A10FB6F894FEBF03
:103BD0000FBEEDBFA1960FB6F894DEBF0FBECDBFEE
:103BE000DF91CF911F910F91FF90EF90DF90CF90D9
:103BF000BF90AF909F908F907F906F905F904F900D
:103C00003F90089586819781A085B18593018201B7
:103C1000081B190B2A0B3B0BD901C801893116EF80
:103C20009107A105B10560F00E94640A8CE494E05C
:103C30000E94AD09D50158961C921E925797B6CC9A
:103C4000893C9F4AA105B10598F4F50182859385C9
:103C5000A485B58593018201081B190B2A0B3B0B28
:103C6000D901C801893C9F4AA105B10508F4F7CBE9
:103C7000F50186859785A089B18993018201081B8A
:103C8000190B2A0B3B0BD901C80181379741A105BC
:103C9000B10508F4E4CBD12CC12CF12CE12C10E0BF
:103CA00000E030E020E050E040E066E0C5010E9426
:103CB0004B1FD5011E964D925D926D927C9251974D
:103CC000CECB232B09F0CBCBF501468557856089F8
:103CD000718993018201041B150B260B370BB90167
:103CE000A8018823A9F0413757416105710508F4FF
:103CF000B6CB0E94640A8EE394E00E94AD09D50120
:103D00008D919C910E943709F501108E178A52CF30
:103D1000493853416105710508F4A1CB8D919C91FF
:103D20000E943709F50100811181D80118968D9103
:103D30009C91892BA9F10E94640A8BEE92E00E946B
:103D40002705F801608571858AE793E00E94760A6D
:103D50006AE38AE793E00E943304D8011A968D91B2
:103D60009C910E944E0AF801808191814285538581
:103D700060857185DC01ED91FC910088F189E02D71
:103D8000099521E0019709F020E0F8012487948447
:103D900091105BC0F50146865786608A718A0BCF09
:103DA0000E94640A8CED92E00E942705D8011496C7
:103DB0006C918AE793E00E94090A6EE28AE793E039
:103DC0000E943304F80165818AE793E00E94090AA2
:103DD0006EE28AE793E00E943304D80116966C9154
:103DE0008AE793E00E94090A6EE28AE793E00E9464
:103DF0003304F80167818AE793E00E94090A65ECC1
:103E000071E08AE793E00E949E09D8018D919C9110
:103E1000DC01ED91FC910684F785E02DD8011A961E
:103E20004D915C911B9723EC31E03A8329831496E2
:103E3000CD90DD90ED90FC901797CB82DC82ED82E7
:103E4000FE82BE016F5F7F4F9BCF81E090E0D50186
:103E500053969C938E93529712962D913C91F90113
:103E600001900020E9F731978F01021B130BD12C31
:103E7000C12CF12CE12C41E050E06DE1C5010E9424
:103E80004B1FF50182859385A485B5858687978725
:103E9000A08BB18B90CE2F923F924F925F926F92F8
:103EA0007F928F929F92AF92BF92CF92DF92EF92CA
:103EB000FF920F931F93CF93DF9300D000D000D0D9
:103EC000CDB7DEB75C016E834A013901DC018D910B
:103ED0009C910E942409882309F4D3C08E818D7F90
:103EE00009F401C1BE81B63009F4FDC0BD3109F449
:103EF000FAC0F5018789908D019709F0C2C081143D
:103F00009104B9F4D50154968D909C9055978114E5
:103F1000910479F452968D919C915397019609F4EE
:103F2000C9C053969C938E935297D50152968D900B
:103F30009C908E818C50893090F5F5018285938517
:103F4000A485B585468157816085718548175907D5
:103F50006A077B0710F4AC01BD011A012B01F2E4E2
:103F60002F0E311C411C511C0E94D403A20191014F
:103F7000261B370B480B590BDA01C901B7FDA0C04E
:103F8000C5010E94F7190E94D403A2019101261BCA
:103F9000370B480B590BDA01C901B7FFF1CFC80144
:103FA00005966114710411F485E090E0512C412CC8
:103FB000E114F10409F02601480E591EBE81B983AF
:103FC0009824892498249B828A82C8018C0D9D1D87
:103FD0009827892798279D838C83D501ED91FC91A3
:103FE00080819181DC01ED91FC910280F381E02DD3
:103FF00045E050E0BE016F5F7F4F09954C0160E0E6
:1040000070E0CB010E94A103BE81BB2381F10115A9
:104010001105A9F0D501ED91FC9180819181DC0120
:10402000ED91FC910280F381E02DA801B301099587
:10403000880E991E60E070E0CB010E94A103C114BC
:10404000D104A9F0D501ED91FC9180819181DC0131
:10405000ED91FC910280F381E02DA601B701099555
:10406000880E991E60E070E0CB010E94A1038414C9
:10407000950479F1F501108E178A808191810E9453
:10408000370926960FB6F894DEBF0FBECDBFDF917D
:10409000CF911F910F91FF90EF90DF90CF90BF9045
:1040A000AF909F908F907F906F905F904F903F90D8
:1040B0002F90089581E090E0F501938B828B35CFAE
:1040C000D50156968C9181116ACFC5010E94F719CE
:1040D00066CF0E94D403D5011A966D937D938D937C
:1040E0009C931D97CECF8114910409F058CF0ACF2D
:1040F000CF92DF92EF92FF920F931F93CF93DF93B4
:10410000CDB7DEB7C75AD1090FB6F894DEBF0FBEE0
:10411000CDBF8EE00E9467038C01CE010196CE5583
:10412000DF4F99838883C25AD040CC55DF4F198224
:104130001882C45AD04080E890E0CA55DF4F998376
:104140008883C65AD0406AE172E0CE018E559F4FF7
:104150000E94AB176EE070E0CE018E559F4F0E941B
:10416000D219B801110F880B990B0E944C3020E036
:1041700030E040EA50E40E94873020E030E040E840
:104180005AE30E9487302AE037ED43E25CE30E9465
:10419000DF318E010F571F4F23E045E00E948C2B2B
:1041A000B801CE018E559F4F0E94AB17CC55DF4F03
:1041B00008811981C45AD04001501109CE55DF4FF2
:1041C00028813981C25AD040D12CC12CF12CE12C4C
:1041D00050E040E064E18DEC95E00E944B1FC95532
:1041E000DF4F0FB6F894DEBF0FBECDBFDF91CF918A
:1041F0001F910F91FF90EF90DF90CF9008951F9245
:104200000F920FB60F9211242F933F938F939F938A
:10421000AF93BF938091550390915603A09157039C
:10422000B09158033091540323E0230F2D3758F5F4
:104230000196A11DB11D20935403809355039093C3
:104240005603A0935703B09358038091590390915C
:104250005A03A0915B03B0915C030196A11DB11DAF
:104260008093590390935A03A0935B03B0935C032C
:10427000BF91AF919F918F913F912F910F900FBE62
:104280000F901F90189526E8230F0296A11DB11DCF
:10429000D2CF1F920F920FB60F9211242F933F93FC
:1042A0004F935F936F937F938F939F93AF93BF933E
:1042B000EF93FF938AE793E00E94B804FF91EF9198
:1042C000BF91AF919F918F917F916F915F914F912E
:1042D0003F912F910F900FBE0F901F9018951F9236
:1042E0000F920FB60F9211242F938F939F93EF93FA
:1042F000FF93E0918A03F0918B038081E09190031A
:10430000F091910382FD1BC09081809193038F5F98
:104310008F7320919403821741F0E0919303F0E0B2
:10432000E658FC4F958F80939303FF91EF919F91F7
:104330008F912F910F900FBE0F901F901895808135
:10434000F4CF1F920F920FB60F9211242F933F9329
:104350004F935F936F937F938F939F93AF93BF938D
:10436000EF93FF938091B900887F803609F44AC0AB
:10437000F0F5883209F4A7C018F5803109F49BC024
:10438000B8F4882309F4F9C0883009F494C0FF9187
:10439000EF91BF91AF919F918F917F916F915F91BD
:1043A0004F913F912F910F900FBE0F901F90189536
:1043B000883109F488C0803251F78093B40214C068
:1043C000803409F49DC040F48033B9F38833F9F6A2
:1043D0008093B40285ECB0C0803509F485C088357F
:1043E00009F496C0883499F60E94FB17D0CF88391B
:1043F00009F48CC038F5883729F050F4883611F06C
:10440000803729F683E08093B60210928F0257C05E
:10441000883809F47BC0803919F0803809F0B7CFAB
:1044200080918F02803208F071C0E0918F0281E0AC
:104430008E0F80938F028091BB00F0E0E159FD4F19
:1044400080833DC0803B39F0E0F4803A09F479C0C4
:10445000883A09F09CCF84E08093B60210926E02F5
:1044600010926D02E091E002F091E10209958091D5
:104470006D0281110FC081E080936D0210924D0298
:1044800009C0803C09F4A6CF883C09F4A3CF883B3F
:1044900009F07DCFE0916E0281E08E0F80936E0275
:1044A000F0E0E35BFD4F80818093BB0090916E0252
:1044B00080916D0229C0809191028093BB0085ECB0
:1044C0008093BC0064CF9091B3028091B2029817A0
:1044D00058F5E091B30281E08E0F8093B302F0E0D3
:1044E000EE56FD4F8081E9CFE091B30281E08E0F5F
:1044F0008093B3028091BB00F0E0EE56FD4F8083C5
:104500009091B3028091B2029817C8F285E8D8CF93
:10451000E091B30281E08E0F8093B3028091BB00E3
:10452000F0E0EE56FD4F80838091B50281115CCFA3
:1045300081E08093900284EA8093BC001092B602DE
:1045400026CF85EC8093BC001092B60280918F023A
:10455000803230F4E0918F02F0E0E159FD4F10829B
:1045600060918F0270E0E091DE02F091DF028FE651
:1045700092E0099510928F020ACF1092B40234CFC4
:10458000CF93DF93BC018AE793E00E949E09EC0180
:1045900065EC71E08AE793E00E949E098C0F9D1FF5
:1045A000DF91CF910895DC01ED91FC911197309747
:1045B00061F012962D913C911397E217F30728F4BE
:1045C00001900020E9F7ED93FC930895FC018081B0
:1045D0009181009739F0228133818217930710F47B
:1045E0000C94732D90E080E00895AF92BF92CF922B
:1045F000DF92EF92FF920F931F93CF93DF93CDB78C
:10460000DEB7C05CD1090FB6F894DEBF0FBECDBFD8
:104610005C01CE0185589F4FC554DF4F9983888335
:10462000CB5BD040C354DF4F19821882CD5BD040A2
:1046300080E490E0C154DF4F99838883CF5BD04002
:1046400067E072E0CE0185549F4F0E94AB176CE08B
:1046500072E0CE0185549F4F0E94AB174AE750E0AD
:104660006DE671E0CE0101960E94B82DC354DF4F74
:10467000C880D980CD5BD040C554DF4FE880F98039
:10468000CB5BD0400AE710E09E012F5F3F4F50E028
:1046900040E061E1C5010E944B1FC054DF4F0FB6DF
:1046A000F894DEBF0FBECDBFDF91CF911F910F9168
:1046B000FF90EF90DF90CF90BF90AF900895109251
:1046C0007D0310927C0388EE93E0A0E0B0E080933D
:1046D0007E0390937F03A0938003B093810321E630
:1046E00031E030937B0320937A0325EC30E0309364
:1046F00087032093860324EC30E0309389032093D2
:10470000880320EC30E030938B0320938A0321EC64
:1047100030E030938D0320938C0322EC30E0309313
:104720008F0320938E0326EC30E030939103209387
:104730009003109293031092940310929503109299
:10474000960310921A041092190480931B049093FC
:104750001C04A0931D04B0931E0483E791E0909382
:1047600018048093170483EC91E0909324048093C1
:10477000230410922504109226041092270410920C
:10478000280490932A048093290410922B041092F9
:104790002C0410922D0410922E04909330048093D8
:1047A0002F041092310410923204109233041092AC
:1047B0003404909336048093350410923704109299
:1047C00038041092390410923A0490933C04809378
:1047D0003B0410923D0410923E0410923F0410924C
:1047E0004004909348048093470410924904109227
:1047F0004A0410924B0410924C049093420480930C
:104800004104109243041092440410924504109203
:10481000460490934E0480934D0410924F041092DE
:1048200050041092510410925204909354048093B7
:10483000530410925504109256041092570410928B
:104840005804909309068093080610920A06109265
:104850000B0610920C0610920D061092FC05109299
:10486000FB0521E931E03093FA052093F90524E0B6
:104870002093050628EE33E03093070620930606C2
:104880009093EF058093EE051092F0051092F105DC
:104890001092F2051092F3051092F5051092F405AE
:1048A0001092F7051092F6051092F80589EF95E041
:1048B0009093ED058093EC0580E797E1A0E0B0E0F0
:1048C0008093FD059093FE05A093FF05B09300062D
:1048D0008CEE95E09093CE058093CD051092D00597
:1048E0001092CF051092D2051092D1051092D305E7
:1048F0001092D4051092D5051092D6051092D705C6
:104900001092D8051092D9051092DA051092DB05A5
:104910001092DC051092DD051092DE051092E00584
:104920001092DF051092E2051092E1051092E30566
:104930001092E5051092E4058FEF9FEF9093CC0560
:104940008093CB05109262041092610485E891E097
:104950009093600480935F0487E28093630480E116
:104960008093680482E08093690410926A04109234
:104970005A041092590410925C0410925B04109235
:104980005E0410925D0470E060E089E594E00E94AE
:10499000D3172091590430915A04811113C0211565
:1049A000310519F0C9010E94462C10925A04109248
:1049B000590410925E0410925D0410925C041092EF
:1049C0005B04089510925E0410925D0467EC71E040
:1049D000C9010C944133CF93DF93CDB7DEB7AB97CA
:1049E0000FB6F894DEBF0FBECDBF789484B5826059
:1049F00084BD84B5816084BD85B5826085BD85B583
:104A0000816085BD80916E00816080936E00109200
:104A1000810080918100826080938100809181007B
:104A2000816080938100809180008160809380000C
:104A30008091B10084608093B1008091B00081606A
:104A40008093B00080917A00846080937A00809196
:104A50007A00826080937A0080917A0081608093EE
:104A60007A0080917A00806880937A001092C10069
:104A700061E083E00E94CE021092E5021092E4020F
:104A80001092E3021092E2020E94890580EE93E008
:104A90009093E1028093E00281EE93E09093DF0235
:104AA0008093DE021092640480916904823018F0D1
:104AB00098E0909364048093670462E370E080E080
:104AC00090E00E94A10360916A048FE594E00E9447
:104AD0004D0668EE73E080E090E00E94A10360E381
:104AE0008FE594E00E9461090BE416E4C801019788
:104AF000F1F760E38FE594E00E946109C801019736
:104B0000F1F760E38FE594E00E94610983E592E0AC
:104B10000197F1F760E28FE594E00E9461096091EE
:104B20006404606240E08FE594E00E947A0984E0CA
:104B30008093650440E06CE08FE594E00E947A0980
:104B400040E061E08FE594E00E947A090BE31FE109
:104B5000C8010197F1F782E08093660440E066E0C7
:104B60008FE594E00E947A0940E062E08FE594E0EE
:104B70000E947A09C8010197F1F788E080936A04DE
:104B800060E08FE594E00E944D0640E061E08FE533
:104B900094E00E947A09C8010197F1F740E062E0D1
:104BA0008FE594E00E947A09C8010197F1F780E04F
:104BB0000E9491096DE172E08FE594E00E94760A0F
:104BC0000E94640A8AEB92E00E94AD098EEF809306
:104BD000E6059DEE9093E7052AEB2093E805809388
:104BE000E9058093EA059093EB0520E031E0D901D7
:104BF0000D900020E9F79D0121503140A0E0B1E087
:104C0000E1E0F0E0AD01405051404217530784F419
:104C1000AF014F5F5F4F6D91E353FA4F818D862750
:104C2000818F4630510514F041E050E0FA01EACF9F
:104C300080914C0381112AC01092340310923303E7
:104C400088EE93E0A0E0B0E08093350390933603C4
:104C5000A0933703B093380387E391E09093320336
:104C60008093310383EC91E09093400380933F0362
:104C70001092410310924203109243031092440396
:104C800084E08093490381E080934C038EEE92E0B0
:104C90009093ED028093EC028091EB028111ADC004
:104CA00060E372E080E090E00E94A103DFB6F89438
:104CB00001E213E0E5E3EE2EE3E0FE2E8091E9024F
:104CC000811125C0F8018491F7019491E82FF0E05B
:104CD000EE0FFF1FE853FD4FA591B4918C919823DF
:104CE00021F461E08AE00E94A00261E08AE00E9473
:104CF000CE028CB580618CBD8CB580648CBD61E0CA
:104D00008DE00E94CE0261E08BE00E94CE02809195
:104D1000E9028F5F8093E902DFBEF8010491E02F82
:104D2000F0E0EE0FFF1FEE52FD4F859194919093AE
:104D3000E8028093E702F701E490E092E60261E086
:104D40008AE00E94CE020E944E0780E591E00E9418
:104D50005E0284E38093790380E80E941A080E942F
:104D6000440C882309F432C288E00E941A080E9489
:104D7000310C883009F02AC280E10E941A080E9492
:104D8000310C803109F022C280E00E941A080E9492
:104D9000310C182F81111AC241E050E0BE016F5F43
:104DA0007F4F8FE190E00E94BC0A8981833009F037
:104DB0000DC280E48093EA0242E06EE170E0812F50
:104DC0000E94760842E06FE170E0812F0E94760831
:104DD0001F5F143089F740E06EE170E0812F0E9480
:104DE000760840E06FE170E0812F0E9476081F5F37
:104DF000183089F781E08093EB0280E591E00E9412
:104E00005E0246E050E066EE75E089E090E00E94C8
:104E10006A0783EC91E09A8389831B821C821D823E
:104E20001E8244E050E0BE016D5F7F4F8FE090E056
:104E30000E946A070091EC021091ED02D80192964F
:104E40001D921D921D921C929597F80116A217A211
:104E500010A611A69A961D921D921D921C929D97C6
:104E600080E69AEEA0E0B0E086AB97ABA0AFB1AF22
:104E700080EA9FE0A0E0B0E082AF93AFA4AFB5AF0F
:104E8000D801189686E0FD01282F11922A95E9F79E
:104E90009801225F3F4F94E1F90111929A95E9F749
:104EA000E6EEF5E001900D928A95E1F72C5C3F4F1C
:104EB0003BA72AA7D9011C920E941B2D2FEC37E09B
:104EC00040E050E00E944531DC01CB010196A11D7C
:104ED000B11DF80184839583A683B7838083918372
:104EE000A283B3835801F3E4AF0EB11CC5010E9445
:104EF0008C0B64E470E0C5010E94F50E882309F470
:104F0000CEC10E94D4032B013C0148EEC42E43E0E5
:104F1000D42EE12CF12C52E0252E912C812CAAA527
:104F2000BBA58C918330B9F18111C9C1F80184818D
:104F30009581A681B7810196A11DB11D84839583BA
:104F4000A683B7830E94D40364197509860997095B
:104F5000A70196010E94AE31A90161E0C8010E943B
:104F60009D1681E0AAA5BBA58C93F1E08F16910454
:104F7000B1F20E94D4036419750986099709D80112
:104F8000D6962D913D914D915C91D9972617370773
:104F90004807590710F6C5010E948C0BF80184815F
:104FA0009581A681B7810196A11DB11D848395834A
:104FB000A683B7830E94D403F801FE9660837183B1
:104FC000828393838A94892809F069C180E591E0FE
:104FD0000E945E020091EC021091ED02B801625F46
:104FE0007F4FCE0101960E949A1244E050E0BE012C
:104FF0006D5F7F4F8FE090E00E946A07B8016A5EA4
:105000007F4FCE0101960E949A1244E050E0BE010B
:105010006D5F7F4F81E090E00E946A07B8016E5E8D
:105020007F4FCE0101960E949A1244E050E0BE01EB
:105030006D5F7F4F85E090E00E946A07B801625E75
:105040007F4FCE0101960E949A128B819C81AD8187
:10505000BE818093430490934404A0934504B0938D
:1050600046040E947C037F7380912101909122016C
:1050700068277927709322016093210168EE73E01D
:1050800080E090E00E94A10383EC91E09A83898301
:105090001B821C821D821E8280E591E00E945E02BE
:1050A00044E050E0BE016D5F7F4F8FE090E00E94D2
:1050B000BC0A0E94640A89EA92E00E9427056B817B
:1050C0008AE793E00E94090A6EE28AE793E00E9471
:1050D00033046C818AE793E00E94090A6EE28AE752
:1050E00093E00E9433046D818AE793E00E94090AED
:1050F0006EE28AE793E00E9433046E818AE793E0D0
:105100000E94090A65EC71E08AE793E00E949E091B
:1051100080E091E09093D0058093CF050E94D40366
:10512000DC01CB0188589341A109B1098093D705CF
:105130009093D805A093D905B093DA058093D30551
:105140009093D405A093D505B093D6058093DB0545
:105150009093DC05A093DD05B093DE050E94640A00
:1051600089EE91E00E94AD09E091CD05F091CE0568
:1051700080E292E09187808780E590E09387828744
:105180008091CD059091CE050E9437091092E505DA
:105190001092E4050E94D4036B017C018091E40528
:1051A0009091E505019709F455C10E94D4036C194B
:1051B0007D098E099F09603576448105910508F0C7
:1051C00049C18DEC95E00E94F719E8CF87E3809301
:1051D000790380E80E941A080E94440C882329F170
:1051E00088E00E941A080E94310C8830F1F480E1B6
:1051F0000E941A080E94310C182F8031B1F480E00F
:105200000E941A080E94310C81110FC041E050E049
:10521000BE016F5F7F4F89E390E00E94BC0A8981E5
:10522000843019F41093EA02E5CD83E38093790387
:1052300080E80E941A080E94440C882371F180E1E2
:105240000E941A080E94310C803139F582E10E94D7
:105250001A080E94310C823101F580E00E941A0880
:105260000E94310C811119C084E08093EA0215E597
:1052700019A741E050E0BE01675D7F4F8BE190E0F0
:105280000E946A0718A741E050E0BE01685D7F4FA9
:105290008AE190E00E946A07ADCD109279030E94E6
:1052A000640A8DEA92E00E94AD0960E177E280E055
:1052B00090E00E94A103F0E0E0E00995FFCF843088
:1052C000F9F4F80184819581A681B7810196A11D29
:1052D000B11D84839583A683B7830E94D403641988
:1052E000750986099709A70196010E94AE31A901A7
:1052F00063E0C8010E949D16AAA5BBA52C9235CEDD
:10530000813059F5F80142AD53AD64AD75AD9E01E4
:105310002F5F3F4FC8010E943318382EF2E08F13E1
:1053200092C089819A81AB81BC81F8018483958385
:10533000A683B7830E94D403641975098609970967
:10534000A70196010E94AE31A90163E0C8010E9445
:105350009D16AAA5BBA53C9208CE823009F005CEC9
:10536000F80142AD53AD64AD75AD9E012F5F3F4F67
:10537000C8010E943318382EF5E08F135DC0E3E0BA
:10538000AAA5BBA5EC93F80182A193A1A4A1B5A104
:10539000892B8A2B8B2B41F484E893E0A0E0B0E0CA
:1053A00082A393A3A4A3B5A3F80186A197A1A0A566
:1053B000B1A5892B8A2B8B2B61F482A193A1A4A187
:1053C000B5A1B695A7959795879586A397A3A0A70E
:1053D000B1A7F80182A593A5A4A5B5A5892B8A2B11
:1053E0008B2BA9F482A193A1A4A1B5A1AC01BD010D
:1053F00023E076956795579547952A95D1F7841BB5
:10540000950BA60BB70B82A793A7A4A7B5A7F80186
:1054100086A197A1A0A5B1A586A797A7A0ABB1AB80
:1054200082A593A5A4A5B5A582AB93ABA4ABB5AB60
:1054300088248394912C99CDF6E08F1304C0AAA5FB
:10544000BBA51C9292CDBFEF3B128FCDEAA5FBA569
:1054500010828BCD8091E4059091E505019709F0CC
:105460008FCE61E085E00E94CE0261E084E00E9480
:10547000CE0260E085E00E94A00260E084E00E942D
:10548000A0028091CB059091CC0597FF22C00E948D
:10549000D403EBE6F4E050E040E026E1249FD001A5
:1054A000259FB00D11248D0105591B4FD801322FB6
:1054B0001D923A95E9F760837183828393834F5FEE
:1054C0005F4F76964031510549F71092CC05109206
:1054D000CB058091CB059091CC054097CCF5EBE6C0
:1054E000F4E090E080E024813581232B09F0DEC0D8
:1054F00026813781232B09F0D9C026E1289F80011E
:10550000299F100D112405591B4F84EF91E0A0E055
:10551000B0E0F80183879487A587B68788E790E293
:10552000958384831286108A178681E0838B0E947C
:10553000D403D8016D937D938D939C9313978091A1
:10554000CB059091CC0501969093CC058093CB052B
:1055500061E080E00E94CE02CC24CA9493E0D92E70
:1055600020E0A22E20E0B22E8DEC95E00E94F719EB
:105570008FE00E946703B601681B790B76956795EB
:105580007695679583E00E940A0364E670E080E008
:1055900090E00E94A1038EE00E9467031BA21AA262
:1055A0001DA21CA21FA21EA2BC01990F880B990B61
:1055B0000E944C3020E030E040EA50E40E94873006
:1055C00020E030E040E85AE30E9487302AE037EDDF
:1055D00043E25CE30E94DF318E010F5F1F4F22E048
:1055E00044E00E948C2B7C01009709F46DC0FC0103
:1055F00001900020E9F731978F01081B190BB801C2
:10560000CE0182960E94D3172AA13BA1811155C0D9
:105610002115310519F0C9010E94462C1BA21AA2BE
:105620001FA21EA21DA21CA28091590490915A048F
:10563000009709F451C06AA17BA16115710509F4B5
:1056400049C040915B0450915C042EA13FA14217D8
:10565000530708F43FC00E9441338EA19FA190934D
:105660005E0480935D041FA21EA28AA19BA10097E5
:1056700011F00E94462C82E00E94910940915D0445
:1056800050915E046091590470915A048FE594E042
:105690000E943A04A114B10409F466CF0E94A40444
:1056A000882309F461CF0E9400005ECF01967696B0
:1056B0008031910509F017CF4BCF1FA30EA3B7017F
:1056C000C9010E944133B0CF8AA19BA1009709F084
:1056D000A3CFA4CF0E94462C8AA19BA190935A04E9
:1056E000809359048CA19DA190935C0480935B04EA
:1056F0008EA19FA190935E0480935D041BA21AA2C9
:105700001DA21CA2B0CF8091590490915A04009719
:1057100011F00C94462C0895EF920F931F93CF93A2
:10572000DF93E80134E047FD34E1042E000C550B13
:1057300057FF03C0519541955109E32E022F242FA5
:10574000AE010E94032ECE01DF91CF911F910F91E8
:10575000EF9008950F931F93CF93DF9382309105BD
:1057600010F482E090E0E0911006F091110630E034
:1057700020E0B0E0A0E0309799F42115310509F45C
:105780004AC0281B390B24303105D8F58A819B810A
:105790006115710589F1FB0193838283FE0111C0BC
:1057A000408151810281138148175907E0F0481761
:1057B000590799F4109761F012960C93129713966B
:1057C0001C933296CF01DF91CF911F910F910895D5
:1057D0000093100610931106F4CF2115310551F0F6
:1057E0004217530738F0A901DB019A01BD01DF011F
:1057F000F801C1CFEF01F9CF909311068093100605
:10580000CDCFFE01E20FF31F819391932250310916
:1058100039832883D7CF20910E0630910F06232B92
:1058200041F4209125013091260130930F062093F9
:105830000E0620912301309124012115310541F4F8
:105840002DB73EB74091270150912801241B350BFD
:10585000E0910E06F0910F06E217F307A0F42E1B5D
:105860003F0B2817390778F0AC014E5F5F4F2417C4
:10587000350748F04E0F5F1F50930F0640930E06FA
:10588000819391939FCFF0E0E0E09CCFCF93DF93A3
:105890000097E9F0FC01329713821282A091100662
:1058A000B0911106ED0130E020E01097A1F42081C5
:1058B0003181820F931F20910E0630910F06281719
:1058C000390709F061C0F0930F06E0930E06DF91EF
:1058D000CF910895EA01CE17DF07E8F54A815B8191
:1058E0009E0141155105B1F7E901FB83EA83499116
:1058F0005991C40FD51FEC17FD0761F48081918188
:105900000296840F951FE901998388838281938190
:105910009B838A83F0E0E0E012968D919C9113972F
:105920000097B9F52D913C911197CD010296820F08
:10593000931F20910E0630910F062817390739F66C
:10594000309751F51092110610921006B0930F0681
:10595000A0930E06BCCFD383C28340815181840FB4
:10596000951FC817D90761F44E5F5F4F88819981F1
:10597000480F591F518340838A819B81938382837F
:105980002115310509F0B0CFF0931106E093100610
:105990009ECFFD01DC01C0CF13821282D7CF8F9240
:1059A0009F92AF92BF92CF92DF92EF92FF92CF93EE
:1059B000DF93EC01688179818A819B816115710592
:1059C0008105910521F464E279ED8BE597E02DE105
:1059D00033EF41E050E00E94453149015A019B01FB
:1059E000AC01A7EAB1E40E9464316B017C01ACEE2A
:1059F000B4EFA50194010E947231C60ED71EE81EB5
:105A0000F91EF7FE06C081E0C81AD108E10880E857
:105A1000F80AC882D982EA82FB82C701B6019F7761
:105A2000DF91CF91FF90EF90DF90CF90BF90AF903C
:105A30009F908F9008958F929F92AF92BF92CF9236
:105A4000DF92EF92FF926091290170912A0180917B
:105A50002B0190912C01611571058105910521F4AF
:105A600064E279ED8BE597E02DE133EF41E050E022
:105A70000E94453149015A019B01AC01A7EAB1E4FA
:105A80000E9464316B017C01ACEEB4EFA50194017E
:105A90000E947231C60ED71EE81EF91EF7FE06C020
:105AA00081E0C81AD108E10880E8F80AC09229010B
:105AB000D0922A01E0922B01F0922C01C701B6018D
:105AC0009F77FF90EF90DF90CF90BF90AF909F9027
:105AD0008F9008956093290170932A0180932B0180
