:100000000C9462010C948A010C948A010C948A016C
:100010000C948A010C948A010C948A010C948A0134
:100020000C948A010C948A010C948A010C948A0124
:100030000C948A010C948A010C948A010C948A0114
:100040000C9434220C948A010C94A4220C947E22E9
:100050000C948A010C948A010C948A010C948A01F4
:100060000C94D6220C948A0100407A10F35A00A016
:10007000724E18090010A5D4E80000E87648170071
:1000800000E40B54020000CA9A3B000000E1F505B1
:10009000000080969800000040420F000000A086FB
:1000A00001000000102700000000E803000000002D
:1000B0006400000000000A000000000001000000D1
:1000C00000002C76D888DC674F0823DFC1DFAE59EB
:1000D000E1B1B796E5E3E453C63AE651997696E87E
:1000E000E6C28426EB898C9B62ED407C6FFCEFBC02
:1000F0009C9F40F2BAA56FA5F490055A2AF75C932D
:100100006B6CF9676DC11BFCE0E40D47FEF520E662
:10011000B500D0ED902E0300943577050080841E45
:10012000080000204E0A000000C80C333333330FA0
:10013000986E12831141EF8D2114893BE65516CF3D
:10014000FEE6DB18D1844B381BF77C1D901DA4BB49
:10015000E424203284725E228100C9F124ECA1E5FE
:100160003D27626C6E6B696E660076657200312E9B
:10017000322E3000682D626561740034350062757E
:1001800066662D696E003235360064657600417210
:100190006475696E6F20556E6F0063707500415411
:1001A0006D6567613332385000636F6E00573531CB
:1001B00030300066772D7479706500544D504C33A3
:1001C000416834363979444D006275696C64004D7C
:1001D000617920203520323032332031303A3132CB
:1001E0003A323800000000000000240027002A00F6
:1001F00000000000250028002B0000000000230064
:100200002600290004040404040404040202020277
:1002100002020303030303030102040810204080C9
:100220000102040810200102040810200000000848
:1002300000020100000304070000000000000000AD
:100240008D018D018D018D018D018D018D018D013E
:100250008D018D018D018D018D018D018D018D012E
:100260008D018D018D018D018D018D018D018D011E
:100270008D018D018D018D018D018D018D018D010E
:10028000910A8C016D0A8C014D0A270A8C018C01A0
:100290008C018C018C018C018C018C018C018C01F6
:1002A0008C018C018C018C018C018C018C018C01E6
:1002B0008C018C018C018C018C018C018C018C01D6
:1002C0008124ED2D11241FBECFEFD8E0DEBFCDBFBE
:1002D00013E0A0E0B1E0E4EEFCE602C005900D9270
:1002E000A031B107D9F726E0A0E1B3E001C01D922B
:1002F000A535B207E1F711E0C1E6D1E004C02197CE
:10030000FE010E946635C036D107C9F70E9421263A
:100310000C9465360C940000089508958CBD9DBD25
:10032000089520E3FC0120833296862F82958F70FA
:100330006F706A3030F4605D6293682F8111F5CF81
:100340000895695CF9CFFC01818D928D0895833009
:1003500081F028F4813099F08230A9F00895873037
:10036000A9F08830C9F08430B1F4809180008F7D8D
:1003700003C0809180008F7780938000089584B5BA
:100380008F7784BD089584B58F7DFBCF8091B000B9
:100390008F778093B00008958091B0008F7DF9CF62
:1003A0001F93CF93DF93282F30E0F901E45DFD4FD9
:1003B0008491F901E85EFD4FD491F901EC5FFD4FA6
:1003C000C491CC23A9F0162F81110E94A701EC2F14
:1003D000F0E0EE0FFF1FE051FE4FA591B4918FB7F3
:1003E000F894EC91111108C0D095DE23DC938FBFF7
:1003F000DF91CF911F910895DE2BF8CFCF93DF933C
:1004000090E0FC01E85EFD4F24918C5F9D4FFC0164
:1004100084918823C9F090E0880F991FFC01EA516C
:10042000FE4FA591B491FC01E051FE4FC591D491CE
:1004300061110DC09FB7F8948C91209582238C9305
:100440008881282328839FBFDF91CF910895623050
:1004500051F49FB7F8943C91822F809583238C931D
:10046000E8812E2BEFCF8FB7F894EC912E2B2C93A5
:100470008FBFEACF1F93CF93DF93182FEB0161E07B
:100480000E94FE01209739F460E0812FDF91CF9127
:100490001F910C94D001CF3FD10511F461E0F5CF4D
:1004A000E12FF0E0E45DFD4FE491E33031F140F401
:1004B000E130B1F0E230E1F0C038D1057CF7E4CFB3
:1004C000E73029F1E83059F1E430B1F7809180004C
:1004D000806280938000D0938B00C0938A0004C018
:1004E00084B5806884BDC7BDDF91CF911F91089509
:1004F00084B5806284BDC8BDF7CF809180008068DC
:1005000080938000D0938900C0938800EDCF8091C4
:10051000B00080688093B000C093B300E5CF8091B5
:10052000B00080628093B000C093B400DDCF8E3005
:1005300008F08E508770806480937C0080917A00F0
:10054000806480937A0080917A0086FDFCCF809150
:1005500078009091790008953FB7F8948091420413
:1005600090914304A0914404B091450426B5A89B02
:1005700005C02F3F19F00196A11DB11D3FBFBA2F35
:10058000A92F982F8827BC01CD01620F711D811DF5
:10059000911D42E0660F771F881F991F4A95D1F77A
:1005A00008958F929F92AF92BF92CF92DF92EF9277
:1005B000FF926B017C010E94AC024B015C01C114F3
:1005C000D104E104F104B9F00E94AC026819790980
:1005D0008A099B09683E73408105910580F321E0FB
:1005E000C21AD108E108F10888EE880E83E0981E4F
:1005F000A11CB11CE4CFFF90EF90DF90CF90BF9093
:10060000AF909F908F9008952FB7F89460913E041B
:1006100070913F0480914004909141042FBF089550
:100620000895089508954F925F926F927F92AF92CE
:10063000BF92CF92DF92EF92FF920F931F93CF93CF
:10064000DF93EC016B017B01E40EF51E8B01580179
:10065000AC18BD080E151F0511F10E940403688730
:1006600079878A879B87E881F9810284F385E02D69
:10067000CE01099597FF23C00E9404034884598442
:100680006A847B8464197509860997094C805D80AA
:100690006E807F80641575058605970520F3C5017A
:1006A000DF91CF911F910F91FF90EF90DF90CF904E
:1006B000BF90AF907F906F905F904F900895F8013A
:1006C00081938F01C4CFAF92BF92CF92DF92EF920E
:1006D000FF920F931F93CF93DF936C017B018B01EC
:1006E000040F151FEB015E01AE18BF08C017D1073C
:1006F00059F06991D601ED91FC910190F081E02DC6
:10070000C6010995892B79F7C501DF91CF911F911A
:100710000F91FF90EF90DF90CF90BF90AF90089532
:10072000FC01538D448D252F30E0842F90E0821BF7
:10073000930B541710F0CF96089501970895FC017C
:10074000918D828D981761F0A28DAE0FBF2FB11DD4
:100750005D968C91928D9F5F9F73928F90E008952C
:100760008FEF9FEF0895FC01918D828D981731F0E6
:10077000828DE80FF11D858D90E008958FEF9FEF3A
:100780000895FC01918D228D892F90E0805C9F4F10
:10079000821B91098F739927089583E694E00E9444
:1007A000C10321E0892B09F420E0822F089580E025
:1007B00090E0892B29F00E94CD0381110C94000058
:1007C0000895FC01A48DA80FB92FB11DA35ABF4FE6
:1007D0002C91848D90E001968F739927848FA68940
:1007E000B7892C93A089B1898C91837080648C9394
:1007F000938D848D981306C00288F389E02D808143
:100800008F7D80830895EF92FF920F931F93CF9374
:10081000DF93EC0181E0888F9B8D8C8D98131AC03B
:10082000E889F989808185FF15C09FB7F894EE8922
:10083000FF896083E889F98980818370806480837F
:100840009FBF81E090E0DF91CF911F910F91FF90CA
:10085000EF900895F62E0B8D10E00F5F1F4F0F7372
:100860001127E02E8C8D8E110CC00FB607FCFACF2D
:10087000E889F989808185FFF5CFCE010E94E103E7
:10088000F1CFEB8DEC0FFD2FF11DE35AFF4FF082FE
:100890009FB7F8940B8FEA89FB8980818062CFCF64
:1008A000682F83E694E00C940304CF93DF93EC016C
:1008B000888D8823B9F0AA89BB89E889F9898C9148
:1008C00085FD03C0808186FD0DC00FB607FCF7CF04
:1008D0008C9185FFF2CF808185FFEDCFCE010E9404
:1008E000E103E9CFDF91CF91089520915203260FC4
:1008F0003327331F21323105ECF420919B03FC0197
:1009000090E080E0243069F082E00895A0915203E5
:100910002191AC014E5C5C4FA40FB52FB11D2C93FF
:100920000196861798F380915203680F60935203E3
:1009300080E0089581E0089510929B0381E0809308
:100940009A031092750361E082E10E94D00161E098
:1009500083E10E94D001E9EBF0E080818E7F80830B
:1009600080818D7F808388E48093B80085E48093C4
:10097000BC000895CF93DF9391E0909331038823D7
:10098000B9F0C091B800D091BA008091BC008A7BC8
:100990008093BC0060E082E10E94D00160E083E1CE
:1009A0000E94D0010E949C04D093BA00C093B8006A
:1009B000DF91CF910895E091CA038091C903E817B0
:1009C00030F4F0E0EF5EFC4F808190E008958FEF0F
:1009D0009FEF08959091CA038091C9032FEF3FEFD5
:1009E000981748F4E92FF0E0EF5EFC4F208130E0EB
:1009F0009F5F9093CA03C90108958091C9039091A4
:100A0000CA03891B990B0895CF92DF92EF92FF9250
:100A10000F931F93CF93DF937C01CB018A01209129
:100A2000A103222389F0EB016B01C40ED51ECC1566
:100A3000DD0569F06991D701ED91FC910190F0819C
:100A4000E02DC7010995F3CF642F0E947504C801FA
:100A5000DF91CF911F910F91FF90EF90DF90CF909A
:100A60000895CF93DF931F92CDB7DEB769832091AE
:100A7000A1032223F9F02091C703203258F021E08E
:100A800030E0FC013383228390E080E00F90DF911F
:100A9000CF9108958091C803E82FF0E0EE55FC4F08
:100AA000998190838F5F8093C8038093C70381E00F
:100AB00090E0ECCF61E0CE0101960E947504F7CF83
:100AC000CF92DF92EF92FF920F931F93CF93DF931A
:100AD000FC01C48121E02093A103C093C2031092C2
:100AE000C8031092C7038385682B80E095E00E94BD
:100AF0003105D091C703D13208F092C00E94AC02F8
:100B00006B017C0180919B03811165C082E0809321
:100B10009B0381E080939A038FEF80939903109257
:100B20009803D0939703A2EAB3E0E7E7F3E080E00D
:100B3000D81385C01092760380917603CC0FC82B12
:100B4000C093760380917503813009F07CC01092C8
:100B500075030E94AC026B017C0180917603809347
:100B6000BB0080919D0390919E03A0919F03B09143
:100B7000A003892B8A2B8B2B99F00E94AC02009149
:100B80009D0310919E0320919F033091A0036C1947
:100B90007D098E099F090617170728073907E0F115
:100BA0008091BC0083FDD9CF85EC8093BC000E946E
:100BB000AC026B017C0180919B03823009F445C03B
:100BC000809199038F3F61F180919903803241F1C7
:100BD0008091990325C080919D0390919E03A091DF
:100BE0009F03B091A003892B8A2B8B2B09F48ACF0A
:100BF0000E94AC0200919D0310919E0320919F03DF
:100C00003091A0036C197D098E099F0906171707FB
:100C10002807390708F076CF80919C030E94BA0418
:100C20001092C8031092C7031092A103DF91CF91D5
:100C30001F910F91FF90EF90DF90CF9008959D91BD
:100C400091938F5F75CF85EEB0CF80919D0390918A
:100C50009E03A0919F03B091A003892B8A2B8B2B1D
:100C600009F4A9CF0E94AC0200919D0310919E034C
:100C700020919F033091A0036C197D098E099F0973
:100C8000061717072807390708F095CFC5CFFC01CD
:100C900020812EBD9B012150310941F051810DB4BD
:100CA00007FEFDCF4EB55EBD4193F5CF6150710992
:100CB000860F971F0DB407FEFDCF2EB5FC012083D4
:100CC0000895E091CC03F091CD0380819091CB0306
:100CD000892B80830895E091CC03F091CD0390811E
:100CE0008091CB0380958923808308958EBD000079
:100CF0000DB407FEFDCF8EB50895AF92BF92CF928F
:100D0000DF92EF92FF920F931F93CF93DF93CDB7B4
:100D1000DEB728970FB6F894DEBF0FBECDBF8C01AB
:100D20007B016A01809162048333E1F45801A40ECF
:100D3000B51EA016B10609F46FC00E946B0680EFC5
:100D40000E947606812F0E947606802F0E947606EA
:100D50000F5F1F4FF70181917F010E9476060E946D
:100D60006106E7CF5B01A40EB51E8433C1F40E9477
:100D70006B0619830A838D2D80688B83CC8264E097
:100D800070E0CE0101960E944706AE14BF0409F43C
:100D900041C0F70181917F010E947606F6CF0E9443
:100DA0006B060F3F110509F028F419820A8384E0CD
:100DB0008B830CC017FD17C019820A8333E0169588
:100DC00007953A95E1F7007E0C600B8386E0C81624
:100DD000D104A0F5F701DE011496EA15FB0599F0A0
:100DE00081918D93FACFC80126E0969587952A9533
:100DF000E1F7807E19830A830115104C10F4846199
:100E0000D7CF8C61D5CFB6016D5F7F4FCE010196F4
:100E10000E9447060E946106C60128960FB6F89404
:100E2000DEBF0FBECDBFDF91CF911F910F91FF901D
:100E3000EF90DF90CF90BF90AF90089563E070E0A7
:100E4000CE0101960E944706F70181917F010E9421
:100E50007606AE14BF04C1F7DDCFCF93DF931F92A8
:100E6000CDB7DEB7898341E050E0BE016F5F7F4FB1
:100E700090E080E00E947D060F90DF91CF91089571
:100E800090E020916204233339F40C96982F990F47
:100E9000990F990F80E008954896F8CFDA01E09114
:100EA000CF03F0E0FE2FEE27E60FF71F90E0982F1C
:100EB0008827A901BD018E0F9F1F0C947D06CF933B
:100EC000DF9300D0CDB7DEB779836A8322E030E0CC
:100ED000AE014F5F5F4F60E170E00E944E070F90E0
:100EE0000F90DF91CF910895CF93DF9300D0CDB7CE
:100EF000DEB779836A8322E030E0AE014F5F5F4F57
:100F000064E070E00E944E070F900F90DF91CF9148
:100F10000895CF93DF931F92CDB7DEB72091CF0313
:100F200030E0322F2227260F371F90E0982F882796
:100F3000498341E050E0BE016F5F7F4F820F931FF6
:100F40000E947D060F90DF91CF910895CF93DF939C
:100F50001F92CDB7DEB76983DC01ED91FC91028071
:100F6000F381E02D41E050E0BE016F5F7F4F0995B6
:100F70000F90DF91CF910895FC019485FB0184854A
:100F8000981303C081E0943008F080E00895CF9377
:100F9000DF931F92CDB7DEB76983DC01ED91FC9141
:100FA0000280F381E02D41E050E0BE016F5F7F4F92
:100FB00009950F90DF91CF9108950895FF920F93B7
:100FC0001F93CF93DF93EB01FC01178A168A2A81C6
:100FD000211109C02B81211106C02C81211103C0D0
:100FE0002D81222301F141155105E9F08A01FC010F
:100FF000F08C80E591E00E948E01AE014E5F5F4F64
:1010000024E030E06CE070E08F2D0E944E07B801C4
:101010008F2D0E945F0781E090E0DF91CF911F91BB
:101020000F91FF90089580E0F7CFFC0184859585AE
:101030000895FC018489958908952BEC31E0FC0129
:1010400031832083FB014089518962897389FC01C6
:1010500042835383648375830895DC01ED91FC9191
:10106000048CF58DE02D099490E080E008958EE0E9
:101070000E949702BC01990F880B990B0E94B6320F
:1010800020E030E040EA50E40E94153320E030E0F8
:1010900040E85AE30E9415332AE037ED43E25CE36F
:1010A0000E946D34089590E080E00E94500490E02A
:1010B00080E00C94500490E080E00E94500481E0B5
:1010C00090E00C945004CF9380E390E00E94500491
:1010D00083E694E00E94C103892BD1F383E694E078
:1010E0000E949F03C82F8093100383E694E00E9420
:1010F000C103892BD1F383E694E00E949F0320E093
:101100003C2FA901482BCA01CF910895EF92FF927D
:101110000F931F93CF93DF9300D000D000D0CDB7B3
:10112000DEB7DC01AB0118966D917C9119978D911A
:101130009C911197FC012081318161157105B9F0F5
:10114000D9015096ED91FC91099521E0019709F0A4
:1011500020E0822F26960FB6F894DEBF0FBECDBFDB
:10116000DF91CF911F910F91FF90EF900895F901BA
:10117000E684F7842BEC31E03A83298314960D91B1
:101180001D912D913C9117970B831C832D833E83DA
:10119000BE016F5F7F4FF701D7CFFC019485992384
:1011A00069F080819181DC01ED91FC910688F789DD
:1011B000E02D099591E0811101C090E0892F0895FB
:1011C000DC011C961C921C978D919C91009739F024
:1011D000DC01ED91FC910488F589E02D09940895D6
:1011E000FC01768765870895DC01ED91FC9102A0F2
:1011F000F3A1E02D099591E089270895862F0895A0
:1012000081E08627089521E0FC018485843008F080
:1012100020E0822F089508950F931F93CF938C01A0
:10122000C62F0E9460056C2F6460C8010E94600593
:101230006C2F6B7FC8010E94600583EC90E00197E2
:10124000F1F7CF911F910F9108950F931F93CF93B3
:10125000DF938C01D62FC42F607F642B0E940C0972
:1012600080E1D89FB00111246C2BC801DF91CF9190
:101270001F910F910C940C09CF93DF93CDB7DEB77C
:1012800028970FB6F894DEBF0FBECDBF98E0EDE211
:10129000F1E0DE01119601900D929A95E1F790919F
:1012A0005005961708F46FEF262F30E0220F331FFA
:1012B00041E050E04C0F5D1F240F351FF9016081A4
:1012C000680F606840E088E495E028960FB6F894CF
:1012D000DEBF0FBECDBFDF91CF910C94250941E059
:1012E0000E94250981E090E008958F929F92AF922D
:1012F000BF92EF92FF920F931F93CF93DF93CDB7DF
:10130000DEB7A1970FB6F894DEBF0FBECDBF7C014C
:10131000FA01CB0119A2223008F42AE08E010F5DF8
:101320001F4F822E912CB12CA12CBF01A50194013D
:101330000E943C34F901CA016A3074F5605DD8013D
:101340006E938D01232B242B252B79F790E080E0E1
:10135000109789F0FD0101900020E9F73197AF0166
:101360004A1B5B0BD701ED91FC910280F381E02DCC
:10137000B801C7010995A1960FB6F894DEBF0FBE5C
:10138000CDBFDF91CF911F910F91FF90EF90BF9054
:10139000AF909F908F900895695CD1CF8F929F926C
:1013A000AF92BF92CF92DF92EF92FF920F931F9373
:1013B000CF93DF937C01EB016C0182E0C80ED11C5E
:1013C0004701E5E08E0E911C10E000E0F60141912E
:1013D0006F0150E070E060E02AE0CE010E947509E4
:1013E0005C01E881F9810190F081E02D6EE2CE018F
:1013F00009958A0D9B1D080F191FC814D90431F7D0
:10140000F701458150E070E060E02AE0CE010E94E3
:101410007509800F911FDF91CF911F910F91FF9060
:10142000EF90DF90CF90BF90AF909F908F900895F6
:10143000FC0101900020E9F73197AF01481B590BDF
:10144000BC0188E495E00C9463030C94B02EFB017E
:10145000808191810E94DD2F892B81F081E090E0D5
:101460000E94500481E090E00E94500461E087E017
:101470000E943C098DEC91E00C94180A81E090E008
:101480000E94500490E080E00E94500461E087E0F8
:101490000E943C0987ED91E0EFCFFB0180819181B3
:1014A0000E94DD2F21E0009709F420E020933A0408
:1014B000892B51F00E945B0861E087E00E943C09A3
:1014C00081EE91E00C94180A0E94530861E087E0D5
:1014D0000E943C098BEE91E0F5CFFB018081918168
:1014E0000E94DD2F21E0009709F420E020933904C9
:1014F000892B61F061E085E00E94D00160E087E027
:101500000E943C0985EF91E00C94180A60E085E0A8
:101510000E94D00160E087E00E943C098FEF91E0DB
:10152000F3CFFB01808191810E94DD2F892B61F037
:1015300061E084E00E94D00160E087E00E943C0905
:1015400089E092E00C94180A60E084E00E94D001E7
:1015500060E087E00E943C0983E192E0F3CFAF9224
:10156000BF92CF92DF92EF92FF920F931F93CF9390
:10157000DF9300D000D0CDB7DEB78C016B017A01CC
:10158000809162048333E9F45B016801C40ED51EC7
:10159000C016D106A9F10E946B068FE00E94760664
:1015A000812F0E947606802F0E9476060F5F1F4FC4
:1015B00080E00E947606F50181935F010E9461063A
:1015C000E7CF843369F50E946B0619830A838F2D58
:1015D0008F778B83EC8264E070E0CE0101960E94ED
:1015E0004706A70170E060E0C6010E943F36E114A3
:1015F000F10421F0B701C6010E9447060E9461066E
:10160000C7010F900F900F900F90DF91CF911F9116
:101610000F91FF90EF90DF90CF90BF90AF90089523
:101620000E946B060F3F110509F030F419820A83FE
:101630001B8263E070E0D1CF17FD0BC019820A83D3
:1016400033E0169507953A95E1F7007E08600B8325
:10165000F0CFC80126E0969587952A95E1F7807E20
:1016600019830A830115104C18F480618B83E1CF34
:101670008861FCCFCF93DF931F92CDB7DEB7209167
:10168000CF0330E0322F2227260F371F90E0982F0C
:10169000882741E050E0BE016F5F7F4F820F931FAC
:1016A0000E94AF0A89810F90DF91CF910895CF9367
:1016B000C82F462F61E070E00E94890761E070E06A
:1016C0008C2F0E943A0B8111F9CFCF910895CF93BF
:1016D000C82F80E591E00E948E0168E070E08C2FB9
:1016E000CF910C94570BCF93C82F80E591E00E94C7
:1016F0008E0160E170E08C2FCF910C94570BCF934B
:10170000DF93EC01888D843020F40E94730B84E019
:10171000888FDF91CF910895CF93C82F80E591E016
:101720000E948E0163E070E08C2FCF910C943A0BF5
:10173000CF93DF93EC018C858430D0F40E948C0B26
:10174000843189F0882379F0883169F021E08C3187
:1017500059F4E881F9810084F185E02DCE010995E5
:1017600021E0892B09F420E0822FDF91CF910895A9
:1017700080E0FBCFCF92DF92EF92FF92CF93DF9387
:10178000EC018C85843068F40E94670B0E9404038E
:101790006B017C018C850E948C0B811109C084E057
:1017A0008C87DF91CF91FF90EF90DF90CF900895DD
:1017B00061E070E080E090E00E94D1020E940403AA
:1017C000AB01BC014C195D096E097F098D859E85B1
:1017D000B0E0A0E0481759076A077B07D8F28C856C
:1017E0000E94730BDCCFCF93FC01C08D80E591E0AC
:1017F0000E948E0160E270E08C2F0E94570B62E025
:1018000070E08C2F0E943A0B84FD16C062E070E0FD
:101810008C2F0E943A0B83FF0AC048E162E070E01F
:101820008C2F0E94890780E090E0CF91089580E599
:1018300091E00E948E01E3CF40E162E070E08C2FE6
:101840000E94890781E0F0CFCF93DF931F92CDB73D
:10185000DEB741E050E0BE016F5F7F4F90E080E077
:101860000E94AF0A89810F90DF91CF910895CF93A5
:10187000DF93C4E1D0E00E94240C882361F061E092
:1018800070E080E090E00E94D1022197A1F780E013
:10189000DF91CF91089581E0FBCF1F93CF93DF932A
:1018A0001F92CDB7DEB7182F80E591E00E948E0120
:1018B000812F0E94400727E0129FF0011124EA5B6C
:1018C000FB4F22813381377041E050E0BE016F5FF2
:1018D0007F4F820F931F0E94AF0A89810F90DF9183
:1018E000CF911F910895FC01808D843040F4218DAB
:1018F000328D232B21F00E944D0C90E008958FEF44
:101900009FEF0895CF93DF93FC012485243028F0C6
:101910008FEF9FEFDF91CF910895EC010190F0815F
:10192000E02D0084F185E02D0995892B89F38C85C4
:101930000E944D0C90E0EECFDA01E091CF03F0E091
:10194000FE2FEE27E60FF71F90E0982F8827A901BA
:10195000BD018E0F9F1F0C94AF0A8F929F92AF9282
:10196000BF92CF92DF92EF92FF921F93CF93DF93BC
:10197000CDB7DEB72C970FB6F894DEBF0FBECDBF44
:101980002091620414E0222339F16B017C0180E58F
:1019900091E00E948E015E0127E0A20EB11C45017C
:1019A00010E063E070E0812F0E943A0BF401819314
:1019B0004F01882349F11F5F143099F710E0F501BA
:1019C00081915F018D31D9F08831C9F08A5182301F
:1019D000B0F01F5F143099F7812F2C960FB6F89452
:1019E000DEBF0FBECDBFDF91CF911F91FF90EF9073
:1019F000DF90CF90BF90AF909F908F90089560E15F
:101A000070E0812F0E94570BA12EB12C83EE93E042
:101A10000197F1F742E870E060E0812F0E948907AA
:101A20004FEF62E070E0812F0E948907B601C11478
:101A3000D10491F4809121019091220101968115A8
:101A4000F0EC9F0708F45CC0909322018093210181
:101A50006091210170912201812F0E94740786E01C
:101A6000E5E3F1E0DE01119601900D928A95E1F730
:101A7000F70183818F778C8384818D8385818E8329
:101A8000A7014E5F5F4F24E030E06CE070E0812FF3
:101A90000E944E07B601812F0E945F0726E030E0CA
:101AA000AE014F5F5F4F66E070E0812F0E944E07EE
:101AB00061E070E0812F0E94570B27E02A9DC00152
:101AC0002B9D900D11249C012A5B3B4F7901F9015C
:101AD0001182108222E030E0AE01455F5F4F68E284
:101AE00070E0812F0E949C0C8B859C85982789270C
:101AF0009827F701938382831682158214826CCF14
:101B000080E090ECA1CFCF92DF92EF92FF920F9303
:101B10001F93CF93DF9300D000D000D0CDB7DEB7B6
:101B20008C016B017A01FC01808D843010F40E94DD
:101B3000730B8BEC91E09A838983F6018281938108
:101B4000A481B5818B839C83AD83BE83B701CE0115
:101B500001960E94AD0CF801808F8430A0F4F586C8
:101B6000E486128E118E81E026960FB6F894DEBFC1
:101B70000FBECDBFDF91CF911F910F91FF90EF90DE
:101B8000DF90CF90089580E0EFCFAF92BF92CF92D9
:101B9000DF92EF92FF920F931F93CF93DF9300D0CA
:101BA00000D000D0CDB7DEB7082F6B0180E591E003
:101BB0000E948E019E012F5F3F4F7901590110E075
:101BC00063E070E0812F0E943A0BF50181935F0181
:101BD000882341F11F5F143099F710E0F7018191DC
:101BE0007F018D31D1F08831C1F08A518230A8F067
:101BF0001F5F143099F7812F26960FB6F894DEBF39
:101C00000FBECDBFDF91CF911F910F91FF90EF904D
:101C1000DF90CF90BF90AF90089560E170E0812F8A
:101C20000E94570BE12EF12C83EE93E00197F1F720
:101C3000402F70E060E0812F0E9489074FEF62E043
:101C400070E0812F0E948907B601CD2889F4809128
:101C500021019091220101968115F0EC9F0798F1E6
:101C600090932201809321016091210170912201C2
:101C7000812F0E94740761E070E0812F0E94570B52
:101C800027E02E9DC0012F9D900D11249C012A5B01
:101C90003B4F7901F9011182108222E030E0AE0160
:101CA0004B5F5F4F68E270E0812F0E949C0C8D813A
:101CB0009E81982789279827F7019383828316822C
:101CC0001582148298CF80E090ECCACFCF92DF9239
:101CD000EF92FF921F93CF93DF93EC017B016A0198
:101CE0008C85843048F40E948C0B882319F08C85F5
:101CF0000E94670B84E08C87F70182819381A48125
:101D0000B5810097A105B10551F490E080E0DF9125
:101D1000CF911F91FF90EF90DF90CF9008958F3F6C
:101D20009F4FAF4FBF4F89F380916204811103C071
:101D300084E08C87EACF70E060E081E20E94C50D0C
:101D4000182F8C87843008F780E591E00E948E017F
:101D5000A7014E5F5F4F24E030E06CE070E0812F20
:101D60000E944E07B601812F0E945F0764E070E079
:101D7000812F0E94570B0E9404036B017C018C850C
:101D80000E948C0B873109F18C31F9F0882309F41A
:101D9000BCCF0E940403AB01BC014C195D096E0964
:101DA0007F098D859E85B0E0A0E084179507A60782
:101DB000B70738F061E070E080E090E00E94D10267
:101DC000DECF8C850E94730BB3CF81E090E09FCF74
:101DD0000F931F93CF93DF93EC018B01888D843099
:101DE00010F40E94730B80916204811107C094E08B
:101DF000988FDF91CF911F910F910895B80182E0E4
:101E00000E94C50D888F843030F41D870C871A8E90
:101E1000198E81E0EECF80E0ECCF7F928F929F927F
:101E2000AF92BF92CF92DF92EF92FF920F931F93E8
:101E3000CF93DF9300D0CDB7DEB7782E8B014A0168
:101E4000590122E030E0AE014F5F5F4F64E270E085
:101E50000E949C0CE980FA80FE24EF24FE24E00E10
:101E6000F11E9701377040916204072D10E0433353
:101E700009F042C0085F1F4F102F0027110F110FEC
:101E8000110FC901800F911F4733C9F1A9014A0DF4
:101E90005B1D4130584098F160E078E06B01C21A58
:101EA000D30AA601B4010E947D06A5014C195D0963
:101EB000B4016C0D7D1DC8010E947D06EA0CFB1C5F
:101EC000F982EA8222E030E0AE014F5F5F4F64E2C8
:101ED00070E0872D0E944E070F900F90DF91CF91F9
:101EE0001F910F91FF90EF90DF90CF90BF90AF9038
:101EF0009F908F907F900895005F1F4FBDCFA501E9
:101F0000B401DACFEF92FF921F93CF93DF9300D00B
:101F1000CDB7DEB7182F22E030E0AE014F5F5F4F44
:101F200060E270E00E949C0CE980FA80FE24EF24BD
:101F3000FE2422E030E0AE014F5F5F4F60E270E0D0
:101F4000812F0E949C0C89819A8198278927982744
:101F5000E816F90689F487E0189FF0011124EA5B7E
:101F6000FB4FF582E482C7010F900F90DF91CF9174
:101F70001F91FF90EF9008957C01DBCF1F93CF93CB
:101F8000DF93182F80E591E00E948E01812F0E943F
:101F9000820FEC0163E070E0812F0E943A0B8731E1
:101FA00021F08C3111F0D0E0C0E0CE01DF91CF9173
:101FB0001F910895CF93DF93EC018C85843060F4FA
:101FC0000E948C0B873111F08C3131F48C850E948A
:101FD000BE0F8115984088F3DF91CF910895FC01E1
:101FE0008485843010F40C94BE0F90E080E0089556
:101FF0009F92AF92BF92CF92DF92EF92FF920F9398
:102000001F93CF93DF938C015B01942EE52EFC018F
:10201000C688D788F08C80E591E00E948E018F2DD4
:102020000E94820FC92DDE2D8C179D0708F4EC014C
:102030009E01A501B6018F2D0E940D0FF801868922
:1020400097898C0F9D1F978B868BCE01DF91CF9147
:102050001F910F91FF90EF90DF90CF90BF90AF90C6
:102060009F9008958F929F92AF92BF92CF92DF92EE
:10207000EF92FF920F931F93CF936C015B018A0144
:10208000FC01C485C430F0F57A014130584018F0A5
:10209000E12C88E0F82E80E591E00E948E018C2FE3
:1020A0000E94820F4C0163E070E08C2F0E943A0B7B
:1020B000873111F08C3149F58E149F0460F380E56F
:1020C00091E00E948E019701A50170E060E08C2FE5
:1020D0000E940D0F60E270E08C2F0E94570B62E0AF
:1020E00070E08C2F0E943A0B84FD17C063E070E013
:1020F0008C2F0E943A0B81110BC081E090E0F60119
:102100009383828310E000E010C0F12CE12CD7CF44
:1021100080E591E00E948E01E2CF40E162E070E054
:102120008C2F0E948907EF2841F3C801CF911F919E
:102130000F91FF90EF90DF90CF90BF90AF909F9066
:102140008F900895FF920F931F93CF93DF9300D04A
:10215000CDB7DEB7F82E22E030E0AE014F5F5F4F23
:1021600066E270E00E949C0C09811A811027012709
:10217000102722E030E0AE014F5F5F4F66E270E073
:102180008F2D0E949C0C89819A81982789279827F6
:102190000817190749F4C8010F900F90DF91CF91EC
:1021A0001F910F91FF9008958C01E3CF1F93CF9360
:1021B000DF93182F87E0189FE0011124CA5BDB4FE3
:1021C00088819981009761F480E591E00E948E01F9
:1021D000812F0E94A2102E81821B910999838883EE
:1021E000DF91CF911F910895FC018485843010F414
:1021F0000C94D61090E080E008954F925F927F9209
:102200008F929F92AF92BF92CF92DF92EF92FF9206
:102210000F931F93CF93DF9300D0CDB7DEB7782E07
:102220006B014A01A82EB12C27E0829FC001112426
:10223000FC01EA5BFB4F7F010081118180E591E0A9
:102240000E948E010815190554F4872D0E94A210D2
:10225000F70126818C01021B1109118300830115EE
:10226000110529F563E070E0872D0E943A0B843157
:1022700059F0882349F001E010E08C3111F410E0AE
:1022800000E0119501951109C8010F900F90DF91A1
:10229000CF911F910F91FF90EF90DF90CF90BF9063
:1022A000AF909F908F907F905F904F900895801691
:1022B00091060CF4840187E08A9DF0018B9DF00D5E
:1022C0001124EA5BFB4FE280F380C114D10451F189
:1022D0002701F7E05F22872D0E944007840D951D9E
:1022E00020916204273309F453C09801240D351D51
:1022F0002130384008F44CC020E038E0490184180F
:102300009508A401B6010E94AF0A2601480C591C89
:102310006801C818D908872D0E944007A601B2019C
:102320000E94AF0AE00EF11E87E08A9DF0018B9DAE
:10233000F00D1124EA5BFB4FF382E28220813181B0
:10234000201B310B318320838681800F912F911DBB
:102350008A3F910510F4232BF1F487E08A9DF00168
:102360008B9DF00D1124EA5BFB4F1682F982EA8205
:1023700022E030E0AE014F5F5F4F68E270E0872DF2
:102380000E944E0760E470E0872D0E94570B7CCFBF
:10239000A801B601C5CF868377CFCF93DF93FC0129
:1023A000218D328D2115310529F48FEF9FEFDF91BB
:1023B000CF910895EC01808D4217530708F0A901D1
:1023C0000E94FD101816190684F7298D3A8D281BD6
:1023D000390B3A8F298FEBCF0F931F93CF93DF9356
:1023E0001F92CDB7DEB7FC01218D328D232B41F436
:1023F0008FEF9FEF0F90DF91CF911F910F91089575
:102400008C0141E050E0BE016F5F7F4FFC01808D89
:102410000E94FD10181619065CF7F801818D928D47
:102420000197928F818F898190E0E4CFCF93DF93E2
:102430001F92CDB7DEB741E050E0BE016F5F7F4F26
:10244000FC0184850E94FD101816190634F4898158
:1024500090E00F90DF91CF9108958FEF9FEFF9CF2C
:10246000FC018485843010F40C94FD1090E080E031
:1024700008950F931F93CF93DF9300D0CDB7DEB7AE
:10248000FC0124852430E0F48C0180E591E00E9479
:102490008E0122E030E0AE014F5F5F4F60E170E0FF
:1024A000F80184850E949C0C89819A81982789274C
:1024B00098270F900F90DF91CF911F910F91089562
:1024C00090E080E0F6CF0F931F93CF93DF9300D07F
:1024D000CDB7DEB7FC0124852430E0F48C0180E523
:1024E00091E00E948E0122E030E0AE014F5F5F4F2D
:1024F00064E070E0F80184850E949C0C89819A81D7
:102500009827892798270F900F90DF91CF911F91DF
:102510000F91089590E080E0F6CFDC018BEC91E024
:102520008D939D9384E0FB0101900D928A95E1F7D4
:102530000895EF92FF920F931F93CF93DF9300D0F4
:1025400000D0CDB7DEB78C017B01FB0184858430E0
:10255000A8F08BEC91E0F8019183808312821382C2
:1025600014821582C8010F900F900F900F90DF9189
:10257000CF911F910F91FF90EF90089580E591E02A
:102580000E948E0124E030E0AE014F5F5F4F6CE0AF
:1025900070E0F70184850E949C0CBE016F5F7F4F45
:1025A000C8010E948D12DECF0F931F93CF93DF934C
:1025B000CDB7DEB728970FB6F894DEBF0FBECDBFFC
:1025C0008C01D80159964D915C915A97411551054E
:1025D00051F0ED91FC91048CF58DE02D70E060E000
:1025E000C8010995EECFF801808D0E94D610892B85
:1025F000B1F148E050E0BE016F5F7F4FD8015896BF
:102600008C910E94FD1018161906F4F4D80150960A
:1026100084E0FE01319601900D928A95E1F78D815B
:1026200090E0982F88272E81820F911DF801958BBD
:10263000848B8F81282F30E0322F22278885820FCC
:10264000932F911D928F818F28960FB6F894DEBF3D
:102650000FBECDBFDF91CF911F910F91089590E0F4
:1026600080E0F2CF4F925F926F927F928F929F9213
:10267000AF92BF92CF92DF92EF92FF920F931F9390
:10268000CF93DF93CDB7DEB763970FB6F894DEBF75
:102690000FBECDBF7C016B013A01FB0120E090E051
:1026A00080E06AE03191332309F461C040ED430FCB
:1026B0004A3008F04DC0689FA001699F500D112459
:1026C000CA01C097830F911D37FD9A958F3F9105E1
:1026D00049F340F3F7014281538164817581809110
:1026E000380590913905A0913A05B0913B054817FE
:1026F00059076A077B0709F40DC28701085F1F4F5E
:102700000E9404036F7077277C5FC8010E94E80E67
:10271000813009F004C28BEC91E09A838983F70140
:1027200082819381A481B5818B839C83AD83BE8399
:1027300045E350E0BE016F5F7F4FC8010E94DE0796
:10274000892BA9F5D12CC12CC8010E947F0B17C081
:102750003E3209F0BFCF233009F4BCCFD301A20F22
:10276000B11D12968C932F5F90E080E09BCF2330B9
:1027700009F0B0CFF3018583CC24C394D12CC601DA
:1027800063960FB6F894DEBF0FBECDBFDF91CF9139
:102790001F910F91FF90EF90DF90CF90BF90AF907F
:1027A0009F908F907F906F905F904F9008950E94C0
:1027B0000403F7017783668342E050E0B7016A5F64
:1027C0007F4FC8010E94F80F81E090E09A838983CF
:1027D00042E050E0BE016F5F7F4FC8010E94F80FDA
:1027E00080E091E09A83898342E050E0BE016F5F10
:1027F0007F4FC8010E94F80F1A82198242E050E010
:10280000BE016F5F7F4FC8010E94F80F42E050E0A9
:10281000BE016F5F7F4FC8010E94F80F42E050E099
:10282000BE016F5F7F4FC8010E94F80F5601F6018D
:102830008081882301F16501F60181912F018823B0
:1028400011F08E32B1F446018A189B08181419044D
:1028500074F48D8641E050E0BE01635F7F4FC80194
:102860000E94F80FA401B501C8010E94F80F52019F
:10287000DECF6201E1CF1D8641E050E0BE01635F23
:102880007F4FC8010E94F80FC12CDD24D394DA8257
:10289000C98242E050E0BE016F5F7F4FC8010E94D5
:1028A000F80FDA82C98242E050E0BE016F5F7F4FCD
:1028B000C8010E94F80FC8010E94F30B892B09F48C
:1028C00041CFF3E0AF2EB12C230122E0420E511C88
:1028D000D4C0F7014281538164817581808D918DCF
:1028E000A28DB38D481759076A077B0709F008C105
:1028F000848D958DC59709F003C181A192A15DEFEB
:10290000C52EDD24DA940C970CF4ADC04CE050E0F9
:10291000BE016F5F7F4FC8010E94CD118B819C81EA
:102920009827892798279A8B898BF70146815781A9
:1029300029813A814217530709F0E7C097FFE5C0A4
:102940008F7092703BEFC32EDD24DA94892B09F04F
:102950008AC06F8078847624672476242AEFC22E7A
:10296000DD24DA946114710409F47DC0D12CC12CEA
:102970008D819E81982789279827C816D906F8F453
:1029800041E050E0BE01635F7F4FC8010E94CD115E
:102990004D85442331F050E070E060E0C8010E94B2
:1029A000CD118D858111ECCF44E050E070E060E006
:1029B000C8010E94CD11FFEFCF1ADF0AD9CF912CA9
:1029C000812C41E050E0BE016D5E7F4FC8010E9446
:1029D000CD114B89842F807C09F06CC0442331F0E9
:1029E00050E070E060E0C8010E94CD118B89811138
:1029F000E8CF42E050E0BE01615F7F4FC8010E9416
:102A0000CD1142E050E0BE01635F7F4FC8010E94DC
:102A1000CD1144E050E070E060E0C8010E94CD11AB
:102A200042E050E0BE016F5E7F4FC8010E94CD11B1
:102A30008F85988949895A898115914009F043C049
:102A4000CD84DE84DC24CD24DC2481E0C816D104CE
:102A5000D1F54115544009F04AC044E050E0B201BC
:102A6000C8010E94CD1121E0A21AB10809F46CCE70
:102A7000FFEFCF16DF0609F067CE0E9404033B018B
:102A80004C01C8010E94D412181619060CF421CF6B
:102A90000E94040366197709880999096938734106
:102AA0008105910548F562E370E080E090E00E94C6
:102AB000D102E7CF41E050E070E060E0C8010E9441
:102AC000CD111B8A93CF54274527542770E060E02F
:102AD000C8010E94CD11FFEF8F1A9F0A6814790474
:102AE00009F06FCF96EFC92EDD24DA94BCCFE7EF63
:102AF000CE2EDD24DA94B7CFCC24CA94DC2CB3CF0D
:102B00006EEFC62EDD24DA94AECF4CEFC42EDD245A
:102B1000DA94A9CF8EEFC82EDD24DA9430CED12CF2
:102B2000C12C2DCECF92DF92EF92FF920F931F9385
:102B3000CF93DF93CDB7DEB7AF970FB6F894DEBF74
:102B40000FBECDBF7C016A010BEC11E01A83098333
:102B50001C861B8688EE93E0A0E0B0E08D879E8700
:102B6000AF87B88B8FE391E09A878987188F0F8B97
:102B7000198E1A8E1B8E1C8E84E089A31BA70AA7B0
:102B80001CA61DA61EA61FA680912C0590912D05A2
:102B9000A0912E05B0912F058EA39FA3A8A7B9A73A
:102BA0008B839C83AD83BE8318861F82AE01465DF6
:102BB0005F4FCE0101960E94321381309105B1F42E
:102BC000D701ED91FC910488F589E02D1DA30CA39C
:102BD0008CA59DA5AEA5BFA58EA39FA3A8A7B9A7A9
:102BE000A601BE016C5D7F4FC7010995AF960FB678
:102BF000F894DEBF0FBECDBFDF91CF911F910F9133
:102C0000FF90EF90DF90CF900895CF92DF92EF92F8
:102C1000FF920F931F93CF93DF93CDB7DEB7AF979C
:102C20000FB6F894DEBF0FBECDBF8C016B017A01E9
:102C30008BEC91E09A8389831B821C821D821E8209
:102C40001C861B8648EE53E060E070E04D875E878F
:102C50006F87788B2FE331E03A872987988F8F8BA6
:102C6000198E1A8E1B8E1C8E24E029A39BA78AA77F
:102C70001CA61DA61EA61FA6D8011C968C918430EA
:102C800060F40E948C0B882321F0F80184850E9457
:102C9000670B84E0D8011C968C9380912C05909151
:102CA0002D05A0912E05B0912F058EA39FA3A8A757
:102CB000B9A78B839C83AD83BE8318861F82AE0128
:102CC000465D5F4FB601CE0101960E943213009718
:102CD000C1F0D801ED91FC910684F785E02D8BECD5
:102CE00091E09DA38CA38CA59DA5AEA5BFA58EA3A9
:102CF0009FA3A8A7B9A7A701BE016C5D7F4FC8011C
:102D00000995AF960FB6F894DEBF0FBECDBFDF9129
:102D1000CF911F910F91FF90EF90DF90CF9008958A
:102D20007F928F929F92AF92BF92CF92DF92EF925B
:102D3000FF920F931F93CF93DF93CDB7DEB7A69784
:102D40000FB6F894DEBF0FBECDBF8C01762E942E49
:102D5000852E20E2A22ECE0101967C01DC01EA2D17
:102D60001D92EA95E9F76801F3E4CF0ED11C8BECD4
:102D700091E09AA389A38FEF8BA38CA38DA38EA33D
:102D800043E450E0BE016F5D7F4FC6010E94DE0745
:102D9000019609F4BFC081E089838A8386E0B82E5A
:102DA000BB821C82D80114966D917D918D919C916E
:102DB00017970E94F4346D837E838F83988789866A
:102DC0009A8680E890E09C878B874CE150E0B701C1
:102DD000C6010E94F80FFE0137968AE1DF011D92BD
:102DE0008A95E9F74801B8E08B0E911CF401D701F0
:102DF00001900D92BA94E1F740E150E0B701C601AD
:102E00000E94F80FF7011192AA94E9F796E0A92E13
:102E1000B12C40E250E0B701C6010E94F80FF1E08A
:102E2000AF1AB108B1F783E6898392E89A8393E5F4
:102E30009B838C8385E38D8381E08E837F829DE3FA
:102E4000988797E099878A8786E0F401DE011B96D0
:102E500001900D928A95E1F78CE0898B8A8B6DE168
:102E600072E0CE0143960E944F36D8011B966C91BA
:102E7000CE0149960E949101F8016485CE014B96DE
:102E80000E949101D8011D966C91CE014D960E9431
:102E900091014EE150E0B701C6010E94F80FB3E086
:102EA0007B121EC082E3898384E08A83F8019685C1
:102EB0009B8397859C8390899D8391899E8396E3CC
:102EC0009F838887828D8987838D8A87848D8B876E
:102ED000858D8C874CE050E0B701C6010E94F80F49
:102EE00087E3898386E08A8391E09B8393E09C83D8
:102EF0008D838FE08E838AE38F838BE388878FEFC8
:102F0000898749E050E0B701C6010E94F80FC60169
:102F10000E94F30BA6960FB6F894DEBF0FBECDBF8E
:102F2000DF91CF911F910F91FF90EF90DF90CF90A5
:102F3000BF90AF909F908F907F9008950F931F93B5
:102F4000CF93DF93EC01FB0101900020E9F78F01A3
:102F5000061B170B8A819B81A801480F591F2C81E2
:102F60003D812417350768F028813981A801820F37
:102F7000931F0E9436364A815B81400F511F5B834D
:102F80004A83DF91CF911F910F91089561157105CB
:102F900099F4DC01ED91FC91119712962D913C91E1
:102FA0001397A9014F5F5F4F13965C934E9312974F
:102FB000E20FF31F108208950C949E170F931F9336
:102FC000CF93DF93EC0188819981009759F02A8192
:102FD0003B812617370730F081E0DF91CF911F91B9
:102FE0000F9108958B016F5F7F4F0E946C350097A2
:102FF00059F0998388831B830A832C813D81232B7D
:1030000059F7FC011082E8CF80E0E7CF85ED80938F
:10301000BC0080919D0390919E03A0919F03B0916D
:10302000A0030796A11DB11D23E0B695A79597951E
:1030300087952A95D1F72091BC0024FD03C01092FA
:103040009B03089540919D0350919E0360919F03BF
:103050007091A003452B462B472B69F30097A105E0
:10306000B10541F02AE22A95F1F700C00197A109C4
:10307000B109E1CF80919C030C94BA043F924F9226
:103080005F926F927F928F929F92AF92BF92CF92F8
:10309000DF92EF92FF920F931F93CF93DF93CDB701
:1030A000DEB7EA970FB6F894DEBF0FBECDBF7C0146
:1030B0002A013B0169010E9404034B015C01870165
:1030C0000D5B1F4FC8010E94D412181619069CF000
:1030D0000E940403681979098A099B094616570654
:1030E0006806790608F466C162E370E080E090E06B
:1030F0000E94D102E7CF42E250E0BE016F5F7F4FF6
:10310000C8010E94CD1189818230D1F0312C832DEC
:10311000EA960FB6F894DEBF0FBECDBFDF91CF9118
:103120001F910F91FF90EF90DF90CF90BF90AF90E5
:103130009F908F907F906F905F904F903F900895F9
:10314000F801848995898334910501F76D817E8129
:103150008F8198850E94F4344B015C01F6018082D6
:103160009182A282B38246E050E0B701685F7F4F50
:10317000CE014D960E942936892B41F6F7018081B8
:103180009181A281B38188169906AA06BB0608F42C
:10319000BDCF84819581A681B78188159905AA053F
:1031A000BB0508F4B3CF89899A89AB89BC89868726
:1031B0009787A08BB18B4EEC50E070E060E0C801C7
:1031C0000E94CD11312CC701829698AB8FA7F701D1
:1031D000B696FAABE9AB08969CAB8BAB67019AE16C
:1031E000C90ED11CBD96FEABEDABC701429698AFA0
:1031F0008FABFD97FAAFE9AF4701FEE18F0E911C4F
:10320000F801818D928D181619060CF080CFC80137
:103210000E94EC118333910509F4B2C014F581309A
:10322000910509F464C044F4892B51F3C8010E944C
:10323000EC11AC01552775C08330910509F462C0CB
:103240000697A1F7C8010E94EC11B82E44E050E0A7
:10325000B401C8010E94CD11EB2DE450FF0BAF016A
:1032600060C08A33910509F45FC084F58533910508
:10327000B1F1C697D9F6C8010E94EC115C01B60104
:10328000CE0189960E948D128BA59CA5ADA5BEA5E9
:10329000892B8A2B8B2BB1F0EDA9FEA940805180A0
:1032A00062807380B601CE0183960E948D128DA13B
:1032B0009EA1AFA1B8A5A501481659066A067B06CE
:1032C00009F0B8CF44E050E0B60118C08B33910547
:1032D00009F440C08F3F910509F492CFA7CFC801F0
:1032E0000E94EC11C8010E94EC11382E89CFC80150
:1032F0000E94EC1144E050E06FA978ADC8010E9433
:10330000CD117ECFC8010E94EC11B82E44E050E0F0
:1033100069AD7AADC8010E94CD118B2D8450990BF7
:10332000AC0170E060E0EACFC8010E94EC1144E01B
:1033300050E069A97AA9C8010E94CD11F70166A1E0
:1033400077A180A591A50E94F43466A377A380A7F6
:1033500091A756CFC8010E94EC1144E050E06BA940
:103360007CA9C8010E94CD11F70162A573A584A5AF
:1033700095A50E94F43462A773A784A795A740CFB0
:10338000C8010E94EC1144E050E06FA578A9C80183
:103390000E94CD11F70162A173A184A195A10E94A1
:1033A000F43462A373A384A395A366A777A780AB25
:1033B00091AB26CF33243A94AACE0F931F93CF9389
:1033C000DF93CDB7DEB728970FB6F894DEBF0FBEF8
:1033D000CDBF8C01CB014AE0BE016F5F7F4F0E94E1
:1033E0002B30BE016F5F7F4FC8010E949E17289649
:1033F0000FB6F894DEBF0FBECDBFDF91CF911F9106
:103400000F9108953F924F925F926F927F928F92A9
:103410009F92AF92BF92CF92DF92EF92FF920F9363
:103420001F93CF93DF93CDB7DEB7A1970FB6F89474
:10343000DEBF0FBECDBF5C010DB71EB719A308A339
:1034400060E070E0CB010E94D102D50191968D9190
:103450009C919297912C029709F498C090968C9128
:1034600090978F5F90968C9390975E962D913C915C
:10347000232B19F09924939482C08330D8F7F50157
:10348000828593850E94CD08882309F43EC38E016E
:103490000F5F1F4F3801D5011A96ED91FC91808185
:1034A0009181DC01ED91FC910084F185E02D09957D
:1034B000181619060CF029C3D5011A96ED91FC9146
:1034C00045E050E0BE01695E7F4F808191810E949E
:1034D0001303009701F3059709F04AC0888D998D71
:1034E000982789279827998F888FEA8CFB8CFE2450
:1034F000EF24FE24FB8EEA8E892BD1F18F89811176
:103500006AC00E940403F501608B718B828B938BE0
:1035100021A132A14A8D5B8D232B09F057C0288D44
:10352000398D2130310509F051C049305105E1F0A4
:10353000483C510519F044305105D1F4D501589655
:103540006D937D938D939C935B97E1E0F0E0929671
:10355000FC93EE939197C5010E94172460E070E000
:10356000CB010E94D10297CF83E090E092A381A388
:10357000D5011A968D919C910E94E008912CD5015D
:1035800090968C919097815090968C93892DE8A17C
:10359000F9A10FB6F894FEBF0FBEEDBFA1960FB60E
:1035A000F894DEBF0FBECDBFDF91CF911F910F9179
:1035B000FF90EF90DF90CF90BF90AF909F908F9053
:1035C0007F906F905F904F903F90089545305105E8
:1035D00009F061CFCDCFF50182859385F1E0EF163B
:1035E000FF0640F0D50192961C921E9291970E9480
:1035F000E00851CF8DB69EB697012F5F3F4FEDB7D4
:10360000FEB7E21BF30B0FB6F894FEBF0FBEEDBF83
:103610000DB71EB70F5F1F4FA701B801DC018D91D9
:103620009C910E9413038E159F0509F05FC0EA8DDF
:10363000FB8DE00FF11F10820E940403F501608BE7
:10364000718B828B938B8F89843109F4ABC0E8F442
:103650008F3009F4A7C0813109F43AC2863009F0ED
:103660004CC2488D598DD12CC12CF12CE12C08EC89
:1036700010E030E020E060E0C5010E94781E0FB647
:10368000F8949EBE0FBE8DBE06CF8932C9F0873337
:10369000B1F38D3109F031C2D50181A192A1892BFD
:1036A00001F7E1E0F0E09296FC93EE939197C5016B
:1036B0000E94172460E070E0CB010E94D102D1CFBC
:1036C00086859785892B39F480E490E00E94142E3A
:1036D000F50197878687EA8CFB8CE00EF11E1A8332
:1036E0000983FC82EB820E151F0530F00FB6F894AB
:1036F0009EBE0FBE8DBE3CCF40E450E0B801D50168
:103700001E968D919C910E945636D5011E96ED9184
:10371000FC9117AEC3010E94F523FC0180819181C9
:1037200000E510E08E159F0560F489819A8100976D
:10373000A9F12B813C818217930780F50E94FB2F12
:103740008B01D5011A968D919C910E94E008D501BC
:103750001A96ED91FC911B971E968D919C911F9747
:10376000918780871387028792961C921E92919769
:103770000E940403DC01CB0188589341A109B109DF
:10378000F501848B958BA68BB78B808B918BA28B4D
:10379000B38B808F918FA28FB38F71CF60E070E079
:1037A000CB01CECF888D998DD5015F969C938E935A
:1037B0005E974A8C5B8C6801C40CD51C1D8F0C8FE6
:1037C000DF8ECE8E0C151D0508F013C1F801E080C8
:1037D000F180CE014C960E94F523DC018D919C91E5
:1037E0008C159D0508F005C18C8D9D8DFC012081F7
:1037F000213459F401960E94DD2F4EE0342E380E0C
:10380000069744F033243A9405C0CE014C960E94AA
:103810000824382EF6E7EF16F2E7FF0609F406C192
:1038200038F531E6E31632E7F30609F4E6C044E67C
:10383000E41642E7F40609F478C050E7E5165DE6C1
:10384000F50609F037C18C8D9D8D8C159D0508F00E
:10385000D0C0FC0120812134A9F501960E94DD2F02
:103860003EE0F32EF80E069794F1FF24FA942FC051
:1038700084E6E81687E7F80609F4A2C096E7E91699
:1038800097E7F90609F4E9C0A1E6EA16A7E7FA0600
:1038900009F010C1CE014C960E94F523DC018D91F8
:1038A0009C918C159D0508F0A4C061E0832D0E94B9
:1038B000FE01CE014C960E940824BC01832D0E947B
:1038C0003A0297C0CE014C960E940824F82ECE01F1
:1038D0004C960E94F5230C8D1D8D64E272E0C801A8
:1038E0000E94463660E0892B79F067E272E0C801F9
:1038F0000E944636892B39F06BE272E0C8010E94C3
:103900004636892B49F461E08F2D0E94FE01CE01DD
:103910004C960E94F52397CF6FE272E0C8010E9497
:103920004636892BA1F762E0EFCF7A8A698A1C8A32
:103930001B8A00E110E01E8B0D8B62E372E0CE016A
:1039400041960E949E17032D10E0B801CE014196CA
:103950000E94DD19F801E45DFD4F8491F801E85EF5
:10396000FD4FF4900C5F1D4FF801049160E070E092
:10397000002389F081110E94A701E02FF0E0EE0FF3
:10398000FF1FE650FE4FA591B491EC91FE2261E03D
:1039900070E009F460E0CE0141960E94DD190B89C8
:1039A0001C890150110929893A89D12CC12CF12C8B
:1039B000E12C50E040E064E1C5010E94781E19C08E
:1039C000CE014C960E94F523DC018D919C918C15C3
:1039D0009D0578F461E0832D0E94FE01CE014C9696
:1039E0000E94082461E0892B09F460E0832D0E9485
:1039F000D001F501178E168E42CE7A8A698A1C8A0A
:103A00001B8AE0E1F0E0FE8BED8B65E372E0CE0116
:103A100041960E949E17632D70E0CE0141960E9450
:103A2000DD19832D0E949702BC01B5CF3982BFE119
:103A3000B315F8F2E32DF0E0EE0FFF1FE05CFD4F51
:103A40002591349121153105A1F2E1E02D383E0791
:103A500081F2C301F9010995CCCFCE014C960E94A9
:103A6000F5238C8D9D8D9C01201B310B421A530A2E
:103A70009A8389835C824B825E824D82398AFFE120
:103A8000F31508F4B6CFE32DF0E0EE0FFF1FE0587A
:103A9000FD4F259134912115310509F4AACF01E09C
:103AA0002C38300709F4A5CFB301CE014196F901B6
:103AB00009959FCFD5015E964D915C91D12CC12C7B
:103AC000F12CE12C02E010E030E020E060E074CF67
:103AD0008A8D9B8D800F911F1A8309839C838B8312
:103AE0000817190708F0CBCDC3010E94F523D501B3
:103AF0005F961C921E925E97C2CDF50112A211A292
:103B0000828593850E94E008BACD0E9404032B01B0
:103B10003C01F501828593850E94CD08D5019196DF
:103B20002D913C912130310509F05EC0F5018111E4
:103B300009C0408E518E628E738E12A211A28285B0
:103B400093851ACD80899189A289B38993018201D5
:103B5000081B190B2A0B3B0BD901C801893116EF41
:103B60009107A105B10548F7893C9F4AA105B10518
:103B700090F484899589A689B78993018201081BED
:103B8000190B2A0B3B0BD901C801893C9F4AA1059F
:103B9000B10508F46FCCF501808D918DA28DB38DA8
:103BA00093018201081B190B2A0B3B0BD901C80199
:103BB00081379741A105B10508F45CCCD12CC12C0B
:103BC000F12CE12C10E000E030E020E050E040E09B
:103BD00066E0C5010E94781ED50158964D925D920F
:103BE0006D927C925B9746CC232B09F043CCF50178
:103BF000408D518D628D738D93018201041B150BD5
:103C0000260B370BB901A801882381F041375741B2
:103C10006105710508F42ECC828593850E94E00829
:103C2000D50192961C921E929197A8CC4938534187
:103C30006105710508F41ECC828593850E94E00819
:103C4000D5011A960D911C91F80162857385C80102
:103C50000E948608D8011C968C931C9781110DC078
:103C60001A968D919C918035910599F460E97FE1D8
:103C7000C8010E948608F8018487F8019484911095
:103C800014C0D50158964D925D926D927C925B97CF
:103C900076CC80399F4189F760E570E0C8010E94C9
:103CA0008608D8011C968C93E8CF81E090E0F5015E
:103CB000958F848F24853585F90101900020E9F7DF
:103CC00031978F01021B130BD12CC12CF12CE12C4D
:103CD00041E050E06DE1C5010E94781EF501848944
:103CE0009589A689B789808F918FA28FB38F47CC92
:103CF0002F923F924F925F926F927F928F929F92FC
:103D0000AF92BF92CF92DF92EF92FF920F931F93E9
:103D1000CF93DF93CDB7DEB7C854D1090FB6F8946F
:103D2000DEBF0FBECDBF4C0168AF5AAF49AF27967B
:103D30003FAF2EAF279721961FAF0EAF2197299641
:103D4000FFAEEEAE29972396DFAECEAE2397DC0111
:103D50001A968D919C910E94CD08882309F4BBC1CD
:103D6000B8ADBB2351F0B63041F0BD3131F0F401B4
:103D700081A192A1019709F0AEC188AD8F50863024
:103D8000A0F5D40154964D915D916D917C9157971A
:103D90005096CD90DD90ED90FC905397C416D506CB
:103DA000E606F70610F46A017B01B2E4CB0ED11CE3
:103DB000E11CF11C0E940403A7019601261B370B8E
:103DC000480B590BDA01C901B7FDAAC0C4010E9412
:103DD000021A0E940403A7019601261B370B480B09
:103DE000590BDA01C901B7FFF1CFF401808191814C
:103DF000019709F0B7C082E090E09183808322812F
:103E00003381448155816681778180859185A0E0E9
:103E1000FE017A960E945A3509F477C1FBABEAABF2
:103E20001DAA1CAA88E190E09FAB8EAB62E272E013
:103E3000CE01C2960E949E17D40112964C90129702
:103E400013965C90139714966C90149715967C902B
:103E500015971696BC91BBAFF401F781FCAFD40166
:103E600018962C90189719963C90198E9201A301E0
:103E70006BAD7F2FC101A0E00E945A3509F459C0F3
:103E8000FE0179962596FFAFEEAF259727E130E04A
:103E90003EAF2DAF8AE0A82EB12CC12CD12CE12C45
:103EA000F12C00E010E09201A3016BAD7CADC101EB
:103EB0000E94FB34F901E65CFD4F80812596AEAD92
:103EC000BFAD25978E932596BFAFAEAF2597EDADCD
:103ED000FEAD3197FEAFEDAF9AE0A92EB12CC12C0B
:103EE000D12CE12CF12C00E010E09201A3016BAD8C
:103EF0007CADC1010E94FD3429013A016BAF7CAF5A
:103F00001C01A0E00E945A3521F04DAD5EAD452B5D
:103F100009F66DAD7EAD6C0F7D1F6E5F7F4F0EC0DD
:103F2000D40190968C91811160CFC4010E94021A35
:103F30005CCF80E3888FBE01685E7F4FCE01C29662
:103F40000E94C6170CA91DA9015011092AA93BA955
:103F5000D12CC12CF12CE12C50E040E065E1C401F2
:103F60000E94781E29AD3AAD232BB9F4D4015E9698
:103F70000D90BC91A02DBAAFA9AFAB2B71F4F40199
:103F8000848D958D019609F4D5C0958F848FF401A9
:103F9000048CF58DE02DFAAFE9AF27962EAD3FAD3D
:103FA000279721960EAD1FAD21970B5F1F4F232B37
:103FB00011F405E010E029964EAD5FAD299790E031
:103FC00080E0452B21F023968EAD9FAD2397080FFF
:103FD000191F58AD598389AD9AAD9827892798271D
:103FE0009B838A8321968EAD9FAD21972396AEAD9C
:103FF000BFAD23978A0F9B1F9827892798279D83FA
:104000008C83D4011A96ED91FC9180819181DC0121
:10401000ED91FC910280F381E02D45E050E0BE017E
:104020006F5F7F4F09957C0160E070E0CB010E94DB
:10403000D102B8ADBB2309F444C02196EEADFFAD6B
:104040002197EF2BE1F0D4011A96ED91FC9180813C
:104050009181DC01ED91FC910280F381E02D2196AC
:104060004EAD5FAD219727966EAD7FAD2797099531
:10407000E80EF91E60E070E0CB010E94D1022396A9
:10408000EEADFFAD2397EF2BE1F0D4011A96ED9141
:10409000FC9180819181DC01ED91FC910280F381A2
:1040A000E02D23964EAD5FAD239729966EAD7FAD83
:1040B00029970995E80EF91E60E070E0CB010E9497
:1040C000D102E016F106D9F1F40112A211A2828503
:1040D00093850E94E008C85BDF4F0FB6F894DEBFFF
:1040E0000FBECDBFDF91CF911F910F91FF90EF9049
:1040F000DF90CF90BF90AF909F908F907F906F9008
:104100005F904F903F902F900895FA83E9831C822F
:104110001B8284E090E09E838D8368E372E0CE0191
:1041200001960E949E170B811C8101501109298163
:104130003A810ECF81E090E0958F848F28CF0E9446
:104140000403D40154966D937D938D939C9357975C
:10415000C2CFCF92DF92EF92FF920F931F93CF9334
:10416000DF93CDB7DEB7C658D1090FB6F894DEBFDE
:104170000FBECDBF8C01CE010196CF57DF4F998383
:104180008883C158D040CD57DF4F19821882C35859
:10419000D04080E890E0CB57DF4F99838883C558A3
:1041A000D0406EE572E0CE018F579F4F0E949E1760
:1041B00066E070E0CE018F579F4F0E94DD19B80175
:1041C000CE018F579F4F0E94C617CD57DF4F0881F2
:1041D0001981C358D04001501109CF57DF4F2881B2
:1041E0003981C158D040D12CC12CF12CE12C50E0A8
:1041F00040E064E186E096E00E94781ECA57DF4FF7
:104200000FB6F894DEBF0FBECDBFDF91CF911F91E7
:104210000F91FF90EF90DF90CF900895CF92DF92B3
:10422000EF92FF920F931F93CF93DF93CDB7DEB73B
:10423000C658D1090FB6F894DEBF0FBECDBF7C01C2
:104240008B01CE010196CF57DF4F99838883C158E8
:10425000D040CD57DF4F19821882C358D04080E834
:1042600090E0CB57DF4F99838883C558D0406EE5E7
:1042700072E0CE018F579F4F0E949E17B701CE016B
:104280008F579F4F0E94DD19B801CE018F579F4F66
:104290000E94DD19CD57DF4F08811981C358D040E6
:1042A00001501109CF57DF4F28813981C158D040C3
:1042B000D12CC12CF12CE12C50E040E064E186E0EF
:1042C00096E00E94781ECA57DF4F0FB6F894DEBF03
:1042D0000FBECDBFDF91CF911F910F91FF90EF9057
:1042E000DF90CF9008958F929F92AF92BF92CF921E
:1042F000DF92EF92FF920F931F93CF93DF93CDB78F
:10430000DEB7C75AD1090FB6F894DEBF0FBECDBFD6
:104310000E9437086B017C01CE0101964C01CE55FD
:10432000DF4F99838883C25AD040CC55DF4F198222
:104330001882C45AD04020E8A22EB12CCA55DF4FB3
:10434000B982A882C65AD0406EE572E08F559F4F61
:104350000E949E176EE070E0CE018E559F4F0E9426
:10436000DD198E010F571F4F23E045E0C701B6014D
:104370000E94F62DB801CE018E559F4F0E949E17C8
:10438000CC55DF4F08811981C45AD0400150110922
:10439000CE55DF4F28813981C25AD040D12CC12C53
:1043A000F12CE12C50E040E064E186E096E00E94D0
:1043B000781E0E9463088C01CE55DF4F9982888257
:1043C000C25AD040CC55DF4F19821882C45AD0400F
:1043D000CA55DF4FB982A882C65AD0406EE572E056
:1043E000CE018E559F4F0E949E1763E070E0CE0174
:1043F0008E559F4F0E94DD194AE0BE016F577F4FD7
:10440000C8010E945330BE016F577F4FCE018E55B9
:104410009F4F0E949E17CC55DF4F08811981C45AC7
:10442000D04001501109CE55DF4F28813981C25A41
:10443000D04050E040E064E186E096E00E94781EC3
:10444000C955DF4F0FB6F894DEBF0FBECDBFDF9169
:10445000CF911F910F91FF90EF90DF90CF90BF9081
:10446000AF909F908F9008951F920F920FB60F926A
:1044700011242F933F938F939F93AF93BF9380917A
:104480003E0490913F04A0914004B09141043091CA
:104490003D0423E0230F2D3758F50196A11DB11DD2
:1044A00020933D0480933E0490933F04A0934004E6
:1044B000B09341048091420490914304A09144043C
:1044C000B09145040196A11DB11D809342049093C3
:1044D0004304A0934404B0934504BF91AF919F91CE
:1044E0008F913F912F910F900FBE0F901F901895B5
:1044F00026E8230F0296A11DB11DD2CF1F920F9265
:104500000FB60F9211242F933F934F935F936F93A6
:104510007F938F939F93AF93BF93EF93FF9383E624
:1045200094E00E94E103FF91EF91BF91AF919F91C1
:104530008F917F916F915F914F913F912F910F904C
:104540000FBE0F901F9018951F920F920FB60F92EB
:1045500011242F938F939F93EF93FF93E091730414
:10456000F09174048081E0917904F0917A0482FDE5
:104570001BC0908180917C048F5F8F7320917D049C
:10458000821741F0E0917C04F0E0ED59FB4F958FEC
:1045900080937C04FF91EF919F918F912F910F90C9
:1045A0000FBE0F901F9018958081F4CF1F920F922D
:1045B0000FB60F9211242F933F934F935F936F93F6
:1045C0007F938F939F93AF93BF93EF93FF938091CC
:1045D000B900887F803609F44AC0F0F5883209F4C2
:1045E000A7C018F5803109F49BC0B8F4882309F4FA
:1045F000F9C0883009F494C0FF91EF91BF91AF9159
:104600009F918F917F916F915F914F913F912F91EA
:104610000F900FBE0F901F901895883109F488C035
:10462000803251F78093990314C0803409F49DC0FF
:1046300040F48033B9F38833F9F68093990385EC1D
:10464000B0C0803509F485C0883509F496C0883437
:1046500099F60E940618D0CF883909F48CC038F535
:10466000883729F050F4883611F0803729F683E036
:1046700080939B031092740357C0883809F47BC061
:10468000803919F0803809F0B7CF809174038032F7
:1046900008F071C0E091740381E08E0F8093740381
:1046A0008091BB00F0E0EC5AFC4F80833DC0803B22
:1046B00039F0E0F4803A09F479C0883A09F09CCFE7
:1046C00084E080939B031092530310925203E09175
:1046D000C503F091C60309958091520381110FC063
:1046E00081E0809352031092320309C0803C09F4A8
:1046F000A6CF883C09F4A3CF883B09F07DCFE09199
:10470000530381E08E0F80935303F0E0EE5CFC4F87
:1047100080818093BB00909153038091520329C004
:10472000809176038093BB0085EC8093BC0064CFBE
:104730009091980380919703981758F5E09198030A
:1047400081E08E0F80939803F0E0E958FC4F808160
:10475000E9CFE091980381E08E0F809398038091D8
:10476000BB00F0E0E958FC4F808390919803809162
:1047700097039817C8F285E8D8CFE091980381E0B5
:104780008E0F809398038091BB00F0E0E958FC4FB6
:10479000808380919A0381115CCF81E080937503BF
:1047A00084EA8093BC0010929B0326CF85EC809313
:1047B000BC0010929B0380917403803230F4E0912E
:1047C0007403F0E0EC5AFC4F10826091740370E0C7
:1047D000E091C303F091C40384E593E0099510923E
:1047E00074030ACF1092990334CFDC01ED91FC9150
:1047F0001197309761F012962D913C911397E21723
:10480000F30728F401900020E9F7ED93FC93089555
:10481000FC0180819181009739F0228133818217D8
:10482000930710F40C94DD2F90E080E00895AF9290
:10483000BF92CF92DF92EF92FF920F931F93CF938D
:10484000DF93CDB7DEB7C05CD1090FB6F894DEBFF9
:104850000FBECDBF5C01CE0185589F4FC554DF4FC1
:1048600099838883CB5BD040C354DF4F1982188271
:10487000CD5BD04080E490E0C154DF4F99838883C2
:10488000CF5BD0406BE472E0CE0185549F4F0E9415
:104890009E1760E572E0CE0185549F4F0E94C617B7
:1048A0004AE750E06AE671E0CE0101960E942230AC
:1048B000C354DF4FC880D980CD5BD040C554DF4F93
:1048C000E880F980CB5BD0400AE710E09E012F5FC3
:1048D0003F4F50E040E061E1C5010E94781EC054A6
:1048E000DF4F0FB6F894DEBF0FBECDBFDF91CF9183
:1048F0001F910F91FF90EF90DF90CF90BF90AF90FE
:104900000895109266041092650488EE93E0A0E08A
:10491000B0E08093670490936804A0936904B09317
:104920006A0429E631E0309364042093630425ECA3
:1049300030E03093700420936F0424EC30E0309327
:1049400072042093710420EC30E0309374042093BF
:10495000730421EC30E0309376042093750422EC4C
:1049600030E0309378042093770426EC30E03093E5
:104970007A042093790410927C0410927D041092A2
:104980007E0410927F04109203051092020580931A
:10499000040590930505A0930605B09307058BE7E2
:1049A00091E090930105809300058BEC91E090934A
:1049B0000D0580930C0510920E0510920F051092B4
:1049C0001005109211059093130580931205109213
:1049D0001405109215051092160510921705909364
:1049E00019058093180510921A0510921B05109254
:1049F0001C0510921D0590931F0580931E051092B3
:104A00002005109221051092220510922305909303
:104A100025058093240510922605109227051092F3
:104A20002805109229059093310580933005109246
:104A3000320510923305109234051092350590938B
:104A40002B0580932A0510922C0510922D051092AB
:104A50002E0510922F0590933705809336051092FE
:104A600038051092390510923A0510923B05909343
:104A70003D0580933C0510923E0510923F05109233
:104A800040051092410590934C0680934B0610927E
:104A90004D0610924E0610924F061092500610923C
:104AA0003F0610923E0629E931E030933D062093FF
:104AB0003C0624E02093480628EE33E030934A0673
:104AC0002093490690933206809331061092330664
:104AD000109234061092350610923606109238065F
:104AE0001092370610923A061092390610923B0641
:104AF0008CE396E09093300680932F0680E797E151
:104B0000A0E0B0E08093400690934106A093420657
:104B1000B0934306109207061092060610920806FC
:104B20001092090610920A0610920B0610920C06BB
:104B300010920D0610920E0610920F068FE296E06C
:104B4000909311068093100610921306109212068D
:104B5000109215061092140610921606109217065F
:104B6000109218061092190610921A0610921B063F
:104B700010921C0610921D0610921E0610921F061F
:104B800010922006109221061092230610922206FF
:104B900010922506109224061092260610922806DE
:104BA000109227068FEF9FEF9093050680930406DF
:104BB00010924B0510924A058DE891E090934905BB
:104BC0008093480587E280934C0580E180935105EE
:104BD00082E0809352051092530510924305109283
:104BE0004205109245051092440510924705109217
:104BF000460570E060E082E495E00E94DE172091B7
:104C0000420530914305811113C02115310519F07A
:104C1000C9010E94B02E10924305109242051092D5
:104C200047051092460510924505109244050895D7
:104C300010924705109246056FE073E0C9010C948D
:104C40004F36CF93DF93CDB7DEB7AD970FB6F8945D
:104C5000DEBF0FBECDBF789484B5826084BD84B5BD
:104C6000816084BD85B5826085BD85B5816085BD67
:104C700080916E00816080936E001092810080911F
:104C800081008260809381008091810081608093A7
:104C90008100809180008160809380008091B100CC
:104CA00084608093B1008091B00081608093B000F7
:104CB00080917A00846080937A0080917A0082608B
:104CC00080937A0080917A00816080937A0080914D
:104CD0007A00806880937A001092C10061E083E0DE
:104CE0000E94FE011092CA031092C9031092C803D9
:104CF0001092C7030E949C0480E193E09093C60346
:104D00008093C50381E193E09093C4038093C30330
:104D100010924D0580915205823018F098E09093E2
:104D20004D058093500562E370E080E090E00E94C2
:104D3000D1026091530588E495E00E94600568EE19
:104D400073E080E090E00E94D10260E388E495E0A7
:104D50000E940C090BE416E4C8010197F1F760E327
:104D600088E495E00E940C09C8010197F1F760E31F
:104D700088E495E00E940C0983E592E00197F1F741
:104D800060E288E495E00E940C0960914D05606244
:104D900040E088E495E00E94250984E080934E0578
:104DA00040E06CE088E495E00E94250940E061E085
:104DB00088E495E00E9425090BE31FE1C8010197F3
:104DC000F1F782E080934F0540E066E088E495E0EB
:104DD0000E94250940E062E088E495E00E942509F0
:104DE000C8010197F1F788E08093530560E088E4FB
:104DF00095E00E94600540E061E088E495E00E9453
:104E00002509C8010197F1F740E062E088E495E0E8
:104E10000E942509C8010197F1F760E080E00E9437
:104E20003C0981E692E00E94180A61E080E00E945D
:104E30003C0984E692E00E94180A8EEF80932906CE
:104E40009DEE90932A062AEB20932B0680932C0646
:104E500080932D0690932E0620E031E0D9010D902D
:104E60000020E9F79D0121503140A0E0B1E0E1E0F0
:104E7000F0E0AD01405051404217530784F4AF01B8
:104E80004F5F5F4F6D91EA5FF94F83A1862783A340
:104E90004630510514F041E050E0FA01EACF80912C
:104EA000310481112AC0109219041092180488EE5E
:104EB00093E0A0E0B0E080931A0490931B04A093C9
:104EC0001C04B0931D048FE391E09093170480932A
:104ED00016048BEC91E090932504809324041092A7
:104EE000260410922704109228041092290484E0CA
:104EF00080932E0481E08093310483ED93E09093BE
:104F0000D2038093D1038091D0038111ADC060E3BF
:104F100072E080E090E00E94D102DFB6F8940EE0EB
:104F200012E0E2E2EE2EE2E0FE2E8091CE0381114D
:104F300025C0F8018491F7019491E82FF0E0EE0F7D
:104F4000FF1FEA51FE4FA591B4918C91982321F453
:104F500061E08AE00E94D00161E08AE00E94FE01E7
:104F60008CB580618CBD8CB580648CBD61E08DE0BA
:104F70000E94FE0161E08BE00E94FE018091CE0361
:104F80008F5F8093CE03DFBEF8010491E02FF0E045
:104F9000EE0FFF1FE051FE4F859194919093CD034A
:104FA0008093CC03F701E490E092CB0361E08AE0C8
:104FB0000E94FE010E94610680E591E00E948E0140
:104FC00084E38093620480E80E942D070E94370CDE
:104FD000882309F4FDC188E00E942D070E94240C5B
:104FE000883009F0F5C180E10E942D070E94240C51
:104FF000803109F0EDC180E00E942D070E94240C51
:10500000182F8111E5C141E050E0BE016F5F7F4F75
:105010008FE190E00E94AF0A8981833009F0D8C106
:1050200080E48093CF0342E06EE170E0812F0E9424
:10503000890742E06FE170E0812F0E9489071F5FBE
:10504000143089F740E06EE170E0812F0E948907FB
:1050500040E06FE170E0812F0E9489071F5F1830E8
:1050600089F781E08093D00380E591E00E948E0172
:1050700046E050E069E276E089E090E00E947D063B
:105080008BEC91E09A8389831B821C821D821E8295
:1050900044E050E0BE016D5F7F4F8FE090E00E94E2
:1050A0007D060091D1031091D203D80192961D92F2
:1050B0001D921D921C929597F80116A217A210A698
:1050C00011A69A961D921D921D921C929D9780E6A4
:1050D0009AEEA0E0B0E086AB97ABA0AFB1AF80EAAC
:1050E0009FE0A0E0B0E082AF93AFA4AFB5AFD8012E
:1050F000189686E0FD01282F11922A95E9F798016C
:10510000225F3F4F94E1F90111929A95E9F7E9E2A4
:10511000F6E001900D928A95E1F72C5C3F4F3BA79A
:105120002AA7D9011C920E94852F2FEC37E040E07E
:1051300050E00E94D333DC01CB010196A11DB11DCB
:10514000F80184839583A683B78380839183A283A8
:10515000B3835801F3E4AF0EB11CC5010E947F0B6D
:1051600064E470E0C5010E94E80E882309F499C147
:105170000E9404032B013C0143E0242E58EEC52E6F
:1051800053E0D52EE12CF12C912C812CAAA5BBA5A6
:105190008C918330B9F181118EC1F80184819581A0
:1051A000A681B7810196A11DB11D84839583A68335
:1051B000B7830E9404036419750986099709A7013A
:1051C00096010E943C34A90161E0C8010E9490163A
:1051D00081E0AAA5BBA58C93F1E08F169104B1F2F2
:1051E0000E9404036419750986099709D801D696A7
:1051F0002D913D914D915C91D9972617370748071E
:10520000590710F6C5010E947F0BF8018481958132
:10521000A681B7810196A11DB11D84839583A683C4
:10522000B7830E940403F801FE9660837183828332
:1052300093838A94892809F034C180E591E00E9423
:105240008E010091D1031091D203B801625F7F4FAC
:10525000CE0101960E948D1244E050E0BE016D5FC8
:105260007F4F8FE090E00E947D06B8016A5E7F4F1D
:10527000CE0101960E948D1244E050E0BE016D5FA8
:105280007F4F81E090E00E947D06B8016E5E7F4F07
:10529000CE0101960E948D1244E050E0BE016D5F88
:1052A0007F4F85E090E00E947D06B801625E7F4FEF
:1052B000CE0101960E948D128B819C81AD81BE81B1
:1052C00080932C0590932D05A0932E05B0932F0568
:1052D0000E94AC027F738091210190912201682786
:1052E0007927709322016093210168EE73E080E0DA
:1052F00090E00E94D1028BEC91E09A8389831B821B
:105300001C821D821E8280E591E00E948E0144E095
:1053100050E0BE016D5F7F4F8FE090E00E94AF0ACA
:1053200080E091E090931306809312060E9404039C
:10533000DC01CB0188589341A109B10980931A0679
:1053400090931B06A0931C06B0931D06809316062F
:1053500090931706A0931806B093190680931E0623
:1053600090931F06A0932006B0932106E0911006AB
:10537000F091110687E692E09187808780E590E0C2
:105380009387828780911006909111060E94E00811
:1053900010922806109227060E9404034B015C011C
:1053A0008091270690912806019709F451C10E9427
:1053B0000403681979098A099B09603576448105D7
:1053C000910508F045C186E096E00E94021AE8CFF8
:1053D00087E38093620480E80E942D070E94370CC7
:1053E000882329F188E00E942D070E94240C883030
:1053F000F1F480E10E942D070E94240C182F8031C7
:10540000B1F480E00E942D070E94240C81110FC08E
:1054100041E050E0BE016F5F7F4F89E390E00E9462
:10542000AF0A8981843019F41093CF031ACE83E335
:105430008093620480E80E942D070E94370C882325
:1054400071F180E10E942D070E94240C803139F512
:1054500082E10E942D070E94240C823101F580E038
:105460000E942D070E94240C811119C084E08093B2
:10547000CF0315E519A741E050E0BE01675D7F4FFE
:105480008BE190E00E947D0618A741E050E0BE014C
:10549000685D7F4F8AE190E00E947D06E2CD109228
:1054A000620460E177E280E090E00E94D102F0E0E7
:1054B000E0E00995FFCF843001F5F8018481958102
:1054C000A681B7810196A11DB11D84839583A68312
:1054D000B7830E9404036419750986099709A70117
:1054E00096010E943C34A90163E0C8010E94901615
:1054F000E2E0AAA5BBA5EC936FCE813069F5D80197
:10550000DA964D915D916D917C91DD979E012F5FB3
:105510003F4FC8010E943E18382EB2E08B1391C055
:1055200089819A81AB81BC81F80184839583A683AC
:10553000B7830E9404036419750986099709A701B6
:1055400096010E943C34A90163E0C8010E949016B4
:10555000AAA5BBA53C9240CE823009F03DCEF80111
:1055600042AD53AD64AD75AD9E012F5F3F4FC80195
:105570000E943E18382EF5E08F135CC0AAA5BBA58B
:105580002C92F80182A193A1A4A1B5A1892B8A2B09
:105590008B2B41F484E893E0A0E0B0E082A393A3D6
:1055A000A4A3B5A3F80186A197A1A0A5B1A5892BB5
:1055B0008A2B8B2B61F482A193A1A4A1B5A1B695EE
:1055C000A7959795879586A397A3A0A7B1A7F8015C
:1055D00082A593A5A4A5B5A5892B8A2B8B2BA9F40D
:1055E00082A193A1A4A1B5A1AC01BD0123E0769550
:1055F0006795579547952A95D1F7841B950BA60B70
:10560000B70B82A793A7A4A7B5A7F80186A197A176
:10561000A0A5B1A586A797A7A0ABB1AB82A593A57E
:10562000A4A5B5A582AB93ABA4ABB5AB88248394FA
:10563000912CD2CDF6E08F1304C0AAA5BBA51C9275
:10564000CBCDBFEF3B12C8CDEAA5FBA51082C4CDE0
:105650008091270690912806019709F093CE61E08A
:1056600085E00E94FE0161E084E00E94FE0160E0AE
:1056700085E00E94D00160E084E00E94D001E091CA
:105680007304F091740482E08083E0916F04F091E0
:1056900070041082E0917104F091720487E68083B7
:1056A00010927B04E0917704F091780486E0808387
:1056B000E0917504F0917604808180618083E091AF
:1056C0007504F0917604808188608083E091750490
:1056D000F0917604808180688083E0917504F09178
:1056E000760480818F7D80838FEF90E00E9450044C
:1056F0008FEF90E00E9450048FEF90E00E945004E2
:10570000809104069091050697FF22C00E94040331
:10571000E4E5F5E050E040E026E1249FD001259F3C
:10572000B00D11248D010C5A1A4FD801322F1D9241
:105730003A95E9F760837183828393834F5F5F4F6C
:1057400076964830510549F71092050610920406E6
:1057500080910406909105060897CCF5E4E5F5E004
:1057600090E080E024813581232B09F0EDC1268172
:105770003781232B09F0E8C126E1289F8001299F6A
:10578000100D11240C5A1A4F84EF91E0A0E0B0E004
:10579000F80183879487A587B68783E791E295838D
:1057A00084831286108A178681E0838B0E9404030B
:1057B000D8016D937D938D939C93139780910406EC
:1057C000909105060196909305068093040661E08A
:1057D00080E00E94FE0122242394312CCC24CA9420
:1057E00033E0D32E86E096E00E94021A0E94040362
:1057F0006AA77BA78CA79DA794E5E92E95E0F92ED3
:105800008701F801158A148A84819581892B21F4F6
:1058100086819781892BA9F1D8014D905D906D907B
:105820007C9013976AA57BA58CA59DA56419750925
:10583000860997091B968D909D90AD90BC901E9700
:10584000681579058A059B05E0F0A50194010E9481
:105850003C34C501B4010E94E434460E571E681E54
:10586000791EF80140825182628273828389882383
:1058700041F0278530892115310509F06CC1358A41
:10588000248A0A5E1F4FF6E004301F0709F0B9CFE3
:1058900010E000E0D70154968D919C915597892B8B
:1058A000E9F11A968C911A97882309F46BC1169620
:1058B000ED91FC91179718968D919C910995F701A0
:1058C00084899589029751F5809104069091050687
:1058D000892B21F184819581892B21F486819781FF
:1058E000892BE1F026E1209FF001219FF00D11248A
:1058F000EC5AFA4FDF011D922A95E9F70E94040342
:10590000F701608371838283938380910406909171
:105910000506019790930506809304060F5F1F4FBD
:10592000F6E1EF0EF11C0830110509F0B3CF8FE05E
:105930000E949702B601681B790B7695679576955C
:10594000679583E00E943A0264E670E080E090E0B0
:105950000E94D1020E9437081BA21AA21DA21CA2FB
:105960001FA21EA28E010F5F1F4F22E044E00E9483
:10597000F62D7C01009709F411C1FC010190002073
:10598000E9F731978F01081B190BB801CE018296F8
:105990000E94DE172AA13BA18111F9C02115310512
:1059A00019F0C9010E94B02E1BA21AA21FA21EA2AA
:1059B0001DA21CA28091420590914305009709F415
:1059C000F5C06AA17BA16115710509F4EDC0409194
:1059D0004405509145052EA13FA14217530708F4F5
:1059E000E3C00E944F368EA19FA1909347058093FC
:1059F00046051FA21EA28AA19BA1009711F00E943A
:105A0000B02E60E082E00E943C0940914605509132
:105A10004705609142057091430588E495E00E9436
:105A200063030E9463088C0190933C0480933B04C1
:105A300061E082E00E943C09A80170E060E02AE099
:105A400088E495E00E9475090E94370820E030E064
:105A50004CE052E40E94DF341816F4F480913904CB
:105A60008823D1F060E085E00E94D00160E087E00B
:105A70000E943C0983E792E00E94180A8CE792E0BA
:105A80000E94A92088E992E00E94A92070E060E0CD
:105A900082E090E00E940E2180913B0490913C04B2
:105AA000803D9740F8F480913A0481111BC00E9418
:105AB0005B0881E080933A0461E087E00E943C0942
:105AC00081EE91E00E94180A82EB92E00E94A920E8
:105AD00089EC92E00E94A92061E070E084E090E00F
